:020000040800F2
:10000000F0FF00104D8C04087FDA030831DD010891
:10001000518D0408518D0408518D04080000000022
:1000200000000000000000000000000085DA030866
:1000300083DA03080000000081DA0308CDAE00086F
:10004000518D0408518D0408518D0408518D040808
:10005000518D0408518D040889B60008B5B7000811
:1000600079B700083DB7000801B7000891E900081A
:1000700081E9000871E9000861E900084DE900081C
:1000800039E9000825E90008518D0408518D04085C
:10009000518D0408518D0408518D0408C5B600081F
:1000A000219E0008ADA30008518D040831A5000869
:1000B000EDA200082DA2000861A100086912010844
:1000C000711201085912010861120108518D0408CA
:1000D000518D040839B00008518D04089DAF000807
:1000E0004DB60008518D040825260408519D0008CE
:1000F000F19E0008518D0408C19F000811E9000815
:10010000518D0408518D040891A00008518D0408F8
:10011000518D0408518D0408997703087D770308F1
:10012000FDE80008E9E80008D5E80008C1E8000893
:10013000ADE80008518D0408518D0408518D040864
:10014000518D0408518D0408518D040861F903088C
:1001500099E8000885E8000871E8000801AF000888
:100160004912010851120108518D0408518D0408EB
:10017000518D0408518D0408518D0408518D0408D7
:08018000518D0408518D0408A3
:08018800F487040001000000EF
:1001900010020100082C0020042C002000000000A8
:1001A000E00600080E20EA008E3D0020C845002031
:1001B00000000000E9A20208130004001042002021
:1001C000B446002000000000E4060008010104001D
:1001D0000E3D0020B8460020000000000000000096
:1001E00000010400063D0020BC4600200000000085
:1001F000E806000802010300013D0020C04600207F
:1002000000000000C9600308090201006C450020DD
:10021000C446002000000000EC0600080C1060003E
:100220009E3E0020C84600200000000049600308F0
:1002300001020500163D00202847002000000000B4
:10024000051C010800020500102E00203047002088
:1002500000000000000000001E0004000C40002010
:100260003847002000000000EE06000822000C00C5
:10027000684400203C47002000000000F20600080F
:100280001B00F400842C00204847002000000000E0
:10029000ED2501080E020200C84300203C48002062
:1002A00000000000FE0600082F0011009D45002000
:1002B000404800200000000000070008051006006C
:1002C000123F0020544800200000000012070008E0
:1002D000F5216E000C2C00205C480020000000007E
:1002E000AF13010826000E00DC480020CC48002097
:1002F000000000008513010803123300775E002020
:10030000445E0020000000001807000825005A0085
:10031000705D0020CA5D00200000000000000000A9
:10032000F6110C00005D0020F45C002000000000CD
:100330004C07000815007000145C0020845C00204D
:1003400000000000000000002A006000545B002054
:10035000B45B0020000000007DA202082C00100009
:10036000245E0020345E0020000000008D2F020873
:100370002B002400CE5E0020AA5E002000000000BA
:100380005D2F020829006400745A00200C5D0020D3
:10039000000000000000000004120200D8590020F4
:1003A000385F002000000000580700080F0201001D
:1003B000D45900203C5F0020000000005A070008CC
:1003C0001400020058590020515B0020000000007A
:1003D0005C0700081010020050590020405F002008
:1003E000000000005E0700082800100040590020AF
:1003F000445F002000000000A51102082300100047
:100400006C520020545F002000000000C11102085F
:100410001900050038590020645F0020000000002A
:1004200060070008F8210600225600206C5F0020BB
:1004300000000000660700081D000100746700202E
:10044000BC690020000000006C07000827000400C1
:10045000A0670020C0690020000000006E070008AF
:1004600003000100B0690020C46900200000000002
:1004700000000000012008000C670020C86900206F
:1004800000000000720700081A000A00EC66002055
:10049000D0690020000000007A070008160008005C
:1004A00094700020E47E0020000000008407000813
:1004B00007020200BC7E00200C7F0020000000002C
:1004C0008C07000802000C009C700020107F0020A8
:1004D000000000000000000006020C00947E0020D6
:1004E0001C7F002000000000496803080802090082
:1004F0001C7E0020287F00200000000045610308CA
:10050000F7010600107E0020347F0020000000006C
:100510008E0700080A020A00806F00203C7F00203E
:1005200000000000940700080B201000388900200C
:10053000B88D0020000000009E0700081F101C005E
:10054000C0880020C88D002000000000AE07000811
:1005500005020100D88A0020E48D00200000000080
:10056000CA07000803010A00EA880020E88D00207D
:1005700000000000CC07000804008000C4C7002071
:1005800000D100200000000000000000F90104007C
:1005900088BC002080D1002000000000B583000846
:1005A000FD01240060BC002084D100200000000078
:1005B00045830008061016007CAF0020A8D100205B
:1005C0000000000019A30208FB010100B8AE0020E2
:1005D000C0D100200000000009610308FC010900EF
:1005E00084AD0020C4D10020000000001161030888
:1005F0000A101E004CAD0020D0D1002000000000E9
:10060000D607000834001000F0A30020F0D100202D
:1006100000000000A5A2020811020800C8A30020E3
:1006200000D2002000000000F407000812120400AD
:10063000C0A3002008D2002000000000FC07000832
:1006400012200D00ACA300200CD2002000000000FE
:100650000008000811000C00389800201CD200206F
:10066000000000008F610308FF0108009897002038
:1006700028D2002000000000316B030818202C0055
:100680003897002030D2002000000000814402088A
:100690000D003400649700205CD2002000000000B0
:1006A0006568030802020300108E002090D200202B
:1006B00000000000000000000C020100008E00207D
:1006C00094D20020000000000E080008FE0109007E
:1006D000C48F002098D20020000000007161030840
:1006E0000000000008000400900100002800000045
:1006F0000100C800141E010064002C012800000045
:1007000000000000000000000000000000000000E9
:1007100000002000020100000000000000000000B6
:1007200000000000000000000000000000000000C9
:1007300000000000000000000000000000000000B9
:1007400000000000000000000000010000000000A8
:100750000000000000000000111800000300000568
:100760000000280100000401F4011900000020032A
:100770000000E8036400040A00017E05EA05B405F0
:1007800032000000C409000019012828023C24019D
:100790000000000000004A01B400D60100002B2137
:1007A000231E64010100000001000A01290000006D
:1007B000000000000100000005000001020300002D
:1007C0000000000000000000000000000401010023
:1007D0006C160000000000300100005A000000000C
:1007E000000090012C01C80064000200000000001D
:1007F000000000000000000001010101FFFFFFFFF9
:0F080000000000010000054F42534400000001BA
:10080F00010000005001000007000000020000007E
:10081F0000000000000000000102030406070809A1
:10082F0000000100E0010000FFFFFFFF01010100D8
:10083F00FD1F010800000000A4010020BCE2040815
:10084F000000000000000000000000000000000099
:10085F0010E4040800000000000000004202002025
:10086F000400000068E204080D000000894D010833
:10087F00581B00200000000014DC04080D000000CD
:10088F00B14D01084C1B00200000000070DD040872
:10089F000800000000000000401B002004000000C2
:1008AF0074DC04080D000000B1200108341B002087
:1008BF000000000024DD04080300000041270108A8
:1008CF00281B002000000000CCE2040803000000F9
:1008DF00412701081C1B00200000000028D9040834
:1008EF0001000000000000000000000000000000F8
:1008FF00000000000E0000000000000000000000DB
:10090F0000000000BCE2040800000000000000002E
:10091F00000000000000000010E4040800000000C8
:10092F0000000000420200200400000014E204084E
:10093F000300000071280108101B002008000000B0
:10094F0074DC04080D000000B1200108341B0020E6
:10095F000000000024DD0408030000004127010807
:10096F00281B002000000000CCE204080300000058
:10097F00412701081C1B00200000000028D9040893
:10098F000100000000000000000000000000000057
:10099F00000000000E00000000000000000000003A
:1009AF0000000000D4E20408000000000000000076
:1009BF00000000000000000010E404080000000028
:1009CF000000000042020020040000001CE20408A6
:1009DF000300000041270108641B002000000000F5
:1009EF0028D90408010000000000000000000000EA
:1009FF0000000000000000000E00000000000000DA
:100A0F00000000000000000020700020702D720018
:100A1F000108000042570200000001064257020081
:100A2F00000001060000000000000000CC160020AE
:100A3F00FFFFFFFFFA0000000100000001000000AF
:100A4F00FFFF2D202D2D202D2D2D2D202D2D2D0077
:100A5F000000000000000000000000000000000087
:100A6F0000010000FFFFFFFFF8D8040800D90408B9
:100A7F0020D9040800000000000000000000000062
:100A8F0000000000E9D6040804000000514B0108E3
:100A9F00000000000000000028D904080100000039
:100AAF000000000000000000000000000000000037
:100ABF000E00000000000000000000000000000019
:100ACF0076C800200100C4090000000074C800208F
:100ADF000100C4090000000072C800200100C40911
:100AEF000000000070C800200100C40900000000D1
:100AFF006CC800200100C409000000006EC800206F
:100B0F000100C409000000006AC800200100C409E8
:100B1F000000000068C800200100C40900000000A8
:100B2F00283D00200100C80001000000263D0020E4
:100B3F003200307532000000243D0020055A0500B8
:100B4F00213D002000FF0100233D00200100000097
:100B5F00680200201F3D00200200000014A10408BD
:100B6F00203D002000FF0100223D00200100000079
:100B7F00680200201E3D00200200000014A104089E
:100B8F00143D002080C1803E05000000123D002072
:100B9F0080C1803E050000000C3D002080C1803EDA
:100BAF00050000000A3D002080C1803E05000000C6
:100BBF00043D002000FF0100003D00200A3201002B
:100BCF00FF3C00200400000020A10408FE3C002090
:100BDF000200000034A10408000000000000000023
:100BEF0070020020908A00209CFF2C010000000062
:100BFF002C0000200A00000040A10408F43C002053
:100C0F00E0150C17000000002E0000200800000067
:100C1F00DCCA04082D0000200500000038A20408DB
:100C2F00F63C00200200000058A10408183F0020E5
:100C3F000100FF7F01000000113F002002000000B3
:100C4F0064A10408833D00200300000074A1040880
:100C5F00823D00200300000074A10408803E0020A4
:100C6F000000F401010000007E3E00200000F401AE
:100C7F00010000007C3E00200000F4010100000094
:100C8F007A3E00200000F40101000000783E0020B1
:100C9F0000FF01009C3E0020E803D0070A0000007F
:100CAF009A3E0020006401000A0000008F3E0020E1
:100CBF00006401008E3E002000640100963E00207B
:100CCF00006401000A000000953E0020006401004E
:100CDF000A000000943E0020006401000A0000009A
:100CEF00993E0020006401000A000000983E002099
:100CFF00006401000A000000973E0020006401001C
:100D0F000A000000933E002000FF01000A000000CF
:100D1F00923E002000FF01000A000000913E0020DB
:100D2F0000FF01000A0000008A3D00200000F401CE
:100D3F0001000000883D00200000F40101000000C8
:100D4F00863D00200000F40101000000843D0020DA
:100D5F000000F401010000008A3E00201400E803A7
:100D6F0001000000883E0020E803307501000000FC
:100D7F00873E002000C80100863E002000C8010009
:100D8F00853E002000C80100843E00200064010061
:100D9F000A000000833E002000FF01000A0000004F
:100DAF00073F002000C80100063F002000C80100D7
:100DBF00053F002000C80100043F002000C80100CB
:100DCF00033F002000C80100023F002000C80100BF
:100DDF00013F002000C80100003F002000C80100B3
:100DEF00FF3E002000C8010058D904080000000091
:100DFF0000000000000000000000000068D9040897
:100E0F00090000000000000014030020040000008F
:100E1F0070D904080900000000000000080300203A
:100E2F0004000000F8DF04080900000000000000C3
:100E3F00FC0200200400000097D7040809000000FE
:100E4F0000000000F00200200400000078D9040820
:100E5F000900000000000000E40200200400000070
:100E6F0080D904080900000000000000D80200200B
:100E7F000400000088D904080900000000000000E9
:100E8F00CC0200200400000090D9040809000000E3
:100E9F0000000000C00200200400000028D9040850
:100EAF000100000000000000000000000000000032
:100EBF00000000000E000000000000000000000015
:100ECF0000000000F4DA0408000000000000000039
:100EDF000000000000000000F00B050807000000F4
:100EEF0000000000380300200000000004DB0408AD
:100EFF0008000000000000002C030020000000008C
:100F0F0010DB040808000000000000002003002090
:100F1F000000000028D904080100000000000000B4
:100F2F000000000000000000000000000E000000A4
:100F3F0000000000000000000000000018DB0408A3
:100F4F000000000000000000000000000000000092
:100F5F0028DB04080D0000000000000074030020CF
:100F6F000000000030DB04080D000000000000004E
:100F7F00680300200000000038DB040807000000B1
:100F8F0000000000600300200000000040DB0408A8
:100F9F000D000000000000005403002000000000BE
:100FAF0048DB04080D00000000000000480300208B
:100FBF000000000050DB04080700000000000000E4
:100FCF00400300200000000028D9040801000000A1
:100FDF000000000000000000000000000000000002
:100FEF000E000000000000000000000000000000E4
:100FFF0058DB0408000000000000000000000000A3
:10100F0000000000F00B05080C00000000000000BD
:10101F002A3D0020000000006CDB04080C000000DB
:10102F00000000002C3D0020000000007CDB0408C5
:10103F000C00000000000000623D002000000000D6
:10104F008CDB04080C00000000000000563D00205F
:10105F0000000000A0DB04080C00000000000000EE
:10106F002E3D002000000000ACDB04080C00000047
:10107F0000000000303D002000000000B4DB040839
:10108F000C00000000000000323D002000000000B6
:10109F00C8DB04080C00000000000000343D0020F5
:1010AF0000000000D0DB04080C000000000000006E
:1010BF00363D002000000000D8DB04080C000000C3
:1010CF0000000000743D002000000000F0DB040869
:1010DF000C00000000000000383D00200000000060
:1010EF00FCDB04080C000000000000003A3D00206B
:1010FF000000000004DC04080C00000000000000E9
:10110F003C3D00200000000010DC04080C00000033
:10111F00000000003E3D0020000000001CDC040821
:10112F000C00000000000000403D00200000000007
:10113F0094D804080C00000000000000423D00207D
:10114F000000000028DC04080C0000000000000074
:10115F00443D00200000000034DC04080C000000B7
:10116F0000000000463D00200000000040DC0408A5
:10117F000C000000000000005A3D0020000000009D
:10118F0048DC04080C00000000000000583D00205F
:10119F000000000050DC04080C00000000000000FC
:1011AF00663D0020000000005CDC04080C0000001D
:1011BF0000000000683D00200000000068DC04080B
:1011CF000C000000000000006E3D00200000000039
:1011DF0034DA04080C00000000000000483D002035
:1011EF000000000074DC04080C0000000000000088
:1011FF00503D0020000000007CDC04080C000000C3
:10120F00000000004A3D00200000000088DC0408B8
:10121F000C000000000000004C3D0020000000000A
:10122F0094DC04080C000000000000004E3D00207C
:10123F00000000009CDC04080C000000000000000F
:10124F00523D002000000000A8DC04080C00000044
:10125F00000000005C3D002000000000B0DC04082E
:10126F000C00000000000000543D002000000000B2
:10127F00FDD704080C00000000000000643D0020B2
:10128F0000000000BCDC04080C000000000000009F
:10129F005E3D002000000000C4DC04080C000000CC
:1012AF0000000000603D002000000000CCDC0408BE
:1012BF000C000000000000006A3D0020000000004C
:1012CF00D4DC04080C000000000000006C3D00207E
:1012DF000000000028D904080100000000000000F1
:1012EF000000000000000000000000000E000000E1
:1012FF00000000000000000000000000DCDC04081B
:10130F0000000000000000000000000000000000CE
:10131F00E8DC04080D00000000000000CC030020F2
:10132F0000000000F0DC04080D00000000000000C9
:10133F00C003002000000000F8DC040807000000D4
:10134F0000000000B80300200000000004DD0408C6
:10135F000700000000000000B003002000000000A4
:10136F0010DD04080900000000000000A4030020A5
:10137F00000000001CDD0408090000000000000050
:10138F00980300200000000028DD04080900000079
:10139F00000000008C0300200000000038DD04086E
:1013AF000900000000000000800300200000000082
:1013BF0028D9040801000000000000000000000010
:1013CF0000000000000000000E0000000000000000
:1013DF0000000000000000004CDD040800000000C9
:1013EF000000000000000000000000005CDD0408A9
:1013FF000500000000000000813D002000000000FB
:10140F0028D90408010000000000000000000000BF
:10141F0000000000000000000E00000000000000AF
:10142F00000000000000000064DD04080000000060
:10143F0000000000000000000000000010E404089D
:10144F000000000000000000101D0020040000003C
:10145F0093D704080D000000B54B010820040020AD
:10146F000000000068E204080D000000B51F01082D
:10147F00140400200000000014DC04080D0000001C
:10148F00991F0108080400200000000070DD040807
:10149F000800000000000000FC0300200400000012
:1014AF0074DC04080D000000E11E0108F0030020A9
:1014BF000000000078DD04080900000000000000B3
:1014CF00E40300200400000024DD040803000000F2
:1014DF0041270108D80300200000000028D9040884
:1014EF0001000000000000000000000000000000EC
:1014FF00000000000E0000000000000000000000CF
:10150F000000000080DD0408000000000000000063
:10151F00000000000000000090DD04080D00000036
:10152F0000000000380400200000000098DD0408CF
:10153F000A00000000000000A83F0020000000008B
:10154F00A4DD04080A00000000000000B03F0020E6
:10155F0000000000ACDD04080A00000000000000DD
:10156F00B83F002000000000B4DD040808000000B0
:10157F00000000002C0400200000000028D90408FF
:10158F00010000000000000000000000000000004B
:10159F00000000000E00000000000000000000002E
:1015AF0000000000BCDD0408000000000000000087
:1015BF000000000000000000D0DD04080D00000056
:1015CF00000000005004002000000000E0DD0408CF
:1015DF0004000000FD4D01080000000000000000A5
:1015EF00E8DD04080D0000000000000044040020A6
:1015FF0000000000FCDD040804000000D94D0108C4
:10160F00000000000000000028D9040801000000BD
:10161F0000000000000000000000000000000000BB
:10162F000E0000000000000000000000000000009D
:10163F0004DE0408000000000000000000000000AD
:10164F000000000018DE0408070000000000000082
:10165F008C0400200000000024DE040808000000B5
:10166F0000000000800400200000000030DE0408AD
:10167F0008000000000000007404002000000000BB
:10168F003CDE040808000000000000006804002091
:10169F000000000048DE0408080000000000000001
:1016AF005C0400200000000028D90408010000009D
:1016BF00000000000000000000000000000000001B
:1016CF000E000000000000000000000000000000FD
:1016DF0054DE040800000000000000000B02002090
:1016EF000000000060DE04080B0000000000000096
:1016FF001C050020000000006CDE04080B00000039
:10170F0000000000100500200000000078DE040833
:10171F000B00000000000000040500200000000086
:10172F0084DE04080B00000000000000F804002015
:10173F000000000090DE04080B0000000000000015
:10174F00EC040020000000009CDE04080B000000E9
:10175F0000000000E004002000000000A8DE0408E4
:10176F000B00000000000000D40400200000000067
:10177F00B4DE04080B00000000000000C8040020C5
:10178F0000000000C0DE04080B0000000000000095
:10179F00BC04002000000000CCDE0408070000009D
:1017AF0000000000B404002000000000D4DE040894
:1017BF000700000000000000AC0400200000000043
:1017CF00E0DE04080B00000000000000A004002071
:1017DF0000000000ECDE040808000000000000001C
:1017EF00940400200000000028D904080100000024
:1017FF0000000000000000000000000000000000DA
:10180F000E000000000000000000000000000000BB
:10181F00F8DE0408000000000000000000000000D7
:10182F00000000000CDF04080800000000000000AA
:10183F004C0500200000000018DF0408080000001D
:10184F0000000000400500200000000024DF040815
:10185F000800000000000000340500200000000018
:10186F0030DF0408080000000000000028050020F9
:10187F000000000028D9040801000000000000004B
:10188F000000000000000000000000000E0000003B
:10189F0000000000000000000000000038DF040816
:1018AF0000000000000000000802002000000000FF
:1018BF0048DF04080B000000000000009405002022
:1018CF000000000054DF04080B00000000000000BF
:1018DF00880500200000000060DF040807000000FA
:1018EF000000000080050020000000006CDF0408ED
:1018FF000700000000000000780500200000000035
:10190F0078DF0408070000000000000070050020C9
:10191F000000000084DF0408080000000000000041
:10192F0064050020000000008CDF040808000000A0
:10193F0000000000580500200000000028D904080E
:10194F000100000000000000000000000000000087
:10195F00000000000E00000000000000000000006A
:10196F000000000094DF04080000000000000000E9
:10197F000802002000000000A0DF0408070000009C
:10198F0000000000E005002000000000A8DF0408B0
:10199F000700000000000000D80500200000000034
:1019AF00B0DF04080700000000000000D005002091
:1019BF0000000000B8DF040807000000000000006E
:1019CF00C805002000000000C0DF04080700000069
:1019DF0000000000C005002000000000C8DF040860
:1019EF000700000000000000B80500200000000004
:1019FF00D0DF04080700000000000000B005002041
:101A0F0000000000D8DF04080700000000000000FD
:101A1F00A805002000000000E0DF04080700000018
:101A2F0000000000A00500200000000028D90408D5
:101A3F000100000000000000000000000000000096
:101A4F00000000000E000000000000000000000079
:101A5F000000000000000000C5220108E80500207A
:101A6F007F3D00201C00000084A104087E3D002063
:101A7F0000C801007C3D0020E803D00701000000F2
:101A8F004F4D4E4942555346345344001D3D00209F
:101A9F00000301001C3D002000030100112201087A
:101AAF00ED210108C4060020B521010875210108A8
:101ABF003C0700204D22010835220108F0070020C5
:101ACF000D210108D5200108FC0A0020DB220108A6
:101ADF0059370108D80B0020211F01080000000012
:101AEF00280C0020F128010845250108040D0020CD
:101AFF000123010800000000A40D0020A523010808
:101B0F0075230108300E00203124010875240108C7
:101B1F00D00E00208C3E0020010601004123010859
:101B2F001523010810100020D5230108214E0108AC
:101B3F009C100020A12401087D4E01086411002093
:101B4F00823E002001030100E8DF040800000000CE
:101B5F00000000000000000000000000F4DF040897
:101B6F0008000000000000007412002000000000B8
:101B7F00FCDF040807000000000000006C120020CA
:101B8F00000000000CE004080D0000000000000041
:101B9F00601200200000000018E00408030000009D
:101BAF0041270108541200200000000028D9040822
:101BBF000100000000000000000000000000000015
:101BCF00000000000E0000000000000000000000F8
:101BDF000000000020E004080000000000000000EA
:101BEF00000000000000000030E004080A000000C0
:101BFF000000000038E004080000000040E0040886
:101C0F000A00000000000000BFD60408000000001A
:101C1F0048E004080A00000000000000083F002010
:101C2F000000000050E004080A000000000000005F
:101C3F00801200200000000028D9040801000000D5
:101C4F000000000000000000000000000000000085
:101C5F000E00000000000000000000000000000067
:101C6F0058E0040800000000000000000000000021
:101C7F000000000064E00408030000004127010891
:101C8F00B41200200000000070E004080300000000
:101C9F0041270108A81200200000000078E0040886
:101CAF0003000000412701089C12002000000000E3
:101CBF0080E0040805000000000000001B3D00202C
:101CCF000000000088E0040807000000000000008A
:101CDF00941200200000000094E0040807000000A8
:101CEF00000000008C1200200000000028D904081A
:101CFF0001000000000000000000000000000000D4
:101D0F00000000000E0000000000000000000000B6
:101D1F0000000000A0E00408000000000000000028
:101D2F000000000000000000AFD80408030000000E
:101D3F0041270108E412002000000000B4E004086D
:101D4F0003000000412701083000002000000000C0
:101D5F00BCE004080300000041270108D81200204E
:101D6F0000000000C4E00408030000004127010840
:101D7F00CC1200200000000074DC040803000000F7
:101D8F0041270108C01200200000000028D90408D4
:101D9F000100000000000000000000000000000033
:101DAF00000000000E000000000000000000000016
:101DBF0000000000D0E00408000000000000000058
:101DCF000000000000000000DCE004080700000035
:101DDF00C94E0108401300200000000098DC0408E1
:101DEF000300000041270108341300200000000009
:101DFF00E8E0040803000000412701082813002031
:101E0F0000000000F0E00408030000004127010873
:101E1F001C13002000000000F8E004080700000079
:101E2F00AD4E010814130020000000008CE50408DB
:101E3F0003000000412701080813002000000000E4
:101E4F0004E104080300000041270108FC120020F0
:101E5F000000000010E10408030000004127010802
:101E6F00F01200200000000028D904080100000033
:101E7F000000000000000000000000000000000053
:101E8F000E00000000000000000000000000000035
:101E9F009522010865220108481300201125010829
:101EAF0000000000D41300205D2101084521010826
:101EBF006014002000000000000000001415002036
:101ECF00E9240108E54E0108B41500201CE10408BF
:101EDF0000000000000000000000000000000000F3
:101EEF0028E104080300000041270108C016002064
:101EFF000000000030E10408030000004127010842
:101F0F00B4160020000000003CE1040803000000AC
:101F1F0041270108A81600200000000040E1040836
:101F2F0003000000412701089C160020000000005C
:101F3F004CE104080300000041270108901600201F
:101F4F000000000054E1040802000000014F0108E6
:101F5F0000000000000000005CE104080200000027
:101F6F00014F0108010000000000000068E10408B3
:101F7F0002000000014F01080200000000000000F5
:101F8F00000000000E000000000000000000000034
:101F9F0000000000FA3C002088136F1701000000BA
:101FAF00FC3C002088136F170000000074E1040848
:101FBF000000000000000000000000000000000012
:101FCF0084E104080800000000000000A0170020B2
:101FDF000400000090E10408080000000000000069
:101FEF00941700200000000024DD04080400000006
:101FFF00DD4B0108000000000000000028D9040894
:10200F0001000000000000000000000000000000C0
:10201F00000000000E0000000000000000000000A3
:10202F0000000000F83C002088136F17010000002B
:10203F00CC8A002088136F1700000000652001086C
:10204F0000000000AC170020C1420020010000007A
:10205F00F8A10408CE8A00200100000004A20408A1
:10206F00C48A0020020000000CA20408BEC8002091
:10207F000000000000000000BCC8002000000000AD
:10208F0000000000BAC8002000000000000000009F
:10209F00B8C800200000000000000000B6C80020F3
:1020AF000000000000000000B4C800200000000085
:1020BF0000000000481D002000000000000000008C
:1020CF00F73C00200200000018A20408CCE104082D
:1020DF0000000000000000000000000000000000F1
:1020EF0084E1040808000000000000003018002000
:1020FF000400000090E10408080000000000000048
:10210F00241800200000000024DD04080400000053
:10211F0035200108000000000000000028D9040845
:10212F00010000000000000000000000000000009F
:10213F00000000000E000000000000000000000082
:10214F0000000000DCE104080000000000000000B7
:10215F000000000000000000ECE104080D0000008A
:10216F002D4D01086018002004000000F8E104085C
:10217F000D0000008D2001085418002004000000FD
:10218F0004E204080D000000F14C0108481800207B
:10219F000000000010E2040803000000912801086D
:1021AF003C180020080000001CE204080300000097
:1021BF0041270108641B00200000000028D90408F3
:1021CF0001000000000000000000000000000000FF
:1021DF00000000000E0000000000000000000000E2
:1021EF000000000020D904080000000000000000DB
:1021FF000000000000000000E9D604080400000001
:10220F00F54B0108000000000000000028D9040869
:10221F0001000000000000000000000000000000AE
:10222F00000000000E000000000000000000000091
:10223F000000000070E20408000000000000000031
:10224F000000000000000000C00E05080D00000097
:10225F0000000000C01800200400000080E2040805
:10226F000800000000000000B41800200400000067
:10227F008CE204080800000000000000A8180020ED
:10228F000400000094E204080800000000000000B1
:10229F009C180020040000009CE2040808000000C5
:1022AF00000000009018002004000000A4E20408C1
:1022BF000800000000000000841800200400000047
:1022CF00ACE20408080000000000000078180020AD
:1022DF0004000000B4E20408080000000000000041
:1022EF006C1800200400000028D904080100000029
:1022FF0000000000000000000000000000000000CF
:10230F000E000000000000000000000000000000B0
:10231F004D20010800000000CC1800200000000034
:10232F000000000044190020000000000000000021
:10233F00E4190020CA8A00200400000024A2040827
:10234F00C88A0020E0150C1700000000C78A002083
:10235F0008000000DCCA0408C68A0020050000003F
:10236F0038A204080000000000000000341A00200A
:10237F00010102FFFF000000685E0C00FFFFFFFF7E
:10238F00FF000000D6010000811F020800000000BE
:10239F00000000000100000000010101000000002A
:1023AF00FFFFFFFF010000000000803F0000000062
:1023BF0000000000000000000000803F000000004F
:1023CF0000000000000000000000000000000000FE
:1023DF0000000000000000000000000000000000EE
:1023EF000000803F0000000000000000000000001F
:1023FF000000803F0000000000000000000000000F
:10240F00010000000000803F0000803F000000003E
:10241F00FC7E00200800000000000000EC7E002081
:10242F0008000000E0C904080508040000000000CF
:10243F0038A20408DCCA040824A204080000000023
:10244F00000000000CCA040805080A000000000084
:10245F0038A20408DCCA040840A1040800000000E8
:10246F0000000000040309041201000202020040F0
:10247F0083044057000201020301000009024300D8
:10248F00020100C03209040000010202010005240C
:10249F000010010524010001042402020524060096
:1024AF0001070582030800FF09040100020A00006A
:1024BF0000070501024000000705810240000000EF
:1024CF00FF00000000FFFF0000000000AA550501FB
:1024DF0000000100000000000102030401020304D8
:1024EF00060708095BF2030859F70308D5F203083A
:1024FF0089C20308F5C7030899C20308B5C20308C8
:10250F0063C2030855C2030800000000000000006A
:10251F002D202D2D202D2D2D2D202D2D2D2D00005D
:10252F00000000000000000000000000000000AAF2
:10253F00550B010000AA5507010000AA550902001A
:10254F000000000001000000C012AA5503009F0008
:10255F00FF1FFF1F340C05080000000000000000E3
:10256F00DD600308A08601000400000000000000E9
:10257F00000000000000000000000000000000004C
:10258F00000000000000000098DC0408ACD904082B
:10259F0000000000390303087D0000000600000062
:1025AF00000000000000000000000000000000001C
:1025BF00000000000000000000000000A40B050850
:1025CF00000000000000000011070208E8030000EF
:1025DF0003000000000000000000000000000000E9
:1025EF0000000000000000000000000000000000DC
:1025FF00E81C050800000000000000001BA60208F0
:10260F001027000003000000000000000000000081
:10261F0000000000000000000000000000000000AB
:10262F0000000000F8E2040800000000052C02087A
:10263F007DE10108204E00000500000000000000B1
:10264F00000000000000000000000000000000007B
:10265F000000000000000000D00D05080000000081
:10266F0000000000F90B0208102700000100000015
:10267F00000000000000000000000000000000004B
:10268F00000000000000000000000000F41C05081E
:10269F00000000000000000065930108E80300003F
:1026AF000500000000000000000000000000000016
:1026BF00000000000000000000000000000000000B
:1026CF00001D05080000000000000000317C030819
:1026DF00204E00000300000000000000000000007A
:1026EF0000000000000000000000000000000000DB
:1026FF0000000000101D0508000000000000000091
:10270F00097A0308204E00000300000000000000BB
:10271F0000000000000000000000000000000000AA
:10272F000000000000000000201D05080000000050
:10273F0000000000B9930108400D030003000000E2
:10274F00000000000000000000000000000000007A
:10275F00000000000000000000000000F80C050859
:10276F0000000000000000001D900308102700006B
:10277F000100000000000000000000000000000049
:10278F00000000000000000000000000000000003A
:10279F00F4E204080000000000000000D568010802
:1027AF0010270000030000000000000000000000E0
:1027BF00000000000000000000000000000000000A
:1027CF0000000000301D05080000000000000000A0
:1027DF007D7A0208A08601000100000000000000C1
:1027EF0000000000000000000000000000000000DA
:1027FF000000000000000000A80B0508000000000A
:10280F0000000000A1C8010850C300000100000033
:10281F0000000000000000000000000000000000A9
:10282F00000000000000000000000000ACDA040807
:10283F000000000000000000751301087011010076
:10284F000100000000000000000000000000000078
:10285F000000000000000000000000000000000069
:10286F0034DA040800000000000000008DC00108E9
:10287F00A86100000100000000000000000000003F
:10288F000000000000000000000000000000000039
:10289F0000000000381D05080000000000000000C7
:1028AF00117E0108A0860100010000000000000059
:1028BF000000000000000000000000000000000009
:1028CF000000000000000000D80D05080000000007
:1028DF000000000029960108A00F00000100000071
:1028EF0000000000000000000000000000000000D9
:1028FF00000000000000000000000000441D05085B
:10290F0000000000000000008D2A010810270000C1
:10291F0001000000000000000000000000000000A7
:10292F000000000000000000000000000000000098
:10293F00200D05080000000000000000596B03087F
:10294F00A00F0000010000000000000000000000C8
:10295F000000000000000000000000000000000068
:10296F00000000003CE1040800000000000000002F
:10297F00998B01081A4100000100000000000000BF
:10298F000000000000000000000000000000000038
:10299F000000000000000000F4D90408000000004F
:1029AF0000000000C5CA0308102700000100000046
:1029BF000000000000000000000000000000000008
:1029CF0000000000000000000000000080E4040888
:1029DF0000000000000000009D5001081A41000097
:1029EF0001000000000000000000000000000000D7
:1029FF0000000000000000000000000000000000C8
:102A0F00501D05080000000000000000F90F040829
:102A1F00400D030000000000000000000000000057
:102A2F000000000000000000000000000000000097
:102A3F0000000000581D0508000000000000000005
:102A4F0021930108400D030000000000000000006A
:102A5F000000000000000000000000000000000067
:102A6F000000000000000000601D050800000000CD
:102A7F0000000000FD6E0108A086010003000000A9
:102A8F000000000000000000000000000000000037
:102A9F000000000000000000000000006C1D050891
:102AAF000000000000000000D579030840420F002D
:102ABF000000000000000000000000000000000007
:102ACF0000000000000000000000000000000000F7
:102ADF00781D050800000000000000007192030837
:102AEF0050C30000000000000000000000000000C4
:102AFF0000000000000000000000000000000000C7
:102B0F00000000000800000067C70308D3C60308D1
:102B1F00E1CF03080000000031C2030889C5030894
:102B2F006BC60308F7C40308000000000000000094
:102B3F0025C2030835C1030833C1030831C1030897
:102B4F002BC1030829C103082FC103082DC1030896
:102B5F0045C1030837C103088DCF0308A1CF030870
:102B6F0079CF030865CF03084FCF030800600240F9
:102B7F00106002400000000000000000000B000089
:102B8F000000000000000000000000000060024094
:102B9F00286002400100000000000000060C000049
:102BAF000000000000000000000000000060024074
:102BBF00406002400200000000000000100D000005
:102BCF000000000000000000000000000060024054
:102BDF00586002400300000000000000160E0000C5
:102BEF000000000000000000000000000060024034
:102BFF00706002400400000000000000200F000081
:102C0F000000000000000000000000000060024013
:102C1F008860024005000000000000002610000040
:102C2F0000000000000000000000000000600240F3
:102C3F00A0600240060000000000000030110000FC
:102C4F0000000000000000000000000000600240D3
:102C5F00B86002400700000000000000362F00009F
:102C6F0000000000000000000000000000640240AF
:102C7F001064024000000000000000000038000057
:102C8F00000000000000000000000000006402408F
:102C9F002864024001000000000000000639000017
:102CAF00000000000000000000000000006402406F
:102CBF00406402400200000000000000103A0000D3
:102CCF00000000000000000000000000006402404F
:102CDF00586402400300000000000000163B000093
:102CEF00000000000000000000000000006402402F
:102CFF00706402400400000000000000203C00004F
:102D0F00000000000000000000000000006402400E
:102D1F008864024005000000000000002644000007
:102D2F0000000000000000000000000000640240EE
:102D3F00A0640240060000000000000030450000C3
:102D4F0000000000000000000000000000640240CE
:102D5F00B864024007000000000000003646000083
:102D6F000000000000000000000000000100000053
:102D7F000000803F782500200000000000000000C8
:102D8F000000000000000000000000000000000034
:102D9F000000000000000000000000000000000024
:102DAF000000000000000000000000000000000014
:102DBF000000000000000000000000000000000004
:102DCF0000000000000000000000000000000000F4
:102DDF0000000000000000004300000000000000A1
:102DEF0000000000000000000000000000000000D4
:102DFF000000000000000000430000000000000081
:102E0F0000000000000000000000000000000000B3
:102E1F000000000000000000430000000000000060
:102E2F000000000000000000000000000000000093
:102E3F000000000000000000430000000000000040
:102E4F000000000000000000000000000000000073
:102E5F000000000000000000430000000000000020
:102E6F000000000000000000000000000000000053
:102E7F000000000000000000430000000000000000
:102E8F000000000000000000000000000000000033
:102E9F0000000000000000004300000000000000E0
:102EAF000000000000000000000000000000000013
:102EBF00000000000000000023910408FF900408A8
:102ECF0000000000AA1D0508E5D604089CEB0408C5
:102EDF009CEB04089CEB04089CEB04089CEB040897
:102EEF009CEB04089CEB04089CEB04089CEB040887
:102EFF00FFFFFFFFFFFFFFFFFFFFFFFFFFFF0000D1
:102F0F000100415343494900000000000000000048
:102F1F0000000000000000000000000000000000A2
:102F2F000000415343494900000000000000000029
:102F3F000000000000000000000000000000000082
:042F4F00000000007E
:108000002DE9F043077B91F800C0DFF8B8E0476145
:108010000023C0E90677C0E90877C0E90A77C0E91C
:108020000C77C0E90E73C0E91033C0E91233C0E920
:108030001433C0E916336FEA0C0C5FFA8CFC03664C
:108040009846142405254CFA05F303F00103002B90
:1080500014BF19260A26434415F0010F04EB06014C
:108060005FFA83F889B214BFB9464FF0000923467E
:1080700000EB830201339BB29942C2F81490F7D10E
:10808000013D34446A1CA4B2DDD118F0010F14BFC5
:1080900019230A23E518ADB2224600EB8201013212
:1080A00092B2AA424F61F8D123449BB21A1D00EB51
:1080B000820201339BB200215160AEF800300361AF
:1080C000BDE8F08348270020254B5B880B332DE962
:1080D000F04F8A4601F1060B1FFA83F94FF00108B1
:1080E000002100251AF801EB2C464A460127A2F18F
:1080F0000B039BB207E001339BB2B0F80CC0C6F88B
:1081000014C093420AD000EB8306002FF3D100EB9A
:10811000830601339BB293427761F4D1043300EBC1
:1081200083030134092D5960E4B20CD0092C14D01A
:1081300008FA05F313EA0E0F14BF012700270C32CB
:1081400092B20135D3E709F17809DA451FFA89F9C6
:10815000C7D1034B5980BDE8F08F0027EFE700BF80
:10816000482700202DE9F047DFF860E0BEF8043032
:1081700004338A461FFA83FC01F1090801271AF823
:10818000016BE1460025A9F1040307FA05F29BB251
:108190003240C2B1818900EB830401339BB24B456D
:1081A0006161F6D101350433082D1FFA83F9EAD154
:1081B0000CF1200CC2451FFA8CFCE0D10023AEF874
:1081C0000430BDE8F0871146E5E700BF48270020EE
:1081D00010B5027C01681F2A4FF020030ED94C68AD
:1081E000203A93401C4208D00B4A40680024147087
:1081F000026822F001020260CB6010BD0C6893405F
:108200001C42FAD0044A406800241470026822F02C
:10821000010202608B60F0E75A6F0020436A8269B6
:10822000D154436A0169826B01338B4228BF00231A
:108230004362DAB1EFF31183502282F31288826B2A
:108240001168C9070ED470B45468FCB9D0E909515B
:108250008D4211D1012280F85C20DBB283F31188BA
:1082600070BC7047DBB283F311887047826DD368AE
:1082700043F08003D360704786690E44D6600ED900
:10828000691A51608562002180F85C10116841F024
:108290000101DBB2116083F3118870BC704705697E
:1082A000691A51608462EEE7034610B4446BD968E2
:1082B000406954B1DA6C8C1A013A005D5DF8044BE8
:1082C00008BF0A46C0B2DA6470471A6A805C01329D
:1082D0008A4228BF2246C0B21A625DF8044B70473A
:1082E000836B13B190F85C007047D0E90903181A4A
:1082F000B0FA80F040097047D0E909120369914251
:1083000038BFC9188A1A816B013B19B149680A4400
:108310009A4201D2981A704700207047436B43B1CC
:10832000C26C5B689A4291BF981AC0689B1AC018C9
:108330007047D0E907239A422FBFD01AC06880182F
:10834000C01A70470A4B30B503F1140493F90020AA
:108350005D78072AC8BF143A811804330D7313F8E7
:10836000025C855413F8012C0A769C42EED130BD94
:10837000349A040803682DE9F041DD691DB12B46EC
:10838000BDE8F0411847002A174611DD04460E46A5
:108390000F4400E023689B68204698470028F9D0E6
:1083A000236816F8011B1B6820469847BE42F1D18E
:1083B000BDE8F08100232522027043708370C370F2
:1083C000704700BF0028F0B403DA2D230B70404241
:1083D0000131092804464FF0010307DD03EB830355
:1083E0005B00B0FBF3F2092AF8D883B10F48A0FB79
:1083F0000326B4FBF3F2092A02F1570C02F130070D
:1084000009DD03FB1244F30801F801CBEFD100238F
:108410000B70F0BC704703FB1244F30801F8017BBA
:10842000E5D100230B70F0BC704700BFCDCCCCCCA5
:10843000884270B44FF0010442D301FB04F4B0FB56
:10844000F4F58D42F9D2ECB142BB092D04FB1500C5
:1084500005F1570605F130020EDDB4FBF1F403F827
:10846000016B7CB1B0FBF4F5092D04FB150005F19F
:10847000570605F13002F0DCB4FBF1F403F8012BF0
:10848000002CEFD100221A7070BC704703F8016B0A
:10849000B4FBF1F4002CF5D0B0FBF4F5092D04FB8E
:1084A000150005F1370605F13002EFDCB4FBF1F4FD
:1084B00003F8012B002CEFD100221A7070BC70471A
:1084C0000546002AEAD1C0E72DE9F04714461D46CB
:1084D000064600234FF47A722046294640F0EAF916
:1084E000DFF848814B4A4C4F88FB00310144C317E9
:1084F00082FB002CC3EB611188FB012887FB00275E
:108500008444464AC3EBEC2CC1EB011E82FB0C29D0
:10851000A0EB8E0E0744424A86F806E0C3EB2747DD
:108520004FEAEC7E08EB010ACEEBA90E82FB078234
:108530004FEAE1780EEB4E0EC8EB6A18ACEBCE0CAE
:10854000C8EB0818DFF8E8E086F804C0A1EB880162
:1085500071718EFB0010F917C1EBE21240F2B551B8
:1085600001FB1272C3EBE050B2F5896F4FEA80074E
:108570003FDA40F2DA239A4243DCB2F5B77FB4BF68
:108580004FF0000E4FF0010E4FEA4E08254B08EB5E
:108590000E0103EBC1031FFA8EFC588D224908EB34
:1085A0000E0301EBC30116310B2301E031F8020D7C
:1085B00090421BDD013BF9D11A4BC64403EBCE0EB2
:1085C0000123BEF81400B37007F2B2770132121A19
:1085D000BC44F270A6F800C0204629464FF47A72D7
:1085E000002340F067F93281BDE8F0870133DBB248
:1085F000E9E74FF0030CE64640F296504FF00608CC
:10860000CCE74FF0020CE64640F229404FF0040858
:10861000C4E700BFC5B3A29107452EC2ABAAAA2AE0
:1086200073B06D16349A0408489A040889888888BB
:10863000792D031103685A1C02601970704700BF3E
:108640002DE9F047089C2578002B804689460CBF11
:108650004FF0200A4FF0300A661C25B3002A26DDB1
:10866000334601E0024698B113F8011B501E002961
:10867000F8D1971E60B13D46013D51464046C8477E
:108680006B1C002BF8DC257827EAE770013045B138
:10869000041B29464046C847301916F8015B002DD7
:1086A000F7D1BDE8F087002A03DC2846F9E700206F
:1086B000EEE7571EDFE700BFD0E9012300EB83019F
:1086C00001339342D0ED037A81ED040A836004BF45
:1086D0000023836000EB830393ED047A036870EE5C
:1086E000277A9A42C0ED037A77EEC77AC0ED037A13
:1086F0000CDA013307EE103AF8EEC76AB7EE007AEB
:1087000087EEA60A036030EE070A704707EE102ACC
:10871000B8EEC77A87EE870A704700BF90ED057AFA
:1087200090ED004AD0ED066AD0ED014AD0ED047A12
:1087300090ED035AD0ED025AA4EE007AB0EE406AF2
:10874000B0EE470AB0EE667AA4EE867A67EEC07A9B
:10875000A5EE407AE5EE867A80ED057AC0ED067AE0
:10876000704700BFD0ED057A90ED013AD0ED003AA8
:10877000D0ED064A90ED024A90ED077A90ED035A4B
:1087800090ED086AD0ED045AC0ED067AF0EE406A2A
:1087900027EE830AC0ED056AA3EEA60A80ED087AEB
:1087A000A4EE240AA5EE470AA5EEC60A80ED070A44
:1087B000704700BFD0ED007A90ED017A30EE670A85
:1087C000E7EE007AB0EE670AC0ED007A704700BFAE
:1087D000704700BF0A44914215D030B40139551E8C
:1087E00041F2210211F8014F082380EA0420040419
:1087F0004CBF82EA40004000013B80B2F7D18D427D
:10880000F0D130BC704770470378407840EA0320CD
:1088100010FB01F04FF4807190FBF1F000F30F00BA
:1088200000B270476D4B2DE9F04F9C686C4BB3F86C
:108830000AE0B3F804809A894FEA0E2AB4EB0A04DE
:108840004FEA1E6B4FF0000587B065EB0B05CDE9D5
:1088500000450746009C1889019EA0FB044500FBCB
:108860000655E00940EA45604FEA08448C46E911A4
:108870004FEA184510EB0408D888009C41EB050925
:10888000CDE90489A0FB0445B3F8028000FB06553E
:10889000200A40EA05604FEAC83429124FEA5845D9
:1088A00010EB040841EB05090099A2FB010102FB52
:1088B00006114FEAD05A4AEA412A1AF5FA634FEAFA
:1088C000E15B4BF10004B3F5FA6FCDE9023474F1CA
:1088D0000003424E64DA0524AAFB040104FB0B11D9
:1088E00000FB0BF40AFB0144DDE90423A0FB0A01B1
:1088F00021444D104FEA3004121B4FEA900463EB01
:10890000050344EA8174B8EB0408CDE90423DDE9EA
:10891000023434484FEAA10569EB05094FF0FF31F5
:10892000834274EB010326DA40F6AC501AEB0002E6
:108930004FF000014BEB010302FB03F1A2FB02230A
:1089400003EB4103D400DD00101B45EA527563EBD5
:108950000501DDE9044524184D41CDE904450B240A
:10896000A2FB040104FB031149104FEA3000B8EBED
:10897000000869EB0109DDE900325343009ADDE9A3
:108980000201A2FB02AB0BEB430B4FEADA7242EAA5
:108990004B02801A4FEAEB7361EB0301CDE9020150
:1089A00097B1F168A1FB082301FB0933540D5D1554
:1089B00044EAC324DDE90423A21A65EB03031D4640
:1089C000D30B43EA45433B60BCF1000F02D0029B4E
:1089D000CCF8003007B0BDE8F08F00BF482700207A
:1089E000A459002024FAFFFF2DE9F04FDFF8DCC185
:1089F000754CDCF810502288B4F90AA0C2EB25139C
:108A00005200C2EBE502B4F902505B436A43B4F989
:108A100004501B135D43AD1305EBE225B5F5FA32A7
:108A20004FEAE57B85B04BF1FF33CDE90023DDE96B
:108A300000325343009AA561A2FB0289CDE90201ED
:108A4000B4F908200199009809EB43095143D31761
:108A500000FB0311A2FB00230B444FEAEA7B0AFB55
:108A600009F11F0308FB0B13AAFB080119444FEA85
:108A7000102A4AEA016A16034FEA212B47EA1257E5
:108A80001AEB0602E6884BEB070312F1000A43F5E6
:108A9000004BAAFB060106FB0B114A10CB1752EA4A
:108AA000030100F08E80B4F91060009806FB09F114
:108AB000F71708FB0711A6FB08673944B4F90E80C5
:108AC0008B4601994FEAE87908FB01F100FB091197
:108AD000A8FB00898944DCF814104FEA4947C1F526
:108AE000801C47EAD837B2464FEA4846B4F90C80B2
:108AF0001AEB060A66464BEB070BF7174FEAC80658
:108B0000019600260096F907DDE900674FEACC7070
:108B100016EB0A0647EB0B0741EA5C01801B61EB91
:108B2000070140F6354C8946A0FB0C010CFB0911EE
:108B30003FF0C0FEB4F91620B4F914A04E13470B51
:108B400047EAC14702FB06FCD31707FB03CCA2FB95
:108B500007236344564307FB0366A2FB0723334402
:108B6000560E46EAC31632184FEA636747EB010315
:108B700080460AFB01F14FEAEA7B08FB0B17AAFBD0
:108B800008013944C60C46EA413612EB06084FEAA2
:108B9000E147B4F9122043EB07094FEA182141EAF3
:108BA000096113010B44029A0AB11B0A1360039B6B
:108BB00023B105EB850580352D121D6005B0BDE89C
:108BC000F08F0023EFE700BFB859002048270020AE
:108BD000704770472DE9F041334B344E1A8B74893E
:108BE000B6F91450B6F90480B6F90E70B6F920C083
:108BF000DB69121B34895443E213B6F91240154461
:108C0000E40294FBF5F4B6F902501444A4F57A6E2C
:108C10000EFB0EF20EFB05F50EFB08FEB6F90C80FE
:108C2000F4611213574302FB08F2121402EB6E3286
:108C3000ED1205EBE7270232B6F90050B6F806E070
:108C4000921002F5004207EB85070EFB02F207FACD
:108C50000CF74FEAD23E02374CF25032A3EBA70793
:108C600042FA0CF37B4355BF5B00B3FBFEF3B3FB4F
:108C7000FEF35B0078B11A1202FB02F540F6DE3219
:108C80006A430B4D12145D4302EB254202F6CF629C
:108C900003EB2213036021B10A235C43083424113F
:108CA0000C60BDE8F08100BF4827002080590020FB
:108CB00043E3FFFF4FF40063838270474FF4006388
:108CC000838270474FF4006383827047012380F8EA
:108CD00048307047F0B4037C456902681F2B37D9D0
:108CE000203B2021546899400C4223D010249C4002
:108CF000D160D4605168D940CE074ED4EFF31183D0
:108D0000502282F31288AA6B1168C90709D45468EB
:108D1000002C52D1D5E909618E4243D1012285F858
:108D20005C20DBB283F31188037C02681F2B194699
:108D300014D9203B082150689940084200D0D160E6
:108D40000421506801FA03F3184223D1F0BC7047A4
:108D5000202416689C4026420FD11946082310682B
:108D60008B40184200D093600423106803FA01F18D
:108D70000842EBD09160F0BC70471021994094609C
:108D800091601168D940CC07B8D5012101FA03F3ED
:108D90009360B3E7D360F0BC7047012101FA03F39D
:108DA000D360ABE7AF690F44D7600ED82E69711A54
:108DB0005160AC62002185F85C10116841F001013E
:108DC000DBB2116083F31188AEE7711A5160AE62B5
:108DD000F0E700BF70B4037C01681F2B26D9A3F114
:108DE000200520224C68AA40224214BF0122002202
:108DF000D2B142691B481C4C02EB420200EB42120A
:108E0000257854682068CDB9E56856892C6824F027
:108E100001042C6082891F2B22EA060282811AD863
:108E2000202202FA03F38B6070BC704720220C688A
:108E30009A40224214BF01220022D9E7A469226885
:108E400022F001022260828922F480721204120C44
:108E50001F2B8281E4D9A3F1200220239340CB6011
:108E600070BC7047A4AF0020A0AF0020844B1A78DC
:108E7000002A00F00481834B1978834B30B4002919
:108E800065D11868B3F82C5141628489012A44EAFB
:108E900005048481A3F82C1157D0D3F83001B3F81E
:108EA0005C5241628489022A44EA05048481A3F861
:108EB0005C124AD0D3F86002B3F88C5341628489C3
:108EC000032A44EA05048481A3F88C133DD0D3F827
:108ED0009003B3F8BC5441628489042A44EA05042F
:108EE0008481A3F8BC1430D0D3F8C004B3F8EC5597
:108EF00041628489052A44EA05048481A3F8EC15BB
:108F000023D0D3F8F005B3F81C5741628489062AB0
:108F100044EA05048481A3F81C1716D0D3F820076F
:108F2000B3F84C5841628489072A44EA05048481D5
:108F3000A3F84C1809D0D3F85028B3F87C495162F3
:108F4000908920439081A3F87C1930BC70475C68FD
:108F5000198961602568186845F0010540F20D31F6
:108F60002560A0F848108489012A44F48074848123
:108F7000EBD0D3F83441B3F83851D3F83001656001
:108F8000256845F001052560A0F848108489022A6B
:108F900044F480748481D8D0D3F86442B3F8685222
:108FA000D3F860026560256845F001052560A0F8EA
:108FB00048108489032A44F480748481C5D0D3F88E
:108FC0009443B3F89853D3F890036560256845F04F
:108FD00001052560A0F848108489042A44F48074AF
:108FE0008481B2D0D3F8C444B3F8C854D3F8C004D1
:108FF0006560256845F001052560A0F84810848962
:10900000052A44F4807484819FD0D3F8F445B3F8E2
:10901000F855D3F8F0056560256845F00105256031
:10902000A0F848108489062A44F4807484818CD086
:10903000D3F82447B3F82857D3F82007656025688C
:1090400045F001052560A0F848108489072A44F4FA
:10905000807484813FF479AFD3F85428B3F858086A
:10906000D3F850385060106840F001001060A3F849
:1090700048109A8942F480729A8130BC70477047D8
:10908000A4B20020A0AF0020A8B2002010B4037C3E
:1090900002681F2B09D9203B2021546801FA03F3F1
:1090A0001C4214D15DF8044B70472021146801FA6A
:1090B00003F31C42F6D00C49406800240C70016890
:1090C0005DF8044B21F0010101609360704706498F
:1090D000406800240C7001685DF8044B21F0010128
:1090E0000160D360704700BF323000202DE9F041AD
:1090F000C40023189B00BA49CA585268958AADB279
:10910000EFB2FE070B4465D4BE073AD5BFF35F8FBD
:109110001D7EEDB2012D00F0C480B24E138BBFF363
:109120005F8F231801EB83031D7E022D00F0D98091
:10913000231801EB83031D7E032D06D19B7E23B1F3
:1091400096F82130002B40F02681938896F920C0B4
:1091500043F480639380231801EB83031B7E013368
:1091600063450CD196F82230002586F82150002B5B
:1091700040F09080204401EB800000234375BDE85F
:10918000F081984E17F0040F96F920C051D117F0D6
:10919000400700F0BB80178A1D6AFFB205F80C700B
:1091A0005FFA8CF56F1C93F818E07BB2DF1CBE45AC
:1091B00086F820309C4600F01781271801EB8707BE
:1091C0003F7EBB42C7D105F1020C4FFA8CFC86F8FA
:1091D00020C0C0E71588834E25F400652D042D0CB2
:1091E0001580158845F4806515809D7E002786F8DA
:1091F0002070002D40D096F82150002D39D0231832
:1092000001EB830301251B7E86F82150022B03D13D
:10921000138843F400631380231801EB83039B7DC1
:1092200043F001031382204401EB8000037EBDE87C
:10923000F0819F7E96F821504FF0010E86F822E0D3
:10924000002F60D0002D7DD1231801EB83035B7EBE
:10925000002B00F0A98013880CF1010C4FFA8CFC54
:1092600043F4007386F820C013801388DF05FCD414
:1092700071E7DB7DFF2BC2D0231801EB83039D7DBB
:1092800005F0FE051582DB7DFF2BCCD0FF2386F891
:109290002030C8E7938823F440731B041B0C938091
:1092A00068E79B7E4F4E002B3FF438AF96F8213095
:1092B000002B3FF433AF138823F480631B041B0C93
:1092C0001380BFF35F8F138B138886F8225043F40B
:1092D00000731380938896F920C043F480639380D1
:1092E00039E79B7E002B3FF423AF96F82130002B0B
:1092F0003FF41EAF138896F920C023F480631B044B
:109300001B0C138017E0002D9ED0A4E72D067FF5DF
:1093100022AFBCF1FF3F6ED0DD6915F80C5015820D
:109320000CF1010C1D7E4FFA8CF39D429C4686F891
:1093300020307FF410AF938823F480631B041B0C50
:10934000938008E71F7ED3F820805FFA8CF5AE4447
:10935000022F4FFA8EFE17882ED927F480673F041C
:109360003F0C1780178AFFB208F80C701788D3F8E3
:1093700020C047F400731380138ADBB20CF80E3060
:10938000938805F1020C4FFA8CFC43F4806386F855
:1093900020C0938069E7938896F920C023F4806306
:1093A0001B041B0C9380D6E61388012543F48073BD
:1093B000138086F8215058E747F400771780178A02
:1093C000FFB208F80C70178AD3F8208005F1030C5F
:1093D0004FFA8CFCFBB286F820C008F80E3044E748
:1093E000287E002048270020978827F480673F04C4
:1093F0003F0C9780E1E6DD7D15829D7E86F820702A
:109400001DB91B7E002B7FF40EAF938823F480637D
:109410001B041B0C938006E73F4B9A89D989914224
:1094200010B524BF00229A81598A1A8A914224BF1A
:1094300000221A82D978394A92F8502081B107293E
:109440000ED0374C012000210A2A20709870D97163
:1094500059D00C2A01D00A2A5BD0DFED327A0AE01B
:109460000A2AD97952D0DFED307A9FED307A0C2A72
:1094700018BFF0EE477A9FED2E7A002918BFF0EE64
:10948000477A2C4CA278062A97BF2B49DFED286A31
:1094900001EB8201D1ED1D6A217971B1013A032AF4
:1094A0000AD8B7EE000A80EE260A40F051F8238869
:1094B000984228BF1846208010BD9B78184907EEB7
:1094C000103A0A78B8EEC77A67EE277A07EE102AC4
:1094D000B8EEC77A27EE277AF4EEC76AF1EE10FAF3
:1094E000EADD86EEA77AFDEEC77A17EE903A102BEA
:1094F000A8BF1023012BB8BF0123DBB29A4238BFAB
:109500001A460A7010BDDFED0D7ABAE7DFED0C7A6E
:10951000B1E7DFED0A7AAEE74CAD0020FCA40020F5
:10952000225600206F12833A0AD7A3396F120339EB
:109530006F1203387CAF0020349A04080F506E3A43
:109540005304E93838B50C4C0C4DAC4206D2616876
:10955000204614342EF0C8FDAC42F8D3084A094B1B
:10956000094C1460002209491A705A7008480860B2
:10957000BDE838400CF0A8BB90010008E0060008E8
:10958000D48C0020ACA300208E3D0020D88C00207D
:109590009E3E0020054B10B55A6A054C2178501CA0
:1095A00009B95A6210BD0246F8E700BF48270020FB
:1095B0005A6F0020F0B50C2934D8DFE801F08A3367
:1095C00033335F333333343333330700048C9689BA
:1095D000B2F802C01788744D24F480542404240C7B
:1095E0000484038C8488818B23F4005321F4E641A6
:1095F0001B0409041B0C46EA0C06090C43EA06335B
:1096000041EA0721A8429BB2A4B289B200F09E8031
:1096100005F58065A84200F0998092688480818376
:1096200002640384F0BD048C9589B2F802E01788C7
:109630005D4E24F480742404240C0484038CB0F85C
:1096400004C0818B23F400731B0421F0730145EAED
:109650000E041B0C090443EA0423090CB0429BB21C
:109660001FFA8CF541EA07015BD0504CA04258D05C
:10967000926885808183C2630384F0BD048C9589E0
:10968000B2F802E0B2F800C0474E24F010042404FF
:10969000240C0484038C8788018B23F0200321F49D
:1096A000E6411B0409041B0C45EA0E04090C43EABD
:1096B000041341EA0C21B0429BB2BFB289B25BD025
:1096C0003A4CA04258D09268878001838263038419
:1096D000F0BD048C9589B2F802C01788324E24F090
:1096E00001042404240C0484018C8488038B21F05D
:1096F000020123F0730309041B04090C45EA0C055D
:109700001B0CB04241EA0501A4B243EA070324D08E
:10971000264DA84221D0926884800383426301844D
:10972000F0BDD489168A578A23F4006343EA0423E0
:109730004FF6FF341C40938825F440553E4344EADD
:10974000032345EA06149BB2A5B291E7158A24F4D7
:10975000804444EA8514A4B25FE7D689158A578A03
:1097600021F008013143968824F4407421F004016B
:109770003D4331432C43CEE7D489168AB2F812C058
:1097800023F0800343EA04134FF6BF741C40938810
:1097900027F4406546EA0C0644EA031345EA8604CA
:1097A0009BB2A7B28FE700BF000001400004014058
:1097B0002DE9F84FDFF864828E488F4C8F4E904F22
:1097C000DFF85C92DFF85CA24FF4B47200213FF046
:1097D000E3FC45468B4A8C48DFF84CC2DFF84CE28C
:1097E00008F5077134E0B3F1804F00F0CB80A3425D
:1097F00000F0CF80B34200F0DB80BB4200F0DB80A2
:10980000634500F0DB80734500F0DB804B4500F0E2
:10981000DB80534500F0DB80DFF814B25B4500F0DD
:10982000D9800BF5806B5B4500F0D780ABF5983B9A
:109830005B4500F0D5800BF5806B5B4500F0D38075
:109840000BF5806B5B4500F0D1802435A9420BD02D
:109850002B689342C7D14FF0010B436C243543EA88
:109860000B03A9424364F3D1684F694E4FF0030ADA
:109870004FF0020998F80630002B7CD098F804309D
:109880001C09013C032C03F00F0374D837F81400B3
:1098900040FA03F2D2076ED54FF0010B0BFA03F337
:1098A000013B18403FF056F85A4B1B5D184416EB2D
:1098B000C00460D056F83030574898F8081003F1CB
:1098C0003F4202F57E02920A825C02F01F005209BA
:1098D000032A0BFA00FB65D0042A5DD0022A04D1CA
:1098E0004948426C4BEA02024264B4F804C0BCFA34
:1098F0008CF2C2F11F0292B2D00803EB800002F09A
:109900000702046A92004FF00F0E0EFA02FE24EADC
:109910000E040462046A01FA02F2224302624FF06A
:10992000010E00220EFA02F434EA0C0120D150009C
:10993000D3F800B00AFA00F1C9430BEA010BC3F8EF
:1099400000B0D3F800B009FA00F040EA0B0018604C
:1099500098680840986098689860586820EA0404FD
:109960005C6058685860D8680140D960D968D9608F
:109970000132102AD6D108F1240845457FF47AAF88
:10998000BDE8F88F4FF0010B036C43EA0B0303644F
:109990005BE74FF0020BF7E71B48026B4BEA020252
:1099A0000263A2E71848026C4BEA020202649CE7D9
:1099B0004FF0040BE8E74FF0080BE5E74FF0100B12
:1099C000E2E74FF0200BDFE74FF0020B45E74FF4E3
:1099D000803B42E74FF4003B3FE74FF4802B3CE7EE
:1099E0004FF0400BD0E74FF0800BCDE74FF4807B7A
:1099F000CAE700BFDC8F00200004004000080040E0
:109A0000000C00400000014000380240F4CD040882
:109A1000188E0020FCCD040874CB0408ACCB0408DD
:109A200000040140004001400010004000140040CC
:109A30000044014000B9704703682DE9F04F03F17D
:109A40003F4404F57E04534EA40A0125345D04F01E
:109A50001F066409032C05FA06F500F09580042C16
:109A600000F08D80022C45D08588B5FA85F0C0F1D4
:109A70001F0080B2C40803EB840400F00700266ACC
:109A800080000F27874026EA07062662276A01F032
:109A900003068240701E3A4301282262C1F3810E00
:109AA000C1F300184FF000024FEA51114FF0010CC2
:109AB00025D94FF0030E0CFA02F0A84315D150003F
:109AC0001F680EFA00F4E44327401F60D3F80080BB
:109AD00006FA00F747EA08071F60DF683C40DC60D1
:109AE000DC6801FA00F02043D8600132102AE2D18C
:109AF000BDE8F08F284C666C35436564B4E74FF0E1
:109B000003090CFA02F737EA050033D15000D3F805
:109B100000A009FA00F4E4430AEA040AC3F800A02A
:109B2000D3F800B006FA00FA4AEA0B0AC3F800A01C
:109B3000D3F808A004EA0A0AC3F808A0D3F808B0CA
:109B40000EFA00FA4AEA0B0AC3F808A0D3F804A0F8
:109B50002AEA07075F60D3F804A008FA02F747EA89
:109B60000A075F60DF683C40DC60DC6801FA00F0F7
:109B70002043D8600132102AC3D1BDE8F08F064CD3
:109B8000266B354325636FE7034C266C354325640C
:109B90006AE700BF74CB04080038024003682DE96F
:109BA000F04F03F13F4404F57E04534EA40A01250F
:109BB000345D04F01F066409032C05FA06F500F075
:109BC0009580042C00F08D80022C46D08588B5FA53
:109BD00085F0C0F11F0080B2C40803EB840400F0DC
:109BE0000700266A80000F27874026EA07062662BC
:109BF000276A01F0030602FA00F0721E3843012AB8
:109C0000C1F3810EC1F3001820624FEA51114FF0E9
:109C100000024FF0010C25D94FF0030E0CFA02F0B0
:109C2000A84315D150001F680EFA00F4E443274002
:109C30001F60D3F8008006FA00F747EA08071F60A4
:109C4000DF683C40DC60DC6801FA00F02043D8604B
:109C50000132102AE2D1BDE8F08F284C666C354302
:109C60006564B3E74FF003090CFA02F737EA050021
:109C700033D15000D3F800A009FA00F4E4430AEA13
:109C8000040AC3F800A0D3F800B006FA00FA4AEAC2
:109C90000B0AC3F800A0D3F808A004EA0A0AC3F824
:109CA00008A0D3F808B00EFA00FA4AEA0B0AC3F883
:109CB00008A0D3F804A02AEA07075F60D3F804A03D
:109CC00008FA02F747EA0A075F60DF683C40DC6099
:109CD000DC6801FA00F02043D8600132102AC3D1B9
:109CE000B9E7064C266B354325636FE7034C266CBA
:109CF000354325646AE700BF74CB0408003802408E
:109D000010B50409013C032C17D80E4B33F814206E
:109D100000F00F0042FA00F313F001030FD001230B
:109D200003FA00F0013810403EF014FE064A074BDB
:109D3000125D104403EBC00010BD002010BD18469A
:109D400010BD00BFF4CD0408FCCD0408188E00201F
:109D50002DE9F843304D2B8AB5F80C8018EA03083A
:109D600027D02E4E4FF00047B8FA88F327FA03F2B7
:109D7000D24391B21B3B08EA02082982042B15D872
:109D8000DFE803F0372D23190300D6F86431002BE8
:109D900039D1EB6A1FFA83F9D6F8604134B12368F0
:109DA0002046494698476468002CF8D1B8F1000F66
:109DB000DAD1BDE8F883D6F84001696B036889B24F
:109DC0009847B8F1000FCFD1F3E7D6F84401A96B5B
:109DD000036889B29847B8F1000FC5D1E9E7D6F812
:109DE0004801E96B036889B29847B8F1000FBBD10D
:109DF000DFE7D6F84C01296C036889B29847B8F1BF
:109E0000000FB1D1D5E703F1FF3900231FFA89F91B
:109E1000C6F86431C0E700BF00180040DC8F0020A6
:109E20002DE9F843304D2B8AB5F80C8018EA030869
:109E300027D02E4E4FF00047B8FA88F327FA03F2E6
:109E4000D24391B21B3B08EA02082982042B15D8A1
:109E5000DFE803F0372D23190300D6F81431002B67
:109E600039D1EB6A1FFA83F9D6F8104134B123686F
:109E70002046494698476468002CF8D1B8F1000F95
:109E8000DAD1BDE8F883D6F8F000696B036889B2CF
:109E90009847B8F1000FCFD1F3E7D6F8F400A96BDB
:109EA000036889B29847B8F1000FC5D1E9E7D6F841
:109EB000F800E96B036889B29847B8F1000FBBD18D
:109EC000DFE7D6F8FC00296C036889B29847B8F13F
:109ED000000FB1D1D5E703F1FF3900231FFA89F94B
:109EE000C6F81431C0E700BF00400140DC8F0020FD
:109EF0002DE9F843304D2B8AB5F80C8018EA030899
:109F000027D02E4E4FF00047B8FA88F327FA03F215
:109F1000D24391B21B3B08EA02082982042B15D8D0
:109F2000DFE803F0372D23190300D6F8EC30002BBF
:109F300039D1EB6A1FFA83F9D6F8E84034B12368C7
:109F40002046494698476468002CF8D1B8F1000FC4
:109F5000DAD1BDE8F883D6F8C800696B036889B226
:109F60009847B8F1000FCFD1F3E7D6F8CC00A96B32
:109F7000036889B29847B8F1000FC5D1E9E7D6F870
:109F8000D000E96B036889B29847B8F1000FBBD1E4
:109F9000DFE7D6F8D400296C036889B29847B8F196
:109FA000000FB1D1D5E703F1FF3900231FFA89F97A
:109FB000C6F8EC30C0E700BF00040140DC8F002091
:109FC0002DE9F843304D2B8AB5F80C8018EA0308C8
:109FD00027D02E4E4FF00047B8FA88F327FA03F245
:109FE000D24391B21B3B08EA02082982042B15D800
:109FF000DFE803F0372D23190300D6F8EC30002BEF
:10A0000039D1EB6A1FFA83F9D6F8E84034B12368F6
:10A010002046494698476468002CF8D1B8F1000FF3
:10A02000DAD1BDE8F883D6F8C800696B036889B255
:10A030009847B8F1000FCFD1F3E7D6F8CC00A96B61
:10A04000036889B29847B8F1000FC5D1E9E7D6F89F
:10A05000D000E96B036889B29847B8F1000FBBD113
:10A06000DFE7D6F8D400296C036889B29847B8F1C5
:10A07000000FB1D1D5E703F1FF3900231FFA89F9A9
:10A08000C6F8EC30C0E700BF00040140DC8F0020C0
:10A090002DE9F843304D2B8AB5F80C8018EA0308F7
:10A0A00027D02E4E4FF00047B8FA88F327FA03F274
:10A0B000D24391B21B3B08EA02082982042B15D82F
:10A0C000DFE803F0372D23190300D6F8C430002B46
:10A0D00039D1EB6A1FFA83F9D6F8C04034B123684E
:10A0E0002046494698476468002CF8D1B8F1000F23
:10A0F000DAD1BDE8F883D6F8A000696B036889B2AD
:10A100009847B8F1000FCFD1F3E7D6F8A400A96BB8
:10A11000036889B29847B8F1000FC5D1E9E7D6F8CE
:10A12000A800E96B036889B29847B8F1000FBBD16A
:10A13000DFE7D6F8AC00296C036889B29847B8F11C
:10A14000000FB1D1D5E703F1FF3900231FFA89F9D8
:10A15000C6F8C430C0E700BF000C0040DC8F002010
:10A160002DE9F8432F4D2B8AB5F80C8018EA030827
:10A1700027D02D4E4FF00047B8FA88F327FA03F2A4
:10A18000D24391B21B3B08EA02082982042B15D85E
:10A19000DFE803F0352B22190300D6F89C30002BA2
:10A1A00037D1EB6A1FFA83F9D6F8984034B12368A7
:10A1B0002046494698476468002CF8D1B8F1000F52
:10A1C000DAD1BDE8F883B06F696B036889B298474C
:10A1D000B8F1000FD0D1F4E7F06FA96B036889B232
:10A1E0009847B8F1000FC7D1EBE7D6F88000E96BCC
:10A1F000036889B29847B8F1000FBDD1E1E7D6F8FE
:10A200008400296C036889B29847B8F1000FB3D174
:10A21000D7E703F1FF3900231FFA89F9C6F89C300C
:10A22000C2E700BF00080040DC8F00202DE9F843A2
:10A230002C4D2B8AB5F80C8018EA030825D02A4E3D
:10A240004FF00047B8FA88F327FA03F2D24391B2ED
:10A250001B3B08EA02082982042B13D8DFE803F02D
:10A26000322920170300736F002B34D1EB6A1FFAD9
:10A2700083F9346F34B123682046494698476468AF
:10A28000002CF8D1B8F1000FDCD1BDE8F883306DB7
:10A29000696B036889B29847B8F1000FD2D1F4E72F
:10A2A000706DA96B036889B29847B8F1000FC9D1E6
:10A2B000EBE7B06DE96B036889B29847B8F1000F1E
:10A2C000C0D1E2E7F06D296C036889B29847B8F114
:10A2D000000FB7D1D9E703F1FF3900231FFA89F93D
:10A2E0007367C6E700040040DC8F00202DE9F843C7
:10A2F0004FF080452B8AB5F80C8018EA030825D06A
:10A30000294E4FF00047B8FA88F327FA03F2D243F8
:10A3100091B21B3B08EA02082982042B13D8DFE81C
:10A3200003F0322920170300F36C002B34D1EB6AC1
:10A330001FFA83F9B46C34B1236820464946984724
:10A340006468002CF8D1B8F1000FDCD1BDE8F883C7
:10A35000B06A696B036889B29847B8F1000FD2D12F
:10A36000F4E7F06AA96B036889B29847B8F1000F67
:10A37000C9D1EBE7306BE96B036889B29847B8F154
:10A38000000FC0D1E2E7706B296C036889B298476F
:10A39000B8F1000FB7D1D9E703F1FF3900231FFA55
:10A3A00089F9F364C6E700BFDC8F00202DE9F8438C
:10A3B0005C4D2B8AB5F80C8018EA030826D05A4E5B
:10A3C0004FF00047B8FA88F327FA03F2D24391B26C
:10A3D0001B3B08EA02082982042B14D8DFE803F0AB
:10A3E0004C433A310300736A002B40F09480EB6ACF
:10A3F0001FFA83F9346A34B12368204649469847E6
:10A400006468002CF8D1B8F1000FDBD1474D2B8ADE
:10A41000B5F80C8018EA03084BD0434E4FF00047C4
:10A42000B8FA88F327FA03F2D24391B21B3B08EA49
:10A4300002082982042B39D8DFE803F05B51473D3D
:10A4400027003068696B036889B29847B8F1000F3C
:10A45000B8D1DBE77068A96B036889B29847B8F197
:10A46000000FAFD1D2E7B068E96B036889B29847B3
:10A47000B8F1000FA6D1C9E7F068296C036889B26A
:10A480009847B8F1000F9DD1C0E7D6F83C31002BBA
:10A4900039D1EB6A1FFA83F9D6F8384134B1236811
:10A4A0002046494698476468002CF8D1B8F1000F5F
:10A4B000B6D1BDE8F883D6F81801696B036889B294
:10A4C0009847B8F1000FABD1F3E7D6F81C01A96BA0
:10A4D000036889B29847B8F1000FA1D1E9E7D6F82F
:10A4E0002001E96B036889B29847B8F1000F97D152
:10A4F000DFE7D6F82401296C036889B29847B8F1E0
:10A50000000F8DD1D5E703F1FF3900231FFA89F938
:10A51000C6F83C31C0E703F1FF3900231FFA89F97F
:10A52000736267E700000140DC8F002000440140B7
:10A530002DE9F8432C4D2B8AB5F80C8018EA030856
:10A5400025D02A4E4FF00047B8FA88F327FA03F2D5
:10A55000D24391B21B3B08EA02082982042B13D88C
:10A56000DFE803F0322920170300736A002B34D18F
:10A57000EB6A1FFA83F9346A34B1236820464946EE
:10A5800098476468002CF8D1B8F1000FDCD1BDE821
:10A59000F8833068696B036889B29847B8F1000F97
:10A5A000D2D1F4E77068A96B036889B29847B8F113
:10A5B000000FC9D1EBE7B068E96B036889B298472F
:10A5C000B8F1000FC0D1E2E7F068296C036889B2E6
:10A5D0009847B8F1000FB7D1D9E703F1FF3900234D
:10A5E0001FFA89F97362C6E700000140DC8F002082
:10A5F000F0B50668B30AA3F58013512B00F28380EF
:10A60000DFE803F08F9295898181298181818181A1
:10A61000818181818181818181818181818181812A
:10A62000818181818181818181818181818181811A
:10A63000818181818181818181818181818181810A
:10A64000818181818C8281818181818181818181EE
:10A6500081818181988508254FF4B0774379B6F8D8
:10A660000CE0022023FA00F4A0401FFA80FCA800AE
:10A670002346441903EB4403384C002963D04CEAC9
:10A680000E0C03F1040E44F8231044F82E20A6F813
:10A690000CC0E319EFF31181502282F312884219A2
:10A6A00004EBC202D2F810C0BCF1000F03D044F892
:10A6B00007C013690433421904EBC202576917B18A
:10A6C0001F6053690433421904EBC202976917B142
:10A6D0001F6093690433421904EBC202D76917B1B2
:10A6E0001F60D36904330027CAB21F6082F3118848
:10A6F000284404EBC004236A03BBB38923F001039D
:10A700001B041B0CB381F0BD0525E827A6E7072530
:10A710004FF49C77A2E70425C0279FE70025202758
:10A720009CE70125482799E70225702796E703252E
:10A73000982793E706254FF488778FE7B38943F08E
:10A740000103B381F0BD2EEA0C0C03F1040EA6F850
:10A750000CC044F8231044F82E209AE7DC8F002028
:10A7600010B503687C487D4C0139834282B024686F
:10A7700089B200F0AF80A0F58060834200F0AA802B
:10A7800000F58040834200F0818000F580608342C4
:10A790007CD000F58060834278D018886408B4FBD0
:10A7A000F2F4013CA4B282B2B3F1804F0AD06C48FB
:10A7B000834207D000F58060834203D000F58060BB
:10A7C000834202D122F0700292B26648834200F0C6
:10A7D0008F8000F58060834200F0938022F4407205
:10A7E00000F56C4092B283421A80D9621C8540F019
:10A7F0009180012100221A86998219885A4841F0D5
:10A8000001018342198049D0B3F1804F00F08D805F
:10A81000534A934200F08B8002F58062934200F02D
:10A82000888002F58062934200F0858002F58062A4
:10A83000934200F0828002F5806293427FD002F55D
:10A84000704293427DD002F5705293427BD002F564
:10A850008062934279D002F58062934277D0A2F56C
:10A860009832934275D002F58062934215D002F57A
:10A870008062934208BF0D2210D002A84FF001233E
:10A8800040F8043D34F0D6FF02B010BD1888B4FB88
:10A89000F2F4013CA4B282B286E70C22334B03EB04
:10A8A000C20201A854798DF80440012300228DF8DA
:10A8B00005308DF807308DF8062034F0BBFF1B2CD7
:10A8C0000FD02E2CE0D12A4B019301A834F0B2FF17
:10A8D00002B010BD1888B4FBF2F4013CA4B282B2FD
:10A8E00070E7244B019301A834F0A4FF02B010BD1F
:10A8F00001201A80D9621C8598821A8802431A8026
:10A9000086E701201A80D9621C8598821A88024342
:10A910001A8079E7104A93423FF46BAF01229A8282
:10A920001A8842F001021A806EE70122B6E702227D
:10A93000B4E70322B2E70422B0E70522AEE706221D
:10A94000ACE70722AAE70822A8E70922A6E70A221D
:10A95000A4E70B22A2E700BF0004014028BC0020AE
:10A9600000040040001000400000014038CE040800
:10A970002C010001190100010B4A0C4B90421B688D
:10A9800010D0A2F5806290420CD002F58042904235
:10A9900008D002F58062904204D002F580629042B5
:10A9A00018BF5B08184670470004014028BC00200F
:10A9B0002B4B98423CD0B0F1804F3BD0A3F57C4369
:10A9C000984239D003F58063984237D003F580630D
:10A9D000984235D003F58063984233D003F5806305
:10A9E000984233D003F57043984231D003F5705349
:10A9F000984229D003F5806398422BD003F58063F9
:10AA0000984229D0A3F59833984227D003F5806364
:10AA1000984207D003F58063984208BF0D2202D008
:10AA2000002070470C220F4B03EBC20318797047CC
:10AA30000022F8E70122F6E70222F4E70322F2E718
:10AA40000422F0E70522EEE70822ECE70622EAE717
:10AA50000722E8E70922E6E70A22E4E70B22E2E719
:10AA60000000014038CE04082DE9F04F83B08E4D30
:10AA7000DFF8408201908B460BF1FF339B46013398
:10AA800000F00E8138F00CF9884C894FDFF828C2AD
:10AA90004FF4FA7A4FF0100E4FF47A76DCF8043067
:10AAA000C3F30803002B40F0DF80EFF31183002B8A
:10AAB00040F0DA802168AA6800BF23689942F9D182
:10AAC000386806FB00F39A1AB2FBF0F206FB01218C
:10AAD000DCF80430C3F30803002B40F0A680EFF34A
:10AAE0001183002B40F0A1802368A86800BF226872
:10AAF0009342F9D1D7F8009006FB09F2101AB0FB87
:10AB0000F9F006FB03035B1AB3F57A7FE0D3BAF1E1
:10AB1000010AC3D1019B581CC0B237F01DFFDFF8FA
:10AB200098C1DCF804304FF47A7AC3F30803564630
:10AB30004FF0100E002B38D1EFF31183002B34D1DE
:10AB40002168AA6800BF23689942F9D1386806FBDA
:10AB500000F39A1AB2FBF0F206FB0121DCF8043094
:10AB6000C3F30803002B41D1EFF31183002B3DD138
:10AB70002368A86800BF22689342F9D1D7F80090F3
