:020000040800F2
:1000000000200010ED5B0308A10A0208D5340008A7
:100010009F0A02089D0A02089B0A020800000000CD
:10002000000000000000000000000000990A020823
:10003000970A020800000000950A02086D2D0008CA
:10004000555C0308555C0308555C0308555C0308C0
:10005000555C0308555C0308B5350008E136000817
:10006000A5360008693600082D36000889670008A3
:100070007967000869670008596700084967000840
:100080003567000821670008555C0308555C0308C4
:10009000114A0208555C0308555C0308F135000855
:1000A000951B0008691F0008555C0308E52000083F
:1000B000AD1E0008F11D0008555C0308555C0308DF
:1000C000555C0308555C0308555C0308555C030840
:1000D000555C0308A52E0008292E0008AD2D000848
:1000E00079350008555C0308850A0208555C030849
:1000F000611C0008555C0308291D0008555C0308B5
:10010000000000000000000000000000555C030833
:10011000555C0308555C030839D1000825D1000857
:100120000D670008F9660008E5660008D16600085A
:10013000BD660008555C03080000000000000000D8
:10014000555C0308555C0308555C0308000000007B
:10015000000000000000000000000000000000009F
:100160000000000000000000555C0308555C030817
:10017000555C0308000000000000000000000000C3
:0801800000000000555C0308BB
:1001880070B50C4C23689BB15A68821A002A0FDBA1
:100198000546002603E05A68AA1A002A08DB99686F
:1001A8001E731A682160184690472368002BF2D105
:1001B80070BD00BF301C00202DE9F04391F800C04D
:1001C800077BDFF8A8E0077500236FEA0C0C5FFADD
:1001D8008CFC47758775C775077647768776C77627
:1001E80007774777C383038443848384C38498460B
:1001F800142405254CFA05F303F00103002B14BF62
:1002080019260A26434415F0010F04EB06015FFA8C
:1002180083F889B214BFB9464FF000092346C218C3
:1002280001339BB2994282F81490F8D1013D3444CD
:100238006B1CA4B2DED118F0010F14BF19250A25D2
:10024800611989B22346C21801339BB28B421775D4
:10025800F9D12C44A4B2631C04449BB20022227539
:10026800AEF804300361BDE8F08300BF301C002005
:100278002DE9F04FDFF898A0BAF806300B3383B0B9
:100288001FFA83F901F1060B4FF001084FF0000E39
:10029800002711F801CB3E464D460122A5F10B037C
:1002A8009BB2019109E08189ADF8021001339BB23C
:1002B8009DF802102175AB4208D0C418002AF2D16B
:1002C800C41801339BB2AB422275F6D10344013600
:1002D800092F019983F814E0F6B20CD0092E15D035
:1002E80008FA07F313EA0C0F14BF012200220C3599
:1002F800ADB20137D2E709F1780959451FFA89F9F2
:10030800C6D1AAF806E003B0BDE8F08F0022EEE7F8
:10031800301C00202DE9F047DFF860E0BEF8083017
:1003280004331FFA83FC01F10908012711F8016B56
:10033800E1460025A9F1040307FA05F29BB2324011
:10034800CAB190F80CA0C41801339BB24B4584F88D
:1003580014A0F5D101350433082D1FFA83F9E9D12A
:100368000CF1200C41451FFA8CFCDFD10023AEF8BC
:100378000830BDE8F0879246E5E700BF301C002052
:10038800436A8269D154436A0169C26B01338B4263
:1003980028BF002343623AB370B4EFF311835022AD
:1003A80082F31288C66B3268D20704D5DBB283F3B6
:1003B800118870BC7047716869B9D0E909429442E4
:1003C80018D085691544F56018D9A21A726084623C
:1003D800002280F85820326842F00102DBB2326015
:1003E80083F3118870BC7047426D136843F0800333
:1003F80013607047012280F85820D7E70469A21AD1
:1004080072608162E4E700BF034610B4846BD96868
:10041800406954B19A6C8C1A013A005D5DF8044B3E
:1004280008BF0A46C0B29A6470471A6A805C0132F3
:100438008A4228BF2246C0B21A625DF8044B704750
:10044800C36B13B190F858007047D0E90903181A24
:10045800B0FA80F040097047D0E909120369914267
:1004680038BFC9188A1AC16B013B19B149680A44D7
:100478009A4201D2981A704700207047836B43B1A3
:10048800826C5B689A4291BF981AC0689B1AC01820
:100498007047D0E907239A422FBFD01AC068801846
:1004A800C01A70470A4B30B503F10C0493F90020C9
:1004B8005D78072AC8BF143A811804338D7213F87F
:1004C800025C855413F8012C0A759C42EED130BDAC
:1004D8006C61030803682DE9F0415D6A1DB12B4684
:1004E800BDE8F0411847002A174611DD04460E46BC
:1004F8000F4400E023689B68204698470028F9D0FD
:10050800236816F8011B1B6820469847BE42F1D1A4
:10051800BDE8F08103681B69184700BF0023282243
:10052800027043708370C370704700BF90ED057A06
:1005380090ED004AD0ED066AD0ED014AD0ED047A7C
:1005480090ED035AD0ED025AA4EE007AB0EE406A5C
:10055800B0EE470AB0EE667AA4EE867A67EEC07A05
:10056800A5EE407AE5EE867A80ED057AC0ED067A4A
:10057800704700BFD0ED057A90ED013AD0ED003A12
:10058800D0ED064A90ED024A90ED077A90ED035AB5
:1005980090ED086AD0ED045AC0ED067AF0EE406A94
:1005A80027EE830AC0ED056AA3EEA60A80ED087A55
:1005B800A4EE240AA5EE470AA5EEC60A80ED070AAE
:1005C800704700BFD0ED007A90ED017A30EE670AEF
:1005D800E7EE007AB0EE670AC0ED007A704700BF18
:1005E800704700BF0028F0B403DA2D230B70404297
:1005F8000131092804464FF0010307DD03EB8303AB
:100608005B00B0FBF3F2092AF8D883B10F48A0FBCE
:100618000326B4FBF3F2092A02F1570C02F1300762
:1006280009DD03FB1244F30801F801CBEFD10023E5
:100638000B70F0BC704703FB1244F30801F8017B10
:10064800E5D100230B70F0BC704700BFCDCCCCCCFB
:10065800884270B44FF0010442D301FB04F4B0FBAC
:10066800F4F58D42F9D2ECB142BB092D04FB15001B
:1006780005F1570605F130020EDDB4FBF1F403F87D
:10068800016B7CB1B0FBF4F5092D04FB150005F1F5
:10069800570605F13002F0DCB4FBF1F403F8012B46
:1006A800002CEFD100221A7070BC704703F8016B60
:1006B800B4FBF1F4002CF5D0B0FBF4F5092D04FBE4
:1006C800150005F1370605F13002EFDCB4FBF1F453
:1006D80003F8012B002CEFD100221A7070BC704770
:1006E8000546002AEAD1C0E70A44914215D030B441
:1006F8000139551E41F2210211F8014F082380EA01
:10070800042004044CBF82EA40004000013B80B250
:10071800F7D18D42F0D130BC7047704703685A1C3E
:1007280002601970704700BF2DE9F047089C2578D2
:10073800002B804689460CBF4FF0200A4FF0300A44
:10074800661C25B3002A26DD334601E0024698B12F
:1007580013F8011B501E0029F8D1971E60B13D46C1
:10076800013D51464046C8476B1C002BF8DC2578F4
:1007780027EAE770013045B1041B29464046C847BF
:10078800301916F8015B002DF7D1BDE8F087002A73
:1007980003DC2846F9E70020EEE7571EDFE700BF35
:1007A800F0B400250E4E00F1FF3C2F46292165B11B
:1007B80003788B420BD003460CEB050403E013F8D7
:1007C800012F8A4203D0A342F9D1C155013701351F
:1007D8000B2D02D016F8011FE9E7F0BC704700BFE7
:1007E8007861030830B42323242525242D212E22C3
:1007F80003702F2345708470C1700271437130BC3F
:10080800704700BF06224FF47A7302704360704746
:100818004378007840EA032010FB01F04FF4807120
:1008280090FBF1F000F30F0000B270472DE9F04F94
:10083800DFF8DCC1754CDCF80C502288B4F90AA04A
:10084800C2EB25135200C2EBE502B4F902505B4338
:100858006A43B4F904501B135D43AD1305EBE2255D
:10086800B5F5FA324FEAE57B85B04BF1FF33CDE9B8
:100878000023DDE900325343009AA561A2FB0289F7
:10088800CDE90201B4F908200199009809EB430960
:100898005143D31700FB0311A2FB00230B444FEA7B
:1008A800EA7B0AFB09F11F0308FB0B13AAFB0801EB
:1008B80019444FEA102A4AEA016A16034FEA212B23
:1008C80047EA12571AEB0602E6884BEB070312F1C8
:1008D800000A43F5004BAAFB060106FB0B114A1060
:1008E800CB1752EA030100F08E80B4F9106000982B
:1008F80006FB09F1F71708FB0711A6FB086739443F
:10090800B4F90E808B4601994FEAE87908FB01F1AA
:1009180000FB0911A8FB00898944DCF810104FEA94
:100928004947C1F5801C47EAD837B2464FEA4846DE
:10093800B4F90C801AEB060A66464BEB070BF7175F
:100948004FEAC806019600260096F907DDE9006718
:100958004FEACC7016EB0A0647EB0B0741EA5C013D
:10096800801B61EB070140F6354C8946A0FB0C0162
:100978000CFB091134F06AFFB4F91620B4F914A07D
:100988004E13470B47EAC14702FB06FCD31707FB88
:1009980003CCA2FB07236344564307FB0366A2FB71
:1009A80007233344560E46EAC31632184FEA6367E4
:1009B80047EB010380460AFB01F14FEAEA7B08FB9B
:1009C8000B17AAFB08013944C60C46EA413612EB5C
:1009D80006084FEAE147B4F9122043EB07094FEA4A
:1009E800182141EA096113010B44029A0AB11B0A52
:1009F8001360039B23B105EB850580352D121D601F
:100A080005B0BDE8F08F0023EFE700BF7432002087
:100A1800301C0020704770474FF400638382704792
:100A28004FF4006383827047012380F85430704785
:100A380007B5F7216A462AF094FA9DF801309DF827
:100A480000100C4A1B0143EA01339DF8021043EAE7
:100A5800111313619DF804309DF803101B0143EA3C
:100A680001339DF8051043EA1113D36003B05DF814
:100A780004FB00BF301C002070B4D0E90041057BA6
:100A880002690223AB4063600B684FF6FE700340B7
:100A98000B60EFF31183502181F31288D66B316814
:100AA800C9071CD4706870B9D2E909418C4213D0C7
:100AB80095690D44F56017D81469611A71609062E0
:100AC800002182F85810326842F00102DBB232602D
:100AD80083F3118870BC7047012182F85810DBB28B
:100AE80083F3118870BC7047611A71609462E7E7FC
:100AF80070B40468037B2268022101FA03F31A42E6
:100B080017D002691249134802EB420201EB421264
:100B180005785068016875B9C568528928684FF624
:100B2800FE7630402860C868D24392B20240CA605C
:100B3800636070BC7047406902684FF6FE752A40D2
:100B48000260CA684FF6FF600240CA60F0E700BF63
:100B5800346400203064002010B50168047B0A6802
:100B68000223A3401A420AD0054A406800241470A0
:100B7800026822F001021204120C02604B6010BDE0
:100B88004427002010B50168047B0A680223A340AB
:100B98001A420AD0054A406800241470026822F0FC
:100BA80001021204120C02604B6010BDDB420020EF
:100BB80070B544880546C4F30B04224608460E4621
:100BC800002135F0CFF92B69094A934202D3094A2B
:100BD800934205D35BB121463046BDE870401847C3
:100BE800224630461946BDE8704035F05BB970BD05
:100BF80038CF03084CD0030810B42721262401223B
:100C08000023047041708270C3705DF8044B704714
:100C180038B53B4B3B481A785B783B493B4C3C4DDD
:100C280002EB420203EBC30301EB430300EB421266
:100C38002B60226034F0EEF800213022354835F080
:100C480091F9206830F0F2FB334B03F1780102E0B0
:100C580006338B4251D01A78002AF9D19C78D8787B
:100C6800844202D358790028F2D02C492C4B0C79B5
:100C78002C492D480A70C822642111FB0421002246
:100C88002A4CDA61C3E90112C3E90322C3E9052248
:100C980083F8202083F8212004601AF0D1FE244B29
:100CA8009FED245A9A8A9B7D9FED236A06EE902A2F
:100CB800F8EEE66A214AC5EE265A1188507907EE01
:100CC800101A1F490B60538812791E4907EE903A93
:100CD800B8EEC77AF8EEE77A1B4BC1ED005A27EE5B
:100CE800067A67EE867A18725A7283ED017AC3ED36
:100CF800007ABDE8384027F097BA0122B5E700BF6F
:100D08003946002056460020A0470020AC7100203C
:100D1800B071002064200020383600202494002080
:100D2800EC3B002000000020D8280020F22C0020F6
:100D3800301C0020C0C9FB4817B7D1380029002053
:100D4800B88F0020BC8F0020908F002030B4012382
:100D58000225142415212222057244704171C270A3
:100D680003700371837030BC704700BF30B5044610
:100D7800406D21710368A26823F00103036087B006
:100D88006379009213F0040F4FEA03324FEA03230A
:100D980014BF4FF48055002503F4806302F4005219
:100DA8000195CDE90223002511F0010305952ED107
:100DB800049308238D07694648BF049322F07CF802
:100DC8002079636D617900F00202002A15BF4FF4A3
:100DD80040324FF480324FF40034002410F0010FF9
:100DE800586808BF2246CC074CBF024320EA0202DB
:100DF8005A609A6809074CBF42F0080222F00802BC
:100E08009A601A6842F001021A6007B030BD0423E4
:100E180004930C23CEE700BF30B50446406DA160B3
:100E2800036823F0010303606379257987B013F021
:100E3800040F4FEA03324FEA032303F4806302F4FA
:100E48000052CDE90223009114BF4FF480510021D4
:100E5800EB0748BF042301914FF00001CDE90411CD
:100E680054BF08230493694648BF0C23AD0748BF05
:100E7800049322F021F82079636D617900F0020271
:100E8800002A15BF4FF440324FF480324FF400343B
:100E9800002410F0010F586808BF2246CC074CBF49
:100EA800024320EA02025A609A6809074CBF42F0DE
:100EB800080222F008029A601A6842F001021A60D9
:100EC80007B030BD2DE9F341056906460F467DBBE5
:100ED800D0F80080C8F30A0323B30023D6F80080B3
:100EE80001932AF077FD042819D1224C236943F095
:100EF80001032361BBB2A8F800302AF06BFD042877
:100F08002ED108F102030193019B3F0C1F802AF0A8
:100F180061FD2369042823F00103236125D06FF0C4
:100F2800010505E02AF056FD042805D04FF0FF35ED
:100F3800284602B0BDE8F0810E4C236943F0020355
:100F48002361C4F81480236943F0400323612AF025
:100F580041FD2369042823F002032361BDD0E5E79E
:100F6800236923F001032361D9E73368043333602D
:100F7800DEE700BF00200240F8B504460D468E1893
:100F88000027B54201D12069F8BDE368591CE1602A
:100F9800234415F8012B1A720429F2D1A1682046BE
:100FA800FFF790FFC4E90370EBE700BF38B52C22C8
:100FB800002134F0D7FF0346642140F2DC5240F2AE
:100FC800022019745A821321202240F21A4540F255
:100FD8006C74188399760E2002211A7701229D825B
:100FE800DC8240F2753540F6430483F8220083F82A
:100FF8002A109A7383F82920DD831C841946024835
:10100800BDE838401CF0E2B9BC8F03081B4B1B68D5
:1010180070B56BBB1A4B1D784DB31A4A1A4B117831
:101028004FF4987202FB053540F20D3610E058680F
:101038001C894460046844F001040460A2F8486014
:10104800D06803F5987340F48070AB42D0600ED03E
:101058001A680029EBD15162B3F82C01D4682043F7
:10106800D06003F5987323F8041CAB42F0D170BD2F
:101078000BF058F90028CDD170BD00BFDC1D002051
:10108800346700203064002038670020022810B53B
:1010980004460BD8084B0949094A00EB400003EB0A
:1010A800401318460B60147030F0C0F9601CC0B2D1
:1010B800BDE8104011F0B0B956460020AC710020D0
:1010C80039460020F0B40C292BD8DFE801F0752A46
:1010D8002A2A502A2A2A2C2A2A2A0700046AB2F81D
:1010E8000CC0978816686B4D24F480540462036A18
:1010F8004468C16923F4005343EA0C3321F4E64100
:10110800A84243EA073341EA062100F0BC8005F50E
:101118000065A84200F0B78092684460C16102642B
:101128000362F0BC7047046AB2F80CC0978816686E
:10113800584D24F480740462036A4468C16923F436
:10114800007343EA0C2321F07301A84243EA072302
:1011580041EA060100F0848005F50065A8427FD0C9
:1011680092684460C161F0BCC26303627047046A5C
:10117800B2F80CC097881668464D24F01004046233
:10118800036A4468816923F0200321F0807143EAEF
:101198000C1321F4E641A84243EA071341EA062169
:1011A8004BD005F50065A84247D09268446081613C
:1011B800F0BC826303627047046A9389B2F804C082
:1011C8001768344E24F001040462046A4568816992
:1011D80021F4803124F0020443EA0C0321F0730166
:1011E800B04243EA040341EA07010ED02A4CA04268
:1011F8000BD004F54064A04207D004F58064A042F7
:1012080003D004F58064A04210D1D489168A578A85
:10121800B2F806C023F00803234325F4407523F0F1
:10122800040346EA07044CEA030325439268456031
:101238008161F0BC426303627047D589178AD688FA
:1012480023F0800343EA051324F44064558A23F00D
:10125800400344EA870443EA061344EA8504A4E702
:10126800D589178AD68823F4006343EA052324F432
:101278004054558A23F4806344EA071443EA06235A
:1012880044EA05146CE7158A24F4804444EA85147A
:1012980042E700BF002C0140003401402DE9F84F1F
:1012A800F0220021DFF814827A487B4C7B4E7C4F79
:1012B800DFF80C92DFF80CA234F054FE79497A4832
:1012C800DFF804C2DFF804E208F5A87245462B6887
:1012D8008B4200F0B780B3F1804F00F0BA80A34290
:1012E80000F0BE80B34200F0C980BB4200F0C88065
:1012F800634500F0C780734500F09D804B4500F0C2
:10130800C380534500F0C380DFF8C4B15B4508BF14
:101318004FF4802B00F091801C35AA42D7D1634F3F
:10132800634E4FF0030A4FF0020998F80630002B7D
:101338007AD098F804301C09013C052C03F00F03FF
:1013480072D837F8140040FA03F2D2076CD54FF080
:10135800010B0BFA03F3013B184034F0C7FA554B65
:101368001B5D184416EBC0045ED056F83030524866
:1013780098F8081003F13842920A825C02F01F00C4
:101388005209022A0BFA00FB72D0032A6AD0012AFA
:1013980004D1454842694BEA02024261B4F804C0EC
:1013A800BCFA8CF2C2F11F0292B2D00803EB8000A3
:1013B80002F00702046A92004FF00F0E0EFA02FEC6
:1013C80024EA0E040462046A01FA02F22243026269
:1013D8004FF0010E00220EFA02F434EA0C0120D17B
:1013E8005000D3F808B00AFA00F1C9430BEA010B20
:1013F800C3F808B0D3F808B0C3F808B0B3F804B01D
:101408002BEA04049C809C88A4B29C801C680C4035
:101418001C601C6809FA00F020431860D868014075
:10142800D9600132102AD6D108F11C0845457FF44D
:101438007CAFBDE8F88F4FF4005B836943EA0B0388
:10144800836169E783694FF4006B43EA0B038361A7
:1014580062E70123D0F81CB043EA0B03C3615BE7E2
:101468000223F7E71048C2694BEA0202C26195E716
:101478000D4882694BEA020282618FE70423E9E79B
:101488001023E7E72023E5E74FF4803BD5E74FF447
:10149800003BD2E7E41C00200004004000080040A4
:1014A80000100040002C014000100240848903080D
:1014B8009C590020908903089889030834880308F8
:1014C8000040014000440140001400400034014045
:1014D8000048014000B9704703682DE9F04F03F157
:1014E80038449C4EA40A0125345D04F01F066409A3
:1014F800022C05FA06F500F07481032C00F06C81CB
:10150800012C00F022818088B0FA80F4C4F11F0415
:10151800A4B2E50803EB850504F007042E6AA400CD
:101528000F27A74026EA07062E622E6A01F0030756
:10153800A2407C1E3243012CC1F3810EC1F3001876
:101548002A62C1F3411140F20981C6070BD51A6816
:1015580022F003021A601A683A431A60DA6822F025
:1015680003020A43DA6085070DD51A6822F00C02D7
:101578001A601A6842EA87021A60DA6822F00C02D6
:1015880042EA8102DA6044070DD51A6822F0300277
:101598001A601A6842EA07121A60DA6822F0300202
:1015A80042EA0112DA6002070DD51A6822F0C00279
:1015B8001A601A6842EA87121A60DA6822F0C002D2
:1015C80042EA8112DA60C6060DD51A6822F4407222
:1015D8001A601A6842EA07221A60DA6822F440722E
:1015E80042EA0122DA6085060DD51A6822F44062C3
:1015F8001A601A6842EA87221A60DA6822F440629E
:1016080042EA8122DA6044060DD51A6822F4405273
:101618001A601A6842EA07321A60DA6822F44052FD
:1016280042EA0132DA6002060DD51A6822F4404215
:101638001A601A6842EA87321A60DA6822F440426D
:1016480042EA8132DA60C6050DD51A6822F44032C2
:101658001A601A6842EA07421A60DA6822F44032CD
:1016680042EA0142DA6085050DD51A6822F4402263
:101678001A601A6842EA87421A60DA6822F440223D
:1016880042EA8142DA6044050DD51A6822F4401214
:101698001A601A6842EA07521A60DA6822F440129D
:1016A80042EA0152DA6002050DD51A6822F44002B6
:1016B8001A601A6842EA87521A60DA6822F440020D
:1016C80042EA8152DA60C6040DD51A6822F04072E7
:1016D8001A601A6842EA07621A60DA6822F04072F1
:1016E80042EA0162DA6085040DD51A6822F0406288
:1016F8001A601A6842EA87621A60DA6822F0406261
:1017080042EA8162DA6044040DD51A6822F0405238
:101718001A601A6842EA07721A60DA6822F04052C0
:1017280042EA0172DA6002040DD51A6822F04042DA
:101738001A601A6842EA87771F60DA6822F0404226
:1017480042EA8171D960BDE8F08F034C6669354380
:101758006561D8E6988903080010024000224FF01E
:10176800010C4FF003090CFA02F636EA00042ED1F8
:101778005400D3F808A009FA04F5ED4305EA0A0A6B
:10178800C3F808A0D3F808B00EFA04FA4AEA0B0A1C
:10179800C3F808A0B3F804A02AEA06069E80B3F8A6
:1017A80004A008FA02F646EA0A06B6B29E801E6847
:1017B8002E401E60D3F800A007FA04F646EA0A068F
:1017C8001E60DE6801FA04F435402C43DC60013207
:1017D800102AC8D1BDE8F08F044CE6693543E561AD
:1017E80091E6024CA6693543A5618CE600100240DB
:1017F80003682DE9F04F03F13845A94EAD0A0124DD
:10180800755D05F01F066D09022D04FA06F400F057
:101818008D81032D00F08581012D00F03B818088AA
:10182800B0FA80F4C4F11F04A4B2E50803EB8505FF
:1018380004F007042E6AA4000F27A74026EA07062B
:101848002E622E6A01F0030702FA04F47A1E34436A
:10185800012AC1F3810EC1F300182C62C1F34111B2
:1018680040F22281C60700F10881850700F1F68061
:10187800440700F1E480020700F1D280C60600F1B7
:10188800C080850600F1AE80440600F19C80020607
:1018980000F18A80C60578D4850567D4440556D4F6
:1018A800020545D4C60434D4850423D4440412D490
:1018B800020401D4BDE8F08F1A6822F040421A6091
:1018C8001A6842EA87771F60DA6822F0404242EAE3
:1018D8008171D960EEE71A6822F040521A601A68DE
:1018E80042EA07721A60DA6822F0405242EA01724C
:1018F800DA60DDE71A6822F040621A601A6842EA84
:1019080087621A60DA6822F0406242EA8162DA602D
:10191800CCE71A6822F040721A601A6842EA076235
:101928001A60DA6822F0407242EA0162DA60BBE7C4
:101938001A6822F440021A601A6842EA87521A604A
:10194800DA6822F4400242EA8152DA60AAE71A68A9
:1019580022F440121A601A6842EA07521A60DA68DA
:1019680022F4401242EA0152DA6099E71A6822F436
:1019780040221A601A6842EA87421A60DA6822F43A
:10198800402242EA8142DA6088E71A6822F440324B
:101998001A601A6842EA07421A60DA6822F440328A
:1019A80042EA0142DA6077E71A6822F440421A6094
:1019B8001A6842EA87321A60DA6822F4404242EA38
:1019C8008132DA6066E71A6822F440521A601A68AF
:1019D80042EA07321A60DA6822F4405242EA0132D7
:1019E800DA6054E71A6822F440621A601A6842EA18
:1019F80087221A60DA6822F4406242EA8122DA60B9
:101A080042E71A6822F440721A601A6842EA07220A
:101A18001A60DA6822F4407242EA0122DA6030E79A
:101A28001A6822F0C0021A601A6842EA87121A601D
:101A3800DA6822F0C00242EA8112DA601EE71A6808
:101A480022F030021A601A6842EA07121A60DA684D
:101A580022F0300242EA0112DA600CE71A6822F03A
:101A68000C021A601A6842EA87021A60DA6822F0E1
:101A78000C0242EA8102DA60FAE61A6822F00302EE
:101A88001A601A683A431A60DA6822F003020A43B5
:101A9800DA60EAE6034D6E6934436C61BFE600BF65
:101AA800988903080010024000224FF0010C4FF003
:101AB80003090CFA02F636EA00042ED15400D3F8D2
:101AC80008A009FA04F5ED4305EA0A0AC3F808A0D4
:101AD800D3F808B00EFA04FA4AEA0B0AC3F808A0C9
:101AE800B3F804A02AEA06069E80B3F804A008FA10
:101AF80002F646EA0A06B6B29E801E682E401E60AE
:101B0800D3F800A007FA04F646EA0A061E60DE6863
:101B180001FA04F435402C43DC600132102AC8D1A4
:101B2800C8E6054DEE693443EC6178E6024DAE69CE
:101B38003443AC6173E600BF0010024010B50409DD
:101B4800013C052C17D80E4B33F8142000F00F0079
:101B580042FA00F313F001030FD0012303FA00F057
:101B68000138104033F0C2FE064A074B125D10449C
:101B780003EBC00010BD002010BD184610BD00BF0B
:101B880084890308908903089C5900202DE9F843AB
:101B98002F4D2A69EB6812EA030826D02D4E4FF024
:101BA8000047B8FA88F327FA03F2D2431B3B2A61AD
:101BB80008EA0208042B15D8DFE803F0372D2319AB
:101BC8000300D6F8C430002B39D1EB6A1FFA83F929
:101BD800D6F8C04034B1236820464946984764681F
:101BE800002CF8D1B8F1000FDBD1BDE8F883D6F8A6
:101BF800A000696B036889B29847B8F1000FD0D18B
:101C0800F3E7D6F8A400A96B036889B29847B8F13E
:101C1800000FC6D1E9E7D6F8A800E96B036889B2D6
:101C28009847B8F1000FBCD1DFE7D6F8AC00296CB3
:101C3800036889B29847B8F1000FB2D1D5E703F12C
:101C4800FF3900231FFA89F9C6F8C430C0E700BF7E
:101C580000400140E41C00202DE9F8432E4D2A697C
:101C6800EB6812EA030826D02C4E4FF00047B8FA6A
:101C780088F327FA03F2D2431B3B2A6108EA0208D9
:101C8800042B15D8DFE803F0352B22190300D6F80A
:101C98009C30002B37D1EB6A1FFA83F9D6F89840AD
:101CA80034B123682046494698476468002CF8D127
:101CB800B8F1000FDBD1BDE8F883B06F696B03683A
:101CC80089B29847B8F1000FD1D1F4E7F06FA96B4A
:101CD800036889B29847B8F1000FC8D1EBE7D6F886
:101CE8008000E96B036889B29847B8F1000FBED14C
:101CF800E1E7D6F88400296C036889B29847B8F1FF
:101D0800000FB4D1D7E703F1FF3900231FFA89F98F
:101D1800C6F89C30C2E700BF00340140E41C002034
:101D28002DE9F8432E4D2A69EB6812EA030826D0FC
:101D38002C4E4FF00047B8FA88F327FA03F2D24343
:101D48001B3B2A6108EA0208042B15D8DFE803F0D8
:101D5800352B22190300D6F89C30002B37D1EB6ABB
:101D68001FFA83F9D6F8984034B1236820464946CB
:101D780098476468002CF8D1B8F1000FDBD1BDE8B2
:101D8800F883B06F696B036889B29847B8F1000FA0
:101D9800D1D1F4E7F06FA96B036889B29847B8F11D
:101DA800000FC8D1EBE7D6F88000E96B036889B269
:101DB8009847B8F1000FBED1E1E7D6F88400296C46
:101DC800036889B29847B8F1000FB4D1D7E703F197
:101DD800FF3900231FFA89F9C6F89C30C2E700BF13
:101DE80000340140E41C00202DE9F8432B4D2A69FA
:101DF800EB6812EA030824D0294E4FF00047B8FADE
:101E080088F327FA03F2D2431B3B2A6108EA020847
:101E1800042B13D8DFE803F0322920170300736F6F
:101E2800002B34D1EB6A1FFA83F9346F34B123687D
:101E38002046494698476468002CF8D1B8F1000F4D
:101E4800DDD1BDE8F883306D696B036889B29847C6
:101E5800B8F1000FD3D1F4E7706DA96B036889B2AC
:101E68009847B8F1000FCAD1EBE7B06DE96B03688A
:101E780089B29847B8F1000FC1D1E2E7F06D296C3B
:101E8800036889B29847B8F1000FB8D1D9E703F1D0
:101E9800FF3900231FFA89F97367C6E70004004079
:101EA800E41C00202DE9F8434FF080452A69EB68CF
:101EB80012EA030824D0294E4FF00047B8FA88F3F5
:101EC80027FA03F2D2431B3B2A6108EA0208042BD3
:101ED80013D8DFE803F0322920170300F36C002B36
:101EE80034D1EB6A1FFA83F9B46C34B12368204605
:101EF800494698476468002CF8D1B8F1000FDDD145
:101F0800BDE8F883B06A696B036889B29847B8F18D
:101F1800000FD3D1F4E7F06AA96B036889B2984738
:101F2800B8F1000FCAD1EBE7306BE96B036889B2EF
:101F38009847B8F1000FC1D1E2E7706B296C0368CC
:101F480089B29847B8F1000FB8D1D9E703F1FF3942
:101F580000231FFA89F9F364C6E700BFE41C0020D8
:101F68002DE9F8435A4D2A69EB6812EA030825D08F
:101F7800584E4FF00047B8FA88F327FA03F2D243D5
:101F88001B3B2A6108EA0208042B14D8DFE803F097
:101F98004A41382F0300736A002B40F09280EB6AA5
:101FA8001FFA83F9346A34B12368204649469847B2
:101FB8006468002CF8D1B8F1000FDCD1464D2A69CD
:101FC800EB6812EA03084AD0424E4FF00047B8FACD
:101FD80088F327FA03F2D2431B3B2A6108EA020876
:101FE800042B39D8DFE803F05B51473D2700306800
:101FF800696B036889B29847B8F1000FBBD1DDE778
:102008007068A96B036889B29847B8F1000FB2D11C
:10201800D4E7B068E96B036889B29847B8F1000F54
:10202800A9D1CBE7F068296C036889B29847B8F161
:10203800000FA0D1C2E7D6F8EC30002B39D1EB6AFB
:102048001FFA83F9D6F8E84034B123682046494698
:1020580098476468002CF8D1B8F1000FB7D1BDE8F3
:10206800F883D6F8C800696B036889B29847B8F155
:10207800000FACD1F3E7D6F8CC00A96B036889B29E
:102088009847B8F1000FA2D1E9E7D6F8D000E96B7C
:10209800036889B29847B8F1000F98D1DFE7D6F8FE
:1020A800D400296C036889B29847B8F1000F8ED123
:1020B800D5E703F1FF3900231FFA89F9C6F8EC3098
:1020C800C0E703F1FF3900231FFA89F9736269E752
:1020D800002C0140E41C0020004401402DE9F84395
:1020E8002B4D2A69EB6812EA030824D0294E4FF0D9
:1020F8000047B8FA88F327FA03F2D2431B3B2A6158
:1021080008EA0208042B13D8DFE803F03229201765
:102118000300736A002B34D1EB6A1FFA83F9346A1F
:1021280034B123682046494698476468002CF8D1A2
:10213800B8F1000FDDD1BDE8F8833068696B03683A
:1021480089B29847B8F1000FD3D1F4E77068A96B4A
:10215800036889B29847B8F1000FCAD1EBE7B068B5
:10216800E96B036889B29847B8F1000FC1D1E2E77B
:10217800F068296C036889B29847B8F1000FB8D1A4
:10218800D9E703F1FF3900231FFA89F97362C6E71B
:10219800002C0140E41C0020F0B50668494CB30A45
:1021A800A34200F08C800AD9474CA34263D0013483
:1021B800A34200F08180043CA3425FD0F0BDB3F598
:1021C800801F76D04A3CA342F8D17027022590F8A8
:1021D80005C002232CFA03F084468340A800002996
:1021E80054D0D6F80CE044190CEB440C9BB2374C95
:1021F80043EA0E030CF1040E44F82C1044F82E2088
:10220800F360E319EFF31181502282F31288421927
:1022180004EBC202D2F810C0BCF1000F03D044F89E
:1022280007C013690433421904EBC202576917B196
:102238001F6053690433421904EBC202976917B14E
:102248001F6093690433421904EBC202D76917B1BE
:102258001F60D36904330022C9B21A6081F3118860
:10226800284404EBC004236A5BB9F3684FF6FE7296
:102278001340F360F0BDC0270425A8E7982703257D
:10228800A5E7F36843F00103F360F0BDD6F80CE06E
:102298000E4CDB439BB203EA0E0300EB050E0CEB7E
:1022A8004E0CF3600CF1040344F82C1044F823207E
:1022B800A7E7482701258AE7E827052587E7202794
:1022C800002584E74B00100050001000E41C00209B
:1022D80030B50368594D1888594CB4FBF2F20139EE
:1022E800013AAB4294B283B089B282B20DD055485C
:1022F80083420AD0B3F1804F07D0A0F598308342CB
:1023080003D000F58060834202D122F0700292B2BD
:102318004D48834269D000F58060834241D022F461
:10232800407200F58C3092B283421A80D9621C85C3
:1023380064D100221A8601225A611A883F4942F064
:1023480001028B421A8069D0B3F1804F68D03F4AAE
:10235800934267D002F58062934265D002F500622D
:10236800934263D002F58062934261D002F59032C5
:1023780093425FD002F5406293425DD002F58062DD
:10238800934217D002F58062934208BF092212D007
:1023980002A84FF0012340F8043D20F0ABFA03B047
:1023A80030BD01201A80D9621C8558611A88024301
:1023B8001A80C9E70822264B03EBC20301A85C7FF9
:1023C8008DF80440012300228DF805308DF8073080
:1023D8008DF8062020F08EFA1B2CE0D11D4B0193BE
:1023E80001A820F087FA03B030BD01201A80D96215
:1023F8001C8558611A8802431A80A8E7114A93423B
:1024080097D002F54062934293D002F580629342DE
:102418008FD002F5806293428BD08CE70022CAE706
:102428000122C8E70222C6E70322C4E70422C2E762
:102438000522C0E70622BEE70722BCE7002C0140C0
:1024480000A24A040034014000100040000400408B
:102458006C610308190100011F4B98422CD0B0F1A0
:10246800804F2BD0A3F59433984229D003F580638D
:10247800984227D003F50063984225D003F580637E
:10248800984223D003F59033984221D003F5406356
:1024980098421FD003F58063984207D003F5806304
:1024A800984208BF092202D00020704708220B4B2F
:1024B80003EBC203187F70470022F8E70122F6E712
:1024C8000222F4E70322F2E70422F0E70522EEE70E
:1024D8000622ECE70722EAE7002C01406C610308BA
:1024E80070B4104E002332461D46012403E0013328
:1024F8000C2B0CD0947930EA040402F11C02F6D1BA
:10250800A94207D0013301350C2BEDB2F2D10020DE
:1025180070BC7047C3EBC30306EB830370BC187928
:10252800704700BF3488030810B500210446012015
:10253800FFF7D6FF207010BDC0B110B40C4C1F219E
:102548002246002300E01179884202F11C0206D0DD
:1025580001330C2BF7D100205DF8044B7047C3EB17
:10256800C30304EB83005DF8044B7047704700BF5A
:10257800348803082DE9F04F013085B0C3B20393C6
:10258800994C9A4FDFF874A2994D9A4E0A230293F8
:1025980028F0E4FA4FF4FA73DFF86CE201934FF095
:1025A8001008DAF80430C3F30803002B40F0D98090
:1025B800EFF31183002B40F0D4802068AA682368C9
:1025C8009842FAD133689A42F7D8D7F800C04FF446
:1025D8007A7101FB0CF39B1AB3FBFCF301FB00308F
:1025E8004FF47A7C4FF00109DAF80430C3F308039A
:1025F800002B40F09880EFF31183002B40F093807C
:102608002368A96822689342FAD132689142F7D8C0
:102618003A680CFB02FBABEB0101B1FBF2F10CFBDE
:1026280003131B1AB3F57A7FDED3019B013B019399
:10263800B7D1039828F0E6F84FF47A73DFF8C8E1C9
:1026480001934FF01008DAF80430C3F30803002BA5
:1026580040F0A880EFF31183002B40F0A38020689E
:10266800AA6823689842FAD133689A42F7D8D7F80B
:1026780000C04FF47A7101FB0CF39B1AB3FBFCF317
:1026880001FB00304FF47A7C4FF00109DAF804308E
:10269800C3F308034BBBEFF3118333BB2368A9686B
:1026A80022689342FAD132689142F7D83A680CFB13
:1026B80002FBABEB0101B1FBF2F10CFB03131B1A9C
:1026C800B3F57A7FE2D3019B013B0193BBD1029B17
:1026D800013B02937FF45CAF4749484B4848494A5D
:1026E8000860DA6005B0BDE8F08FEFF3118188F378
:1026F8001288D5F808B02B68DB0344BFCEF80090E9
:10270800D5F808B02368DEF80020C9B281F3118833
:10271800396813440CFB01F2A2EB0B02B2FBF1F295
:102728000CFB0323CBE7EFF3118188F31288D5F86C
:1027380008B02B68DB0344BFCEF80090D5F808B08A
:102748002368DEF80020C9B281F311883968134480
:102758000CFB01F2A2EB0B02B2FBF1F20CFB032320
:102768005FE7EFF3118388F31288D5F808C02A6869
:10277800D20304D50122CEF80020D5F808C020687D
:10278800DEF80090DBB283F3118839684FF47A726F
:10279800484402FB01F3A3EB0C03B3FBF1F302FB88
:1027A80000301DE7EFF3118388F31288D5F808C0CD
:1027B8002A68D20304D50122CEF80020D5F808C033
:1027C8002068DEF80090DBB283F3118839684FF493
:1027D8007A72484402FB01F3A3EB0C03B3FBF1F359
:1027E80002FB00304EE700BF085000200C500020CC
:1027F80010E000E010500020FC9F002000ED00E0F9
:10280800EFBEADDE0400FA05045000202DE9F04FBC
:1028180085B0CDE902109B4DDFF878A2029B013B01
:102828000293013300F02A8128F098F9964C974FCB
:10283800DFF864E2964E4FF4FA7301934FF01008F4
:10284800DEF80430C3F30803002B40F0F680EFF302
:102858001183002B40F0F1802068AA682368984211
:10286800FAD133689A42F7D8D7F800C04FF47A7192
:1028780001FB0CF39B1AB3FBFCF301FB00304FF494
:102888007A7C4FF00109DEF80430C3F30803002B0B
:1028980040F0B580EFF31183002B40F0B08023683F
:1028A800A96822689342FAD132689142F7D83A6807
:1028B8000CFB02FBABEB0101B1FBF2F10CFB0313C8
:1028C8001B1AB3F57A7FDED3019B013B0193B7D185
:1028D800039B6F4E581CC0B227F094FFDFF8B8E195
:1028E8004FF47A730193DEF80430C3F308034FF012
:1028F8001008002B44D1EFF31183002B40D120683E
:10290800AA6823689842FAD133689A42F7D8D7F868
:1029180000C04FF47A7101FB0CF39B1AB3FBFCF374
:1029280001FB00304FF47A7C4FF00109DEF80430E7
:10293800C3F30803002B44D1EFF31183002B40D1DC
:102948002368A96822689342FAD132689142F7D87D
:102958003A680CFB02FBABEB0101B1FBF2F10CFB9B
:1029680003131B1AB3F57A7FE0D3019B013B019354
:102978003FF454AFDEF80430C3F30803002BBAD099
:10298800EFF3118388F31288D5F808C02A68D203B8
:1029980004D50122CAF80020D5F808C02068DAF862
:1029A8000090DBB283F3118839684FF47A72484497
:1029B80002FB01F3A3EB0C03B3FBF1F302FB0030C2
:1029C800B0E7EFF3118188F31288D5F808B02B68C7
:1029D800DB0344BFCAF80090D5F808B02368DAF8DA
:1029E8000020C9B281F31188396813440CFB01F245
:1029F800A2EB0B02B2FBF1F20CFB0323B1E7EFF3FE
:102A0800118188F31288D5F808B02B68DB0344BF1E
:102A1800CAF80090D5F808B02368DAF80020C9B2DF
:102A280081F31188396813440CFB01F2A2EB0B0205
:102A3800B2FBF1F20CFB032342E7EFF3118388F3B7
:102A48001288D5F808C02A68D20304D50122CAF82A
:102A58000020D5F808C02068DAF80090DBB283F3CC
:102A6800118839684FF47A72484402FB01F3A3EBEA
:102A78000C03B3FBF1F302FB003000E705B0BDE83F
:102A8800F08F00BF10E000E0085000200C5000203C
:102A9800105000200450002000ED00E0224B5B683D
:102AA800C3F3080330B4D3B9EFF31183BBB91F4A9A
:102AB8001F4D20481368846811688B42FAD1296831
:102AC8008C42F7D81C4A11684FF47A7202FB01F065
:102AD800001B30BCB0FBF1F002FB03007047EFF3C2
:102AE8001182102383F3128803F1E023D2B29C6889
:102AF800196811F4803F11491EBF012008609C68C5
:102B08000A4B18680B6882F311880B4A11684FF456
:102B18007A72034402FB01F0001B30BCB0FBF1F0F9
:102B280002FB0300704700BF00ED00E008500020E2
:102B38001050002010E000E00C500020045000204D
:102B48002DE9F84F8046274C274DDFF8A490274EF3
:102B5800FFF7A4FFDFF89CE0DFF89CC04FF0100AF5
:102B68004FF47A77DCF80430C3F30803CBB9EFF3FA
:102B78001183B3B92368A96822689342FAD13268ED
:102B88009142F7D8DEF8002007FB02FBABEB01010E
:102B9800B1FBF2F107FB03131B1A4345E2D3BDE86F
:102BA800F88FEFF311818AF31288D5F808B02B68F3
:102BB800DB0304D50123C9F80030D5F808B0236831
:102BC800D9F80020C9B281F31188DEF80010134447
:102BD80007FB01F2A2EB0B02B2FBF1F207FB0323A6
:102BE800DAE700BF0850002010E000E01050002095
:102BF800045000200C50002000ED00E010B5064CF9
:102C0800237E0BB9002010BDFFF748FFE369C01A07
:102C1800D0F5FA50F7D5F5E7301C00202DE9F04F34
:102C2800DFF834C1494CDFF834E1DFF83481484E2D
:102C3800824648481AF1FF3AC0F08680DCF8043032
:102C4800C3F30803002B5ED1EFF31183002B5AD195
:102C58000568A26803689D42FAD133689A42F7D89A
:102C6800DEF800704FF47A7101FB07F39B1AB3FB8F
:102C7800F7F301FB0535DCF80430C3F308034FF024
:102C880010094FF47A77F3B9EFF31183DBB90368CE
:102C9800A16802689342FAD132689142F7D8DEF807
:102CA800002007FB02FBABEB0101B1FBF2F107FBD4
:102CB80003135B1BB3F57A7FBCD2DCF80430C3F393
:102CC8000803002BE0D0EFF3118189F31288D4F8C0
:102CD80008B02368DB0304D50123C8F80030D4F812
:102CE80008B00368D8F80020C9B281F31188DEF86B
:102CF8000010134407FB01F2A2EB0B02B2FBF1F246
:102D080007FB0323D5E7EFF31183102282F3128820
:102D1800A1682268D20303D50122C8F80020A1685F
:102D2800D0F80090D8F80050DBB283F31188DEF8B1
:102D380000704FF47A724D4402FB07F35B1AB3FB41
:102D4800F7F302FB053596E7BDE8F08F10E000E0E9
:102D5800105000200850002000ED00E00C5000202A
:102D68000450002030B4EFF31183102282F312884C
:102D7800084809490268094D094C013202608A680D
:102D88002A6000222260DBB20A6883F3118830BC13
:102D9800704700BF0850002010E000E010500020ED
:102DA800045000201D4B70B59C68636DA26BDD69F3
:102DB800CAB1E36B33B12B0700D470BD636D082231
:102DC8001A6270BD2A06F6D5D4E909028242616DFD
:102DD80011D0501CA669A062B25C26690A85B0426F
:102DE800E9D3A362E7E7A906E3D5E26A42B1988C82
:102DF800216B9047DDE70B6823F080030B60DAE76F
:102E0800E1699B8C6069DBB24E1CE6614354E16961
:102E1800E368994228BFE261CBE700BF682600203B
:102E28001D4B70B55C68636DA26BDD69CAB1E36B5D
:102E380033B12B0700D470BD636D08221A6270BDD0
:102E48002A06F6D5D4E909028242616D11D0501CD8
:102E5800A669A062B25C26690A85B042E9D3A3627A
:102E6800E7E7A906E3D5E26A42B1988C216B90475F
:102E7800DDE70B6823F080030B60DAE7E1699B8CE0
:102E88006069DBB24E1CE6614354E169E36899422C
:102E980028BFE261CBE700BF682600201D4B70B554
:102EA8001C68636DA26BDD69CAB1E36B33B12B0794
:102EB80000D470BD636D08221A6270BD2A06F6D56B
:102EC800D4E909028242616D11D0501CA669A06242
:102ED800B25C26690A85B042E9D3A362E7E7A9068E
:102EE800E3D5E26A42B1988C216B9047DDE70B6825
:102EF80023F080030B60DAE7E1699B8C6069DBB241
:102F08004E1CE6614354E169E368994228BFE261D7
:102F1800CBE700BF68260020002A12DD70B5044602
:102F28000D468E18236820469B6898470028F9D0DC
:102F3800236815F8011B1B6820469847B542F1D154
:102F480070BD70470368DB6A03B11847704700BF5C
:102F580003689B6A03B11847704700BF03682DE9EF
:102F6800F0415D6A1DB12B46BDE8F0411847002AC3
:102F7800174611DD04460E460F4400E023689B689F
:102F8800204698470028F9D0236816F8011B1B68CB
:102F980020469847BE42F1D1BDE8F08103685B69DD
:102FA800184700BF0368DB68184700BF03689B68C1
:102FB800184700BF03685B68184700BF03681B68B1
:102FC800184700BF014B1868F8E700BFA029002088
:102FD800054B53F8203033B11A689B88918A0B420D
:102FE80018BF1B0493617047D44F00202DE9F04FA0
:102FF8004A484B4B4B4C4FF090414FF0010A4FF071
:1030080002094FF004084FF0080E4FF0100C20276B
:103018004026802530F8022B12F0010F03D01960EA
:10302800A3F804A0083312F0020F03D01960A3F824
:103038000490083312F0040F03D01960A3F8048039
:10304800083312F0080F03D01960A3F804E008331E
:1030580012F0100F03D01960A3F804C0083312F05F
:10306800200F02D019609F80083312F0400F02D061
:1030780019609E80083312F0800F02D019609D807D
:10308800083312F4807F05D04FF4807B1960A3F8D1
:1030980004B0083312F4007F05D04FF4007B1960A8
:1030A800A3F804B0083312F4806F05D04FF4806B96
:1030B8001960A3F804B0083312F4006F05D04FF478
:1030C800006B1960A3F804B0083312F4805F05D0D0
:1030D8004FF4805B1960A3F804B0083312F4005F62
:1030E80005D04FF4005B1960A3F804B0083312F45C
:1030F800804F05D04FF4804B1960A3F804B0083313
:10310800D20B04D04FF4004219609A80083301F5BD
:103118008061A1427FF47EAFBDE8F08F8489030807
:103128009C5900200018004800B97047036803F153
:1031380038422DE9F04F920AB24DAA5C02F01F0501
:1031480052090124022A04FA05F400F05F81032AD7
:1031580000F05381012A00F00D8101F003077A1E67
:10316800012AC1F3810EC1F300188488C1F341110B
:1031780040F20581E6070BD51A6822F003021A60AF
:103188001A683A431A60DA6822F003020A43DA60DE
:10319800A5070DD51A6822F00C021A601A6842EACF
:1031A80087021A60DA6822F00C0242EA8102DA60C9
:1031B80060070DD51A6822F030021A601A6842EAD0
:1031C80007121A60DA6822F0300242EA0112DA6065
:1031D80022070DD51A6822F0C0021A601A6842EA5E
:1031E80087121A60DA6822F0C00242EA8112DA60B5
:1031F800E6060DD51A6822F440721A601A6842EA87
:1032080007221A60DA6822F4407242EA0122DA6080
:10321800A5060DD51A6822F440621A601A6842EAB7
:1032280087221A60DA6822F4406242EA8122DA6070
:1032380060060DD51A6822F440521A601A6842EAEC
:1032480007321A60DA6822F4405242EA0132DA6040
:1032580022060DD51A6822F440421A601A6842EA1A
:1032680087321A60DA6822F4404242EA8132DA6030
:10327800E6050DD51A6822F440321A601A6842EA47
:1032880007421A60DA6822F4403242EA0142DA6000
:10329800A5050DD51A6822F440221A601A6842EA78
:1032A80087421A60DA6822F4402242EA8142DA60F0
:1032B80060050DD51A6822F440121A601A6842EAAD
:1032C80007521A60DA6822F4401242EA0152DA60C0
:1032D80022050DD51A6822F440021A601A6842EADB
:1032E80087521A60DA6822F4400242EA8152DA60B0
:1032F800E6040DD51A6822F040721A601A6842EA8C
:1033080007621A60DA6822F0407242EA0162DA6003
:10331800A5040DD51A6822F040621A601A6842EABC
:1033280087621A60DA6822F0406242EA8162DA60F3
:1033380060040DD51A6822F040521A601A6842EAF1
:1033480007721A60DA6822F0405242EA0172DA60C3
:1033580022040DD51A6822F040421A601A6842EA1F
:1033680087771F60DA6822F0404242EA8171D960AB
:10337800BDE8F08F244A55692C435461EDE60022DC
:103388004FF0010C4FF003090CFA02F636EA04007C
:103398002ED15000D3F808A009FA00F5ED430AEA47
:1033A800050AC3F808A0D3F808B00EFA00FA4AEAEA
:1033B8000B0AC3F808A0B3F804A02AEA06069E8000
:1033C800B3F804A008FA02F646EA0A06B6B29E80E6
:1033D8001E682E401E60D3F800A007FA00F646EAE1
:1033E8000A061E60DE6801FA00F035402843D860FE
:1033F8000132102AC8D1BDE8F08F034AD5692C43A1
:10340800D461AAE69889030800100240024A956927
:103418002C439461A1E600BF0010024010B103687C
:1034280082881A85704700BF10B1036882889A6144
:10343800704700BF18B1838811B102689361704763
:103448001B04FAE70E4B1B8801463BB90D4B0E4A8D
:103458001B7810680BB981F00101EBE70B4B5A6937
:103468001AB11A6810B910605874704708480949A9
:10347800008891FBF0F1012011605874704700BF7B
:10348800E04F0020E24F0020E44F0020E84F0020EA
:103498000050002020A1070010B40A4B0A4A1C78EB
:1034A80001238340234052F8200029B9B3FA83F15D
:1034B80049095DF8044BBDE7191C18BF01215DF8E7
:1034C800044BB7E7D04F0020D44F00201F4C08B55D
:1034D80001210220FFF7E0FF237803F00502052A07
:1034E80012D003F00903092B12D000210120FFF7A5
:1034F800D3FF00210846FFF7CFFF3220FFF78EFBEE
:103508000220FFF765FDF8E730F0C8FE2378E8E70A
:103518000F4A104B11681A680B680F4C4FF6FE7073
:1035280003400B601388206823F001031B041B0C65
:10353800138018B12A2200238271C37102224E21FE
:10354800FDF7C8FF2068FFF769FFCEE76426002073
:10355800F4260020EC260020F026002030B1026876
:103568008388128A1A4214BF01200020704700BFC6
:103578002DE9F0410B4E356873691D4010D0DFF816
:1035880028800127B5FA85F4C4F11F0408EB8403E9
:1035980007FA04F4186A03689847A5437461F1D1DF
:1035A800BDE8F08100040140301C00202DE9F04105
:1035B8000B4E356873691D4010D0DFF8288001274D
:1035C800B5FA85F4C4F11F0408EB840307FA04F480
:1035D800186A03689847A5437461F1D1BDE8F08182
:1035E80000040140301C00202DE9F0410B4E3568E5
:1035F80073691D4010D0DFF828800127B5FA85F4DB
:10360800C4F11F0408EB840307FA04F4186A03687A
:103618009847A5437461F1D1BDE8F08100040140E9
:10362800301C00202DE9F0410B4E356873691D40B0
:1036380010D0DFF828800127B5FA85F4C4F11F04FB
:1036480008EB840307FA04F4186A03689847A5434B
:103658007461F1D1BDE8F08100040140301C002004
:103668002DE9F0410B4E356873691D4010D0DFF825
:1036780028800127B5FA85F4C4F11F0408EB8403F8
:1036880007FA04F4186A03689847A5437461F1D1EE
:10369800BDE8F08100040140301C00202DE9F04114
:1036A8000B4E356873691D4010D0DFF8288001275C
:1036B800B5FA85F4C4F11F0408EB840307FA04F48F
:1036C800186A03689847A5437461F1D1BDE8F08191
:1036D80000040140301C00202DE9F0410B4E3568F4
:1036E80073691D4010D0DFF828800127B5FA85F4EA
:1036F800C4F11F0408EB840307FA04F4186A03688A
:103708009847A5437461F1D1BDE8F08100040140F8
:10371800301C0020094A10B59369094C43F0010395
:10372800936104F120004022002132F01BFC4FF08D
:10373800FF332366C4F8633010BD00BF0010024099
:10374800301C002003681B6A184700BF70B44E1C69
:103758000568C2728672AC69A44670BC604700BF37
:103768002DE9F041044618460D4616461F4631F02D
:10377800D1FD2844A0722068E672294645693B4677
:1037880032462046AC46BDE8F0416047036810B5B4
:1037980004461B689847236820469B689847A37B84
:1037A8000133A37310BD00BF10B5036804469B68BE
:1037B8009847FF2301226373227310BD0B4B984275
:1037C80011D0A3F57843984202D04FF0FF307047EC
:1037D8000122074B03EB02135A89013292B25A8134
:1037E800588980B270470022F3E700BF00300140DB
:1037F8009C580020F8B584894FF6FF764FF47A7408
:1038080013F1FF3325D311B30F78013101E0B4422E
:1038180017D00589013CAD07A4B2F8D507734FF45A
:103828007A7402E0BCB2B4420BD00589ED0704F10A
:10383800FF37F7D5057BEDB2002AE1D015700132CC
:10384800DEE7FFF7BBFF003018BF0120F8BDFF27F8
:10385800DFE70120F8BD00BF08B540F2E93300E01A
:103868009BB10289013B12F0020F9BB2F8D00173A1
:1038780040F2E93300E043B10289013B12F0010F45
:103888009BB2F8D0007BC0B208BDFFF797FFC0B26B
:1038980008BD00BFF8B50546806816461F4610B13A
:1038A800036882881A8541F08001686840F2E9342B
:1038B80001E0002C44D00389013C13F0020FA4B2AC
:1038C800F7D0017340F2E93101E0002938D00389CB
:1038D800013913F0010F89B2F7D0037B6868838937
:1038E8004FF0000C4FF47A714FF6FF724FF0FF0E55
:1038F800674502D11DE0914219D0038901399C071F
:1039080089B2F8D580F80CE04FF47A7102E0A1B2E0
:1039180091420CD00389DB0701F1FF34F7D5037B13
:10392800DBB20EB1337001360CF1010CE0E7FFF7A2
:1039380045FFAB6813B11A689B8893610120F8BDF5
:10394800FFF73CFFCAE738B504460D46FFF756F9BE
:10395800246808B1FFF7F4F8054B00221A764921CC
:103968005B7E2A462046FFF795FF012038BD00BF41
:10397800301C002038B583680446154613B11A6810
:103988009B881385606840F2E93300E07BB30289C5
:10399800013B12F0020F9BB2F8D0017340F2E933F9
:1039A80000E023B30289013B12F0010F9BB2F8D06B
:1039B800037B606840F2E93300E0DBB10189013B39
:1039C80011F0020F9BB2F8D0057340F2E93300E022
:1039D80083B10289013B12F0010F9BB2F8D0037B3F
:1039E800A36813B11A689B889361012038BDFFF75B
:1039F800E5FEDEE7FFF7E2FEF2E700BFF0B5836918
:103A080083B0064613B11A689B8813857069DFF87E
:103A1800A0C08389C3244FF47A7306276D464FF6F6
:103A2800FF710CF1010C03E0013B9BB28B421CD0EF
:103A380002899207F8D504734FF47A7302E0A3B2AF
:103A48008B4212D00289D20703F1FF34F7D5027BEB
:103A5800D2B20DB12A7001354FB1013FFF24BCF13C
:103A6800000FE5D09CF80040DBE7FFF7A7FEB3693D
:103A780013B11A689B8893619DF805009DF8015061
:103A88009DF802109DF803409DF804209DF806302B
:103A980041EA052143EA002342EA04220120A6F86C
:103AA8005010A6F85220A6F8543003B0F0BD00BF5D
:103AB800D4610308F8B50378012B47D0022B4BD10A
:103AC800836801F07F0113B11C689B882385044635
:103AD8001546406840F2E93302E0002B00F09F8071
:103AE8000289013B12F0020F9BB2F6D0017340F23B
:103AF800E93302E0002B00F092800289013B12F0CA
:103B0800010F9BB2F6D0037B606840F2E93302E014
:103B1800002B00F081800189013B11F0020F9BB25C
:103B2800F6D0057340F2E93301E0002B74D0028926
:103B3800013B12F0010F9BB2F7D0037BA368002B67
:103B480068D01A689B8893610120F8BD90F9043009
:103B58005C1C01D0022B01DD0020F8BD434C03EBB7
:103B6800830304EB83035B68002B6DD04579404EDB
:103B78006D004FF42040EDB2B0669C69270400F157
:103B8800FF303DD45C683B4F45F080703C4040F4CA
:103B9800903020434FF420445860B46601E0671C1D
:103BA80054D0986910F0020004F1FF34F7D04FF4B4
:103BB80020409962B066014601E04F1C19D098690F
:103BC80010F0800001F1FF31F7D05968294845F01D
:103BD8000075014045F480350D434FF420415D6088
:103BE800B166986910F0020001F1FF311AD14C1C3E
:103BF800F7D1214AB166138801339BB21380F8BD0F
:103C0800441CBAD11C4AB066138801339BB2138096
:103C18000020F8BD0120F8BDFFF7D0FD8EE7FFF7C3
:103C2800CDFD71E74FF420419A62B1660A4602E081
:103C380012F1FF3211D3996911F02001F8D0202137
:103C4800B266D9610120F8BD1846F8BD0A4AB466C3
:103C5800138801339BB21380F8BD074CB2662388E2
:103C680001339BB208462380F8BD00BF9C26002084
:103C7800301C0020009800FCE23100203122F421A1
:103C880018E700BF2DE9F04F8BB090F8653003902E
:103C9800002B40F03786039B93F85C30072B00F02D
:103CA80027861823CDE90433039BC64CC64EDFF89C
:103CB8002483C64F1033184680226B210293FFF7E6
:103CC800F9FE6423DFF810E3C14801934FF01009AF
:103CD800DEF80430C3F30803002B40F06284EFF3EE
:103CE8001183002B40F05D842568826823689D421B
:103CF800FAD13B689A42F7D8D6F800C04FF47A71E7
:103D080001FB0CF39B1AB3FBFCF301FB05354FF4E5
:103D18007A7C4FF0010ADEF80430C3F30803002B65
:103D280040F0FF83EFF31183002B40F0FA83236800
:103D3800816822689342FAD13A689142F7D832688A
:103D48000CFB02FBABEB0101B1FBF2F10CFB031323
:103D58005B1BB3F57A7FDED3019B013B0193B7D19F
:103D6800072268210298DFF86C82984FFFF7A2FEBD
:103D78006423DFF864E2964801934FF01009DEF8F7
:103D88000430C3F30803002B40F0EA83EFF31183F8
:103D9800002B40F0E5832568826823689D42FAD1AC
:103DA8003B689A42F7D8D6F800C04FF47A7101FB05
:103DB8000CF39B1AB3FBFCF301FB05354FF47A7C3B
:103DC8004FF0010ADEF80430C3F30803002B40F07B
:103DD8008A83EFF31183002B40F085832368816881
:103DE80022689342FAD13A689142F7D832680CFBBC
:103DF80002FBABEB0101B1FBF2F10CFB03135B1B04
:103E0800B3F57A7FDED3019B013B0193B7D11A4604
:103E18006B210298DFF8BC816C4FFFF74BFE6423DF
:103E2800DFF8B4E16A4801934FF01009DEF8043076
:103E3800C3F30803002B40F0F783EFF31183002B43
:103E480040F0F2832568826823689D42FAD13B6876
:103E58009A42F7D8D6F800C04FF47A7101FB0CF3F8
:103E68009B1AB3FBFCF301FB05354FF47A7C4FF04A
:103E7800010ADEF80430C3F30803002B40F0158371
:103E8800EFF31183002B40F01083236881682268C8
:103E98009342FAD13A689142F7D832680CFB02FB98
:103EA800ABEB0101B1FBF2F10CFB03135B1BB3F5A8
:103EB8007A7FDED3019B013B0193B7D101226B21AD
:103EC8000298DFF81081414FFFF7F4FD0F23DFF868
:103ED80008E13F4801934FF01009DEF80430C3F3BE
:103EE8000803002B40F07F83EFF31183002B40F091
:103EF8007A832568826823689D42FAD13B689A4292
:103F0800F7D8D6F800C04FF47A7101FB0CF39B1A6E
:103F1800B3FBFCF301FB05354FF47A7C4FF0010A43
:103F2800DEF80430C3F30803002B40F0A082EFF35F
:103F38001183002B40F09B8223688168226893429A
:103F4800FAD13A689142F7D832680CFB02FBABEB26
:103F58000101B1FBF2F10CFB03135B1BB3F57A7F94
:103F6800DED3019B013B0193B7D1039A92F85F30EE
:103F7800032B09D992F86330012B049B0CBF43F043
:103F8800010343F0020304939DF810200298DFF820
:103F980044800E4F1B21FFF78DFD0F23DFF838E01B
:103FA8000B4801934FF01009DEF80430C3F30803FF
:103FB800002B40F07C83EFF31183002B40F07783D4
:103FC8000CE000BF085000200C50002010500020CA
:103FD80010E000E00450002000ED00E02568826851
:103FE80023689D42FAD13B689A42F7D8D6F800C0B8
:103FF8004FF47A7101FB0CF39B1AB3FBFCF301FB42
:1040080005354FF47A7C4FF0010ADEF80430C3F32B
:104018000803002B40F00D82EFF31183002B40F0D2
:1040280008822368816822689342FAD13A689142EB
:10403800F7D832680CFB02FBABEB0101B1FBF2F1E4
:104048000CFB03135B1BB3F57A7FDED3019B013BAB
:104058000193A9D1059A0298DFF81483C24F1C2155
:10406800FFF728FD0F23DFF80CE3C04801934FF05A
:104078001009DEF80430C3F30803002B40F0F68281
:10408800EFF31183002B40F0F182256882682368E2
:104098009D42FAD13B689A42F7D8D6F800C04FF44F
:1040A8007A7101FB0CF39B1AB3FBFCF301FB05359A
:1040B8004FF47A7C4FF0010ADEF80430C3F30803AA
:1040C800002B40F09881EFF31183002B40F093818F
:1040D8002368816822689342FAD13A689142F7D8F6
:1040E80032680CFB02FBABEB0101B1FBF2F10CFBFC
:1040F80003135B1BB3F57A7FDED3019B013B01936E
:10410800B7D1039A92F85F30032B00F2EF8392F84D
:104118006220012A00F0EC82A2F10202B2FA82F2D5
:1041280052091A210298DFF848828F4FFFF7C2FC24
:104138000F23DFF840E28D4801934FF01009DEF8B5
:104148000430C3F30803002B40F04C83EFF31183D2
:10415800002B40F047832568826823689D42FAD186
:104168003B689A42F7D8D6F800C04FF47A7101FB41
:104178000CF39B1AB3FBFCF301FB05354FF47A7C77
:104188004FF0010ADEF80430C3F30803002B40F0B7
:104198000B83EFF31183002B40F0068323688168BB
:1041A80022689342FAD13A689142F7D832680CFBF8
:1041B80002FBABEB0101B1FBF2F10CFB03135B1B40
:1041C800B3F57A7FDED3019B013B0193B7D1039B03
:1041D800029893F86420DFF89881634F1921FFF75C
:1041E80069FC6423DFF88CE1604801934FF0100903
:1041F800DEF80430C3F30803002B40F03583EFF3F7
:104208001183002B40F030832568826823689D4223
:10421800FAD13B689A42F7D8D6F800C04FF47A71C1
:1042280001FB0CF39B1AB3FBFCF301FB05354FF4C0
:104238007A7C4FF0010ADEF80430C3F30803002B40
:1042480040F09482EFF31183002B40F08F822368B3
:10425800816822689342FAD13A689142F7D8326865
:104268000CFB02FBABEB0101B1FBF2F10CFB0313FE
:104278005B1BB3F57A7FDED3019B013B0193B7D17A
:10428800102237210298DFF8E880374FFFF712FC39
:104298000F23DFF8E0E0354801934FF01009DEF80E
:1042A8000430C3F30803002B40F0BD82EFF3118301
:1042B800002B40F0B8822568826823689D42FAD1B5
:1042C8003B689A42F7D8D6F800C04FF47A7101FBE0
:1042D8000CF39B1AB3FBFCF301FB05354FF47A7C16
:1042E8004FF0010ADEF80430C3F30803002B40F056
:1042F8001F82EFF31183002B40F01A822368816834
:1043080022689342FAD13A689142F7D832680CFB96
:1043180002FBABEB0101B1FBF2F10CFB03135B1BDE
:10432800B3F57A7FDED3019B013B0193B7D10298A5
:10433800DFF83C800C4F01223821FFF7BBFB0F232D
:10434800DFF830E0094801934FF01009DEF8043037
:10435800C3F30803002B40F0A882EFF31183002B6E
:1043680040F0A38208E000BF1050002010E000E0F9
:104378000450002000ED00E02568826823689D4213
:10438800FAD13B689A42F7D8D6F800C04FF47A7150
:1043980001FB0CF39B1AB3FBFCF301FB05354FF44F
:1043A8007A7C4FF0010ADEF80430C3F30803002BCF
:1043B80040F0A081EFF31183002B40F09B8123682C
:1043C800816822689342FAD13A689142F7D83268F4
:1043D8000CFB02FBABEB0101B1FBF2F10CFB03138D
:1043E8005B1BB3F57A7FDED3019B013B0193ADD113
:1043F8000BB0BDE8F08FEFF3118189F31288D0F884
:1044080008B00368DB0344BFC8F800A0D0F808B0C0
:104418002368D8F80020C9B281F3118831681344A1
:104428000CFB01F2A2EB0B02B2FBF1F20CFB032333
:104438005FE6EFF3118189F31288D0F808B00368BA
:10444800DB0344BFC8F800A0D0F808B02368D8F848
:104458000020C9B281F31188316813440CFB01F2C2
:10446800A2EB0B02B2FBF1F20CFB0323EAE5EFF33C
:10447800118189F31288D0F808B00368DB0344BFC0
:10448800C8F800A0D0F808B02368D8F80020C9B24E
:1044980081F31188316813440CFB01F2A2EB0B0283
:1044A800B2FBF1F20CFB032357E5EFF3118189F31B
:1044B8001288D0F808B00368DB0344BFC8F800A02E
:1044C800D0F808B02368D8F80020C9B281F3118861
:1044D800316813440CFB01F2A2EB0B02B2FBF1F2C0
:1044E8000CFB0323E2E4EFF3118189F31288D0F87F
:1044F80008B00368DB0344BFC8F800A0D0F808B0D0
:104508002368D8F80020C9B281F3118831681344B0
:104518000CFB01F2A2EB0B02B2FBF1F20CFB032342
:104528006DE4EFF3118189F31288D0F808B00368BD
:10453800DB0344BFC8F800A0D0F808B02368D8F857
:104548000020C9B281F31188316813440CFB01F2D1
:10455800A2EB0B02B2FBF1F20CFB0323FFF7F8BB53
:10456800EFF3118389F31288D0F808C00268D203E8
:1045780004D50122C8F80020D0F808C02568D8F86A
:1045880000A0DBB283F3118831684FF47A72554486
:1045980002FB01F3A3EB0C03B3FBF1F302FB0535BC
:1045A8000CE4EFF3118389F31288D0F808C002688D
:1045B800D20304D50122C8F80020D0F808C0256825
:1045C800D8F800A0DBB283F3118831684FF47A720F
:1045D800554402FB01F3A3EB0C03B3FBF1F302FB1D
:1045E8000535FFF794BBEFF3118389F31288D0F8F0
:1045F80008C00268D20304D50122C8F80020D0F808
:1046080008C02568D8F800A0DBB283F311883168A8
:104618004FF47A72554402FB01F3A3EB0C03B3FB8E
:10462800F1F302FB053577E4EFF3118389F3128880
:10463800D0F808C00268D20304D50122C8F80020C7
:10464800D0F808C02568D8F800A0DBB283F3118839
:1046580031684FF47A72554402FB01F3A3EB0C0363
:10466800B3FBF1F302FB0535FFF7FFBBEFF3118353
:1046780089F31288D0F808C00268D20304D5012251
:10468800C8F80020D0F808C02568D8F800A0DBB228
:1046980083F3118831684FF47A72554402FB01F3B1
:1046A800A3EB0C03B3FBF1F302FB053500E5EFF3D5
:1046B800118389F31288D0F808C00268D20304D5A0
:1046C8000122C8F80020D0F808C02568D8F800A052
:1046D800DBB283F3118831684FF47A72554402FBD8
:1046E80001F3A3EB0C03B3FBF1F302FB053588E4FC
:1046F800072216E5EFF3118189F31288D0F808B084
:104708000368DB0344BFC8F800A0D0F808B02368EA
:10471800D8F80020C9B281F31188316813440CFB22
:1047280001F2A2EB0B02B2FBF1F20CFB032357E6FA
:10473800EFF3118189F31288D0F808B00368DB031E
:1047480044BFC8F800A0D0F808B02368D8F8002003
:10475800C9B281F31188316813440CFB01F2A2EB52
:104768000B02B2FBF1F20CFB0323D8E5EFF3118146
:1047780089F31288D0F808B00368DB0344BFC8F88F
:1047880000A0D0F808B02368D8F80020C9B281F397
:104798001188316813440CFB01F2A2EB0B02B2FB47
:1047A800F1F20CFB032363E5EFF3118189F312881F
:1047B800D0F808B00368DB0344BFC8F800A0D0F8FD
:1047C80008B02368D8F80020C9B281F3118831688D
:1047D80013440CFB01F2A2EB0B02B2FBF1F20CFB4F
:1047E8000323ECE4EFF3118389F31288D0F808C0AF
:1047F8000268D20304D50122C8F80020D0F808C006
:104808002568D8F800A0DBB283F3118831684FF42B
:104818007A72554402FB01F3A3EB0C03B3FBF1F3EB
:1048280002FB0535AAE4EFF3118389F31288D0F867
:1048380008C00268D20304D50122C8F80020D0F8C5
:1048480008C02568D8F800A0DBB283F31188316866
:104858004FF47A72554402FB01F3A3EB0C03B3FB4C
:10486800F1F302FB053539E5EFF3118389F312887B
:10487800D0F808C00268D20304D50122C8F8002085
:10488800D0F808C02568D8F800A0DBB283F31188F7
:1048980031684FF47A72554402FB01F3A3EB0C0321
:1048A800B3FBF1F302FB0535C1E4EFF3118389F3A0
:1048B8001288D0F808C00268D20304D50122C8F8CB
:1048C8000020D0F808C02568D8F800A0DBB283F330
:1048D800118831684FF47A72554402FB01F3A3EB57
:1048E8000C03B3FBF1F302FB053558E5019A18E414
:1048F800039B93F86130002B5CD11023CDE904337E
:10490800FFF7D2B91C09013C052C03F00F0357D857
:10491800614A32F8140040FA03F2D50750D5012550
:1049280005FA03F3013B184030F0E0FF5B4BDFF87A
:1049380084811F5D074418EBC70441D058F837003D
:10494800A688038A33407FF4A6A900F13842544967
:10495800E371920A8A5C02F01F0352092021022A9D
:1049680005FA03F3A17100F09280032A00F08A800F
:10497800AA426FD008A90025CDE908651EF012F8F3
:10498800A388039E474AF260B3FA83F2C2F11F027A
:10499800511C1AD1B3FA83F3C3F11F03581C3FF417
:1049A8007AA9012202FA03F33F490A6813430B600C
:1049B800FFF771B918231021CDE90431FFF774B955
:1049C800039A384BD3600123EEE7D1B201F0FC0320
:1049D80003F1804303F5803301F00300D3F808C0E6
:1049E800DFF8D4A058F83710304F80004FF00F0E82
:1049F8000EFA00FE2CEA0E0C0AEB820E06F10C08E9
:104A0800C1F38721CEF820808140C3F808C0B818C8
:104A1800D3F808E090F87090DFF8A0C041EA0E01E2
:104A28004FF0010899600AEB090608FA02F3CCF87E
:104A3800003008A808238DF825308DF826800892C4
:104A48008DF8245026F003FB96F86030F02B06D83A
:104A5800A3889FE716494A6913434B618AE74F4485
:104A6800F02297F880308DF81C3007A803238DF8C2
:104A78001E508DF81F8086F860208DF81D301DF0BF
:104A880039FFE5E70A4AD1690B43D36172E7084960
:104A98008A6913438B616DE7848903089089030849
:104AA80098890308310A0008000401406C61030872
:104AB800001002409C590020301C002014040140C2
:104AC8004269138823F040031B041B0C2DE9F04FA7
:104AD800138013889BB223F0380343F0300313800C
:104AE800138883B043F0400313800190FDF7D6FF8D
:104AF8000446FDF7D3FF8442FBD0019C2046FFF714
:104B0800C1F8A36913B11A689B881385019B58697A
:104B180040F2E93302E0002B00F0AA800289013B51
:104B280012F0020F9BB2F6D06A23037340F2E93306
:104B380002E0002B00F09C800289013B12F0010F7B
:104B48009BB2F6D0037B019B586940F2E93302E03F
:104B5800002B00F090800289013B12F0020F9BB2FB
:104B6800F6D01023037340F2E93302E0002B00F083
:104B780082800289013B12F0010F9BB2F6D0037BC1
:104B8800019B9B6913B11A689B88936164233B4C12
:104B9800DFF8F490DFF8F480394DDFF8F4A0394EEF
:104BA8000093FDF77BFF4FF47A774FF0100C4FF02E
:104BB800010ED8F80430C3F30803002B39D1EFF302
:104BC8001183002B35D12368A96822689342FAD152
:104BD80032689142F7D8D9F8002007FB02FBABEB0B
:104BE8000101B1FBF2F107FB03131B1AB3F57A7F3E
:104BF800DFD3009B013B0093D3D1019B5A691388F3
:104C080023F040031B041B0C1380138823F0380384
:104C18001B041B0C1380138843F040031380FDF71B
:104C28003DFF0446FDF73AFF8442FBD003B0BDE8E0
:104C3800F08FEFF311818CF31288D5F808B02B6848
:104C4800DB0344BFCAF800E0D5F808B02368DAF8F7
:104C58000020C9B281F31188D9F80010134407FB6A
:104C680001F2A2EB0B02B2FBF1F207FB0323BCE754
:104C7800FEF7A4FD67E7FEF7A1FD81E708500020D5
:104C880010E000E0105000200C50002000ED00E083
:104C980004500020427A4AB110B5044604F10A01D2
:104CA800D0E9003098470023637210BD704700BFF9
:104CB800437A5A1C0344D2B242729972037A9342DD
:104CC8000AD84AB110B5044604F10A01D0E9003007
:104CD80098470023637210BD704700BFA8B10D4B01
:104CE800012210B402FA01F103F1750402E0033362
:104CF800A3420BD013F8012C8242F8D11A780A4249
:104D0800F5D001205DF8044B7047704700205DF82E
:104D1800044B7047F561030830B40A4D002305F1D0
:104D2800880401E0272B0AD003EB43020133A15C7E
:104D38008142F7D12A4430BC92F88A00704700209B
:104D480030BC70476C610308024A136823EA00000C
:104D580010607047BC48002038B54F4B1B68B3F54E
:104D6800FA7F00F28A804D4B9A89D989D878914286
:104D780024BF00229A81598A1A8A914224BF0022AC
:104D88001A8201280DD9464A464D92F85C10012432
:104D980000220A292C709C709A7138D1DFED427A72
:104DA80015E09A7922B199780429B8BF042199703D
:104DB8003B4991F85C100A2964D00C2929D1DFED10
:104DC8003B7A9FED3B7A002A18BFF0EE477A394CC0
:104DD800A278062A97BF3849DFED356A01EB8201D0
:104DE800D1ED406A2179F1B1013A032A0AD8B7EE28
:104DF800000A80EE260A31F069F92388984228BF14
:104E0800184620802D4B9A78012A09D038BD0C29E4
:104E180003D001283CD90A2937D0DFED297AD0E719
:104E280000229A7038BD9B781E4907EE103A0A781E
:104E3800B8EEC77A67EE277A07EE102AB8EEC77A77
:104E480027EE277AF4EEC76AF1EE10FADADD86EE7D
:104E5800A77AFDEEC77A17EE903A102BA8BF102359
:104E6800012BB8BF0123DBB29A4238BF1A46134B55
:104E78000A709A78012AC9D1D2E74FF00050FFF79B
:104E880063FF70E7DFED0F7A9BE7DFED077A98E7BE
:104E9800DFED0D7A95E700BF7461002054610020B2
:104EA800CC5A00207A2F00200F506E3A0AD7A33927
:104EB8006F120338086400206C6103081A3E002052
:104EC8006F12833A5304E9386F120339F8B5AC49C5
:104ED8000B78A3F11702022A0FD9AA4A12F8330055
:104EE800002840F01481D800024452782AB1A64A1A
:104EF80012F83330002B00F0E2810024A34EA44FB7
:104F08002546315B4B0803F077334FEA910C0CF0E0
:104F1800333CCB1ACA08A3EB0C0302F011329B1ADC
:104F280003EB231303F00F33A7FB03C2D209C2EB31
:104F380002229A1A11F001031CBF0135EDB2012AB1
:104F480006EB040004F108040BDD022A40F0DB80C4
:104F580013B111F42F7F04D11FF010FC002800F0CA
:104F6800D280202CCDD1013D022D00F2CC808020B2
:104F7800FFF7EAFE874A5378052B58D8864903EB92
:104F8800C30301EB430113788448854C0160022B6D
:104F980049D803EB430104EB411103EB430304EB52
:104FA8004313804D9A88D888296090427E4924BF4F
:104FB80000229A808B78042B00F0B28033B90B88DA
:104FC800B3F5F07F84BF4FF4F0730B80774DFFF794
:104FD800C3FE2B68764A1A40002A00F0C980DA0717
:104FE80000F1C9805F0400F1B0801E0700F1B480B1
:104FF800980400F1B88019046E4A7CD50023D37355
:1050080082F82330137EB3B1537E032B00F0358131
:10501800012B1FD0022B24D000232383A4F878303F
:10502800A4F8D83039E1002321461370B5E70023EE
:1050380059495370A7E7A3816382A4F86C30A4F898
:105048007230A4F8CC30A4F8D2302383A4F8783096
:10505800A4F8D830002384F84F3084F8AF3084F8AF
:105068000F31554BDA79022A08BF01224FF00A00A6
:1050780008BFDA712FF0E4FD002840F0AB804FF450
:1050880080600DF095F8002800F01C814020FFF7A3
:105098005BFE4FF40070FFF757FE4FF40050FFF728
:1050A80053FE4FF48040FFF74FFE4FF40030FFF7F8
:1050B8004BFE424C4FF00070FFF746FE4FF0806009
:1050C800FFF742FEA388002B38D13D4A1368DB0D59
:1050D800DB050BB100231360936823F4007323F0FE
:1050E80002030BB1002393601379013B042B01D910
:1050F80001231371F8BDD17B002900F0D78000236C
:1051080082F823307EE721480BF04AFF2FE7D800CA
:1051180014186468002C7FF4E7AE17240C70E3E6DB
:105128004FF48050FFF710FE8B8AB3F57A7F37BFB4
:105138004FF47A728B788B788A823FE72078FDF774
:10514800FBF90028C1D1A080BFE71E48FFF7FCFD8E
:105158002B681E077FF54CAF1B48FFF7F5FD2B6842
:1051680098047FF548AF1948FFF7EEFD2B6842E732
:1051780043F001032B601648FFF7E6FD2B6831E783
:10518800342F0020FC8A0308848E03081C7A002030
:105198008180808039460020A0470020B07100201F
:1051A80056460020AC71002008640020BC4800204E
:1051B80009600002BC700020249400207E26002094
:1051C8002437002009200002016000020940000283
:1051D800086000023E4F002207F1060E1146944671
:1051E80001EB4100430017F810000A2807EB0305FC
:1051F80040D05B1B28464E1CEABB7344142E1D444A
:105208003FF43DAF10F8062F0A2A08D00136142EB5
:105218001D443FF434AF10F8062F0A2AF6D10122B4
:105228009319132B15D803EB430007EB400117F82C
:1052380010000A2808BF013305D012E011F8064F04
:105248000A2C0ED10346132B02F1010203F10100CF
:10525800F4D9C5F800C0A5F804C0711C1429BFD141
:105268000DE703EB430307EB4303196829609B88A9
:10527800AB80F2E7BAB10E46D2E70023A38163827E
:10528800A4F86C30A4F87230A4F8CC30A4F8D2306A
:105298002383A4F87830A4F8D830537E023B022B3D
:1052A8003FF6D8AEDDE60E460122B9E742F201012B
:1052B8000B423FF4A7AE002382F82330A2E618235E
:1052C8000B701AE64FF00060FFF73EFDDEE600BF08
:1052D800383600202DE9F84F18F002F92B4B2C4AEC
:1052E800934250D22B4F03F114069B464FF001080E
:1052F800294C258862197DB1BA420DD2052D0BD9EA
:1053080036F8143C6188C3F30B0399420AD014465B
:1053180025886219002DEFD156F8101C5846FBF766
:1053280047FC0FE0637913F0030AF0D156F8101C1C
:1053380094F804905846FBF73BFC36F8141CB9EB7C
:10534800113F11D04FF00008114B0BF1140B9B4586
:1053580006F11406CCD3FFF7B9FDFBF759FC18F09A
:1053680055F84046BDE8F88F36F8123C56F8100C50
:10537800AA1FC3F30B039A4204F10601A8BF1A46F9
:1053880030F090FDE0E74FF00108E4E7C4CA0308F5
:1053980038CF03080000040802F0030870B50222A1
:1053A8001349144C144E4FF6FF70FBF79DF92288F1
:1053B8004AB1A518B54218D2052A16D92146FBF7D5
:1053C80093F92C46F3E721460222FBF78DF90222D6
:1053D800A118FBF789F9094BE41A094B1C8041F61F
:1053E8000F53C31A5842584170BD0020FCE700BF54
:1053F80000F0030802F0030800000408FAEF0308AD
:10540800E43100202DE9F04F8DB0FFF75FFDDFF8A4
:105418007891584FDFF8748118F062F8564A574B64
:10542800B2F81C21ADF80620A3EB090300934FF056
:10543800030A0026CDE90866CDE90A66009BCDF887
:1054480018900793D8F810301B0606D54C4BC8F8AF
:10545800043003F18833C8F8043001238DF82C3068
:105468003423C8F80C300222BDF80630ADF80830F5
:1054780002A906A8FBF780FD022202A94FF6FF70D9
:10548800FBF732F93F4BBB42834629D21C4665885D
:1054980023888DF81560C5F30B05C3F30B00A91D10
:1054A8001B0B0622ADF81010ADF8120004A906A8CF
:1054B8008DF81430FBF760FD5846062204A9FBF767
:1054C80013F9616883462A4606A8FBF755FD61680B
:1054D80058462A46FBF708F91434BC428346D6D30B
:1054E800022203A906A8ADF80C60FBF745FD0222CD
:1054F80003A95846FBF7F8F840BAC343022204A9A7
:1055080006A8ADF81030FBF737FD099820BB0A98BC
:105518009DF82C305BB990B1BAF1010A8AD1052007
:10552800FDF728F817F072FF0DB0BDE8F08FD8F836
:10553800103043F08003C8F810300028ECD199F8F7
:105548000030AB2BEBD199F80130BE2BE7D1FFF738
:1055580025FF0028E6D1E2E708ABC0F104020021EC
:10556800184430F0FFFC089906A8FBF7ABFCCDE91E
:105578000960CDE738CF03086C6103080000040810
:1055880023016745C4CA030800F00308002002404D
:1055980008B5FFF737FFFFF79DFE0120BDE808407B
:1055A8000CF03ABF30B402681146531C036011F87E
:1055B800024B0160D31C517803609378151D056078
:1055C8001B0443EA0123D078234343EA006030BC3C
:1055D800704700BF0368591C1A46016012F8021B85
:1055E8000260587841EA0020704700BF03685A1CDF
:1055F80002601878704700BF38B504460068154641
:1056080030F050FC22682A44226038BD036810B488
:105618000A0A5C1C04601A7003685A1C026019703C
:105628005DF8044B704700BF03685A1C026010B451
:10563800197003680A0A5C1C04601A7003680A0C73
:105648005C1C04601A700368090E5A1C0260197009
:105658005DF8044B704700BF03685A1C026019705C
:105668000368090A5A1C02601970704710EE103A54
:10567800C3F3160242F07E5207EE102ADFED167AC7
:10568800DFED164A9FED165ADFED165A9FED166AA2
:10569800DFED163ADFED166A9FED164AE7EE274A68
:1056A800DB1507EE903AA4EE875AF8EEE77AE5EEB6
:1056B800075A67EEA37AA5EE876AB5EEC00AE6EE4A
:1056C800077AF1EE10FAD4BFB0EE440AB0EE660ADB
:1056D80037EE800A704700BFDACDFE3CB9D593BEDD
:1056E8005CB8903FAA841DC022E061401872313F27
:1056F80007F1B3C2000080FFDFED1D3ADFED1D7A30
:105708009FED1D7A9FED1D4ADFED1D4A9FED1D5A45
:10571800DFED1D5A9FED1D6ADFED1D6AE0EE237A6D
:10572800F4EEC77AF1EE10FA88BFF0EE477AF4EE9D
:10573800C47AF1EE10FAB8BFF0EE447AFDEEE77ADB
:1057480017EE903AC3F3160242F07E5207EE102A83
:10575800A7EE245A03F0FF4300EE103AE5EE075A8D
:10576800A5EE876AE6EE076A26EE800A704700BF54
:105778003BAA384B00007E4E0000FF4E00000000A0
:10578800ED185E3C81900FBBAF9D2A3EB2D19F3E83
:10579800E886023F07EE901AF8EE677A9FED837A63
:1057A80027EE800A20EE070AFDEEC07A17EE903A3F
:1057B8002033402B00F28180DFED7D7AB4EEE70ADA
:1057C800F1EE10FA40F3E680B0EE407A9FED796A88
:1057D800DFED796A01E0B0EE677AB4EEE67AF1EED1
:1057E80010FA77EE467AF6DC9FED747AF4EEC77A13
:1057F800F1EE10FA40F1D1809FED6E6ADFED706A2C
:1058080001E0F0EE477AF4EEE67AF1EE10FA37EEC0
:10581800867AF6D4DFED6B7AB4EEE77AF1EE10FA19
:1058280040F3A780DFED627A37EEC77A27EE076A82
:10583800DFED655ADFED657ADFED656A9FED655A44
:10584800E6EE257A67EE065AE6EE276AF7EE007A64
:10585800A5EEA67AF0EE675AE7EE055AE7EE457A26
:1058680087EEA55ADFED577A30EE277AFDEEC76A44
:1058780016EE903A2033402B24D99FED577AF6EE56
:10588800006AB7EE006AF7EE004AC4EEA57A002374
:10589800836143610362C36180ED045A67EEA66ABF
:1058A80027EE866A27EE877AC0ED006AC0ED026AA5
:1058B80080ED016A80ED037A7047B7EE005AF0EE8A
:1058C800455ACFE7B4EEE70AF1EE10FA6BDD9FED2B
:1058D800396ADFED396A01E0B0EE677AB4EEE67A4C
:1058E800F1EE10FA77EE467AF6DC9FED347AF4EEB4
:1058F800C77AF1EE10FA53D59FED2E6ADFED306AC4
:1059080001E0F0EE477AF4EEE67AF1EE10FA37EEBF
:10591800867AF6D4DFED2B7AB4EEE77AF1EE10FA58
:1059280033DCDFED2E7AB4EEE77AF1EE10FA44BFFD
:10593800DFED227A37EEC77A27EE076ADFED224AD3
:10594800DFED226ADFED227AE6EE246A67EE064A88
:10595800E6EE267AB7EE006AA4EEA77AF6EE006ABB
:1059680036EE476AF8EE007A27EE277A66EE266A60
:1059780089E7DFED1A7AB4EEE77AF1EE10FA44BF60
:10598800DFED0E7A37EEC77A50E7DFED097A37EEAA
:10599800C77AD1E7F0EE407A26E7B0EE677A39E7C2
:1059A800B0EE677AB6E7F0EE477A9EE727D4D236AC
:1059B800DB0F4940DB0FC940E4CB1641DB0F49C080
:1059C800E4CB16C1DB0FC93F92E741B99730083CD9
:1059D80015A82ABEF304353F00000000DB0FC9BF3D
:1059E800DFED2B7AB4EEE70AF1EE10FA4ADDDFEDCF
:1059F800296A9FED297A01E0B0EE670AB4EEC70A7A
:105A0800F1EE10FA70EE667AF6DC9FED247AF4EE89
:105A1800C77AF1EE10FA38D5DFED1E6A9FED207ACD
:105A280001E0F0EE407AF4EEC77AF1EE10FA37EEC4
:105A3800A60AF6D4DFED1B7AB4EEE70AF1EE10FA07
:105A480014DDDFED137A37EEC00A60EE006A9FEDD1
:105A5800166A9FED167ADFED167AA6EE867A20EEA4
:105A6800266AE6EE877AA6EE270A7047DFED117AF6
:105A7800B4EEE70AF1EE10FA44BFDFED087A37EE2C
:105A8800C00AE2E7F0EE407ABFE7B0EE670AD1E776
:105A9800DB0F4940DB0FC940E4CB1641DB0F49C09F
:105AA800E4CB16C1DB0FC93F92E741B99730083CF8
:105AB80015A82ABEDB0FC9BF02B370B48E1803E065
:105AC800121B14D1B14215D010F8012BA2F14103D9
