:020000040800F2
:100000000020001069E7020831360008010D0208DF
:100010002F3600082D3600082B360008000000009F
:100020000000000000000000000000002936000869
:10003000273600080000000025360008B7840208B3
:1000400005E8020805E8020805E8020805E80208D4
:1000500005E8020805E802083B880208458802080E
:1000600043880208418802083F880208455E00086C
:10007000315E00081D5E0008095E0008F55D00089D
:10008000E15D0008CD5D000805E8020805E802080A
:100090000962000805E8020805E802083D88020830
:1000A0001152000879520008FD510008A1520008C1
:1000B00065520008515200083D52000805E8020848
:1000C00005E8020805E8020805E8020805E8020854
:1000D00005E802085D5D0008515D0008455D000807
:1000E0003988020805E802081536000805E8020804
:1000F0003952000805E802082552000805E8020800
:1001000000000000000000000000000005E80208F8
:1001100005E8020805E8020805E8020805E8020803
:10012000B95D0008A55D0008915D00087D5D0008CF
:10013000695D000805E802080000000000000000FA
:1001400005E8020805E8020805E8020800000000CA
:10015000000000000000000000000000000000009F
:10016000000000000000000005E8020805E80208A1
:1001700005E8020800000000000000000000000088
:080180000000000005E8020880
:1001880030B50D4B00F00704C0081D181B5CA340D8
:10019800DBB20020C4F108028A4228BF0A46C2F135
:1001A800080423419040891A40EA03004FF00004F4
:1001B80015F8013FEED130BDC40A002020B9034B29
:1001C8009B6D08221A82704701487047800A0020F8
:1001D80000000020F2E721B901288CBF022000208E
:1001E8007047022070470A4B996DCA78042A10B5E7
:1001F8000BD8084B4C8AD200134418B99B891B1B97
:100208000B8210BD98682044FBE70020F9E700BF87
:10021800800A002000000020054B996D054B4A8A92
:1002280018B99B8D9B1A0B827047986A10447047C7
:10023800800A002000000020054B996D054B4A8A72
:1002480018B99B8E9B1A0B827047186B1044704725
:10025800800A002000000020074B9B6D1B7803F0EC
:100268007F03212B06D100F0DF00022814BF0220F3
:100278000020704702207047800A0020212810B50E
:1002880008D1104B9B6D1B7803F07F03212B16D0F0
:10029800022013E02028FBD10A4B9A6D83F85C00FA
:1002A800127802F07F02212AF2D1074B054A926D9B
:1002B80000249361548220469847204610BD034B82
:1002C800F4E700BF800A0020DD010008C50100082E
:1002D8007047044B93F85C20202A04BF002283F85F
:1002E8005C207047800A0020014B04221A66704780
:1002F800800A0020034B93F86E200AB105221A6683
:10030800704700BF800A00200E4B0F491A680F4B38
:1003180092B222F0070213445B000D4A1B68C3F334
:100328000903C1F8C030D1F8C0309BB201335B106B
:10033800803103B9704752F8040B21F8020B013BD6
:10034800F7E700BF505C0040800A00201E30002004
:1003580020620040024B0022C3F8C420704700BF4F
:10036800800A00200023F0B54E1C1F46050FECB292
:10037800092D94BF3034373401F8134006F8137050
:100388000133DCB2A2424FEA0010EFD8F0BD134BA4
:100398001868083310B51B68C0180AD0104B1149EB
:1003A8001C680822FFF7DEFF04220F492046FFF7EA
:1003B800D9FF0E498A6D002393720D4A01201060FF
:1003C8000C4813604FF4E0540360146003604FF46A
:1003D8001640A1F8C80010600B6610BDACF7FF1FEF
:1003E800B0F7FF1F3A0000204A000020800A0020D2
:1003F800405C0040445C0040044B41F2B4110122CF
:10040800585C00B95A545A70704700BF94300020A5
:100418000378022B08D10E4B1A684368B3EB422FBE
:100428002CBF012000207047006970B1094B1B7870
:10043800032B0EBF084B80B24FF6F773984294BF58
:100448000020012000F0010070470120FAE700BFFA
:10045800B442002094300020F7FFFF0F074B1B78B1
:10046800022B0BBF030AC0F3D413C0B200F07F0005
:100478000CBF0B600B601060704700BF9430002009
:1004880010B5037841680F4A022B0AD141F20423C0
:10049800D35802F59052106800EB430000EB51204E
:1004A80010BD036941F21020023B145841F2182094
:1004B80010580840400A04FB030041F20C23D358AB
:1004C8001844EDE794300020837B042B0DD0074BB4
:1004D80041F298015A5801325A50426041F29C0147
:1004E800042282735A5801325A50704794300020BF
:1004F80008B5064BC01A48BF00F2FF104012072883
:1005080003D9FFF779FF4FF0FF3008BDAC3000206A
:1005180000487047AC0A0020034B93F828000328D2
:1005280094BF002001207047800A0020034B93F8F5
:100538002800003018BF0120704700BF800A002043
:10054800D0E90920131A5842584170474171704741
:1005580043799B070AD5436A8269D154436A016982
:100568000133B3FBF1F201FB123343627047437965
:1005780013F002031FBF0369D0E9092003F1FF3319
:10058800101A1DBF1840C0B2181A18467047437990
:1005980013F001031FBFD0E90732C0689B1A00F1AE
:1005A800FF3014BF18401846704710B5437913F050
:1005B800010301460ED0FFF7EAFF50B10B6A4A6902
:1005C800CC68D05C0133B3FBF4F204FB1233C0B245
:1005D8000B6210BD1846FCE790F85F3230B53BB9A6
:1005E80090F85D1290F85E320124DAB2914200D898
:1005F80030BDB0F8665204FA03F22A43A0F8662226
:100608000133F2E7FF207047012380F84930704733
:10061800034B186E18B1186E431F58425841704763
:10062800800A0020014BD3F8C0007047800A0020E0
:10063800012070477047704770474378007840EA58
:100648000320094B10FB01F1994208DBB1F5000FBB
:1006580007DA0029B8BFFF31081200B27047034813
:10066800FBE747F6FF70F8E701FF7FFF0080FFFF19
:100678002DE9F04FDFF8708185B0CDE90212B8F8A6
:10068800DA20D8F8CC40B8F8D66013024FEA126ED8
:10069800B8F8D820E41A6EEB4E0EA2FB040102FB58
:1006A8000E11C209B8F8D40042EA4162CD11010422
:1006B800030C5218A6FB040106FB0E11B8F8D26011
:1006C80043EB0505030AB8F8DC0043EA01634FEA87
:1006D800212C710CF6039B19A0FB04674CEB010C51
:1006E80000FB0E77F10D41EA4721F81511F5FA6A7A
:1006F80040F1000BBAF5FA6F01907BF1000053DA74
:100708000198A1FB0167484307EB40070520A6FBBA
:10071800008900FB07994FEA580040EAC970121A8D
:100728004FEA98004FEA690640EA897065EB0605CA
:100738001B1A4FEAA9066CEB060C2A4E4FF0FF373E
:10074800B2457BEB070024DA019E40F6AC5008184E
:100758004FF0000146EB010800FB08F8A0FB000180
:1007680001EB4801CE00C700C71B46EA507661EB93
:1007780006064FF00B08D21946EB0505A0FB0867E3
:1007880008FB0177710841EAC77178105B1A6CEBB6
:10079800000C04FB0EFEA4FB040101EB4E01C40F88
:1007A80044EA4104BAEB040A029999B10E49D1F816
:1007B800E040A4FB030104FB0C11430D43EAC123F1
:1007C8009A1A4FEA615464EB0505D20B029B42EA80
:1007D80045421A60039B0BB1C3F800A0012005B085
:1007E800BDE8F08F24FAFFFF800A00202DE9F74FBB
:1007F800704D9146D5F8E440B5F8E820C2EB2413D3
:100808005200C2EBE402B5F9EA405B436243B5F932
:10081800EC401B135C43A41304EBE224B4F5FA3E4A
:100828008846AEFB0E12CDE900124FEAE47343F19D
:10083800FF3C019AC5F800410EFB0CF302EB4303A1
:10084800B5F9F020019302FB0CF1D3170EFB03114D
:10085800A2FB0E230B44190341EA12511003019E17
:10086800B5F9F22002FB06FA009ED31706FB03AA8D
:10087800A2FB062353444FEA122A4AEA036AB5F850
:10088800EE204FEA232B1AEB00004BEB010B003054
:100898004BF5004BA0FB020102FB0B114A10CB17D2
:1008A80052EA030100F08480B5F9F800019E00FBCC
:1008B80006F7009EC11706FB0177A0FB0601B5F9F4
:1008C800F660394406FB0CFCF7170EFB07CCA6FBB9
:1008D8000E6767444FEA474E4FEA464C1CEB000C44
:1008E8004EEAD63E4EEB010ED5F80411B5F9F46088
:1008F800C1F58011CF174FEAC77A4AEA510AC807EB
:10090800002111EB0C014FEAC60747EB0E0E40F62B
:100918003546401A6AEB0E0AA0FB060106FB0A11CF
:100928002DF038FDB5F9FE204E13470B47EAC147B5
:1009380002FB06FCD31707FB03CCA2FB0723634487
:10094800564307FB0366A2FB07233344560E46EAC9
:10095800C316B5F9FC2036184FEA636741EB070761
:10096800D317514300FB0311A2FB00230B44D10C06
:1009780041EA4331D814761840EB0707B5F9FA0075
:10098800320A42EA076203011344B8F1000F02D0A9
:100998001B0AC8F80030B9F1000F05D004EB840435
:1009A80080342412C9F80040012003B0BDE8F08F5C
:1009B8000023EAE7800A00200120704701207047E1
:1009C8004FF40063838170474FF40063838170475D
:1009D8000123037750F8043C0BB1183818477047C7
:1009E80030B5446802692368022101FA02F2134211
:1009F80016D0C36900211974D9688868016821F084
:100A080001010904090C01605868064B0168407926
:100A1800CD6833F81030DB439BB22B40CB6062606B
:100A280030BD00BF18040308426B70B5D569A9062C
:100A3800044604D5C36ACBB1908C216B98472A062B
:100A48000ED5A26A616A636B8A421CD0511CA069E8
:100A5800A162825C1A852369994201D30023A362AB
:100A68002B0742BF636B08221A6270BDE169928C42
:100A780040694E1CD2B2E6614254E169E268914293
:100A880028BFE361DBE71A6822F080021A60E7E713
:100A980090F83420034602F0FF0012B1002283F8D8
:100AA800342070470B4B93F808217AB1D3F814110E
:100AB80088420DD3D3F81811884209D8D3F81011F9
:100AC800C3F8300141F00101C3F810111046704716
:100AD8000022FBE7800A002008B50846FFF7E2FF7E
:100AE80018B1024B012283F8242108BD800A002096
:100AF80028B1044BD3F86C0108B193F8080100F051
:100B080001007047800A002008B5FFF7F1FF18B10F
:100B1800024BD3F830310B8008BD00BF800A00209B
:100B280008B5FFF7E5FF08B100230B7008BD08B54D
:100B3800FFF7DEFF18B1024BD3F838310B7008BD50
:100B4800800A002010B5FFF7D3FF48B1064B93F891
:100B5800244134B993F828410C70D3F82C31137020
:100B680010BD0024F8E700BF800A00200520704768
:100B780030B1044B93F970010028D4BF0020012044
:100B8800704700BF800A002008B5FFF7F1FF18B1D1
:100B9800024BB3F878310B8008BD00BF800A0020F3
:100BA80008B5FFF7E5FF18B1024B93F87E310B70DB
:100BB80008BD00BF800A002008B5FFF7D9FF80B143
:100BC8000B4BB3F87A3163B1192B0BD9642B0BD9C2
:100BD800C82B0BD9B3F5C87F94BF03230423013373
:100BE8000B7008BD0023FAE70123F8E70223F6E7B4
:100BF800800A002010B5FFF7BBFF48B1064B93F8F9
:100C0800724134B993F873410C7093F874311370CE
:100C180010BD0024F8E700BF800A002004207047B8
:100C280028B1034B93F95200003018BF01207047D8
:100C38000000002008B5FFF7F3FF50B1054B93F90A
:100C48005220022A03BF93F85530C3F340030B70B8
:100C5800002008BD0000002008B5FFF7E1FF80B1C3
:100C68000C4A92F9543092F95220012A0ED1272BBE
:100C780008DC182B08DC0F2BD4BF00230123013319
:100C88000B7008BD0323FAE70223F8E70133DBB250
:100C9800F6E700BF0000002010B5FFF7C1FFC0B1A4
:100CA8000D4C94F85530DB0714D494F95330002BCD
:100CB800B8BF0733DB100133DBB20B7094F9533044
:100CC800594201F0070103F0070358BF4B420133B3
:100CD800137010BD0023F0E70000002003207047C8
:100CE80070B50A4A92F8803106255E1CB6FBF5F409
:100CF80005FB146492F88151AC421EBF02EBC3039A
:100D080082F88041C3E9610170BD00BF800A0020FC
:100D180010B500221346914201DC184610BD845CD0
:100D28006340082413F0800F4FEA430318BF83F091
:100D3800D503013CDBB2F5D10132ECE710B5E1B1E6
:100D48000E4C94F95230C3B10139C9B2032914D8F1
:100D5800012B0B4B0B484FEAC10119440CBF0B7B0D
:100D68008B7B84F85E300521FFF7D2FF062184F8DB
:100D78005F000448BDE81040B2E710BD0000002045
:100D8800180403085A000020F0B5114BD3F8C041ED
:100D9800B3F8B47193F8B611B3F8B861B3F8BA51AF
:100DA80093F8BC2114F0040F0AD193F8C8313BB969
:100DB800012A0BD0022A03D114F0080F08BF012121
:100DC800078081708680C5800272F0BD1146F7E702
:100DD800800A002007B532238DF800300368CDF86B
:100DE80001308388ADF80530034B6846D3F8F831F5
:100DF800984703B05DF804FB800A0020094BD3F83C
:100E0800FC0110F080000BD0D3F80022920706D422
:100E1800D3F8C00180F00800C0F3C000704701207B
:100E2800704700BF800A002007B510238DF80030F6
:100E3800054BADF80100CDF80310D3F8F83168463A
:100E4800984703B05DF804FB800A00202DE9FF41B4
:100E58008046084615462AF044FD4FF47A7200236E
:100E680006460F462DF096FAB5F900303C2403FBF0
:100E78000404394630464FF47A7200232DF08AFA7A
:100E8800002796B24FF47A73C3FB04673B46324699
:100E980001A82AF0A1FC3A4B93F80632012B09D09D
:100EA800022B35D032463B4640462AF095FC04B02A
:100EB800BDE8F0819DF80640E31E072BF2D8231FFA
:100EC800052B0DD92146BDF804002AF033FC9DF806
:100ED800073098420ED0E11E18BF01210029E1D049
:100EE8002B883C332B80274BF6184FF0000343EB3D
:100EF8000707D7E7032C03D19DF808100031EBE76B
:100F08000A2CCFD19DF80810B1FA81F14909E5E71B
:100F18009DF80640E31E082BC4D8231F062BDFD9F3
:100F28002146BDF804002AF005FC032C12D10E2836
:100F38000ADC9DF80730984208D19DF8081001296D
:100F480094BF00210121C9E70738F0E7B4BF0121A8
:100F58000021C3E70B2CA5D107280ADC9DF8073030
:100F6800984208D19DF8081001298CBF0021012161
:100F7800B4E70738F0E7CCBF01210021AEE700BF96
:100F8800800A002080EE360008B5064B1B681A79E7
:100F9800022A06D19A68920703D5186927F07AFBC6
:100FA80000BF08BD800A002038B504460D460C2253
:100FB8002521006827F000FD0A222621206827F055
:100FC800FBFC2A466321206827F0F6FC81222721B2
:100FD800206827F0F1FC012038BD10B50446002236
:100FE8002121006827F0E8FCFC222021206827F056
:100FF800E3FC40222421206827F0DEFC0C22232178
:10100800206827F0D9FC00222221206827F0D4FC90
:10101800012010BD10B5012204460B21006827F0FD
:10102800CBFC20B11D220921206827F0C5FC00F067
:10103800010010BD01224821006827F0BDBC012233
:101048005821006827F0B8BC08B53122F42100689F
:1010580027F0B2FC012008BD10B50122044610217A
:10106800006827F0A9FC48B1142027F014FA20687A
:10107800A0221121BDE8104027F09EBC10BD10B57C
:10108800242204464121006827F096FC80B12022E2
:101098003021206827F090FC50B1062231212068C9
:1010A80027F08AFC20B100223421206827F084FC34
:1010B800052027F0F0F9012010BD10B507220446DD
:1010C8000A21006827F078FC052027F0E4F924229B
:1010D8004121206827F070FC052027F0DCF9C022A8
:1010E8004221206827F068FC052027F0D4F9012068
:1010F80010BD10B5782204460021006827F05CFC7A
:10110800052027F0C8F920220121206827F054FC87
:10111800052027F0C0F900220221206827F04CFCA6
:10112800642027F0B8F9012010BD13B50623044642
:101138006A461121006827F00BFC18B9E086A06305
:1011480002B010BD9DF801209DF8003043EA02234B
:101158001BB207EE103AB8EEC77AF7EE086A27EE28
:10116800267A9DF80320BDEEC77A17EE103AE3867B
:101178009DF8023043EA02231BB207EE103AB8EE9C
:10118800C77A9DF8052027EE267ABDEEC77A17EEB6
:10119800103A23879DF8043043EA02231BB207EE76
:1011A800903AF8EEE77A67EEA67AFDEEE77A17EE60
:1011B800903A6387C4E713B50023C3868363044664
:1011C80006236A460321006827F0C2FBE0B19DF8B8
:1011D80001209DF8003043EA022303EB43039DF806
:1011E8000320E3869DF8023043EA02231BB25B42E8
:1011F80003EB430323879DF805209DF8043043EA59
:10120800022303EB4303638702B010BD13B5044602
:1012180000680379022B0CBF4321032106236A4689
:1012280027F096FB18B9E086A06302B010BD9DF8C0
:1012380000209DF8013043EA0223E3869DF802204E
:101248009DF8033043EA022363879DF804209DF844
:10125800053043EA02232387E7E707B5032301AAFA
:10126800002127F075FB9DF805309DF804001B024E
:1012780043EA00439DF80600184303B05DF804FBF9
:1012880008B50068FFF7E9FF024BC3F8E00001204A
:1012980008BD00BF800A002008B50068FFF7DDFF21
:1012A800024BC3F8CC00012008BD00BF800A002013
:1012B80013B506236A46F721006827F049FB144B4B
:1012C800E8B19DF801109DF800209DF80340090140
:1012D80041EA02319DF8022041EA12119DF80420EA
:1012E800C3F80411120142EA04329DF8054042EAAB
:1012F8001412C3E98212C3F8E42002B010BDD3F877
:101308000822C3F80421D3F80C22C3F8E420F4E738
:10131800800A00202DE9F3470669C36805460C4694
:101328001E404FF0004901F14C0701F1340816B98D
:1013380002B0BDE8F087B6FA86F329FA03F2D24381
:101348002A6116401B3B002C40D0042BEFD8DFE865
:1013580003F039342E280300E368D5F82CA02BB10C
:101368009B681BB11FFA8AF1201D9847636A33B145
:101378009B6823B11FFA8AF104F11C009847E36BBC
:101388002BB19B681BB11FFA8AF140469847636DE1
:10139800002BCCD09B68002BC9D01FFA8AF13846A5
:1013A80003E0E368696B5B68201D9847BFE7636AE1
:1013B800A96B5B6804F11C00F7E7E36BE96B5B68FA
:1013C8004046F2E7636D296C5B68E8E7042B06D8B2
:1013D800DFE803F00D0B09070300EB6A0193019B9B
:1013E800A5E76B6BFAE7AB6BF8E7EB6BF6E72B6CF3
:1013F800F4E7036C806B23B15B6801211A7A2BF048
:10140800A2BA01212BF0DEBAF8B5134C0746D4F87E
:10141800100203791E3B012B02D9002127F0A4F802
:101428000E4E0025BD42D4F810020FDB002127F034
:101438009BF8D4F83432C4F838320023C4F83C326C
:10144800B4F840320133A4F84032F8BD16F8011B55
:1014580027F08AF80135E5E7800A0020940C00207F
:1014680038B5144C94F8813194F880219A421AD0F6
:1014780004EBC303D3E9612004F505710023984206
:1014880012DC9378C4F850025B0884F85432FFF7F2
:10149800BBFF94F8813106210133B3FBF1F201FB64
:1014A800123384F8813138BDD55C01F8015B013312
:1014B800E5E700BF800A0020F8B5114C94F85932CE
:1014C80005460F461646CBB984F85A2225218C22A8
:1014D800006827F071FA3A462621286827F06CFA46
:1014E80046F080022721286827F066FA26F070FF68
:1014F800C4E99801012084F85902F8BD0020FCE7EE
:10150800800A002010B5074C94F8590240B126F023
:101518005FFFD4F86032C01AC0F5FA5020EAE070D4
:1015280010BD00BF800A002038B504460D46FFF7FD
:10153800E9FF002802DDC11726F09AFF064B206854
:10154800002283F85922492193F85A322A4627F073
:10155800FFF9012038BD00BF800A00202DE9F743BC
:10156800394C04F51A773B68C0F8363000F1360973
:10157800BB88A9F8043094F85832012B0646A046D7
:1015880012D03BB1022B2DD0002588F8585288F88C
:101598006E521AE001220221FFF78EFF012384F820
:1015A800583294F86E5210E0FFF7ACFF94F86E5280
:1015B80058B969463046FFF7B7FF18B19DF80030B3
:1015C8009B0706D1002388F85832284603B0BDE8A7
:1015D800F083072203213046FFF76EFF022384F8C9
:1015E8005832F2E7FFF78EFF0028DAD16946304615
:1015F800FFF79AFF9DF8063005460028C4D013F07F
:101608000802C1D1B4F970126846FFF716F84042D3
:10161800F086B4F972120DF10200FFF70EF8B4F972
:101628007412308701A8FFF708F840427087D9F88C
:101638000030C4F86832B9F80430BB80012384F85C
:10164800582284F86E32C0E7800A002037B50A4D68
:101658000824012300220DF10701286827F03CFA2D
:101668009DF80730FF2B02D1012003B030BD013CAB
:10167800EFD12046F9E700BF800A002073B5094E74
:10168800451C0024012300220DF10701306827F0D2
:1016980023FA9DF80700FF2802D10134AC42F1D1AA
:1016A80002B070BD800A002037B5104B104D1B8862
:1016B800ADF804300024022301AA214628686C6290
:1016C80027F00AFA0120FFF7D9FFFF281FBF0923D7
:1016D80085F82830D5F83432AB6105BF04230220E1
:1016E800204685F8283003B030BD00BF4004030809
:1016F800800A002070B5054608200E46FFF7BEFF99
:10170800FF2810D0FE2810D1094C33460022294664
:10171800206827F0E1F9002202231146206827F00B
:10172800DBF9002070BD0120FCE70220FAE700BFCA
:10173800800A002013B540F040038DF800300B0EEE
:101748008DF801300B0C8DF802300B0A8DF8033040
:10175800952304468DF804108DF80530FFF776FFC1
:1017680000B95CB9064806236A460021006827F0DC
:10177800B3F90820FFF782FF02B010BDFF20FBE796
:10178800800A00202DE9F84FDFF888A1584EDAF8D2
:101798005830584DDFF880B1DFF88081DFF880914C
:1017A8000027C0225A725F8137602B6803EA0B0357
:1017B80043F400739BB22B602B6803EA08039BB2C7
:1017C80048F2800483F0100323432B6031684A4BAE
:1017D80089B221F007010B44590040230B6031689E
:1017E80089B221F0070101F1005101F5405149008A
:1017F80080200860296821F4F8710905090D214342
:1018080029603E49384691F88C102AF0FDFD296878
:1018180001EA090189B281F440512143296038491C
:10182800086800EA0B0080B2086035683548ADB238
:1018380025F0070528444000C02202600A68324D9E
:1018480002EA080292B282F0200222430A600A6881
:1018580002EA0902224392B20A604A6802EA0B02CB
:1018680042F4C06292B24A603068284A80B220F0DE
:101878000700024452004FF4807010604A6802EA80
:101888000902224392B24A604A6802EA080292B206
:1018980082F0200222434A602A6802EA0B0B1FFAF0
:1018A8008BF22A6031681A4A89B221F007010A448A
:1018B800520040234FF488711160032019462AF022
:1018C800A3FD2B6803EA09039BB283F44053234327
:1018D8002B602B6803EA080844EA0804A4B22C60C9
:1018E80038462AF077FD0123CAF86030BDE8F88F42
:1018F800505C0040005C00400430002000000020E4
:10190800045C0040083000200C5C004010300020CF
:101918001C300020800A00208F89FFFFBF8FFFFF47
:101928008FBFFFFF2DE9F341214E224F3446D6F8F1
:10193800C0308BBBD6F8C05094F8761200226018DD
:10194800D3B29D4202F1010228D8D4F8C0305B1B03
:10195800C4F8C030D4F8C080294484F87612B8F1AD
:10196800000F12D1402103202AF04EFD3B6823F4DA
:10197800804323F070039BB283F4405343F4004345
:1019880043F080033B6084F87682002DCFD09DF829
:10199800040002B0BDE8F0810125CDE70DF1080C87
:1019A8009C44034493F880300CF8043CC8E700BF1B
:1019B800800A00200C5C0040202938B50C4623D84A
:1019C80001B3631C114AA1B25B1030F8025B22F824
:1019D800045B013BF9D101202AF0D4FD0C4AD2F86E
:1019E800C4302344C2F8C4300A4A136823F4E043DD
:1019F80023F040039BB283F0300343F4004343F0E9
:101A080080031360204638BD2024DAE78061004057
:101A1800800A0020045C0040F8B590F84860002374
:101A280080F8483006B3134D2A6EFAB12A6E052A9B
:101A38001ED1D5F8347200F13404D5F8C4308BB90E
:101A480031462046FFF7B8FFD5F83432DB1B322B7E
:101A5800A6EB0006044401D8002EEED1B6FA86F0B3
:101A68004009F8BD0020EFE70120FAE71046F8E743
:101A78001846F6E7800A0020002280F84920CBE7C4
:101A880090F84820531C0244DBB280F8483082F8B2
:101A9800341090F849200AB1132B00D9BCE77047DD
:101AA800F8B50E461546FEF7B3FD98B10B4CD4F8C1
:101AB8003472002D0EDDD4F8C43063B9294630469F
:101AC800FFF77AFFD4F83432DB1B322BA5EB000585
:101AD8000644EED9F8BD0020F4E700BF800A0020D4
:101AE80038B5084C254620680379022B04D02868AD
:101AF800BDE8384026F0F2BE26F0DEFE0028F6D01B
:101B080000BFF0E7800A00202DE9F041164C1E4680
:101B180094F82830042B05468846174615D1FFF758
:101B280033FAA37FD3B969021120FFF703FEB8B9CE
:101B38000523C4E90185C4E9047684F82830D4F87B
:101B48003432A3610120BDE8F081082B01D00020C8
:101B5800F9E7FFF7A9FD0228F9D1E0E72946E3E70D
:101B6800FFF7BEFFF3E700BF800A002038B5002268
:101B78000F232D2102202BF024F81A4B18601C4645
:101B880010B983F8280038BD002126F0EFFF4FF484
:101B98007A7026F080FC2068134D26F09FFE002204
:101BA8000A231146206826F097FF20680379022B44
:101BB80007D0D4F83432A361012384F828300023F5
:101BC8000DE026F079FE0028F3D0013DEDD1206824
:101BD8002AF0EAFF237F256084F828500133237711
:101BE800D1E700BF800A0020A18601008379806BBD
:101BF800DB0748BF81F0010109B126F050BD26F08E
:101C080049BD1FB5044600230DF1070227210068CE
:101C18008DF8073026F06CFE68B19DF8070010F0CB
:101C2800080008D0062302AA2821206826F090FE82
:101C380018B9E086A06304B010BD9DF809209DF88E
:101C4800083043EA02231BB2002BB8BF03339B10B2
:101C58009DF80B20E3869DF80A3043EA02231BB265
:101C6800002BB8BF03339B1023879DF80D209DF8E8
:101C78000C3043EA02231BB2002BB8BF03339B107E
:101C88006387D8E71FB500210446C18681630DF13B
:101C98000702006826F02CFE00B39DF8070010F03C
:101CA80008001BD0062302AA0121206826F050FE56
:101CB800A0B19DF808209DF8093043EA0223E38685
:101CC8009DF80A209DF80B3043EA022323879DF8EC
:101CD8000C209DF80D3043EA0223638704B010BD41
:101CE80030B5002585B00446C58685630DF1070229
:101CF8000621006826F0FCFD00B39DF8070010F0EF
:101D080004001BD0062302AA2946206826F020FEDC
:101D1800A0B19DF809209DF8083043EA0223E38624
:101D28009DF80B209DF80A3043EA022323879DF88B
:101D38000D209DF80C3043EA0223638705B030BDBF
:101D480010B500680C4626F0E9FE837863B1827A04
:101D5800C37A43EA02231BB2222293FBF2F303F273
:101D68006D132380012010BD1846FCE710B504460A
:101D7800006826F0D3FE837883B10279437943EA79
:101D88000223E3818279C37943EA02232382027A18
:101D9800437A43EA02236382012010BD1846FCE718
:101DA80070B506680546304626F0B8FE0E23044690
:101DB800021D3B21304626F0CBFDA07070B1227B7E
:101DC800637B43EA02232B84A27BE37B43EA02235F
:101DD8006B84227C637C43EA0223AB8470BDF8B534
:101DE800284C2546D4F86C0126F0BBFB002847D0C8
:101DF80094F868310BB1002042E0D4F86C0126F069
:101E0800AAFBD4F864313BB90F28EBD10123C4F8FD
:101E1800643184F85401E5E70F2B9FBF5A1C1B1946
:101E2800C4F8642183F85401D5F86431102BD9D152
:101E380095F854310F2B15D195F8553195F8452162
:101E48009A420FD195F8632162B90F4995F86261FA
:101E5800084611F8017B01323B440C2ADBB2F8D169
:101E68009E4205D0002385F86831C5F86431B9E78A
:101E780006492DF07BF90028F4D0012085F8680187
:101E8800F8BD00BF800A0020D60B0020C60B00203A
:101E980038B5174C0F2384F8443184F8450104F50C
:101EA800A372F9B10B68C4F846314B6853608B686C
:101EB8009360104A002312F8011B013308440C2BCD
:101EC800C0B2F8D1002584F8520110220A49D4F88A
:101ED8006C0184F8535126F083FB84F86851C4F8E8
:101EE800645138BDC4F8461151609160E1E700BF04
:101EF800800A0020C60B0020C40B002030B58F4C90
:101F0800D4F87832B3F5857F85B06FD00BDCB3B3E6
:101F1800F82B46D0D4F87832002BBCBF0023C4E994
:101F28009E3305B030BDB3F5887F00F0B480B3F5BB
:101F38008F7FEFD194F86831002B00F0DF8000210B
:101F4800B4F85631C4F80C11D4F83011B4F858214B
:101F5800C4F83C318B42C4F8402140F0E780D4F803
:101F680034319A4205D0D4F8103143F00203C4F852
:101F7800103194F80831002B00F09F8029E084F894
:101F8800083100217220FFF783FFD4F83432C4F8F7
:101F980080324FF0000CFA23C4E9A1C3F823C4F837
:101FA800783294F86831EBB3B4F85631C4F8143188
:101FB800B4F85831C4F818310023C4F81C31B4F807
:101FC8005A31C4F82031012384F808310023C4E9C8
:101FD8004333D4F83432C4F8803200254FF47A738E
:101FE800C4E9A1534FF48573C4F87832D4F810517A
:101FF80075BBD4F88022D4F834329B1AD4F88822DE
:10200800934287DD29467620FFF742FFD4F8343221
:10201800C4E9A035FA23C4F888324FF48F73C4F8A2
:10202800783287E7FFF7DBFE48B9D4F88022D4F886
:1020380034329B1AD4F8882293427FF76BAF94F816
:102048006831002BB0D194F80831002BBED198E745
:1020580015F0010337D00025B4F83031ADF804305D
:1020680001A94620CDF80650CDF80A50ADF80E501B
:10207800FFF70EFFD4F8103123F00103C4F8103134
:10208800D4F83432C4E9A035FA23C4F888324FF4BE
:102098008873C4F87832D4F88022D4F834329B1A82
:1020A800D4F8882293427FF735AFD4F80C31022B4D
:1020B8007FF75FAF002384F808314FF0FF33002229
:1020C800C4E99E3226E715F0020514D0B4F834218D
:1020D800CDF8063001A95020CDF80A30ADF80E3001
:1020E800ADF80420FFF7D4FED4F8103123F0020332
:1020F800C4F81031D9E7C4F81051D6E7FFF76FFEDE
:1021080048B9D4F88022D4F834329B1AD4F88822FB
:1021180093427FF7FFAE94F86831002B7FF40FAF3E
:10212800D4F80C310133C4F80C31BEE7D4F81031BF
:1021380043F00103C4F8103111E700BF800A002002
:102148002DE9F04F6A4E96F890328BB0804689465A
:10215800002B3ED1D6F89452002D3AD096F898A28A
:1021680004AF96F89832032B00F28480DFE803F07E
:1021780002347D99394628460FF088FF044680B11D
:1021880007A8FEF701FE9DF81E109DF810308B423F
:1021980070D0AB798B4204D32B681B690BB12846EE
:1021A800984796F89832013303F0030386F898327B
:1021B800002C40F09A809A45D3D1D6F8C0315B07FD
:1021C80000D534B12B68196819B142464B462846E8
:1021D80088470BB0BDE8F08F01A8FEF7D5FDD6F80B
:1021E800C0319DF8044003F0040334B3002B41D1FF
:1021F8003A460DF1030128460FF04FFF0446002828
:1022080038D007A8FEF7C0FD9DF81C109DF80330D4
:102218009DF81D208B4203D19DF81030934229D0A0
:102228002B798B42BDD36B799342BAD32B68DB6889
:10223800002BB6D028469847B3E7002BB1D13946D2
:1022480028460FF015FF0446A0B107A8FEF79CFD2D
:10225800BDF82010BDF810308B420BD02B689B695D
:10226800002B9ED0284698479BE7D6F8C01111F05E
:10227800040B01D0002494E707A928460FF0FFFEBD
:102288000028F7D096F89942002CF3D09DF81C301E
:1022980086F899B2002BEDD0594628460FF004FF76
:1022A8007FE73846FEF770FD97E8070007AB03C3E2
:1022B8001A809DF810309BB10DF11D0207A9284620
:1022C8000FF0EBFE0DF11E0128460FF0DFFE0A228B
:1022D80007A938462CF04AFF041C18BF012460E700
:1022E80008A928460FF0C4FEECE7012465E700BF03
:1022F800800A0020022803D0431E584258417047E4
:10230800054B93F8A42212B1102015F0C7BFD3F8DB
:10231800C001C0F380007047800A002010B52AF081
:10232800ABF94FF43024012806D10CB9052010BDB3
:102338002AF0A2F9013CF6E7002C08BF0520F6E7D1
:10234800016821F01F0202F1804202F5823270B565
:102358000123146801F01F0103FA01F124EA0101C5
:10236800116002682A4C22F01F0502F01F02295949
:1023780003FA02F221EA02022A510179026801F104
:10238800804122F01F0401F5823102F01F026558D6
:1023980003FA02F22A43625002681E4D22F01F041B
:1023A80002F01F02615903FA02F221EA02026251A5
:1023B8000268194C22F01F0602F01F02315903FA75
:1023C80002F221EA0202325141790268102912D13F
:1023D80022F01F0102F01F024E5903FA02F23243A3
:1023E8004A51026822F01F0102F01F020859934067
:1023F80003430B5170BD01F1804122F01F0001F52C
:10240800823102F01F024458934023434350F1E7BE
:1024180004040140080401400C0401402DE9F04780
:1024280090B0DDE9184A0E460746904600213A2248
:102438000DF1060099461A9D2CF0C0FE344B02930C
:102448008DF80460CDF834A0002E55D0022E55D05A
:10245800032E55D0042E55D103232E4A02EB4303F5
:1024680093F82B308DF805302B4B0394D3F8342296
:10247800069714440122CDE904458DF831201D4604
:10248800B8F1000F06D04A46414607A82CF0AAFC2E
:102498008DF8309095F816E30023BEF1010F0E93E6
:1024A8001FD80DF1040ABAE80F0095F815C33C24AB
:1024B80004FB0C5404F546740FC4BAE80F000FC4AB
:1024C800BAE80F000FC49AE80700BCFA8CFC0EF1BA
:1024D800010E4FEA5C1C84E8070085F816E385F8CE
:1024E80015C33B6883B14B4642463146384610B067
:1024F800BDE8F04713F0B3BD3346AEE70123ACE7C0
:102508000223AAE70023ADE710B0BDE8F08700BFBB
:10251800540D002018040308800A0020420900F026
:102528001F03022A4FF0010000FA03F008D0032A23
:102538000BD0012A0DD1074B5A69104358617047D7
:10254800044B9A69104398617047024BDA6910434B
:10255800D86170470010024013B501238DF805308B
:102568004FF48073ADF8063003681B685B79044646
:1025780023B101A88DF804302AF030F923681B68CC
:102588009B7923B101A88DF804302AF027F902B00D
:1025980010BD031EB8BF2D2210B5B8BF58420C4657
:1025A800AEBF0A2201F8012B0A2228F091F8002375
:1025B8000370204610BD2DE9F04F89B080468B4648
:1025C80015461C4600270DF11409297869B32529F9
:1025D80007D0B8F1FF3F01D04046D8470135013751
:1025E800F3E76A782D2A05BFAA78EE1CAE1C0125F0
:1025F80018BF0025302A06BF16F8012B0123002337
:102608000293A2F13003092B4FF0000A16D96C2A65
:1026180040F09B80354615F8012B642A4BD026D80C
:10262800252A7ED016D8002ACFD1384609B0BDE871
:10263800F08F0A2316F8012B03FB0A0A10460392AF
:1026480028F05AF80A28039AF3D9002DDFD0CAF1E6
:10265800000ADCE7582A19D0632AB6D1B8F1FF3F3F
:10266800BDD054F8041BC9B24046D847B7E7732A0F
:1026780048D007D8662A5BD06E2AA6D154F8043B06
:102688001F60A2E7752A08D0782A9ED1A2F15800C7
:1026980042424B464241102102E04B4600220A21A9
:1026A80054F8040B15E04B4600220A2154F8040B99
:1026B80029F000F820E054F8040B0028BFBF2D23B0
:1026C8008DF8143040420DF11503A8BF4B46002287
:1026D8000A2128F0EFFF10E054F8040B0028BFBFD0
:1026E8002D238DF8143040420DF11503A8BF4B4639
:1026F80000220A2128F0DEFF3546CDF80490029B1F
:1027080004E0354654F8043B0193002300935A46ED
:1027180053464FF0FF31404629F0A4F9074454E7E7
:102728003546B8F1FF3F3FF45AAF25219CE73546BF
:10273800073424F00704F4E802012BF0CDFC00EE86
:10274800100A484627F028FBD7E7642AC4D00DD8DA
:10275800252AE5D004D8002A3FF467AF354634E788
:10276800582A10D0632AF9D1354677E7732AC8D09A
:1027780005D8662ADBD06E2AF0D135467EE7752A61
:1027880091D0782AEAD1A2F158014A424A414B46EF
:1027980010218BE70CB470B52C4CD4F89433ADF5FC
:1027A800267D13B9D4F8983363B3D4F834124FF4B0
:1027B8007A7306A8B1FBF3F203FB1213244929F03C
:1027C8003CF906AB03440093AA9A2249ABAB0646F0
:1027D80068460193FFF7EFFE009B5A1C00920A22FD
:1027E8001A70009B5A1C009200221A70D4F8943375
:1027F80073B1184625F078FE20B106A9D4F89403E1
:1028080025F00EFF0DF5267DBDE8704002B070473B
:10281800D4F89843002CF5D0CDF81230ADF8163026
:102828003044A6AB26AD0393821CFD2306A902A85B
:10283800ADF81030029529F0D8F8029B022202A9BF
:102848002046CDE9025312F063F9DBE7800A002045
:10285800145003087580020810B5084A0023114671
:102868001479844203D1142000FB031010BD0133F6
:102878000C2B02F11402F3D10020F7E74C040308F3
:102888002DE9F04190461A0704460D469DF8186058
:1028980003F0010714D503F01103002B14BF4E21D8
:1028A8003E2118B14FF4E163C38006720722204627
:1028B8002AF049F827BB2046BDE8F04125F0EABEDA
:1028C800002F14BF4E272E2718F0020F09D018B179
:1028D8004FF4A163C38006720722394620462AF0C6
:1028E80032F818F0010F0BD01DB14FF4C163EB8023
:1028F8002E72394628460722BDE8F0412AF023B84F
:10290800BDE8F081054AB2F8C034D2F8BC24918AF7
:102918000B4218BF1B049361704700BF800A002058
:1029280080F00101014825F02FBF00BF3C0F0020B7
:10293800F8B504460F46164625218C2200681D4628
:1029480026F03AF83A462621206826F035F845F070
:1029580080022721206826F02FF80A2025F09BFD09
:102968002B4632464921206825F0F2FF0120F8BDA8
:1029780013B504460021006826F0F8F80021204627
:10298800FEF712FB142025F086FD0F212046FEF7E6
:102998000BFB0A2025F07FFD01AA03231021204606
:1029A800FFF7C6FF0A2025F076FD9DF80420174B97
:1029B8008032A3F870229DF805208032A3F8722295
:1029C8009DF80620002180322046A3F87422FEF7E5
:1029D800EBFA0A2025F05FFD0DF103020123022125
:1029E8002046FFF7A5FF01230DF103020921204628
:1029F800FFF79EFF12212046FEF7D6FA2068032132
:102A080026F0B4F8012002B010BD00BF800A0020F3
:102A180030B18088B0FA80F0C0F11F00431C06D0A6
:102A2800034A0123116803FA00F008431060704755
:102A3800000401402DE9F843036B046890F82D80E9
:102A480005465A48B0FBF3F0594B4FF0000C1946B5
:102A58001E46012291F80690A8EB090701F1060E1F
:102A6800002FA8EB0C01B8BF7F420029B8BF49422C
:102A78008F4202F10102BCBF4FFA89FC7646102A48
:102A88007146E7D1002780B21A7862450CD1718867
:102A98005A88411A821A0029B8BF4942002AB8BF89
:102AA80052429142C8BF1E460137102F03F1060358
:102AB800EAD1606972883D4BB3FBF2F3AB63D8B1DE
:102AC80025F0ADFEC0B92B685B691BB140F6150255
:102AD800DA8018721846002129F074FF354BAB6173
:102AE8002946082351F8180BF022406929F088FE7E
:102AF8002B685869FFF78CFF2046002126F036F82E
:102B080080226B21204625F057FF642025F0C3FC66
:102B180007226821204625F04FFF642025F0BBFCE2
:102B280000226B21204625F047FF642025F0B3FCE6
:102B380001226B21204625F03FFF0F2025F0ABFC3A
:102B480018221B21204625F037FF0F2025F0A3FC73
:102B580018221C21204625F02FFF0F2025F09BFC72
:102B680032791A21204625F027FF0F2025F093FC03
:102B780072791921204625F01FFF642025F08BFC6F
:102B880012223721204625F017FF0F2025F083FC5D
:102B980038210122204625F00FFF0F2025F07BFC6D
:102BA80020460321BDE8F84325F0E0BF40420F006E
:102BB8003C050308D90900083CE7F0B5174B93F822
:102BC800642503F5AD6102EB420401EB840103F2D5
:102BD800B45600240C27052A04D90CB183F86425BF
:102BE8000020F0BD0C680132E507D2B20DD52042B5
:102BF8000BD091F904C0002407FB04F515F906E091
:102C0800E64505D00134062CF6D10C310124E2E763
:102C180083F864252B44D3F8B805E2E7800A00203E
:102C2800024B002283F86425C7E700BF800A002012
:102C380030B5264B10201D78A5F1300109291A4618
:102C480003F1010329D9214C0021131B022B27DC96
:102C58000023A2422ED82E2D36D1501C0424002247
:102C6800057802EB8202303D5200092D92B298BFDE
:102C7800521904F1FF349CBF013092B214F0FF04E2
:102C8800EED164205043124A02FB03000623B0FB36
:102C9800F3F0104B03FB010001E00138CBD130BD4C
:102CA80001EB8101490014F8010B3039014401F0AE
:102CB800FF01CAE703EB83035B0014F8010B303B09
:102CC800034403F0FF03C4E70022DAE77C10002086
:102CD80040420F008096980030B5002351F82340F9
:102CE80052F82350641B40F823400133032BF5D1DD
:102CF80030BDF0B58FB00546ADF826200BA80DF114
:102D08002602FEF7A3F8BDF926103C2091FBF0F34C
:102D18001AB200FB13131BB2BDF82C00002BB8BF6E
:102D28005B42B0F5FA6F1AD39DF82E0001380B28D4
:102D380015D89DF82F0001381E2810D89DF83000AE
:102D480017280CD89DF831003B2808D89DF8320088
:102D58003B2804D8BDF83400B0F57A7F2ED3184844
:102D68000B900020ADF830008DF83200ADF834003B
:102D7800044611F13B0F9DF830609DF831709DF8C5
:102D880032C0BDF834E09DF82F000793B4BF2D2161
:102D98002B21002AB8BF5242CDE905120090CDE997
:102DA80003CECDE901679DF82E30BDF82C200549EA
:102DB800284628F042FE20460FB0F0BD0124D8E78F
:102DC8000000010120500308F0B505460C4689B003
:102DD8001422002120462CF0F1F92A681D4E04A97E
:102DE800C2F3855000230D4640FA03F7FF0744BF9E
:102DF8009F5D01F8017B0133062BF5D116480023AE
:102E08000B70C2F303210144C2F3053691F88A110D
:102E18008DF8181000F291100DF1190146FA03F718
:102E2800FF0744BF1F5C01F8017B0133062BF5D176
:102E380000230B70C2F38343029306ABCDE9005322
:102E4800064902F00F032046C2F3031228F0F5FDED
:102E580009B0F0BD9C050308180403084E50030888
:102E680070B51C4C94F8F45875B3D4F8FC680B682A
:102E7800DFED196A9B1B07EE103AD4F800694B681E
:102E8800B8EEC77A9B1B27EE267A07EE903A04F233
:102E98000C6380ED007A93EDBB7A8B68012AF8EE1B
:102EA800E77A27EE267A18BFD4F8042967EE877ADE
:102EB80018BF9B1AC0ED017A07EE903AF8EEE77A50
:102EC800C0ED027A284670BD00230360436083602A
:102ED800F8E700BF800A00202C7D8E3F1FB53149DE
:102EE80001A84A7D583110F091F90398019A80EAB7
:102EF800E073A3EBE07307EE903AF8EEE77AF7EEAB
:102F0800086AC7EEA65A82EAE273A3EBE27307EEF9
:102F1800103AB8EEC77A029BF4EEC75AF1EE10FAEF
:102F280013DD83EAE371A1EBE37106EE101AB8EE44
:102F3800C66AF4EEC65AF1EE10FA06DD0028CCBFD8
:102F48000020012005B05DF804FBC7EE265A83EA8D
:102F5800E371A1EBE37106EE101AB8EEC66AF4EE5F
:102F6800C65AF1EE10FA09DDF4EEE57AF1EE10FA40
:102F780004D5002ACCBF02200320E3E7C6EE265A78
:102F8800B4EEE57AF1EE10FA09D5F4EEE57AF1EE51
:102F980010FA04D5002BCCBF04200520D2E74FF04F
:102FA800FF30CFE70000001070B51E4D95F8F438DB
:102FB8002DED028B04460E4673B3D5F8FC3803603A
:102FC800D5F800394360D5F80439836005F20C63FD
:102FD80093EDBB8ADFED148A96ED000A80EE280A8D
:102FE8002CF066F923681844206028EE288A96EDAC
:102FF800010A80EE080A2CF05BF9636818446060E7
:1030080096ED020A2CF054F9BDEC028BA368184423
:10301800A06095F8F40870BDC0E900338360B7EE8E
:10302800008AD7E7800A00202C7D8E3F30B5194CE6
:10303800D4ED1A7A89B0F1EE677ACDED057AD4ED40
:103048001B7A00230093F1EE677A0B680193CDEDAC
:10305800067A4B68D4ED1C7A02938B680393054675
:10306800636E0493F1EE677A6A4604A96846CDED6B
:10307800077A14F04DFA694604F16402084614F020
:1030880047FA019B2B60029B6B60039BAB60284651
:1030980009B030BD0000001038B502782DED088B5E
:1030A80030EE608AD0ED01AA0446B0EE40AAF0EEF8
:1030B800419AB0EE619AB0EE42BA0D4668EE2AAA7D
:1030C80001F001034AB1002B0CBFF0EE607AF0EE7C
:1030D800487A0022C0ED0B7A0270D4ED0B7A002BEF
:1030E80060D078EE677AF0EE480A87EEA90AC4ED58
:1030F8000B0AD4ED090AD4ED038AF5EEC00AF1EE05
:1031080010FA05DDB0EE691A04F1180029F041F84B
:10311800D4ED057A94ED0A7A2AEE27AA20EE280A39
:103128007AEE877A77EE807A77EE8A7AF4EEC97A41
:10313800F1EE10FA08D4F4EECB7AF1EE10FAD4BF1F
:10314800B0EE679AB0EE4B9AD4ED026A94ED046A39
:10315800C4ED0DAA28EE268AF0EE476AE9EE886AE1
:103168006B0779EE677A84ED0C7A67EE867A84EDE0
:103178000E0AE9EEA76A84ED0FAA84ED109AF0EE24
:10318800667A08D5F0EEE66AB0EEC77AF4EEC76A5A
:10319800F1EE10FA01D5C4ED0A7AB0EE490ABDEC99
:1031A800088B38BD70EEE77AF1EE677A87EEA90AE8
:1031B8009DE710B588B0002300930B6801934B6816
:1031C80002938B6814490393D1ED1A7A4B6E0493DA
:1031D800F1EE677ACDED057AD1ED1B7AF1EE677ADB
:1031E800CDED067AD1ED1C7A0446F1EE677A6A468F
:1031F80064316846CDED077A14F08AF9694604AA65
:10320800084614F085F9019B2360029B6360039BC9
:10321800A360204608B010BD0000001010B51E4C79
:1032280094ED1A0AD4ED196A94ED1B7AD4ED1C7A40
:1032380020EE000AA6EEA60AA7EE070AA7EEA70A3E
:103248002CF080FADFED157AB4EEE70AF1EE10FA09
:1032580008D54FF07E5363660023A366E3662367B1
:103268000F4810BD94ED197AC7EE007A94ED1A7ADA
:10327800C4ED197AC7EE007A94ED1B7AC4ED1A7A78
:10328800C7EE007A94ED1C7AC4ED1B7AC7EE007A7B
:10329800C4ED1C7AE4E700BF00000010BD37863596
:1032A8006400001030B5D0F8D010ADF50B7D00F1FA
:1032B8000A0206920A448AAB0792B0F8D620039312
:1032C800ADF820204FF6FF7390F8D520ADF81030F8
:1032D800044600230AAD8DF8222002A901AA06A8F7
:1032E80002958DF81230ADF81430ADF82430019302
:1032F80016F0C6FB40B1029B94F8D42002A92046E0
:10330800CDE9025311F004FC0198002363720DF516
:103318000B7D30BD2DE9F347294C164684F82F2F35
:10332800284A84F8310F1F46FE2384F82E3F12F8EE
:10333800B63C84F8303F013302F8B63C4FF6FF73D1
:1033480084F8321FADF80630062504F62F78013DC3
:10335800ADB23DBBDFF87480BDF8063094F82F5F3E
:10336800A4F82C3F4FF6FF79A8F1080A013DADB249
:103378004D451ED13846144905F0B6FD94F82F3F47
:10338800B4F82C2F234406F1080083F8342F94F85E
:103398002F3FB4F82C2F2344120A83F8352F02B09C
:1033A800BDE8F0870DF1060118F8010B05F09CFD4A
:1033B800CDE7514618F8010B05F096FDD6E700BF9A
:1033C800800A0020781B0020AC190020B4190020C6
:1033D80017B48DF805308DF804200A4BBDF8042089
:1033E8009DF81040A3F8342F2F2283F8332F83F849
:1033F800364F032299238DF8064003B05DF8044B3D
:1034080088E700BF800A0020054911F8892C0023AD
:10341800042A036028BF042284392BF0E3BC00BFD0
:10342800781B002010B4064911F8892C0024048068
:10343800022A28BF022284395DF8044B2BF0D2BC43
:10344800781B0020F8B5204C1D250F46064684F849
:10345800845012F04FFF002012F0DEFE082012F018
:10346800DBFE0E2012F0D8FE284612F0D5FE04200E
:1034780012F0D2FE042012F0CFFE002012F0CCFE93
:10348800302012F0C9FE002012F0C6FE384612F0B5
:10349800C3FE002012F0C0FE12F00EFF04F18500FA
:1034A80012F022FE234670B194F8852052B994F8A0
:1034B8008620302A00D02AB993F8872012B993F8C9
:1034C800883033700120F8BD781B0020011D0023CF
:1034D800884201D11846704710F8012B5340082242
:1034E80013F0800F4FEA430318BF83F03103013A0A
:1034F800DBB2F5D1ECE72DE9F743104B93F8904296
:1035080007468846C4B90E4DA14605F525762868B4
:1035180058B124F0E9FF40B1CDF800902B4642465F
:103528003946B62011F0DEFB0446DC35B542EED153
:10353800204603B0BDE8F0830024F9E7800A0020A4
:10354800101C00200E4B062230B483F82E232422B0
:1035580083F82F2383F83023002283F83123094A84
:1035680003F2323102F1240452F8045B41F8045B9F
:10357800A242F9D130BC83F834030AF081BA00BF03
:10358800781B0020AF05030813490023F0B51A463D
:103598000D461E460A278C1894F8FC450CB91846A7
:1035A800F0BD2E2C06D101320028F8D08C18044426
:1035B80084F8FC65AC187B4394F8FC45A4F1300C06
:1035C800BCF1090F9CBF303B1B190E2A01D80132F0
:1035D800E1E70023E3E700BF800A002010B50A4CAA
:1035E80004F60C7008F02EF8D4F8183FC01A28F02A
:1035F800E7FB0028B8BF404242F210739842D4BF9C
:103608000020012010BD00BF800A0020024B4FF4AB
:1036180080221A60704700BF140401407047704749
:103628007047FEE7FEE7FEE77047F8B54FF0FF3159
:103638002E4A2F4C0D460023907A04280BD103F50F
:10364800817004EB0010C079C70704D46E1C1068A1
:103658002FD088422DD30133082B02F11002EBD171
:103668006B1C40D0224C234F05F5817604EB0613E2
:10367800998849B1D7F8703333B104EB051041F29A
:1036880018029B6880589847D7F87033A3B104EBA9
:10369800051C1949DF68194A41F21800002301EB9B
:1036A80045215CF80000B84730B1022811D000204D
:1036B800F8BD1D460146CEE741F29C02A358013BE6
:1036C800A35004EB06140323A3710D4B01221A70B7
:1036D800EDE741F29C02A358013BA35004EB06140A
:1036E8000123A371E3E70120E2E700BFB040002017
:1036F80094300020781B0020AC300020473F0008A1
:103708003441002090F91A305A1C0AD003F581720E
:10371800124B03EB0213DA796FF30002DA71FF231D
:10372800837690F91B104B1C16D00C4A01F5817159
:1037380002EB011302EB0112DB79D179C3F34503E4
:10374800012B86BF03F1FF3303F03F03002363F32C
:103758004601FF23D171C376704700BF9430002023
:1037680012F0020C2DE9F84F884617469B4600F0E8
:10377800C080002840F0BD80FCF73EFE02209CE09F
:103788004FF0FF32DFF8A8E1914615469246002631
:10379800DEF800309EF80E10984218D1002900F08B
:1037A800908041F29801354662580132625006F520
:1037B80081710901625005F5817604EB0612927950
:1037C800042AD9D8DFE802F02B56AA56600011B3B4
:1037D800012911D106F5817104EB0111C979CB07D3
:1037E8000AD411F07E0F07D1CB0916D1DEF80810E4
:1037F800514501D2B1468A460136082E0EF1100E07
:10380800C6D1561C73D1691C5CD1B9F1FF3F00F0D9
:1038180085804D4656E03246EEE73546ECE717F030
:10382800010212D03E4BD3F87033002B76D03D49BD
:103838005F683D4A002301EB4521B84700286DD059
:1038480004EB06140223A37168E004EB0611F810D8
:1038580091F807E0BBF1030F60F3C71E81F807E09A
:103868002DD94FF6FF7293455B4628BF134604EBEC
:1038780006129380BCF1000F06D004EB051000F58A
:1038880080501830FCF720FE7A0741BF04EB06127F
:10389800D37943F00103D371FB0608D504EB061472
:1038A800E379C3F34502013262F34603E3711D492C
:1038B80001EB4521C8F800100120BDE8F88F134638
:1038C800D5E7354604EB051141F2980641F2180296
:1038D8008850A2590132A25141F21C068A5105F5BD
:1038E80081710901661862500022726063E715460B
:1038F800E8E70E4941F208220C468A58002A3FF4AC
:103908003FAF41F2102541F20C264D59895905FB6C
:1039180002129042FFF434AFFCF76EFD0020CCE7B2
:10392800781B0020AC300020E149000894300020CA
:10393800AC4000207FB5104D02AA0C4601A9FCF747
:103948008DFD05F59053019E18680122002303A9F7
:103958003044FFF705FF01280BD1DDE90223297860
:10396800022916BF53F8223033F8123023F070437F
:10397800236004B070BD00BF9430002037B5044602
:10398800C0690D4698B10023032201A9FFF7E8FE9C
:10399800012806D1B4F92020002A0ADAFCF72CFD08
:1039A800022003B030BDE5258D54A2680AE001204D
:1039B800F7E701995201012D01EB0203F5D0022D21
:1039C800F1D0E268DA612278032A04D100221A775A
:1039D8005A779A77DA77626A5A83C2F30F419982E3
:1039E800DFE77FB50E4D01AA0C4602A9FCF736FDAC
:1039F80005F59053029E18680322002303A930445A
:103A0800FFF7AEFE012808D12978039B019A022905
:103A18000CBF23F8124043F8224004B070BD00BF29
:103A280094300020034B1B78032B0CBF80204FF4ED
:103A3800807070479430002008B50B4A68B18168DF
:103A480011B10723937008BDFFF7ECFF0423C2E907
:103A58000100C2E903111175F4E741F2B411012321
:103A680053545370EFE700BF9430002008B5FFF7B8
:103A7800D9FF034A41F21023D3585843400208BDE6
:103A8800943000202DE9F04F0E4685B0174602A964
:103A980001AA80463068FCF7E1FC374A02991368AE
:103AA80001EB0309019B013BDD19FFF7BBFF3368FD
:103AB800ED1A0544A2F5905AB5FBF0F54D4433686C
:103AC800BB42A5EB090103D3012005B0BDE8F08F87
:103AD800DDF804B00BEB0702D21AFFF7A3FF82420E
:103AE800044643D214460B220B46484603A9FFF767
:103AF80037FE0128E9D19AF8000032680399019B42
:103B0800022802F101022ED1A34223D33368019A7D
:103B18009B1A2344B8F1010F336016D1BB4214D16C
:103B28009AF80030022B0BBF04F1004404F18044E2
:103B380004F1FF3404F1FF340BBF4FF6FF734FF06D
:103B4800FF3321F8143041F82430002309F101092A
:103B58000193B4E721F8132001330132D4E741F887
:103B6800232001330132A342F9D3CFE7BBF1000F81
:103B780014BF0B220A22B7E7944200202DE9F7432D
:103B88000029DFF808813F4E044614BF02270027AA
:103B980094F83C30042B66D8DFE803F02403313B6B
:103BA8005A00DFF8EC9098F80030206B032B4AD1CC
:103BB800484594BF00250125002D42D101A9FFF7F2
:103BC800B9FE01285AD12946206BFFF70AFF0128C0
:103BD80054D1019B23633268013B934294BF336005
:103BE8003260E0E739462046FFF7C8FE0128034661
:103BF8003BD1626B02B1022384F83C30C8E7626BA8
:103C080004F130010020FFF73DFF01282DD10323E7
:103C1800F2E71D48E26A036802609A1AC36F5343C9
:103C280050F81C2C5B021A4440F81C2C50F8182C35
:103C3800134440F8183C00212438FFF79FFE012860
:103C480013D10423D8E785B24FF6F7739D42B0E746
:103C580094F82830042B04BF002384F82830A36B81
:103C68000BB120469847012008E0022806D194F8B5
:103C78002830042B02D1002384F8283003B0BDE893
:103C8800F08300BFA8420020284200209430002082
:103C9800F7FFFF0F2DE9F0412C4E044600F13008E4
:103CA80006F1240794F83830032B4CD8DFE803F0EA
:103CB8000229313A39682161FFF7D8FEE368244DBB
:103CC8001844E060FFF7AEFE08443860FFF7CEFE08
:103CD8002B68181A2860FFF7C9FE6B68181A686005
:103CE8002163FFF79FFEE36A0844606323B96162BA
:103CF800012384F83830D5E7FFF794FE081A2063CB
:103D0800F6E700213046FFF739FE01280ED10223DD
:103D1800EFE7626B41460120FFF7B4FE012805D1A9
:103D28000323E6E700212046FFF728FE431EDBB207
:103D3800012B06D894F82830062B04BF002384F8FA
:103D48002830BDE8F0810120F0E700BF04420020E0
:103D58000C4200202DE9F04F85B00C4681461646EE
:103D6800FFF760FE01AA804602A92068FCF776FBEF
:103D780009F1FF33012B66D9019B2BB94546DFF8C2
:103D8800DCB00BF5905A1BE0FCF736FB022005B0BF
:103D9800BDE8F08F2F4A1268B2B12F4908689842DF
:103DA80012D1C96F531E49020B44B3FBF1F303440C
:103DB800B3FBF5F205FB12320AB12B449B1A2360C0
:103DC8002368B342E6D32EE0DAF8003002981F46A3
:103DD80007440023092203A93846FFF7C1FC01283C
:103DE80004D043B28BB30228EAD1CFE7039A9BF8F9
:103DF8000030022B07D0032BC8D1019B52F8233087
:103E080023F0704302E0019B32F813302168B9F1C6
:103E1800010FB3FA83F38CBF002001205B0998429D
:103E280004D18E4213D826600320B0E7019B2B44AF
:103E38002944434521600193D9D3029B013302935E
:103E480000230193BCE7012599E718469FE7012065
:103E58009DE700BF0C42002028420020943000203B
:103E680070B5304D044605F10C0694F83430052B36
:103E780012D8DFE803F00325303840492A6804F1F6
:103E8800300102320120FFF765FF012806D010F04B
:103E9800FF0F01D0032811D9002070BD224A236BDF
:103EA8001168E268336002EB4122E260E26A236152
:103EB80002B96362012384F83430D6E70523FAE7B0
:103EC8004FF0FF31206BFFF78CFD0128E4D1E36A46
:103ED8003BB10223EFE7D4E90B01FFF782FD01288C
:103EE800DAD10323E7E700212046FFF747FD012841
:103EF800D2D10423DFE794F82830082B02D100231D
:103F080084F828300120C8E794F82830074A082B9D
:103F180004BF002384F8283041F2B5130121D1549D
:103F28000220BAE79C420020A442002094300020DE
:103F380010B5044608B9FCF75FFA204610BD38B53D
:103F4800164C002304F87A3954F80E0C88421ED116
:103F5800207803281BD1124C03F581754AB941F228
:103F68009C0204EB05150423AB71A3580133A3503D
:103F780038BD04F1180101EB4323D31A58425841C4
:103F880004EB0514FFF7D4FF0123A371F0E7013315
:103F9800082B04F11004D7D1EAE700BF3441002010
:103FA80094300020030770B50C46154611D541F230
:103FB80094130A4AD6580134A64234BF002001207F
:103FC800FFF7B6FFA64206BF00232B602C60012036
:103FD80070BD20461146BDE87040ABE49430002027
:103FE8004368F7B5C3F308020A44B2F5007F0446F4
:103FF8000D4603D21D44656001202EE0FFF782FBC9
:104008000378022B01D16368F4E7164B41F21022C2
:104018009E587602AE4222DB41F2182247689B582E
:104028001F407B42AB421ADCEB19B34210D3016943
:10403800007E01AAFFF7B6FF012810D1236963614A
:10404800019B236163683344DB1BAD1B63603D4404
:104058002046FCF7DDF90028D5D003B0F0BD0020DC
:10406800FBE700BF9430002070B504460E461546A5
:10407800FFF7B6FF20B10DB12046A847012008E0A0
:1040880094F82830022023B9C4E90B5684F8280094
:10409800184670BDD0E9013210B59A422CBF826033
:1040A8008360FFF72FFB0022436A4261036142608D
:1040B8001146BDE81040D7E710B51A4C04F58F53E8
:1040C8000146187860BB49B191F828202AB94422E2
:1040D800A3F128002AF086FE012010BD44221248D0
:1040E8002BF06CF841F2D2134FF6FF72E25241F214
:1040F800D0130322E25423780B48022B41F2B81361
:1041080008BF0222E25441F21C23E25841F2DC13B8
:10411800E25041F2D1131022E254FFF7BBFFDBE774
:104128000020DAE7943000204C4200202DE9F04FBF
:104138004668DFF894A185B0044689461746C6F359
:1041480008064FF00008BFB1C6F5007594F91AB01B
:10415800BD4228BF3D46BBF1FF3F204610D0FCF7CB
:104168008FF9544B41F2180203EB0B118A58904215
:1041780000F09A80FCF740F9404605B0BDE8F08FA2
:10418800FCF746F920B3237E94F828101A0771D556
:104198000629F1D0FFF76AFC474B1B68984205D9FE
:1041A800444A41F2B5130121D154E5E7434B1B784A
:1041B800002BE1D10029DFD1062384F82830636978
:1041C80084F83810E3622046FFF764FD0128D3D154
:1041D8002046FCF755F96368C3F308028346002AB2
:1041E8005ED123F4FF7121F00101A26801F500718D
:1041F80091422CBF06210721227E02F00C020C2AD4
:1042080050D10193FFF732FC019B013800EA030209
:10421800FFF708FCDAF800304343A3EB52230A46C1
:10422800584603A9FFF79CFA0128A5D10398FCF783
:104238005FF9A076039800289ED02A464946304464
:104248002AF0D0FD002229462046A844FFF70CFF9B
:10425800002891D0237E1B0708D5194B20691B68BD
:1042680098422CBF00200120FFF762FE7F1BA94463
:10427800002668E7114B1B78002B7FF47DAF0029DF
:104288007FF47AAF082384F828306369E3620D4B22
:1042980084F834101B6823632046FFF7E1FD95E797
:1042A8000721A9E70023BAE7183303EB4B2303934D
:1042B800C0E700BF943000200C4200204942002093
:1042C80028420020A8420020A442002070B50378AC
:1042D800023B012B04461CD8237E990623D4204692
:1042E800FFF710FA237E1A070AD51F4E41F29815D8
:1042F800705DC31F58425841FFF71AFE00237355DB
:104308000023237084F82830E36A5BB1BDE870406D
:104318001847037E13F0060FDED00121FFF72EFBAE
:104328000128D9D070BDE26910490023180140580E
:10433800824211D10C4903F5817201EB0213DB793A
:10434800C3F34503012B0BD8002301EB0212D179EB
:1043580063F34601D171C2E70133082BE6D1BEE70A
:10436800013B03F03F03F0E794300020AC4000200D
:1043780010B580B1027872B190F828206AB9D0E9F6
:10438800012494422CBF84608260032280F8282094
:10439800C162FFF79BFF012010BD0020FCE72DE95B
:1043A800F743DFF82081044608F1080994F838300B
:1043B800032B00F28280DFE803F002106F782046BA
:1043C800FFF74EFD012802D184F83800EEE70228F5
:1043D80073D1032384F83830E8E723786568022B23
:1043E80018BFD9F80030204618BF1D40FCF748F820
:1043F800C5F34F2506462D1A0023022201A930468F
:10440800FFF7AEF9AF190128BFB257D14FF40072C8
:10441800002101982AF0D2FEE3691BB363680BBB45
:10442800019B4FF020322E211A605A601970C3F890
:104438000720606A5883C0F30F4C102083F82010BF
:1044480083F82110D872C3F82220C3F8262083F8F5
:104458002A20E26BA3F814C0C2F30F4199865A8749
:1044680083F82B00D8F800104B1E9F4208D24FF457
:1044780000712046FFF7B4FDFFF75AFD0136BBE790
:10448800C1EBC151490201F500712046FFF7A8FDB3
:10449800FFF74EFD02239DE7002384F82830236CA4
:1044A8000BB120469847012008E0236C002084F8CF
:1044B800280003B19847022000E0002003B0BDE8BF
:1044C800F08300BFA4420020B1F904300F2B2DE97E
:1044D800F34104460D4616460BD14FF40071FFF721
:1044E8007FFD18B9002002B0BDE8F0814FF6FF73D8
:1044F800AB802046FBF7C4FF94F91B20531C0746EA
:1045080011D01F4B41F2180103EB021041588F42A2
:1045180030D0FBF771FF2046FBF77AFF0028E1D087
:104528000023336024E02046FBF772FF8046002812
:10453800F1D1381C18BF0120FFF7FAFC43461122BD
:1045480001A93846FFF70CF90128E4D10198FBF7D7
:10455800CFFFE076019A002ADDD0AB8801331BB289
:10456800AB8002EB431333602046FBF789FF2860DA
:104578000120B8E7183303EB42230193EAE700BFB1
:10458800943000202DE9F041994D86B0044605F19C
:10459800280694F83030042B11D8DFE813F0130004
:1045A80005005400DE00240104F11C0801AA41465C
:1045B8002846FFF789FF01280ED002283ED006B012
:1045C800BDE8F0812846FFF765FD4FF6FF732384A9
:1045D800012384F83030DCE7019F0FB13B7863B9E1
:1045E8002846FFF78FF8237ED9062AD5FFF752FD14
:1045F8004FF6FF7323840223EBE70B2204F131010A
:1046080038462AF008FE0028D0D1BA8A7B8B43EAC4
:104618000243784A63621268FB69A3605202B3FBE3
:10462800F2F102FB113109B113445B1AE360FB7A22
:1046380063762846FFF766F80323CAE72846FFF79C
:1046480061F80423C5E73378002BB8D16A4FA7F186
:10465800380801AA04F11C016548FFF735FF012855
:104668006ED10198002851D00378E52B01D0002B9A
:10467800EFD1FBF73DFF614F07EB0010FBF724FF7D
:1046880007F5D070FFF73EF82022002101982AF0A4
:1046980095FD2346019A53F8311F116059685160FE
:1046A800198911819B7A9372019B627EDA7203A841
:1046B80027F000F9002847D0514B03A9B3F804327A
:1046C800ADF8083002AA0846FCF7C0FB9DF80E209A
:1046D8009DF80F30019943EA4213BDF80C20A2F26D
:1046E800BC7243EA42230B829DF810309DF81120DA
:1046F800DB0243EA42139DF8122043EA5203CB81BE
:10470800019B1A8A1A83DA89DA8295E72B78022BB9
:1047180097D03278002A94D109233370394B3A70F4
:10472800C3E9002253F8281C03F8082C1A6A43F836
:10473800101C43F80C2C4046FFF731FE012888D0A6
:1047480002283FF47EAF3AE7019B6FF07E021A74AD
:1047580047225A749873D873D2E7237E9A0608D5ED
:104768000023112202A9E069FEF7FAFF01287FF46D
:1047780026AF2046FFF78EFC2269237E8AB91B07E5
:1047880008D5214A41F29813D15C00297FF417AF6C
:104798000721D154002384F82830E36A204698473B
:1047A8000DE703F0F70113F004032176E26A07D05E
:1047B800002384F82830A1682046FFF755FCFEE660
:1047C8001229E7D1A263626A84F83C30042184F894
:1047D8002810C4E90B2263636362C4E902332046EC
:1047E800FFF758FCEBE600202070E36AD7E700BF2C
:1047F8004C420020A442002084420020AC4000200B
:10480800800A002088420020943000202DE9F341DE
:10481800037804466BB190F82830013B082B08D880
:10482800DFE803F0050A48584B5C075F6200FFF7B2
:10483800A9FE02B0BDE8F0812D4B456841F2102277
:104848009E5841F2182276029B581D40216B204643
:1048580005EB0108FBF7DCFD4645074624D870B197
:10486800D4E901329A422CBFA260A360002384F8E5
:104878002830E36A002BDCD020469847D9E701AA04
:104888002169207EFFF78EFB0128D2D1236963615D
:10489800019B2361636833445B1B6360236B9B1B31
:1048A8001D4425633D46D1E763680028D8D10B44F1
:1048B8006360D5E7FFF70AFDBBE70121FFF75EF963
:1048C8000128B6D1002384F82830216C2046FFF750
:1048D8004FFDAEE70021FFF751F9AAE7FFF7DAF934
:1048E800A7E7FFF7BDFAA4E7FFF759FDA1E700BF67
:1048F80094300020F8B504460D461646002144229F
:104908001F462AF05BFC4FF6FF736383012384F88C
:10491800283027762E49284628F056FF28BB2D4BED
:1049280041F2DC129A58626241F2C4129A58E2606B
:1049380003F58E521268A26041F2D1129A5C627637
:1049480041F2B8129B5C2370069BE362204928461B
:1049580028F03AFF00280CBF03230023204684F8E0
:104968003030FFF70FFE2046F8BD04F1310304F1A3
:1049780039002A462027117809B12E2916D11F702F
:1049880001338342F7D111782E2908BF013204F18F
:104998003C002027117891B91F7001339842F9D152
:1049A800F30666764CBF03230123CCE7A1F1610C23
:1049B800BCF1190F98BF203919700132E0E7A1F155
:1049C800610CBCF1190F98BF203919700132E4E766
:1049D800C75203089430002038B5134C0023A07B3D
:1049E800E0B125688D4219D1104C03F581751AB9CB
:1049F80004EB0514A27138BD04F1180101EB43233F
:104A08009A4209D1831E5842584104EB0514FFF716
:104A18008FFA0123A371EEE70020F6E70133082B94
:104A280004F11004DBD1E6E7AC400020943000200C
:104A3800034BD3F8700308B1C3691847704700BF28
:104A4800781B0020034BD3F8700308B1836918471B
:104A5800704700BF781B002008B5054B586D28B17A
:104A680023F0DDFE80F00100C0B208BD0120FCE7A4
:104A7800800A002010B5FFF7EFFF0C4C18B900238F
:104A880084F8283010BD94F82830032B03D900216E
:104A9800206824F06BF8237F0133DBB2072B2377E0
:104AA800EDD8D4F83432A3610123E9E7800A002065
:104AB80070B51A4C94F82830042B05460E4610D1D0
:104AC800FCF762FA00213720FCF734FE3146172044
:104AD800FCF730FE88B1FDF703F8FFF7CBFF0320A2
:104AE80002E0082B01D0012070BD236A834211D057
:104AF800FCF7DAFD0228F6D1E2E7A37F63B9690281
:104B08001920FCF717FE0028E5D1C4E90856082348
:104B180084F828300220E7E72946F1E7800A0020D8
:104B28002DE9F743244E05460F46914698463446EC
:104B380096F82830042B0AD0082B06D1336AAB42EA
:104B480018D0FCF7B1FD0228F2D001200DE0FCF7E7
:104B58001BFAB37F63B969021820FCF7EBFD48B173
:104B6800FCF7BEFFFFF786FF032003B0BDE8F08324
:104B78002946F1E794F828302068082B0CBFFC235D
:104B8800FE23FF228DF804208DF8053001AA0223A8
:104B9800002123F0A1FF80233A460021206823F05A
:104BA8009BFF012323730623C4E90175C4E9049814
:104BB80084F828300020D8E7800A00202DE9F04347
:104BC800C44C206885B0002800F08081C24D04F1F3
:104BD800440694F82830013B082B00F26281DFE894
:104BE80013F009003C00C000600181010D0148017B
:104BF8006001AE01FCF7C8F900210846FCF79AFDF0
:104C08008046FCF76DFFB8F1010F40F04A8100279C
:104C18006777FCF7B9F940F2AB110820FCF78AFD79
:104C280005280BD184F81D80FCF75AFF637F002B01
:104C380000F02E81022384F82830CAE70128F3D136
:104C480004233A466946206823F046FF9DF803305E
:104C5800AB2B04BF02236377E6E7FCF795F9637F84
:104C6800022B0CBF4FF08047002700213720FCF7AC
:104C780061FD39462920FCF75DFD0746FCF730FF4A
:104C8800002F40F00E81637F022B37D1FCF77CF9AF
:104C980039463A20FCF74EFD042380463A466946D9
:104CA800206823F019FFFCF71BFFB8F1000F02D0B2
:104CB800FFF7E0FE8DE7009B1BBAC3F38073A37771
:104CC800FCF762F900210920FCF734FD98B910219E
:104CD8003046FCF70FFD804668B901217F20FBF7BD
:104CE8004FFA0128074606D102214046FBF748FA49
:104CF80030B101282AD0FCF7F3FED2E0A777DFE72E
:104D080004212C20FBF73CFA032181464E20FBF7B7
:104D180037FA0C2180463620FBF732FA08F10208F0
:104D2800013000FA08F007FA09F7A0FB0701430A67
:104D380043EAC153E362FCF7D3FEFCF725F90021EF
:104D48000A20FCF7F7FC48B9032374E716213A2038
:104D5800FBF716FA01308002E062ECE7FCF7C0FED0
:104D6800A6E710216846FCF7C5FC002840F09980AA
:104D78009DF800309DF8012084F832309DF802300B
:104D880043EA022323869DF8033084F83330019BDD
:104D980063639DF808301A0903F00F0384F83D3067
:104DA800DDF8093084F83C201BBAA3639DF80D3068
:104DB8009DF80E201B01DBB243EA121303F5FA63D8
:104DC80002F00F02E38784F84020FCF789FEA37FF6
:104DD80063B9FCF7D9F84FF400711020FCF7AAFC6E
:104DE8000746FCF77DFE002F7FF462AF02212068A2
:104DF80023F0BCFE0023636204231CE7217B626866
:104E08002068802302EBC112002123F065FE237B7A
:104E18000133DBB2042B237343D102232A4600213A
:104E2800206823F059FE012300226946206823F0F8
:104E380053FE9DF8003003F01F03052B0DD1072307
:104E4800256984F82830D4F83432A3614DB3D4E905
:104E5800012163690120A84723E0FFF70BFE2769BA
:104E6800002F3FF4B6AE6369A16800220120B8475D
:104E7800AFE6FCF7EBFB002868D000232377636AD2
:104E8800012B08D9013B6362236A0133236208239B
:104E980084F8283005E021D1FCF706FC02283FF40D
:104EA8002AAF94F82830013B022B07D8D4F83432C3
:104EB800A2699B1AC82B01D9FFF7DCFD94F82800DA
:104EC80004284BD0A0F108035842584105B0BDE86A
:104ED800F08300BF800A0020D3050308042384F868
:104EE800283008E74FF400716068FCF703FC0128DC
:104EF8001ED047B277B10228D3D1FCF7F1FDFFF7F6
:104F0800B9FD2769002F3FF464AE00226369A168E8
:104F18001046ACE7FCF7E4FD25692777042384F8FD
:104F28002830002DBDD06369D4E90121384692E7C5
:104F3800A369D4F8342264339342DED3B1E7FCF793
:104F480085FB18B1FCF7CCFD0423A1E7A369D4F8CD
:104F58003422FA339342FFF4ABAEA2E70120B5E75F
:104F68002DE9F74FA14BD3F8749399F8102002F06C
:104F7800FF06002A40F0368103F27E3493F87A2344
:104F880093F87B1393F87C030094A3F87863B046F6
:104F98003446B6463C250193009BDF789B78C3F1E5
:104FA800FF031FFA83FABAF1000F00F01581009B86
:104FB800B3F800C0CAF1FF037B434FF03C0B1B1250
:104FC800BCFBFBFBBBF1050F25D8DFE81BF0060097
:104FD8001000C800D500E700F400D8B2F91A0CFB9D
:104FE80001F1B1FBF5F10144C9B23A4610E0BCFB4E
:104FF800F5F205FB12CC1FFA8CF2C2F13C0CD8B2C8
:10500800FA1A02FB0CF2B2FBF5F20244D2B23946AC
:1050180001242646A6464FEA022B4BEA014B4BEAEF
:10502800000B002308EB03071FFA87FAC3F1170CDC
:10503800012707FA0CFC1CEA0B0F08BFBC46019FAE
:1050480003F1010307EB4A0718BF4FF0020C182BB6
:10505800A7F8FEC3E6D1009B08F118081FFA88F8E4
:105068000433B8F5407F009396D1019BA3F8528A88
:10507800BEF1000F01D083F87A2316B15B4B83F899
:105088007B1314B1594B83F87C03584A2023A2F8A8
:10509800783392F8543A002B00F0A480EFF3118291
:1050A800102383F31288D9F80C10D9F804408868C3
:1050B800036823F001031B041B0C036020684C4B9E
:1050C8006479C56833F814304C68DB439BB22B40D5
:1050D800C3600B69022000FA03F36360D3B283F361
:1050E8001188D9F80C309B6840F22A325A601A6845
:1050F80042F001021A60012389F810303B4BD3F8C3
:1051080074130A68137D012B08BF107592F82C00E0
:105118000CBF4FF400730023012804BF022082F85B
:105128002C0092F8440008BF43F48063012804BFB0
:10513800022082F8440092F85C0008BF43F4006340
:1051480001284DD1022082F85C0043F480534A685C
:10515800126800215162D1680B43D36042E0BCFB66
:10516800F5F005FB10C0DAB280B2FB1A5843B0FB69
:10517800F5F01044C0B24AE7BCFBF5F105FB11CCD1
:105188001FFA8CF1C1F13C0CDAB2F91A01FB0CF1EF
:10519800B1FBF5F11144C9B2384639E7BCFBF5F269
:1051A80005FB12C2D9B292B2FB1A5A43B2FBF5F20E
:1051B8000A44D2B2F0E7BCFBF5F005FB10CC1FFAAD
:1051C8008CF0C0F13C0CD9B2F81A00FB0CF0B0FB23
:1051D800F5F00844C0B208E7384639463A4617E7BA
:1051E800002BB4D103B0BDE8F08F00BF781B0020BE
:1051F80018040308024B0348D3F8981AFCF78AB836
:10520800781B002000480140024B0348D3F8901A4D
:10521800FCF780B8781B002000400140024B03488F
:10522800D3F8741AFCF776B8781B002000340140D4
:10523800FFF7F4BF024B0348D3F8641AFCF76AB8C7
:10524800781B002000080040024B0348D3F8601A7E
:10525800FCF760B8781B002000040040034B4FF0B7
:105268008040D3F85C1AFCF755B800BF781B0020C3
:1052780010B5064C0648D4F8581AFCF74BF8D4F881
:10528800941A0448BDE81040FCF744B8781B002085
:10529800002C014000440140024B0348D3F8581A3F
:1052A800FCF738B8781B0020002C014010B5436883
:1052B8001A685879074B0344012493F8BD31106AE2
:1052C8009C4020EA04001062106A99400143116270
:1052D80010BD00BF1804030810B5837913F0010F3F
:1052E80003F020020446C36B11D05B68002A1A7AC7
:1052F80014BF02214221606B27F025FB012184F8AD
:105308006012A4F85C12E06BBDE81040CEE75B6861
:10531800002A18BF02211A7A08BF2221EBE7436846
:105328005A79032A0FD8DFE802F00205080B18683B
:105338003430704718683830704718683C30704708
:1053480018684030704700207047F0B5426894797B
:1053580014F0040004F002030BD000241E46A646F5
:10536800042523465079032842D8DFE800F0094293
:1053780073A39E464FF48074064605460123F1E761
:105388001268106A20F001001062106AD2F804C096
:1053980097694EEA030320F002001843584B27F49C
:1053A800803727F073079A4247F060070FD003F55C
:1053B80000639A420BD003F540639A4207D003F585
:1053C80080639A4203D003F580639A4207D120F0A4
:1053D8000C0030432CF4407C284344EA0C0CC2F8FF
:1053E80004C0976151631062936943F008039361A5
:1053F800F0BD1268106A20F010001062106AD2F82E
:1054080004C097694EEA030320F0200040EA031025
:105418003B4B27F0807727F4E6479A4247F4C0478A
:1054280003D003F500639A420BD120F0800040EAD4
:10543800061020F040002CF4406C40EA05104CEABD
:10544800840CC2F804C0976191631062936943F4B5
:105458000063CCE71268106A20F480701062106A4A
:10546800D2F804C0D76920F400704EEA030340EA7A
:105478000323234827F07307824247F0600703D0CD
:1054880000F5006082420BD123F4006343EA06234F
:1054980023F480632CF4405C43EA05234CEA041CA3
:1054A800C2F804C0D761D1631362D36943F008031B
:1054B800D3619DE71268106A20F480501062166A62
:1054C8005568D06926F400564EEA030346EA0333CA
:1054D8000B4E20F4E640B24240F4C04003D006F53B
:1054E8000066B24203D125F4804545EA841555602B
:1054F800D06111641362D36943F40063D8E700BF35
:10550800002C0140F0B54768494B787918440029C8
:1055180090F8BD614FF0010414BF0020022003F58C
:10552800E27353F824108A421CD2651E3B68F6B910
:105538001A6A22F001021A629C691A6A24F0F304BA
:1055480022F00A0244EA051440F00101114344F034
:1055580001049C6119629A6922F00C029A619A69A5
:105568009A61F0BD0134102CDBD10F25DEE7042E43
:105578001BD11A6A22F010021204120C1A629A69DC
:10558800196A21F0A001090422F47342090C42EAC5
:10559800053241EA001142F4807241F010019A612B
:1055A80019629A6922F44062D8E7082EACB21A6AE6
:1055B80020D122F480721204120C1A62DA69196A74
:1055C80092B289B222F0F30242EA041221F4206175
:1055D80092B241EA002142F0010241F48071DA619D
:1055E8001962DA6922F00C021204120CDA61DA6923
:1055F800DA61B6E722F480521204120C1A62DA69F0
:10560800196A22F44072120521F40051120D49045E
:1056180042EA0432490C92B241EA003142F4807203
:1056280041F48051DA611962DA6922F44062DBE7F9
:105638001804030838B583681C686379DB0723D529
:1056480094F85C32A57903B3E06B43681A68D36AAF
:10565800C3F34E03536294F86D32012B07D094F8CC
:10566800613223B1B4F868320133A4F86832E943EF
:10567800002201F00101FFF745FF0023A4F866327C
:105688004FF08073C4F85C3238BD94F85F32012B58
:1056980004BF94F85D3284F85E322046FAF79CFF26
:1056A80094F85F2242B90123E94384F85F32194034
:1056B800E06BBDE8384025E7002284F85F2205F05A
:1056C8000101F5E738B583681C6863799B0717D52E
:1056D80094F86152002D57D1A36A626A94F8601257
:1056E8009A4227D161B9A3791D0709D5236CA06B0C
:1056F800E3B15B681A7A27F026F92046FFF7ECFD3C
:105708006379D90740F1938094F85C32002B40F01C
:105718008E8094F85D320133DBB2092B84F85D3258
:1057280048D12046BDE83840FAF756BF194627F059
:1057380049F9E2E75A1CA069A262C35C20695B00D0
:1057480043F40073A4F864320A23824228BF2A462D
:1057580084F862320123A26284F861320029CFD032
:10576800A3791807CCD52946E06BFFF79FFDE36BBB
:10577800606B5B6829461A7A27F0E5F884F860526E
:105788002046FBF736FEBBE794F962327BB1B4F8EA
:1057980064124B08A4F8643201F001012046FCF7BA
:1057A80025FA94F86232013B84F86232A8E784F85B
:1057B8006132A5E70A2B3AD194F85F322BB9B4F8D5
:1057C800663243F00103A4F86632B4F86602820533
:1057D80001D4C30718D4B4F86A320133A4F86A3282
:1057E80094F85F5201239D42A4F85C321FD1A1793D
:1057F800E06B0022194084F85F22FFF783FE2946F8
:10580800E06BBDE8384051E5E36AC0F3470013B1E7
:10581800216B9847E4E7E3696269D054E369E1687A
:105828000133B3FBF1F201FB1233E361D8E738BD72
:1058380038B503681B681C68284B07EE102AD3ED9F
:10584800247AB8EE477AF8EE677A013987EE870A44
:105858008DB2DFED237A30EE270A29F029FD214A9F
:1058680023880138944280B29BB20ED002F50062C0
:1058780094420AD0B4F1804F07D0A2F598329442EE
:1058880003D002F58062944202D123F070039BB2E8
:10589800154A944206D002F5806294421CBF23F454
:1058A80040739BB223800F4BE5629C4220850FD04A
:1058B80003F500639C420BD003F540639C4207D07C
:1058C80003F580639C4203D003F580639C4201D1B9
:1058D800002323860123636138BD00BF0000002038
:1058E8000AD7233C002C0140001000400E4BD3F88F
:1058F800902010B513460446B3FBF1F0B0F5803F95
:1059080003D3012BFAD95B08F6E781B22046FFF7EB
:105918008FFF2046FCF720FE63681A68138843F05F
:105928000103138010BD00BF000000208160C06B20
:10593800DCE72DE9F04F012885B014BF1724212496
:1059480082462046009314BF4FF016084FF02008F7
:10595800CDE90212FCF780FF0546204622F074FECE
:105968009DF83C709DF8386017F0080304460193D1
:1059780023D02DB94FF00008404605B0BDE8F08FA0
:10598800AB795907F6D4284622F0B7FC804A4FF481
:105998001C7303FB0A23C3F8D80A0028EAD0C3F80B
:1059A800D44AC3F8D04A0AF10103DBB2002C43D031
:1059B80040F20672E28023723EE016F0010B1FD01F
:1059C8004046FCF749FF0028D4D083795A07D1D440
:1059D80022F093FC6E4A4FF41C7303FB0A29C9F8A2
:1059E800D80A0028C6D0404622F02EFE0AF101034C
:1059F800C9F8D00ADBB218B140F20662C28003725D
:105A0800B30719D5624B4FF41C7808FB0A38C8F85D
:105A1800D44ABBF1000F40F09A80002DAAD0284646
:105A280022F06BFCC8F8D80A0028A3D00AF10103B9
:105A3800DBB2002C40F09680DFF854B1554A4FF4A1
:105A48001C7505FB0AF50BEB05040BF69C23C4F843
:105A58009C2A009AC4F8A42A029AC4F8C82A039A6D
:105A6800C4F8CC2A05F15C021A44C4F8B02A05F53A
:105A7800AE724FF000091A444FF4807184F8A16A9D
:105A880084F8A27AC4F8A81AC4F8B42AC4F8AC1ADC
:105A9800D4F8D80A0099C4F8BC9AC4F8B89AC4F8DB
:105AA800C49AC4F8C09A84F808ADC4F8049DA4F850
:105AB800FC9C03EB0508FFF719FF07F001014A46B4
:105AC800D4F8D80AFFF71EFD05F144070BF69C230E
