:020000040800F2
:100000000000011001B00308633A0008857502087A
:10001000BDB00308BDB00308BDB003080000000078
:10002000000000000000000000000000613A00082D
:100030005F3A0008000000005D3A0008DF12030884
:10004000BDB00308BDB00308BDB00308BDB00308D0
:10005000BDB00308BDB003089F6F0308A76F030876
:10006000BDB00308A56F0308A36F0308D5580008A7
:10007000C1580008AD580008995800088558000874
:10008000715800085D580008BDB00308BDB00308F2
:10009000BDB00308BDB00308BDB00308A16F0308DD
:1000A0003D5A0008155A0008ED590008655A000825
:1000B000D9590008C5590008B1590008BDB0030856
:1000C000BDB00308BDB00308BDB00308BDB0030850
:1000D000BDB0030835640008BDB0030829640008FA
:1000E0009D6F0308BDB003082D6F0008615900081B
:1000F0003959000811590008895900084958000861
:10010000BDB00308BDB003089D590008BDB0030889
:10011000BDB00308BDB00308BDB00308BDB00308FF
:1001200035580008215800080D580008F9570008F4
:10013000E5570008BDB00308BDB00308BDB0030813
:10014000BDB00308BDB00308BDB003087934000892
:10015000D1570008BD570008A95700081F640008C0
:10016000BDB00308BDB00308BDB00308BDB00308AF
:10017000BDB00308BDB00308BDB00308BDB003089F
:08018000BDB00308BDB0030887
:1001880030B5002301385A1C845C64B9DBB20A4AD2
:1001980001335B000B80137003235370022310F8A4
:1001A800015F15B930BD1346EDE7591CC9B2D554E6
:1001B8000233DBB25454F2E73816002030B50D4B49
:1001C80000F00704C0081D181B5CA340DBB2002028
:1001D800C4F108028A4228BF0A46C2F10804234132
:1001E8009040891A40EA03004FF0000415F8013FD7
:1001F800EED130BDB0160020012380F84930704799
:10020800044BD3F88C0020B1D3F88C00431F58421C
:100218005841704738160020064AD2E924138B4209
:10022800FDD0D1180133C3F30A03C2F8943091F812
:100238009800704738160020044BD3E924309842C0
:1002480088BF03F50063181A704700BF38160020EE
:100258000120704770477047704730B5104CD4E99B
:1002680024329A4286BF03F50065AA1A9A1A0A44EC
:10027800B2F5006F12D801440022814204D10AB1BC
:10028800C4F89030002030BDE21810F8015B82F805
:1002980098500133C3F30A030122EEE70220F2E784
:1002A80038160020064AD2F89838D2F89C2893428B
:1002B80094BF4FF400600020013B9B1A184470471C
:1002C80038160020EEE7212838B50C461BD0222826
:1002D8002BD0202815D1A1B1072A12D1194DD5F854
:1002E800A03813B10968002098472368C5F8A438D6
:1002F800237985F8A838637985F8A938A37985F82A
:10030800AA38002038BD0029FBD0072AF9D10D4BA7
:10031800D3F8A4280A6093F8A8280A7193F8A928A2
:100328004A7193F8AA388B71EBE70029E9D0022AC1
:10033800E7D1044BD3F8AC38002BE2D00988002071
:100348009847DEE738160020024B0020C3F88C00DF
:10035800704700BF38160020044B00200522C3F860
:100368008C20C3F8AC08C3F8A008704738160020E2
:10037800704770477047704770477047704708B5B7
:100388000248FFF7FDFE024808BD00BF384B0408CD
:100398003816002008B50248FFF7F2FE014808BDEC
:1003A800464B04083816002008B50248FFF7E8FE57
:1003B800014808BD514B04083816002008B502480A
:1003C800FFF7DEFE014808BD5B4B04083816002025
:1003D80008B50248FFF7D4FE014808BD604B040881
:1003E8003816002004230B800048704700000020C6
:1003F80012230B800048704704000020044B41F290
:10040800B4110122585C00B95A545A70704700BFA1
:100418006C6200200378022B08D10E4B1A684368DF
:10042800B3EB422F2CBF012000207047006970B148
:10043800094B1B78032B0EBF084B80B24FF6F7739E
:10044800984294BF0020012000F00100704701206D
:10045800FAE700BF8C7400206C620020F7FFFF0FE2
:10046800074B1B78022B0BBF030AC0F3D413C0B28F
:1004780000F07F000CBF0B600B601060704700BF7E
:100488006C62002010B5037841680F4A022B0AD12C
:1004980041F20423D35802F59052106800EB430050
:1004A80000EB512010BD036941F21020023B1458A3
:1004B80041F2182010580840400A04FB030041F29A
:1004C8000C23D3581844EDE76C620020837B042B7F
:1004D8000DD0074B41F298015A5801325A504260E8
:1004E80041F29C01042282735A5801325A507047D3
:1004F8006C62002008B5064BC01A48BF00F2FF1016
:100508004012072803D9FFF779FF4FF0FF3008BDE5
:10051800846200200048704798160020034B93F827
:100528005C00032894BF0020012070473816002083
:10053800034B93F85C00003018BF0120704700BFE0
:10054800381600202DE9F04FDFF8708185B0CDE92D
:100558000212B8F8BE28D8F8B048B8F8BA6813023A
:100568004FEA126EB8F8BC28E41A6EEB4E0EA2FBE6
:10057800040102FB0E11C209B8F8B80842EA416248
:10058800CD110104030C5218A6FB040106FB0E1141
:10059800B8F8B66843EB0505030AB8F8C00843EA9B
:1005A80001634FEA212C710CF6039B19A0FB046729
:1005B8004CEB010C00FB0E77F10D41EA4721F815D1
:1005C80011F5FA6A40F1000BBAF5FA6F01907BF168
:1005D800000053DA0198A1FB0167484307EB400785
:1005E8000520A6FB008900FB07994FEA580040EA5E
:1005F800C970121A4FEA98004FEA690640EA8970F2
:1006080065EB06051B1A4FEAA9066CEB060C2A4E89
:100618004FF0FF37B2457BEB070024DA019E40F626
:10062800AC5008184FF0000146EB010800FB08F831
:10063800A0FB000101EB4801CE00C700C71B46EA3A
:10064800507661EB06064FF00B08D21946EB05050C
:10065800A0FB086708FB0177710841EAC7717810A9
:100668005B1A6CEB000C04FB0EFEA4FB040101EB0F
:100678004E01C40F44EA4104BAEB040A029999B145
:100688000E49D1F8C448A4FB030104FB0C11430D27
:1006980043EAC1239A1A4FEA615464EB0505D20B69
:1006A800029B42EA45421A60039B0BB1C3F800A0C3
:1006B800012005B0BDE8F08F24FAFFFF38160020AE
:1006C8002DE9F041344DB5F8D648B5F8C838B5F934
:1006D800E008B5F9D068B5F9CEC8B5F9DAE8B5F9E2
:1006E800E8781B1BB5F8D4485C43E313B5F9DE483A
:1006F8001844E40294FBF0F41C44A4F57A6303FB69
:1007080003F003FB0CFC7343B5F9D868C5F8E4485B
:10071800001300FB0EFE7043001400EB6330023040
:100728004FEAEC2606EBEE268010B5F8D238B5F97C
:10073800CCE800F50040434306EB8E064FEAD33879
:10074800BE40D5F8EC3802364CF25030A3EBA60682
:1007580040FA07F3734355BF5B00B3FBF8F3B3FBF1
:10076800F8F35B0079B1181200FB00F540F6DE30B3
:1007780068430A4D00145D4300EB254000F6CF6046
:1007880003EB20130B6022B10A235C4308342411C5
:1007980014600120BDE8F0813816002043E3FFFF14
:1007A8002DE9F74F704D9146D5F8F048B5F8F42883
:1007B800C2EB24135200C2EBE402B5F9F6485B43DE
:1007C8006243B5F9F8481B135C43A41304EBE22415
:1007D800B4F5FA3E8846AEFB0E12CDE900124FEA98
:1007E800E47343F1FF3C019AC5F80C490EFB0CF386
:1007F80002EB4303B5F9FC28019302FB0CF1D31774
:100808000EFB0311A2FB0E230B44190341EA1251FC
:100818001003019EB5F9FE2802FB06FA009ED317C5
:1008280006FB03AAA2FB062353444FEA122A4AEA0C
:10083800036AB5F8FA284FEA232B1AEB00004BEBB2
:10084800010B00304BF5004BA0FB020102FB0B1122
:100858004A10CB1752EA030100F08480B5F9040965
:10086800019E00FB06F7009EC11706FB0177A0FB5F
:100878000601B5F90269394406FB0CFCF7170EFBB3
:1008880007CCA6FB0E6767444FEA474E4FEA464C33
:100898001CEB000C4EEAD63E4EEB010ED5F81019B3
:1008A800B5F90069C1F58011CF174FEAC77A4AEA4E
:1008B800510AC807002111EB0C014FEAC60747EBA4
:1008C8000E0E40F63546401A6AEB0E0AA0FB0601EA
:1008D80006FB0A113AF0AAF9B5F90A294E13470B93
:1008E80047EAC14702FB06FCD31707FB03CCA2FB70
:1008F80007236344564307FB0366A2FB07233344DD
:10090800560E46EAC316B5F9082936184FEA636742
:1009180041EB0707D317514300FB0311A2FB002348
:100928000B44D10C41EA4331D814761840EB070741
:10093800B5F90609320A42EA076203011344B8F11D
:10094800000F02D01B0AC8F80030B9F1000F05D01B
:1009580004EB840480342412C9F80040012003B059
:10096800BDE8F08F0023EAE7381600200120704721
:10097800012070474FF40063838170474FF4006390
:1009880083817047036941681F2B4FF0200230B5FF
:1009980085BFA3F120054C680C68AA4098BF9A400F
:1009A800224214BF01220022EAB1C2690020107459
:1009B800D0688468206820F00100206054682068AE
:1009C8006579094C828934F815401F2B22EA040204
:1009D800828188BF203B4FF020028BBF9A4002FAE9
:1009E80003F3CA608B6030BD18E00308BFF34F8F74
:1009F8000549064BCA6802F4E0621343CB60BFF3B3
:100A08004F8F00BFFDE700BF00ED00E00400FA05CE
:100A1800436B99891A88890610B592B2044606D59F
:100A2800900604D5E26A1AB39888216B9047636BE5
:100A380099891A88090692B20FD510060DD5D4E9FE
:100A480009128A4222D0A1692069895C9980013201
:100A5800B2FBF0F100FB1122A262998A1A88C9053B
:100A680092B204D5D20744BF4FF6F7721A8010BD70
:100A78009B88E2696169DBB28B54E369E168013301
:100A8800B3FBF1F201FB1233E361D0E7DA6822F03D
:100A98008002DA60E1E7D0E90920131A5842584188
:100AA80070474171704743799B070AD5436A826949
:100AB800D154436A01690133B3FBF1F201FB1233EC
:100AC80043627047437913F002031FBF0369D0E9FB
:100AD800092003F1FF33101A1DBF1840C0B2181ABD
:100AE80018467047437913F001031FBFD0E9073256
:100AF800C0689B1A00F1FF3014BF184018467047B1
:100B080010B5437913F0010301460ED0FFF7EAFF51
:100B180050B10B6A4A69CC68D05C0133B3FBF4F27C
:100B280004FB1233C0B20B6210BD1846FCE790F804
:100B38005F3230B53BB990F85D1290F85E3201240F
:100B4800DAB2914200D830BDB0F8665204FA03F226
:100B58002A43A0F866220133F2E790F834200346CE
:100B680002F0FF0012B1002283F8342070470123FD
:100B7800037750F8043C0BB11838184770470C4BF2
:100B880093F814297AB1D3F8201988420DD3D3F8F1
:100B98002419884209D8D3F81C19C3F83C0941F034
:100BA8000101C3F81C19104670470022FBE700BF7B
:100BB8003816002008B50846FFF7E1FF18B1024BC8
:100BC800012283F8302908BD3816002028B1044BCB
:100BD800D3F8780908B193F8140900F001007047B8
:100BE8003816002008B5FFF7F1FF18B1024BD3F80B
:100BF8003C390B8008BD00BF3816002008B5FFF748
:100C0800E5FF08B100230B7008BD08B5FFF7DEFF4C
:100C180018B1024BD3F844390B7008BD38160020C0
:100C280010B5FFF7D3FF48B1064B93F8304934B9F4
:100C380093F834490C70D3F83839137010BD002478
:100C4800F8E700BF381600200520704730B1044B84
:100C580093F97C090028D4BF00200120704700BF09
:100C68003816002008B5FFF7F1FF18B1024BB3F8AA
:100C780084390B8008BD00BF3816002008B5FFF77F
:100C8800E5FF18B1024B93F88A390B7008BD00BF15
:100C98003816002008B5FFF7D9FF80B10B4BB3F821
:100CA800863963B1192B0BD9642B0BD9C82B0BD9F7
:100CB800B3F5C87F94BF0323042301330B7008BD29
:100CC8000023FAE70123F8E70223F6E738160020A5
:100CD80010B5FFF7BBFF48B1064B93F87E4934B90E
:100CE80093F87F490C7093F88039137010BD002475
:100CF800F8E700BF381600200420704728B1034BDE
:100D080093F91600003018BF01207047000000203A
:100D180008B5FFF7F3FF48B1054B93F91620022AEF
:100D280003BF5B7EC3F340030B70002008BD00BF08
:100D38000000002008B5FFF7E1FF80B10C4A92F9E6
:100D4800183092F91620012A0ED1272B08DC182B0F
:100D580008DC0F2BD4BF0023012301330B7008BD1F
:100D68000323FAE70223F8E70133DBB2F6E700BF13
:100D78000000002010B5FFF7C1FFB8B10D4C637E2D
:100D8800DB0714D494F91730002BB8BF0733DB10F6
:100D98000133DBB20B7094F91730594201F00701A7
:100DA80003F0070358BF4B420133137010BD0023F3
:100DB800F0E700BF000000200320704770B50B4A21
:100DC80092F88C3906255E1CB6FBF5F405FB146415
:100DD80092F88D59AC421FBF02EBC30382F88C49CD
:100DE800C3F89009C3F8941970BD00BF38160020E5
:100DF80010B500221346914201DC184610BD845CF0
:100E08006340082413F0800F4FEA430318BF83F0B0
:100E1800D503013CDBB2F5D10132ECE710B5E1B105
:100E28000E4C94F91630C3B10139C9B2032914D84C
:100E3800012B0B4B0B484FEAC10119440CBF0B7B2C
:100E48008B7B84F822300521FFF7D2FF062184F836
:100E580023000448BDE81040B0E710BD00000020A2
:100E680018E003081E000020F0B5114C114B24684F
:100E7800B3F8C07993F8C219B3F8C469B3F8C6597E
:100E880093F8C82914F0040F0AD193F8D0393BB964
:100E9800012A0BD0022A03D114F0080F08BF012140
:100EA800078081708680C5800272F0BD1146F7E721
:100EB8000000001038160020F8B5134C0746D4F887
:100EC800000A03791E3B012B02D9002130F047FFAD
:100ED8000E4E0025BD42D4F8000A0FDB002130F089
:100EE8003EFFD4F8243AC4F8283A094B00225A6045
:100EF800B4F8303A0133A4F8303AF8BD16F8011BBB
:100F080030F02DFF0135E5E7381600203C200020A1
:100F18006020002038B5154C94F88D3994F88C2948
:100F28009A421CD004EBC30304F60421D3F8902999
:100F3800D3F894090023984212DC9378C4F8400A45
:100F48005B0884F8443AFFF7B7FF94F88D39062117
:100F58000133B3FBF1F201FB123384F88D3938BD4C
:100F6800D55C01F8015B0133E5E700BF38160020C6
:100F7800F0B5234A034687B01546144600270120DA
:100F880095F806E0A3EB0E0605F1060C002EA3EB80
:100F98000705B8BF7642002DB8BF6D42AE4200F1DA
:100FA8000100BCBF4FFA8EF7644610286546E7D1AA
:100FB80000201578BD420CD1668855888E1B4D1BC4
:100FC800002EB8BF7642002DB8BF6D42AE42C8BFF2
:100FD80014460130102802F10602EAD1627904921F
:100FE800227903926288029222780120CDE90012C8
:100FF800044A032137F0C8FC204607B0F0BD00BF03
:1010080040E003086B4B040837B50A4D0824012358
:1010180000220DF10701686B36F0BAF99DF8073028
:10102800FF2B02D1012003B030BD013CEFD1204697
:10103800F9E700BF3816002073B5094E451C002497
:10104800012300220DF10701706B36F0A1F99DF81C
:101058000700FF2802D10134AC42F1D102B070BDC3
:101068003816002037B5104B104D1B88ADF80430EA
:101078000024022301AA2146686BAC6536F088F982
:101088000120FFF7D9FFFF281FBF092385F85C302F
:10109800D5F8243AEB6405BF04230220204685F8DE
:1010A8005C3003B030BD00BFA0E003083816002054
:1010B80070B5054608200E46FFF7BEFFFF2810D082
:1010C800FE2810D1094C334600222946606B36F0C1
:1010D8005FF9002202231146606B36F059F90020AF
:1010E80070BD0120FCE70220FAE700BF3816002097
:1010F80013B540F040038DF800300B0E8DF8013029
:101108000B0C8DF802300B0A8DF80330952304463A
:101118008DF804108DF80530FFF776FF00B95CB93B
:10112800064806236A460021406B36F031F908204C
:10113800FFF782FF02B010BDFF20FBE73816002042
:10114800104B70B51E4693F8452A002AFBD1044679
:101158004518AC4201D1002070BDD6F89C3814F86F
:10116800011BF2180133C3F30A0382F8461AC6F8C2
:101178009C38FFF797F80028EBD1012030F09FF852
:10118800F7E700BF3816002010B590F84810002384
:1011980080F8483071B10A4CD4F88C2062B1D4F888
:1011A8008C20052A0AD13430D4F8243AFFF7C8FF36
:1011B800D4F8243A012010BD1046FCE71846FAE797
:1011C80038160020002280F84920DDE790F84820F2
:1011D800531C0244DBB280F8483082F8341090F88F
:1011E80049200AB1132B00D9CEE7704738B50D4610
:1011F800FFF706F850B1064C002AD4F8243A05DD6A
:1012080011462846FFF79CFFD4F8243A38BD00BFA2
:101218003816002070B50C4C0C4E2546636B1A79B5
:10122800022A04D0686BBDE8704035F07EBF93F9A0
:101238000C30142202FB0363586A35F06EFF002855
:10124800F0D000BFEAE700BF3816002000000020F9
:10125800F8B500220F232D21022038F044FD1E4B43
:1012680058631C4610B983F85C00F8BD002136F0BD
:10127800B1F84FF47A7030F022F8606B174D184EC1
:1012880035F053FF00220A231146606B36F080F8D0
:101298001427636B1A79022A07D0D4F8243AE36436
:1012A800012384F85C30002313E093F90C3007FB2A
:1012B8000363586A35F031FF0028EED0013DE8D1CC
:1012C800606B38F003FD94F85030656384F85C5027
:1012D800013384F85030C8E738160020A186010091
:1012E8000000002008B5064B5B6B1A79022A06D16C
:1012F8009A68920703D5186935F088FD00BF08BDC4
:10130800381600202DE9F041164C1E4694F85C3042
:10131800042B05468846174616D1FFF7E3FF94F8D5
:101328005230D3B969021120FFF7E2FEB8B905239C
:10133800C4E90E85C4E9117684F85C30D4F8243AFF
:10134800E3640120BDE8F081082B01D00020F9E713
:10135800FFF788FE0228F9D1DFE72946E3E7FFF720
:1013680059FFF3E738160020054B93F85721D3F8B7
:10137800500102F0F702002183F8572135F044BFED
:101388003027002010B5044600222121006835F0DE
:101398003BFFFC222021206835F036FF4022242123
:1013A800206835F031FF0C222321206835F02CFF0E
:1013B80000222221206835F027FF012010BD10B53A
:1013C800012204461021006835F01EFF48B11420A0
:1013D8002FF075FF2068A0221121BDE8104035F0DC
:1013E80013BF10BD10B5242204464121006835F012
:1013F8000BFF80B120223021206835F005FF50B165
:1014080006223121206835F0FFFE20B10022342168
:10141800206835F0F9FE05202FF051FF012010BD9E
:1014280010B5072204460A21006835F0EDFE0520B4
:101438002FF045FF24224121206835F0E5FE0520E4
:101448002FF03DFFC0224221206835F0DDFE052047
:101458002FF035FF012010BD10B5012204460B21E5
:10146800006835F0D1FE20B11D220921206835F031
:10147800CBFE00F0010010BD10B578220446002113
:10148800006835F0C1FE05202FF019FF2022012148
:10149800206835F0B9FE05202FF011FF0022022147
:1014A800206835F0B1FE64202FF009FF012010BD3F
:1014B80001224821006835F0A7BE012258210068A2
:1014C80035F0A2BE054B006893F8E8289201343243
:1014D80002F0FC02F42135F097BE00BF3816002058
:1014E8002E22F421006835F08FBE08B53122F42190
:1014F800006835F089FE012008BD30B5002385B0AD
:101508000446C38683630DF107020221006835F0A3
:1015180016FE18B90025284605B030BD9DF80730DD
:10152800DB07F7D5062302AA0321206835F038FE29
:101538000DF107020921206835F001FE0546002853
:10154800E8D09DF8073013F00C0FE3D19DF809207F
:101558009DF80830206843EA0223C3EB83339B00DD
:101568009DF80B20E3869DF80A3043EA02239B008E
:101578009DF80D2023879DF80C3043EA0223C3EB26
:1015880083339B00638701220A2135F03DFEC2E7C1
:1015980013B5002204460A21006835F035FE1420F0
:1015A8002FF08DFE0F220A21206835F02DFE0A202B
:1015B8002FF085FE032301AA1021206835F0F0FDE5
:1015C8000A202FF07CFE00220A21206835F01CFE3C
:1015D8000A202FF074FE0DF103020221206835F075
:1015E800AEFD0DF103020921206835F0A8FD0122A6
:1015F8000A21206835F008FE012002B010BD1FB591
:10160800044600230DF10702272100688DF80730F2
:1016180035F095FD68B19DF8070010F0080008D076
:10162800062302AA2821206835F0BAFD18B9E086F9
:10163800A06304B010BD9DF809209DF8083043EA66
:1016480002231BB2002BB8BF03339B109DF80B205D
:10165800E3869DF80A3043EA02231BB2002BB8BF89
:1016680003339B1023879DF80D209DF80C3043EA27
:1016780002231BB2002BB8BF03339B106387D8E744
:101688001FB500210446C18681630DF10702006879
:1016980035F055FD00B39DF8070010F008001BD089
:1016A800062302AA0121206835F07AFDA0B19DF831
:1016B80008209DF8093043EA0223E3869DF80A20B2
:1016C8009DF80B3043EA022323879DF80C209DF8F0
:1016D8000D3043EA0223638704B010BD13B5062317
:1016E80004466A461121006835F05AFD18B9E086AB
:1016F800A06302B010BD9DF801209DF8003043EAB8
:1017080002231BB207EE103AB8EEC77AF7EE086A62
:1017180027EE267A9DF80320BDEEC77A17EE103A19
:10172800E3869DF8023043EA02231BB207EE103A23
:10173800B8EEC77A9DF8052027EE267ABDEEC77A5F
:1017480017EE103A23879DF8043043EA02231BB2B0
:1017580007EE903AF8EEE77A67EEA67AFDEEE77ABA
:1017680017EE903A6387C4E713B50023C3868363F3
:10177800044606236A460321006835F011FDE0B1EE
:101788009DF801209DF8003043EA022303EB430350
:101798009DF80320E3869DF8023043EA02231BB23A
:1017A8005B4203EB430323879DF805209DF8043033
:1017B80043EA022303EB4303638702B010BD30B54D
:1017C800002585B00446C58685630DF1070206210C
:1017D800006835F0B4FC00B39DF8070010F0040071
:1017E8001BD0062302AA2946206835F0D9FCA0B1EF
:1017F8009DF809209DF8083043EA0223E3869DF806
:101808000B209DF80A3043EA022323879DF80D2018
:101818009DF80C3043EA0223638705B030BD13B549
:10182800044600680379022B0CBF432103210623D9
:101838006A4635F0B5FC18B9E086A06302B010BD61
:101848009DF800209DF8013043EA0223E3869DF8C5
:1018580002209DF8033043EA022363879DF80420A1
:101868009DF8053043EA02232387E7E707B50323FA
:1018780001AA002135F094FC9DF805309DF804007C
:101888001B0243EA00439DF80600184303B05DF8C5
:1018980004FB08B50068FFF7E9FF024BC3F8C4086A
:1018A800012008BD3816002008B50068FFF7DEFFE4
:1018B800024BC3F8B008012008BD00BF381600204D
:1018C80007B5032301AAF621006835F069FC88B141
:1018D8009DF805309DF8042008491B0243EA02439D
:1018E8009DF806201343B1F9E828C2F10802D34055
:1018F800C1F8EC3803B05DF804FB00BF38160020CF
:1019080007B5022301AAF621006835F049FC40B169
:101918009DF804209DF8053043EA0223024AA2F804
:10192800C83803B05DF804FB3816002037B5062325
:10193800F7216A460068164C35F032FC1549E8B1C3
:101948009DF801209DF800309DF80350120142EAED
:1019580003329DF8023042EA13129DF80430C1F8B0
:1019680010291B0143EA05339DF8055043EA151376
:10197800C4E95723C1F8F03803B030BDD4F85C315E
:10198800C1F81039D4F86031C1F8F038F4E700BF75
:1019980030270020381600202DE9F347038A86896E
:1019A80005460C461E404FF0004901F14C0701F175
:1019B800340816B902B0BDE8F087B6FA86F329FAFA
:1019C80003F2D24391B2298216401B3B002C40D02F
:1019D800042BEED8DFE803F039342E280300E3683F
:1019E800D5F82CA02BB19B681BB11FFA8AF1201DDA
:1019F8009847636A33B19B6823B11FFA8AF104F1EF
:101A08001C009847E36B2BB19B681BB11FFA8AF146
:101A180040469847636D002BCBD09B68002BC8D0FD
:101A28001FFA8AF1384603E0E368696B5B68201D9A
:101A38009847BEE7636AA96B5B6804F11C00F7E787
:101A4800E36BE96B5B684046F2E7636D296C5B68A2
:101A5800E8E7042B06D8DFE803F00D0B09070300BD
:101A6800EB6A0193019BA4E76B6BFAE7AB6BF8E7B2
:101A7800EB6BF6E72B6CF4E710B500680C4637F013
:101A88002FF8837863B1827AC37A43EA02231BB2C0
:101A9800222293FBF2F303F26D132380012010BD81
:101AA8001846FCE710B50446006837F019F8837843
:101AB80083B10279437943EA0223E3818279C379C6
:101AC80043EA02232382027A437A43EA02236382A7
:101AD800012010BD1846FCE770B50668054630467B
:101AE80036F0FEFF0E230446021D3B21304635F03A
:101AF80057FBA07070B1227B637B43EA02232B84DF
:101B0800A27BE37B43EA02236B84227C637C43EA67
:101B18000223AB8470BD03682DE9F7430546586975
:101B280098B140F615030021C380017237F0DAFD41
:101B38003B4BAB612B685C69204635F016FA0028F0
:101B480006DA2B68586900285FD103B0BDE8F08336
:101B5800DFF8D880334F08EB000307EB800093F8D9
:101B68008A6005F11803C0F86431204635F007FA99
:101B78008146204635F0F9F9C2B202F0030002F0BE
:101B8800FC0202F1804303F59C3381009A680F2020
:101B9800884022EA00029A609A685FFA89F08840D1
:101BA8001043986024B1204635F0DFF901248440C1
:101BB8001D4B5C611968E243114019605968114076
:101BC8005960196821431960996811409960D9686A
:101BD8000A40DA60986820439860BB1993F8A421FA
:101BE800F02AAED9B044F02283F8A42198F89A30AC
:101BF8008DF8043003238DF8053001A84FF4807365
:101C0800ADF8063037F0B8FB9BE735F0AEF90123A5
:101C180013FA00F01FBF044A13680343136094E7E4
:101C2800770B000830270020003C014018E003082B
:101C3800F8B5016B0468354EB6FBF1F1054689B27B
:101C480090F82D00FFF794F94388B6FBF3F60746A2
:101C5800AE632846FFF75FFF2046002135F0BAFB48
:101C680080226B21204635F0CFFA64202FF027FB25
:101C780007226821204635F0C7FA64202FF01FFBA1
:101C880000226B21204635F0BFFA64202FF017FBA5
:101C980001226B21204635F0B7FA0F202FF00FFBF9
:101CA80018221B21204635F0AFFA0F202FF007FB32
:101CB80018221C21204635F0A7FA0F202FF0FFFA32
:101CC8003A791A21204635F09FFA0F202FF0F7FABB
:101CD8007A791921204635F097FA64202FF0EFFA27
:101CE80012223721204635F08FFA0F202FF0E7FA1D
:101CF80038210122204635F087FA0F202FF0DFFA2D
:101D080020460321BDE8F84035F064BB40420F008F
:101D1800F7B50468016B514EB6FBF1F1054689B27F
:101D280090F82D00FFF724F94388B6FBF3F6074631
:101D3800AE632846FFF7EFFE0021204635F04AFB48
:101D480080226B21204635F05FFA96202FF0B7FAF3
:101D580003226821204635F057FA96202FF0AFFA73
:101D680003226B21204635F04FFA0F2000212FF077
:101D780093FA10226A21204635F046FA0F200021F6
:101D88002FF08AFA00226C21204635F03DFA0F2008
:101D980000212FF081FA7A791921204635F034FA9A
:101DA8000F2000212FF078FA18221B21204635F049
:101DB8002BFA0F2000212FF06FFA18221C21204641
:101DC80035F022FA0F2000212FF066FA1022372171
:101DD800204635F019FA0F2000212FF05DFA012274
:101DE8003821204635F010FA0F2000212FF054FA40
:101DF8003A791A21204635F007FA012000212FF000
:101E08004BFA0321204635F0E5FA06236A464321BA
:101E1800286835F0C5F9A0B19DF800209DF801307B
:101E280043EA02232B849DF802209DF8033043EAFD
:101E380002236B849DF804209DF8053043EA0223B1
:101E4800AB8495F92230013306D195F9203001335E
:101E580002D106202FF06AFA03B0F0BD40420F000D
:101E6800F8B5284C2546D4F878092FF075FF0028D6
:101E780047D094F874390BB1002042E0D4F87809BF
:101E88002FF064FFD4F870393BB90F28EBD1012348
:101E9800C4F8703984F86009E5E70F2B9FBF5A1C16
:101EA8001B19C4F8702983F86009D5F87039102B0C
:101EB800D9D195F860390F2B15D195F8613995F876
:101EC80051299A420FD195F86F2962B90E4995F8B0
:101ED8006E69084611F8017B01323B440C2ADBB2DB
:101EE800F8D19E4205D0002385F87439C5F87039B9
:101EF800B9E7064939F030FE0028F4D0012085F80A
:101F08007409F8BD381600209A1F00208A1F002087
:101F180038B5174C0F2384F8503984F8510904F662
:101F28005212F9B10B68C4F852394B6853608B6888
:101F38009360104A002312F8011B013308440C2B4C
:101F4800C0B2F8D1002584F85E0910220A49D4F8F5
:101F5800780984F85F5930F01FF884F87459C4F888
:101F6800705938BDC4F8521951609160E1E700BF5B
:101F7800381600208A1F0020881F00207FB5944C47
:101F8800D4F8B031B3F5857F77D00BDCC3B3F82B29
:101F980049D0D4F8B031002BBCBF0023C4E96C335E
:101FA80004B070BDB3F5887F00F0BE80B3F58F7FB5
:101FB800EFD1884D95F87439002B00F0EA800021A4
:101FC800B5F86239C5F81819D5F83C19B5F8642977
:101FD800C5F848398B42C5F84C2940F0F280D5F84D
:101FE80040399A4205D0D5F81C3943F00203C5F8A8
:101FF8001C39784B93F81439002B00F0A9802EE097
:10200800744A82F8143900217220FFF781FF714B5E
:10201800D3F8243AC4F8B8310026FA23C4E96F6328
:10202800F823C4F8B0316B4D95F87439002B42D0C1
:10203800B5F86239C5F82039B5F86439C5F82439D6
:102048000023C5F82839B5F86639C5F82C390123B5
:1020580085F814390023C5F81839C5F81C395D4BC3
:10206800D3F8243AC4F8B83100254FF47A73C4E998
:102078006F534FF48573C4F8B031564DD5F81C69C9
:102088007EBBD4F8B821D5F8243A9B1AD4F8C021DD
:1020980093427FF77EAF31467620FFF739FFD5F8B8
:1020A800243AC4E96E36FA23C4F8C0314FF48F736A
:1020B800C4F8B0317DE7FFF7D3FE48B9D4F8B821AA
:1020C800D5F8243A9B1AD4F8C02193427FF761AF20
:1020D80095F87439002BABD195F81439002BB9D188
:1020E80091E716F0010339D00026B5F83C39ADF870
:1020F800043001A94620CDF80660CDF80A60ADF895
:102108000E60FFF705FFD5F81C3923F00103C5F869
:102118001C39D5F8243AC4E96E36FA23C4F8C0311C
:102128004FF48873C4F8B0312A4BD4F8B821D3F8E7
:10213800243A9B1AD4F8C02193427FF72AAF254B43
:10214800D3F81829022A7FF754AF002283F81429FC
:102158004FF0FF330022C4E96C321AE716F002068A
:1021680014D0B5F84029CDF8063001A95020CDF893
:102178000A30ADF80E30ADF80420FFF7C9FED5F8E7
:102188001C3923F00203C5F81C39D8E7C5F81C69C7
:10219800D5E7FFF765FE48B9D4F8B821D5F8243A51
:1021A8009B1AD4F8C02193427FF7F3AE95F874399F
:1021B800002B7FF404AFD5F818390133C5F8183966
:1021C800BDE7D5F81C3943F00103C5F81C3906E70B
:1021D80030270020381600202DE9F04F6C4E96F875
:1021E800C8318DB080468946002B40D1D6F8CC51F5
:1021F800002D3CD096F8D0B1DFF898A106AF96F83C
:10220800D031032B00F28480DFE803F002347D9B99
:102218003946284610F026F9044680B109A8FEF789
:1022280023FE9DF826109DF818308B4270D0AB79AC
:102238008B4204D32B681B690BB12846984796F844
:10224800D031013303F0030386F8D031002C40F07D
:102258009C809B45D3D14F4B1B685B0700D534B19D
:102268002B68196819B142464B46284688470DB075
:10227800BDE8F08F03A8FEF7F7FDDAF800309DF807
:102288000C4003F0040334B3002B41D13A460DF15E
:102298000B01284610F004F90446002838D009A894
:1022A800FEF7E2FD9DF824109DF80B309DF82520DF
:1022B8008B4203D19DF81830934229D02B798B4259
:1022C800BDD36B799342BAD32B68DB68002BB6D0A9
:1022D80028469847B3E7002BB1D13946284610F075
:1022E800B3F80446A0B109A8FEF7BEFDBDF8281052
:1022F800BDF818308B420BD02B689B69002B9ED001
:10230800284698479BE7DAF8001011F0040301D03B
:10231800002494E709A92846019310F09CF80028A6
:10232800F6D096F8D141002CF2D09DF82420019BDC
:1023380086F8D131002AEBD01946284610F0B7F8B4
:102348007DE73846FEF790FD97E8070009AB03C321
:102358001A809DF818309BB10DF1250209A928466D
:1023680010F09EF80DF12601284610F07BF80A229D
:1023780009A9384639F0F0FB041C18BF01245EE7B0
:102388000AA9284610F060F8ECE7012463E700BFCB
:102398003027002000000010CA680B6810B51343EE
:1023A8000468114A224013434A6913438A69134354
:1023B800CA6913430A6A13434A6A13434A6B1343AD
:1023C8008A6B134343F400330360D1E90B34426949
:1023D800234322F00702134343610B6943604B68B0
:1023E80083608B68C36010BD3F801CF082B00023FF
:1023F8000193019B43F020030193019B60F38A132F
:102408000193084BD3F8E021019B1361064B116936
:102418000191013B02D001998906F8D4002002B04D
:10242800704700BF30270020410D030010B5802100
:10243800044636F0BDFC2046002136F0B9FC2046A3
:10244800BDE8104036F0FABC420900F01F03032A29
:102458004FF0010000FA03F008D0042A0BD0022A3A
:102468000DD1074B5A6C104358647047044B1A6CD3
:10247800104318647047024B1A6B10431863704777
:10248800003802402DE9FF4180460846154635F0E0
:1024980021FC4FF47A72002306460F4638F0C6FB3B
:1024A800B5F900303C2403FB0404394630464FF4A8
:1024B8007A72002338F0BAFB002796B24FF47A7389
:1024C800C3FB04673B46324601A835F069FB3A4B2B
:1024D80093F8CA37012B09D0022B35D032463B4638
:1024E800404635F05DFB04B0BDE8F0819DF806403C
:1024F800E31E072BF2D8231F052B0DD92146BDF863
:10250800040035F0FBFA9DF8073098420ED0E11E22
:1025180018BF01210029E1D02B883C332B80274BA1
:10252800F6184FF0000343EB0707D7E7032C03D156
:102538009DF808100031EBE70A2CCFD19DF8081060
:10254800B1FA81F14909E5E79DF80640E31E082B39
:10255800C4D8231F062BDFD92146BDF8040035F067
:10256800CDFA032C12D10E280ADC9DF807309842C8
:1025780008D19DF80810012994BF00210121C9E75D
:102588000738F0E7B4BF01210021C3E70B2CA5D120
:1025980007280ADC9DF80730984208D19DF80810F2
:1025A80001298CBF00210121B4E70738F0E7CCBF2F
:1025B80001210021AEE700BF3027002080EE360061
:1025C8002DE9F04790B0DDE9184A0D4607469046D8
:1025D80000213A220DF1060099461A9E39F0E4FAD4
:1025E800344B02938DF80450CDF834A0002D55D00B
:1025F800022D55D0032D55D0042D55D103232E4A35
:1026080002EB430393F8A2308DF805302B4B03946B
:10261800D3F8243A06971C440123CDE904468DF8E3
:102628003130B8F1000F06D04A46414607A839F0C4
:10263800C3F88DF83090DFF888C09CF80EE80023C6
:10264800BEF1010F0E931ED80DF1040ABAE80F006F
:102658009CF80D683C2404FB06C404F501640FC40F
:10266800BAE80F000FC4BAE80F000FC49AE80700D1
:10267800B6FA86F60EF1010E760984E807008CF8A2
:102688000EE88CF80D683B6883B14B4642462946F4
:10269800384610B0BDE8F0471AF0DABE2B46AEE770
:1026A8000123ACE70223AAE70023ADE710B0BDE899
:1026B800F08700BFFC2E002018E003083816002021
:1026C8003027002013B501238DF805304FF48073AF
:1026D800ADF8063003681B685B79044623B101A88E
:1026E8008DF8043036F06EFE23681B689B7923B1A1
:1026F80001A88DF8043036F065FE02B010BD031E47
:10270800B8BF2D2210B5B8BF58420C46AEBF0A223A
:1027180001F8012B0A2235F06BF9002303702046DB
:1027280010BD10B5084A002311461479844203D11C
:10273800142000FB031010BD01330D2B02F114020D
:10274800F3D10020F7E700BFC4E00308054BB3F856
:102758008C29D3F8883959690A4214BF5A831A83D5
:10276800704700BF3027002013B5094CD4F850013A
:102778000DF10702A02134F0E2FC18B19DF80730F2
:102788009B0602D5FFF7E2FFF0E702B010BD00BFDD
:102798003027002080F00101014834F0D5BB00BF8C
:1027A800B830002070B50B4B0B4CA34202D300226B
:1027B800104670BD5A7982420AD11A7A8A4207D1E4
:1027C8001A681E791579AE4202D11568AB42EFD06E
:1027D8000C33EAE71C95040878960408642828BF97
:1027E800642000EB800070B5450064240026B5FB2A
:1027F800F4F4E4B2F3B29C4212D80A2C0BD01420A1
:10280800B5FBF0F0C4EB84156638C4EB85052844A5
:10281800C0B20FF0F5FE0134E4B2092C05D970BD41
:102828009F200FF0EDFE0136E4E79A20F1E7F0B5BE
:10283800174B93F88C2B03F5396102EB420401EB3B
:10284800840103F53D6600240C27042A04D90CB141
:1028580083F88C2B0020F0BD0C680132E507D2B25A
:102868000DD520420BD091F904C0002407FB04F5D4
:1028780015F906E0E64505D00134052CF6D10C31F2
:102888000124E2E783F88C2B2B44D3F8D40BE2E73E
:1028980030270020024B002283F88C2BC7E700BFAB
:1028A8003027002030B5264B10201D78A5F13001C7
:1028B80009291A4603F1010329D9214C0021131BC8
:1028C800022B27DC0023A2422ED82E2D36D1501CF5
:1028D80004240022057802EB8202303D5200092DC3
:1028E80092B298BF521904F1FF349CBF013092B2E2
:1028F80014F0FF04EED164205043124A02FB030097
:102908000623B0FBF3F0104B03FB010001E0013894
:10291800CBD130BD01EB8101490014F8010B3039EE
:10292800014401F0FF01CAE703EB83035B0014F8DD
:10293800010B303B034403F0FF03C4E70022DAE74E
:102948003C33002040420F008096980030B50023A9
:1029580051F8234052F82350641B40F823400133B8
:10296800032BF5D130BD30B50468E46985B02CB1CE
:102978000DF10F050095A04705B030BD2046FBE7D7
:102988002DE9F04F87B0DFF8ACA0059107469046D7
:1029980099460025B8F1000F07DBA84505D0013599
:1029A800042DF7D107B0BDE8F08F059AD4236B4307
:1029B80002EB030B1E4AD31804930024B9F1000F4D
:1029C80001DBA1452FD1049B3BF8146033F8143088
:1029D800F21A5642564113F4006F03F01F02C3F374
:1029E800441114BF56234823CDE90213CDE9004210
:1029F8002B465246314638462BF066FD3BF81430DC
:102A080013F4006F03F01F02C3F3441114BF5623DD
:102A18004823CDE90213CDE900422B465246314600
:102A280038462BF067FD01346A2CC7D1B7E700BFE1
:102A38004C330020A44B04082DE9F04F41F6A803BD
:102A4800364C374ADFF8E4B08846E15C354B00295C
:102A580008BF1A4641F6A90387B0E15681463248B5
:102A68002BF084FA04F6AC7446460027B8F1000F40
:102A780052D096F800A094F85C03F168B6F910C03B
:102A880096F816E05045D6E9013243D1D4F86003F0
:102A980098423FD1D4F8640390423BD1D4F86803FC
:102AA800884237D1B4F96C03604533D194F8725336
:102AB800A5EB0E0045424541CDE90221CDE900A331
:102AC800CDE904CE3B465A46294648462BF0FCFC45
:102AD80094F872330593B4F96C330493D4F86833DB
:102AE8000393D4F864330293D4F86033019394F8D1
:102AF8005C3300935A463B462946484601372BF03B
:102B0800F9FC3C2F04F1180406F11806AED107B001
:102B1800BDE8F08F0025CFE74546D9E730270020EC
:102B280078730408BE4B0408C14B0408D04B040852
:102B380070B541F29423204DEB5C2DED028B0446D9
:102B48000E4693B341F29C23EB58036005F5955369
:102B58001B68436041F2A423EB58836005F6AC730D
:102B680093EDBB8ADFED158A96ED000A80EE280A00
:102B780039F020F923681844206028EE288A96ED59
:102B8800010A80EE080A39F015F963681844606094
:102B980096ED020A39F00EF9BDEC028BA3681844D1
:102BA80041F29423A060E85C70BDC0E90033836003
:102BB800B7EE008AD6E700BF302700202C7D8E3F75
:102BC80070B541F294231D4CE55C95B341F29C2607
:102BD8000B68A659DFED1A6A9B1B07EE103A04F53D
:102BE80095564B683668B8EEC77A9B1B27EE267A4F
:102BF80007EE903A04F6AC73012A80ED007A93ED63
:102C0800BB7A8B6818BF41F2A422F8EEE77A27EE68
:102C1800267A18BFA25867EE877A18BF9B1AC0EDAC
:102C2800017A07EE903AF8EEE77AC0ED027A284684
:102C380070BD0023036043608360F8E730270020FD
:102C48002C7D8E3FF0B505460C4689B01422002134
:102C5800204638F0A9FF2A681D4E04A9C2F3855002
:102C680000230D4640FA03F7FF0744BF9F5D01F8B4
:102C7800017B0133062BF5D1164800230B70C2F3F4
:102C880003210144C2F3053691F8B6118DF81810E6
:102C980000F2BD100DF1190146FA03F7FF0744BF12
:102CA8001F5C01F8017B0133062BF5D100230B7063
:102CB800C2F38343029306ABCDE90053064902F001
:102CC8000F032046C2F3031235F0AFF809B0F0BD88
:102CD800C8E1030818E00308E84B04081FB53149A8
:102CE80001A84A7E5C3116F022F80398019A80EA1E
:102CF800E073A3EBE07307EE903AF8EEE77AF7EEAD
:102D0800086AC7EEA65A82EAE273A3EBE27307EEFB
:102D1800103AB8EEC77A029BF4EEC75AF1EE10FAF1
:102D280013DD83EAE371A1EBE37106EE101AB8EE46
:102D3800C66AF4EEC65AF1EE10FA06DD0028CCBFDA
:102D48000020012005B05DF804FBC7EE265A83EA8F
:102D5800E371A1EBE37106EE101AB8EEC66AF4EE61
:102D6800C65AF1EE10FA09DDF4EEE57AF1EE10FA42
:102D780004D5002ACCBF02200320E3E7C6EE265A7A
:102D8800B4EEE57AF1EE10FA09D5F4EEE57AF1EE53
:102D980010FA04D5002BCCBF04200520D2E74FF051
:102DA800FF30CFE70000001030B5194CD4ED1B7A86
:102DB80089B0F1EE677ACDED057AD4ED1C7A00235F
:102DC8000093F1EE677A0B680193CDED067A4B68B4
:102DD800D4ED1D7A02938B6803930546A36E049382
:102DE800F1EE677A6A4604A96846CDED077A1CF0C9
:102DF80033FE694604F1680208461CF02DFE019B6B
:102E08002B60029B6B60039BAB60284609B030BD0A
:102E18000000001038B502782DED088B30EE608A7E
:102E2800D0ED01AA0446B0EE40AAF0EE419AB0EE09
:102E3800619AB0EE42BA0D4668EE2AAA01F0010383
:102E48004AB1002B0CBFF0EE607AF0EE487A00220F
:102E5800C0ED0B7A0270D4ED0B7A002B60D078EEBF
:102E6800677AF0EE480A87EEA90AC4ED0B0AD4ED9A
:102E7800090AD4ED038AF5EEC00AF1EE10FA05DD71
:102E8800B0EE691A04F1180035F071FED4ED057A38
:102E980094ED0A7A2AEE27AA20EE280A7AEE877A93
:102EA80077EE807A77EE8A7AF4EEC97AF1EE10FA44
:102EB80008D4F4EECB7AF1EE10FAD4BFB0EE679AEC
:102EC800B0EE4B9AD4ED026A94ED046AC4ED0DAAF3
:102ED80028EE268AF0EE476AE9EE886A6B0779EEF3
:102EE800677A84ED0C7A67EE867A84ED0E0AE9EE4D
:102EF800A76A84ED0FAA84ED109AF0EE667A08D5D9
:102F0800F0EEE66AB0EEC77AF4EEC76AF1EE10FAB0
:102F180001D5C4ED0A7AB0EE490ABDEC088B38BD7C
:102F280070EEE77AF1EE677A87EEA90A9DE710B5A9
:102F380088B0002300930B6801934B6802938B6859
:102F480014490393D1ED1B7A8B6E0493F1EE677AE3
:102F5800CDED057AD1ED1C7AF1EE677ACDED067AE2
:102F6800D1ED1D7A0446F1EE677A6A466831684603
:102F7800CDED077A1CF070FD694604AA08461CF0DE
:102F88006BFD019B2360029B6360039BA36020464B
:102F980008B010BD0000001010B51E4C94ED1B0ABF
:102FA800D4ED1A6A94ED1C7AD4ED1D7A20EE000A4D
:102FB800A6EEA60AA7EE070AA7EEA70A39F01EFA98
:102FC800DFED157AB4EEE70AF1EE10FA08D54FF006
:102FD8007E53A3660023E366236763670F4810BD2B
:102FE80094ED1A7AC7EE007A94ED1B7AC4ED1A7A3A
:102FF800C7EE007A94ED1C7AC4ED1B7AC7EE007A0E
:1030080094ED1D7AC4ED1C7AC7EE007AC4ED1D7AE2
:10301800E4E700BF00000010BD37863568000010E7
:1030280030B5D0F8D010ADF50B7D00F10A0206924C
:103038000A448AAB0792B0F8D6200393ADF8202053
:103048004FF6FF7390F8D520ADF8103004460023F2
:103058000AAD8DF8222002A901AA06A802958DF8CA
:103068001230ADF81430ADF82430019321F004F992
:1030780040B1029B94F8D42002A92046CDE902531E
:103088001AF0E0F80198002363720DF50B7D30BD4E
:103098002DE9F0412DED028B1B4D84B004460E4600
:1030A8001746984613460A460146D5F8D407B0EEA7
:1030B800408A33F0F5FF9FED150A9DF83030CDF8C2
:1030C800048028EE000A0022FDEEC07A009217EE76
:1030D800901A02A80FF0C2FC9DF834001DF02CFED7
:1030E8008046384636F0B0FF611C0144CDF80080B8
:1030F80002AB3246C9B2D5F8D40733F096FF04B014
:10310800BDEC028BBDE8F081283800200000C842E1
:1031180070B50D4C06460D4613460A460146D4F8CE
:10312800D40733F06FFF94F9D83704EB4302013327
:103138005BB2272BC8BF002382F8D96782F8DA5719
:1031480084F8D837012070BD283800202DE9F347CE
:10315800284C1646FE2284F82B2894F8402984F837
:103168002D28013284F840294FF6FF721F4684F853
:103178002C6884F82E0884F82F18ADF80620062548
:1031880004F62C08013DADB23DBBDFF87080BDF8F8
:10319800063094F82C58A4F829384FF6FF79A8F18E
:1031A800080A013DADB24D451ED13846124905F019
:1031B800B3FE94F82C38B4F82928234406F1080003
:1031C80083F8312894F82C38B4F829282344120AB3
:1031D80083F8322802B0BDE8F0870DF1060118F82F
:1031E800010B05F099FECDE7514618F8010B05F0E3
:1031F80093FED6E72838002051400020594000208F
:1032080017B48DF805308DF804200A4BBDF804205A
:103218009DF81040A3F831282F2283F8302883F82E
:103228003348032299238DF8064003B05DF8044B18
:103238008CE700BF28380020054991F86D29002344
:10324800042A036028BF042201F6721138F0B4BAC8
:103258002838002010B4074991F86D29002404800B
:10326800022A28BF022201F672115DF8044B38F0D9
:10327800A3BA00BF28380020F8B5204C1D250F46FA
:10328800064684F87A5A1AF035FA00201AF0BEF980
:1032980008201AF0BBF90E201AF0B8F928461AF0DF
:1032A800B5F904201AF0B2F904201AF0AFF9002099
:1032B8001AF0ACF930201AF0A9F900201AF0A6F992
:1032C80038461AF0A3F900201AF0A0F91AF0F2F91A
:1032D80004F67B201AF002F9234670B194F87B2A91
:1032E80052B994F87C2A302A00D02AB993F87D2A5A
:1032F80012B993F87E3A33700120F8BD28380020BF
:10330800011D0023884201D11846704710F8012B8F
:103318005340082213F0800F4FEA430318BF83F08D
:103328003103013ADBB2F5D1ECE7094A0023104634
:10333800117831B19178802903D1682202FB03000A
:1033480070470133102B02F16802F1D10020704759
:10335800B84200202DE9F743104B93F8C8410746BF
:103368008846C4B90E4DA14605F52576286858B19A
:103378002EF0D2FC40B1CDF800902B46424639469B
:10338800B6201AF047F80446DC35B542EED120469F
:1033980003B0BDE8F0830024F9E700BF3027002020
:1033A800384900200E4B062230B483F8AE2224227E
:1033B80083F8AF2283F8B022002283F8B122094AA9
:1033C80003F2B22102F1240452F8045B41F8045BD1
:1033D800A242F9D130BC83F8B4020DF05DBD00BF44
:1033E80020490020DBE1030813490023F0B51A4601
:1033F8000D461E460A278C1894F80C4C0CB9184632
:10340800F0BD2E2C06D101320028F8D08C180444C7
:1034180084F80C6CAC187B4394F80C4CA4F1300C79
:10342800BCF1090F9CBF303B1B190E2A01D8013291
:10343800E1E70023E3E700BF3027002010B50B4C7D
:1034480004F5C5500C3008F06DFC41F6B803E3589C
:10345800C01A35F05DF80028B8BF404242F2107338
:103468009842D4BF0020012010BD00BF30270020A3
:103478002DE9F04FB64CD4F8E0315E6916F001063C
:103488008BB040F084825A699B691340019300F025
:103498007E82C3F30743180700930ED5D4F8E431AE
:1034A800DFF8B4929F69DB6904F5EA7B1F403F0CA3
:1034B800DA46D846002F40F00581009B590711D500
:1034C800D4F8E421A34F9369D26903EA02081FFAEA
:1034D80088F83E464FF0000AA7F5EA7BB8F1000FDE
:1034E80040F040819DF80450A90741BF984BD3F89C
:1034F800E03102225A61019B002B1BDA944B93F8AE
:10350800DE213AB1D3F8E022136823F0030161F316
:1035180007031360D4F8E4218E48536823F00103AD
:1035280053608D4BD3F88C309847D4F8E0314FF086
:1035380000425A61019BC3F3072632072FD50023A7
:103548008DF8173094F8E6328DF81730824B8148A1
:10355800D3F888309847D4F8E021D4F8E4314FF410
:1035680000619B68516194F8DE21C2B1DB0716D572
:1035780094F8E932012B12D19DF81730032B0ED1A4
:10358800D4F8E0321A6842F001021A601A6842F070
:1035980003021A60714A136943F0060313612F0787
:1035A8000AD56B4F6C4B07F5EA70D3F88030984713
:1035B800D7F8E03108225A61ED0614D5D4F8E001B5
:1035C800836923F010038361036AC3F3434102292B
:1035D80003F00F0200F06B81062900F090818369E7
:1035E80043F010038361F00635D5594DD5F8E42131
:1035F8005368002723F0010353603846FEF7F6FEB0
:10360800B84695F8D5013B4605F5F675FF21834286
:10361800C0F08381D4F8E4314E484FF0FF329A610C
:103628004FF00112DA610B2262F3070762F3070811
:103638005F61C3F810801A686FF30A121A6035F0D8
:10364800FDFBD4F8E03143484FF480525A61424BB5
:10365800D3F884309847B10640F17B813C4AD2F8D0
:10366800E431D2F8EC0199680268C1F341010229FA
:1036780006BF032161F30A026FF30A0202605A6867
:1036880042F480725A6006A835F058FFD4F8E01169
:10369800D4F8E401CB68079A6FF38D23CB60856873
:1036A8002F48C5F34105284490F8E701032840F066
:1036B8003B81002284F8D6214FF40072A4F8D82167
:1036C800092240E1F9073BD5F1B204EB8103D3F8B5
:1036D80028329D68D4F8E4315B691D40EA071FD59C
:1036E80094F8D701DBF854300125A8429D6007D132
:1036F8001869DAF87C33C0F312001B1ACAF88C3345
:10370800D9F874304046984794F8D731012B07D13F
:1037180036B994F8E532052B02D1404635F08EFBD8
:10372800AB0742BFDBF8543002259D60280707D558
:10373800D9F87C3040469847DBF8543008229A6024
:1037480001367F080BF1040B0AF1280AB2E600BF24
:1037580030270020042900200000002000ED00E0B0
:1037680018E0030818F0010F60D0D4F8E4315FFACC
:103778008AF919695D6B04EB890225FA09F5D2F813
:10378800EC21ED019268EDB20D431540EA071BD517
:103798005A6B9F48012505FA0AF122EA01025A6389
:1037A800BB699D609B4B49469B6F984794F8D731FE
:1037B800AB4209D1BAF1000F06D194F8E532042BD7
:1037C80002D1934835F03AFB280742BFBB69082568
:1037D8009D60E90642BFBB6910259D606A0642BF2D
:1037E800BB6940259D60AB0742BFBB6902259D6050
:1037F80028061BD5D6E94C329B1AD6F82421D7F8CF
:1038080018C0DBF8E4E1DCF81850934228BF1346EF
:10381800033309F132099B080BEB8909ADB29D42CC
:1038280004D9D6E94C02904200D930B90AF1010A0C
:103838004FEA58080437283650E6D6F82431801A5B
:10384800984228BF18469BF8D721C31C9B08DAB1B9
:10385800D6F82811D6F83421DCF818500144C6F8F7
:103868002811D6F8301102448A42C6F83421D5D13D
:1038780096F81C11DEF83420012000FA01F122EA42
:103888000102CEF83420C9E7D6F82811029181B296
:10389800033189100391D9F8DC110D46039991423F
:1038A800D6D0029951F8221029600132F6E747F67E
:1038B800F07119423FF493AE282101FB0241C3F392
:1038C8000A13DD1CD4F8A4C2D1F85475AD10002138
:1038D8008D420ED1504D282101FB0252D2F85415C9
:1038E8001944C2F85415D2F860150B44C2F8603573
:1038F80075E6DCF800E047F821E00131E8E7D4F8A4
:10390800A4120D68C4F8A0570968C4F8A4172821A0
:1039180001FB0242C3F30A13E5E755F8042B916053
:10392800AA6B0133916072E6012084F8D601402029
:10393800A4F8D801A0F56400A0F56240374C104403
:10394800A04227D80E2262F38D23CB604FF4005398
:103958004B61009BDA060BD52F4C2E4B04F5EA7011
:10396800D3F890309847D4F8E0314FF480125A6178
:10397800009B9B060BD5284C264B04F5EA70D3F820
:1039880094309847D4F8E0314FF400125A610BB0E4
:10399800BDE8F08FA2F57400214CA0F51050A042AC
:1039A80001D80D22CFE71F481F4C1044A04201D870
:1039B8000C22C8E7A2F18C701C4CA0F54340A04231
:1039C80001D80B22BFE71A481A4C1044A04201D86C
:1039D8000A22B8E71848194C1044A0427FF670AE86
:1039E800A2F1B770164CA0F55850A04201D8082291
:1039F800A9E71448144C1044A04201D80722A2E7B2
:103A080012481044124A904294BF062205229AE7AF
:103A18000429002000000020302700203F420F002A
:103A2800DFC810002013FBFE1FD61300FF69180023
:103A380000D3CEFE3F771B00C05BB3FEBF912100D1
:103A48003FAC2700C01D6AFE3FE13300803C36FED4
:103A5800DF9C41007047704770477047F8B54FF0DA
:103A6800FF312E4A2E4C0D460023907A04280BD1A4
:103A780003F5817004EB0010C079C70704D46E1CED
:103A880010682FD088422DD30133082B02F1100281
:103A9800EBD16B1C40D0224C224F05F5817604EB0C
:103AA8000613998849B1D7F8F03233B104EB051001
:103AB80041F218029B6880589847D7F8F032A3B1B2
:103AC80004EB051C1849DF68184A41F21800002366
:103AD80001EB45215CF80000B84730B1022811D04D
:103AE8000020F8BD1D460146CEE741F29C02A358CE
:103AF800013BA35004EB06140323A3710C4B0122D2
:103B08001A70EDE741F29C02A358013BA35004EB65
:103B180006140123A371E3E70120E2E7887200207D
:103B28006C6200202049002084620020774300084E
:103B38000C73002090F91A305A1C0AD003F58172D0
:103B4800124B03EB0213DA796FF30002DA71FF23E9
:103B5800837690F91B104B1C16D00C4A01F5817125
:103B680002EB011302EB0112DB79D179C3F34503B0
:103B7800012B86BF03F1FF3303F03F03002363F3F8
:103B88004601FF23D171C376704700BF6C620020E5
:103B980012F0020C2DE9F84F884617469B4600F0B4
:103BA800C080002840F0BD80FCF728FC02209CE083
:103BB8004FF0FF32DFF8A8E19146154692460026FD
:103BC800DEF800309EF80E10984218D1002900F057
:103BD800908041F29801354662580132625006F5EC
:103BE80081710901625005F5817604EB061292791C
:103BF800042AD9D8DFE802F02B56AA56600011B380
:103C0800012911D106F5817104EB0111C979CB079E
:103C18000AD411F07E0F07D1CB0916D1DEF80810AF
:103C2800514501D2B1468A460136082E0EF1100ED2
:103C3800C6D1561C73D1691C5CD1B9F1FF3F00F0A5
:103C480085804D4656E03246EEE73546ECE717F0FC
:103C5800010212D03E4BD3F8F032002B76D03D490A
:103C68005F683D4A002301EB4521B84700286DD025
:103C780004EB06140223A37168E004EB0611F810A4
:103C880091F807E0BBF1030F60F3C71E81F807E066
:103C98002DD94FF6FF7293455B4628BF134604EBB8
:103CA80006129380BCF1000F06D004EB051000F556
:103CB80080501830FCF70AFC7A0741BF04EB061263
:103CC800D37943F00103D371FB0608D504EB06143E
:103CD800E379C3F34502013262F34603E3711D49F8
:103CE80001EB4521C8F800100120BDE8F88F134604
:103CF800D5E7354604EB051141F2980641F2180262
:103D08008850A2590132A25141F21C068A5105F588
:103D180081710901661862500022726063E71546D6
:103D2800E8E70E4941F208220C468A58002A3FF477
:103D38003FAF41F2102541F20C264D59895905FB38
:103D480002129042FFF434AFFCF758FB0020CCE796
:103D58002049002084620020ED4D00086C6200209C
:103D6800847200207FB5104D02AA0C4601A9FCF709
:103D780077FB05F59053019E18680122002303A9DB
:103D88003044FFF705FF01280BD1DDE9022329782C
:103D9800022916BF53F8223033F8123023F070434B
:103DA800236004B070BD00BF6C62002037B50446C4
:103DB800C0690D4698B10023032201A9FFF7E8FE68
:103DC800012806D1B4F92020002A0ADAFCF716FBEC
:103DD800022003B030BDE5258D54A2680AE0012019
:103DE800F7E701995201012D01EB0203F5D0022DED
:103DF800F1D0E268DA612278032A04D100221A7726
:103E08005A779A77DA77626A5A83C2F30F419982AE
:103E1800DFE77FB50E4D01AA0C4602A9FCF720FB8F
:103E280005F59053029E18680322002303A9304425
:103E3800FFF7AEFE012808D12978039B019A0229D1
:103E48000CBF23F8124043F8224004B070BD00BFF5
:103E58006C620020034B1B78032B0CBF80204FF4AF
:103E6800807070476C62002008B50B4A68B18168A1
:103E780011B10723937008BDFFF7ECFF0423C2E9D3
:103E88000100C2E903111175F4E741F2B4110123ED
:103E980053545370EFE700BF6C62002008B5FFF77A
:103EA800D9FF034A41F21023D3585843400208BDB2
:103EB8006C6200202DE9F04F0E4685B0174602A926
:103EC80001AA80463068FCF7CBFA374A0299136892
:103ED80001EB0309019B013BDD19FFF7BBFF3368C9
:103EE800ED1A0544A2F5905AB5FBF0F54D44336838
:103EF800BB42A5EB090103D3012005B0BDE8F08F53
:103F0800DDF804B00BEB0702D21AFFF7A3FF8242D9
:103F1800044643D214460B220B46484603A9FFF732
:103F280037FE0128E9D19AF8000032680399019B0D
:103F3800022802F101022ED1A34223D33368019A49
:103F48009B1A2344B8F1010F336016D1BB4214D138
:103F58009AF80030022B0BBF04F1004404F18044AE
:103F680004F1FF3404F1FF340BBF4FF6FF734FF039
:103F7800FF3321F8143041F82430002309F10109F6
:103F88000193B4E721F8132001330132D4E741F853
:103F9800232001330132A342F9D3CFE7BBF1000F4D
:103FA80014BF0B220A22B7E76C7400202DE9F743EF
:103FB8000029DFF808813F4E044614BF0227002776
:103FC80094F83C30042B66D8DFE803F02403313B37
:103FD8005A00DFF8EC9098F80030206B032B4AD198
:103FE800484594BF00250125002D42D101A9FFF7BE
:103FF800B9FE01285AD12946206BFFF70AFF01288C
:1040080054D1019B23633268013B934294BF3360D0
:104018003260E0E739462046FFF7C8FE012803462C
:104028003BD1626B02B1022384F83C30C8E7626B73
:1040380004F130010020FFF73DFF01282DD10323B3
:10404800F2E71D48E26A036802609A1AC36F534395
:1040580050F81C2C5B021A4440F81C2C50F8182C01
:10406800134440F8183C00212438FFF79FFE01282C
:1040780013D10423D8E785B24FF6F7739D42B0E712
:1040880094F82830042B04BF002384F82830A36B4D
:104098000BB120469847012008E0022806D194F881
:1040A8002830042B02D1002384F8283003B0BDE85F
:1040B800F08300BF80740020007400206C62002030
:1040C800F7FFFF0F2DE9F0412C4E044600F13008B0
:1040D80006F1240794F83830032B4CD8DFE803F0B6
:1040E8000229313A39682161FFF7D8FEE368244D87
:1040F8001844E060FFF7AEFE08443860FFF7CEFED4
:104108002B68181A2860FFF7C9FE6B68181A6860D0
:104118002163FFF79FFEE36A0844606323B9616285
:10412800012384F83830D5E7FFF794FE081A206396
:10413800F6E700213046FFF739FE01280ED10223A9
:10414800EFE7626B41460120FFF7B4FE012805D175
:104158000323E6E700212046FFF728FE431EDBB2D3
:10416800012B06D894F82830062B04BF002384F8C6
:104178002830BDE8F0810120F0E700BFDC730020A3
:10418800E47300202DE9F04F85B00C4681461646B1
:10419800FFF760FE01AA804602A92068FCF760F9D3
:1041A80009F1FF33012B66D9019B2BB94546DFF88E
:1041B800DCB00BF5905A1BE0FCF720F9022005B0A3
:1041C800BDE8F08F2F4A1268B2B12F4908689842AB
:1041D80012D1C96F531E49020B44B3FBF1F30344D8
:1041E800B3FBF5F205FB12320AB12B449B1A23608C
:1041F8002368B342E6D32EE0DAF8003002981F466F
:1042080007440023092203A93846FFF7C1FC012807
:1042180004D043B28BB30228EAD1CFE7039A9BF8C4
:104228000030022B07D0032BC8D1019B52F8233052
:1042380023F0704302E0019B32F813302168B9F192
:10424800010FB3FA83F38CBF002001205B09984269
:1042580004D18E4213D826600320B0E7019B2B447B
:104268002944434521600193D9D3029B013302932A
:1042780000230193BCE7012599E718469FE7012031
:104288009DE700BFE4730020007400206C620020EA
:1042980070B5304D044605F10C0694F83430052B02
:1042A80012D8DFE803F00325303840492A6804F1C2
:1042B800300102320120FFF765FF012806D010F017
:1042C800FF0F01D0032811D9002070BD224A236BAB
:1042D8001168E268336002EB4122E260E26A23611E
:1042E80002B96362012384F83430D6E70523FAE77C
:1042F8004FF0FF31206BFFF78CFD0128E4D1E36A12
:104308003BB10223EFE7D4E90B01FFF782FD012857
:10431800DAD10323E7E700212046FFF747FD01280C
:10432800D2D10423DFE794F82830082B02D10023E8
:1043380084F828300120C8E794F82830074A082B69
:1043480004BF002384F8283041F2B5130121D15469
:104358000220BAE7747400207C7400206C6200208C
:1043680010B5044608B9FCF749F8204610BD38B521
:10437800164C002304F87A3954F80E0C88421ED1E2
:10438800207803281BD1124C03F581754AB941F2F4
:104398009C0204EB05150423AB71A3580133A35009
:1043A80038BD04F1180101EB4323D31A5842584190
:1043B80004EB0514FFF7D4FF0123A371F0E70133E1
:1043C800082B04F11004D7D1EAE700BF0C730020D2
:1043D8006C620020030770B50C46154611D541F2F2
:1043E80094130A4AD6580134A64234BF002001204B
:1043F800FFF7B6FFA64206BF00232B602C60012002
:1044080070BD20461146BDE87040ABE46C620020E8
:104418004368F7B5C3F308020A44B2F5007F0446BF
:104428000D4603D21D44656001202EE0FFF782FB94
:104438000378022B01D16368F4E7164B41F210228E
:104448009E587602AE4222DB41F2182247689B58FA
:104458001F407B42AB421ADCEB19B34210D301690F
:10446800007E01AAFFF7B6FF012810D12369636116
:10447800019B236163683344DB1BAD1B63603D44D0
:104488002046FBF7C7FF0028D5D003B0F0BD0020B9
:10449800FBE700BF6C62002070B504460E46154667
:1044A800FFF7B6FF20B10DB12046A847012008E06C
:1044B80094F82830022023B9C4E90B5684F8280060
:1044C800184670BDD0E9013210B59A422CBF8260FF
:1044D8008360FFF72FFB0022436A42610361426059
:1044E8001146BDE81040D7E710B51A4C04F58F53B4
:1044F8000146187860BB49B191F828202AB94422AE
:10450800A3F1280037F058F9012010BD44221248C1
:1045180037F04AFB41F2D2134FF6FF72E25241F2F2
:10452800D0130322E25423780B48022B41F2B8132C
:1045380008BF0222E25441F21C23E25841F2DC1384
:10454800E25041F2D1131022E254FFF7BBFFDBE740
:104558000020DAE76C620020247400202DE9F04F77
:104568004668DFF894A185B0044689461746C6F325
:1045780008064FF00008BFB1C6F5007594F91AB0E7
:10458800BD4228BF3D46BBF1FF3F204610D0FBF798
:1045980079FF544B41F2180203EB0B118A589042F1
:1045A80000F09A80FBF72AFF404605B0BDE8F08F7F
:1045B800FBF730FF20B3237E94F828101A0771D533
:1045C8000629F1D0FFF76AFC474B1B68984205D9CA
:1045D800444A41F2B5130121D154E5E7434B1B7816
:1045E800002BE1D10029DFD1062384F82830636944
:1045F80084F83810E3622046FFF764FD0128D3D120
:104608002046FBF73FFF6368C3F308028346002A8E
:104618005ED123F4FF7121F00101A26801F5007158
:1046280091422CBF06210721227E02F00C020C2A9F
:1046380050D10193FFF732FC019B013800EA0302D5
:10464800FFF708FCDAF800304343A3EB52230A468D
:10465800584603A9FFF79CFA0128A5D10398FBF750
:1046680049FFA076039800289ED02A464946304440
:1046780037F0A2F8002229462046A844FFF70CFF8D
:10468800002891D0237E1B0708D5194B20691B6889
:1046980098422CBF00200120FFF762FE7F1BA9442F
:1046A800002668E7114B1B78002B7FF47DAF0029AB
:1046B8007FF47AAF082384F828306369E3620D4BEE
:1046C80084F834101B6823632046FFF7E1FD95E763
:1046D8000721A9E70023BAE7183303EB4B23039319
:1046E800C0E700BF6C620020E47300202174002042
:1046F80000740020807400207C74002070B503785A
:10470800023B012B04461CD8237E990623D420465D
:10471800FFF710FA237E1A070AD51F4E41F29815A3
:10472800705DC31F58425841FFF71AFE00237355A6
:104738000023237084F82830E36A5BB1BDE8704039
:104748001847037E13F0060FDED00121FFF72EFB7A
:104758000128D9D070BDE2691049002318014058DA
:10476800824211D10C4903F5817201EB0213DB7906
:10477800C3F34503012B0BD8002301EB0212D179B7
:1047880063F34601D171C2E70133082BE6D1BEE7D6
:10479800013B03F03F03F0E76C62002084720020C5
:1047A80010B580B1027872B190F828206AB9D0E9C2
:1047B800012494422CBF84608260032280F8282060
:1047C800C162FFF79BFF012010BD0020FCE72DE927
:1047D800F743DFF82081044608F1080994F83830D7
:1047E800032B00F28280DFE803F002106F78204686
:1047F800FFF74EFD012802D184F83800EEE70228C1
:1048080073D1032384F83830E8E723786568022BEE
:1048180018BFD9F80030204618BF1D40FBF732FEFC
:10482800C5F34F2506462D1A0023022201A930465A
:10483800FFF7AEF9AF190128BFB257D14FF4007294
:104848000021019837F0B0F9E3691BB363680BBB2B
:10485800019B4FF020322E211A605A601970C3F85C
:104868000720606A5883C0F30F4C102083F820108B
:1048780083F82110D872C3F82220C3F8262083F8C1
:104888002A20E26BA3F814C0C2F30F4199865A8715
:1048980083F82B00D8F800104B1E9F4208D24FF423
:1048A80000712046FFF7B4FDFFF75AFD0136BBE75C
:1048B800C1EBC151490201F500712046FFF7A8FD7F
:1048C800FFF74EFD02239DE7002384F82830236C70
:1048D8000BB120469847012008E0236C002084F89B
:1048E800280003B19847022000E0002003B0BDE88B
:1048F800F08300BF7C740020B1F904300F2B2DE940
:10490800F34104460D4616460BD14FF40071FFF7EC
:104918007FFD18B9002002B0BDE8F0814FF6FF73A3
:10492800AB802046FBF7AEFD94F91B20531C0746CD
:1049380011D01F4B41F2180103EB021041588F426E
:1049480030D0FBF75BFD2046FBF764FD0028E1D083
:104958000023336024E02046FBF75CFD80460028F6
:10496800F1D1381C18BF0120FFF7FAFC4346112289
:1049780001A93846FFF70CF90128E4D10198FBF7A3
:10498800B9FDE076019A002ADDD0AB8801331BB26D
:10499800AB8002EB431333602046FBF773FD2860BE
:1049A8000120B8E7183303EB42230193EAE700BF7D
:1049B8006C6200202DE9F041914D86B0044605F166
:1049C800280694F83030042B11D8DFE813F01300D0
:1049D80005005400CF00150104F11C0801AA414646
:1049E8002846FFF789FF01280ED002283ED006B0DE
:1049F800BDE8F0812846FFF765FD4FF6FF73238475
:104A0800012384F83030DCE7019F0FB13B7863B9AC
:104A18002846FFF78FF8237ED9062AD5FFF752FDDF
:104A28004FF6FF7323840223EBE70B2204F13101D5
:104A3800384637F0E6F80028D0D1BA8A7B8B43EAAB
:104A48000243704A63621268FB69A3605202B3FBB7
:104A5800F2F102FB113109B113445B1AE360FB7AEE
:104A680063762846FFF766F80323CAE72846FFF768
:104A780061F80423C5E73378002BB8D1624FA7F15A
:104A8800380801AA04F11C015D48FFF735FF012829
:104A98004BD1019878B30378E52B01D0002BF0D1E6
:104AA800FBF728FD594F07EB0010FBF70FFD07F543
:104AB800D070FFF73FF820220021019837F074F8F2
:104AC8002346019A53F8311F1160596851601989BA
:104AD80011819B7A9372019B627EDA7203A833F08C
:104AE800E4F8019B20BB6FF07E021A7447225A74C7
:104AF8009873D87335E02B78022BBAD03278002A15
:104B0800B7D109233370424B3A70C3E9002253F8F6
:104B1800281C03F8082C1A6A43F8101C43F80C2CBC
:104B28004046FFF754FE0128ABD00228A1D05EE72B
:104B38009DF80E109DF80F2042EA4112BDF80C10A6
:104B4800A1F2BC7142EA41221A829DF810209DF818
:104B58001110D20242EA41129DF8121042EA5102A3
:104B6800DA811A8A1A83DA89DA827DE7237E9A063D
:104B780008D50023112202A9E069FFF709F80128E6
:104B88007FF435AF2046FFF79DFC2269237E8AB962
:104B98001B0708D51F4A41F29813D15C00297FF4FE
:104BA80026AF0721D154002384F82830E36A204631
:104BB80098471CE703F0F70113F004032176E26A33
:104BC80007D0002384F82830A1682046FFF764FC4A
:104BD8000DE71229E7D1A263626A84F83C30042108
:104BE80084F82810C4E90B2263636362C4E90233C2
:104BF8002046FFF767FCFAE600202070E36AD7E753
:104C0800247400207C7400205C74002084720020CE
:104C1800607400206C6200202DE9F341037804469B
:104C28006BB190F82830013B082B08D8DFE803F077
:104C3800050A48584B5C075F6200FFF7BBFE02B0ED
:104C4800BDE8F0812D4B456841F210229E5841F293
:104C5800182276029B581D40216B204605EB01085F
:104C6800FBF7D8FB4645074624D870B1D4E9013292
:104C78009A422CBFA260A360002384F82830E36A1C
:104C8800002BDCD020469847D9E701AA2169207E6D
:104C9800FFF7A0FB0128D2D123696361019B23613F
:104CA800636833445B1B6360236B9B1B1D44256354
:104CB8003D46D1E763680028D8D10B446360D5E747
:104CC800FFF71CFDBBE70121FFF770F90128B6D1FA
:104CD800002384F82830216C2046FFF761FDAEE7F9
:104CE8000021FFF763F9AAE7FFF7ECF9A7E7FFF759
:104CF800CFFAA4E7FFF76BFDA1E700BF6C620020C5
:104D0800F8B504460D461646002144221F4636F0E3
:104D18004BFF4FF6FF736383012384F8283027760F
:104D28002E49284635F086F928BB2D4B41F2DC1276
:104D38009A58626241F2C4129A58E26003F58E52A0
:104D48001268A26041F2D1129A5C627641F2B812FE
:104D58009B5C2370069BE3622049284635F06AF97C
:104D680000280CBF03230023204684F83030FFF7C7
:104D780021FE2046F8BD04F1310304F139002A462A
:104D88002027117809B12E2916D11F7001338342CB
:104D9800F7D111782E2908BF013204F13C002027F1
:104DA800117891B91F7001339842F9D1F3066676EC
:104DB8004CBF03230123CCE7A1F1610CBCF1190F0F
:104DC80098BF203919700132E0E7A1F1610CBCF1FC
:104DD800190F98BF203919700132E4E7C653040847
:104DE8006C62002038B5134C0023A07BE0B1256825
:104DF8008D4219D1104C03F581751AB904EB0514CD
:104E0800A27138BD04F1180101EB43239A4209D17C
:104E1800831E5842584104EB0514FFF7A1FA0123F9
:104E2800A371EEE70020F6E70133082B04F1100424
:104E3800DBD1E6E7847200206C620020034BD3F8D4
:104E4800F00208B1C3691847704700BF2049002025
:104E5800034BD3F8F00208B183691847704700BFC5
:104E68002049002008B5064BD3F8880028B132F055
:104E780073F880F00100C0B208BD0120FCE700BF54
:104E88003816002010B5FFF7EDFF0D4C18B90023B8
:104E980084F85C3010BD94F85C30032B03D90021F2
:104EA800606B32F097FA94F850300133DBB2072B7D
:104EB80084F85030EBD8D4F8243AE3640123E7E7C8
:104EC8003816002070B51B4C94F85C30042B05464E
:104ED8000E4610D1FCF706FA00213720FCF708F936
:104EE80031461720FCF704F988B1FCF793F9FFF76E
:104EF800C9FF032002E0082B01D0012070BD636DBB
:104F0800834212D0FCF7AEF80228F6D1E2E794F813
:104F1800523063B969021920FCF7EAF80028E4D195
:104F2800C4E91556082384F85C300220E6E72946D0
:104F3800F1E700BF381600202DE9F743254E054656
:104F48000F4691469846344696F85C30042B0AD0B2
:104F5800082B06D1736DAB4219D0FCF783F80228F1
:104F6800F2D001200EE0FCF7BDF996F8523063B993
:104F780069021820FCF7BCF848B1FCF74BF9FFF7B9
:104F880081FF032003B0BDE8F0832946F1E794F8D8
:104F98005C30606B082B0CBFFC23FE23FF228DF8CE
:104FA80004208DF8053001AA0223002132F0F0F91F
:104FB80080233A460021606B32F0EAF9012384F835
:104FC80040300623C4E90E75C4E9119884F85C30B2
:104FD8000020D7E7381600202DE9F043BC4C606B61
:104FE80085B0002800F09381BA4D04F1780694F852
:104FF8005C30013B082B00F27581DFE813F00900F3
:105008003F00C70073018F01170155017301BD01EE
:10501800FCF768F900210846FCF76AF88046FCF7B7
:10502800F9F8B8F1010F40F05D81002784F851705C
:10503800FCF758F940F2AB110820FCF759F805289D
:105048000CD184F85180FCF7E5F894F85130002B26
:1050580000F03A81022384F85C30C8E70128F2D1D5
:1050680004233A466946606B32F092F99DF80330A2
:10507800AB2B04BF022384F85130E4E7FCF732F984
:1050880094F85130022B0CBF4FF0804700270021C5
:105098003720FCF72DF839462920FCF729F8074670
:1050A800FCF7B8F8002F40F01D8194F85130022B1E
:1050B80038D1FCF717F939463A20FCF719F80423D8
:1050C80080463A466946606B32F062F9FCF7A2F80E
:1050D800B8F1000F02D0FFF7D5FE88E7009B1BBA96
:1050E800C3F3807384F85230FCF7FCF800210920E0
:1050F800FBF7FEFF98B910213046FBF7D9FF804631
:1051080068B901217F20FBF759F80128074606D125
:1051180002214046FBF752F838B101282BD0FCF7A2
:1051280079F8DFE084F85270DEE704212C20FBF7E1
:1051380045F8032181464E20FBF740F80C218046B4
:105148003620FBF73BF808F10208013000FA08F0B6
:1051580007FA09F7A0FB0701430A43EAC15323668C
:10516800FCF758F8FCF7BEF800210A20FBF7C0FF4F
:1051780048B903236FE716213A20FBF71FF80130DF
:1051880080022066ECE7FCF745F8A4E710216846A2
:10519800FBF78EFF002840F0A5809DF800309DF8B1
:1051A800012084F866309DF8023043EA0223A4F80F
:1051B80064309DF8033084F86730019BA3669DF83E
:1051C80008301A0903F00F0384F87130DDF809304C
:1051D80084F870201BBAE3669DF80D309DF80E2008
:1051E8001B01DBB243EA121303F5FA6302F00F0264
:1051F800A4F8723084F87420FCF70CF894F8523054
:1052080063B9FCF76FF84FF400711020FBF770FFDB
:105218000746FBF7FFFF002F7FF45DAF0221606BAD
:1052280032F0D8F80023A365042314E794F840105B
:10523800A26B606B802302EBC112002132F0A8F848
:1052480094F840300133DBB2042B84F8403049D164
:1052580002232A460021606B32F09AF801230022CB
:105268006946606B32F094F89DF8003003F01F0334
:10527800052B0DD10723656C84F85C30D4F8243AEB
:10528800E3647DB3D4E90E21A36C0120A84729E08B
:10529800FFF7F8FD676C002F3FF4A9AEA36CE16B34
:1052A80000220120B847A2E6FBF7AEFE00286AD02C
:1052B800002384F85030A36D012B0DD9013BA36561
:1052C800636D01336365082384F85C300AE000BF2E
:1052D8003816002003E203081CD1FBF7C3FE02289E
:1052E8003FF41DAF94F85C30013B022B07D8D4F88B
:1052F800243AE26C9B1AC82B01D9FFF7C3FD94F836
:105308005C00042847D0A0F108035842584105B072
:10531800BDE8F083042384F85C3000E74FF40071A3
:10532800A06BFBF7C5FE01281FD047B277B1022852
:10533800D8D1FBF76FFFFFF7A5FD676C002F3FF48F
:1053480056AE0022A36CE16B1046ABE7FBF762FF99
:10535800656C84F85070042384F85C30002DC1D04B
:10536800A36CD4E90E21384690E7E36CD4F8242ADC
:1053780064339342DDD3B5E7FBF746FE18B1FBF77C
:1053880049FF0423A0E7E36CD4F8242AFA339342B4
:10539800FFF4A1AEA6E70120B9E7F0B51E4C94F8DA
:1053A8005651C3B006460F46002DFDD1012384F89F
:1053B8005631FBF7D9FFFF2E4FF0090388BFB50818
:1053C8008DF804308DF8056088BF05F0C00501AB85
:1053D80000224FF00A0C0B2645EA0201B85C83F85C
:1053E80002C00132362AD9701E71587103F10403C4
:1053F800F2D14AF20803ADF8DE3001AADC2300211D
:10540800D4F8500131F0C4FFFDF7AEF9002384F859
:10541800563143B0F0BD00BF30270020F8B51D4C11
:1054280094F8563105460F46002BFDD1012384F828
:105438005631FBF799FFEAB206460921D4F8500124
:1054480031F0E2FEB5F5807F05D140220A21D4F87B
:10545800500131F0D9FE50220821D4F8500131F022
:10546800D3FEFDF781F90025EAB20A21D4F85001EC
:1054780031F0CAFE7A19C021D4F85001013531F053
:105488005EFE362DF0D10EB9FBF76EFF002384F8CF
:105498005631F8BD302700202DE9F04F6E4B6F4E86
:1054A80093F85811A9B00A23002002930246034634
:1054B8000DF114094FF0050A4FEA521E674D02F02C
:1054C8001F0205EB8E0C4FF0FF3455F82E5004FAEE
:1054D80002F707EA050292FAA2F2B2FA82F2D2B20F
:1054E800202A6ED002EB4E125D4D05EB4205C2F349
:1054F800072CB5F830E34FEA1E245FFA8EF50194C5
:1055080015F0040F09EB03040394D7B201F0400B24
:1055180003F1010403F1020870D0BBF1000F08D1B8
:105528000398042341F04001037009F8041043462E
:10553800012028AC04EB030EAD004FF006040EF872
:105548008A4C0EF8875C0EF8844C03F10B0528ACE6
:105558004CF0020825440EF88B8C019C0EF88CAC9C
:105568004FF007080EF8897C0EF8888C0EF886AC88
:105578000EF885CC0EF8837C0EF8828C0C3305F877
:105588008C4C4FEA521C012502F01F0705FA07F759
:10559800029C56F82C50013C25EA070546F82C5089
:1055A800029456D110B12C4A82F858112A4805AAFB
:1055B8000021D0F8500131F0EBFE012029B0BDE800
:1055C800F08F0CF1040C274A944567460ED20CF173
:1055D800040C3D6895FAA5F5B5FA85F2D2B2202AF1
:1055E800F1D0BF1B12EBC7027FF57EAF10B11A4A8C
:1055F80082F85811002BD9D11846DFE7BBF1000F0C
:1056080003D101F0380BAB450BD021F0780103989A
:1056180041EA0E010423C9B2037009F80410434695
:10562800012028ACE5184FF0060405F88A4C4FF025
:10563800070405F8897C05F8884C5F1D28AC2744C9
:10564800019C05F88CAC05F88BCC063307F88C4C1C
:1056580097E7013230E700BF30270020144C0020C4
:1056680020490020504C0020F7B5234C94F85631BF
:10567800002B3FD101230DF107028421D4F85001FA
:1056880084F8563131F05BFD94F85821D4F8500174
:1056980042F00402042131F0B7FD0DF10702842124
:1056A800D4F8500131F04BFD9DF8073013F0040594
:1056B800F3D13C222946114884F85831104E36F06F
:1056C80073FAA6F13C0736F8023B1A0A22F02002C8
:1056D80003F00403134303D02946384633F05CFB38
:1056E8000135B5F5F07FEED1FFF7D6FE0028FBD1E6
:1056F80084F8560103B0F0BD30270020144C002078
:10570800504C002013B5234CD4F8500100283FD04A
:1057180094F85431012B14D0022B14D00DF103024C
:10572800A02131F00CFD9DF8033003F00503012B97
:1057380007D04BB1184BD3F8242A40F2DC539A42D5
:1057480026D9402300E0002343F0080384F85731AA
:105758008DF8053040F20443ADF8063004230DEB14
:1057680003020021D4F850018DF8041031F010FE26
:105778003C22FF21094836F017FA94F855313BB915
:10578800D4F850310BB1FFF76FFF012384F855317E
:1057980002B010BD3027002038160020144C00201D
:1057A8000348D0F8C83213B100F52F701847704776
:1057B800000000200348D0F8A43213B100F5267089
:1057C80018477047000000200348D0F8803213B112
:1057D80000F51D7018477047000000200348D0F8F6
:1057E8005C3213B100F514701847704700000020B0
:1057F8000348D0F8383213B100F50B7018477047DA
:10580800000000200348D0F8143213B100F50270EC
:1058180018477047000000200348D0F8F03113B152
:1058280000F5F27018477047000000200348D0F8D0
:10583800CC3113B100F5E070184770470000002024
:105848000348D0F8A83113B100F5CE701847704757
:10585800000000200348D0F8843113B100F5BC7073
:1058680018477047000000200348D0F8603113B192
:1058780000F5AA7018477047000000200348D0F8C8
:105888003C3113B100F598701847704700000020AC
:105898000348D0F8183113B100F5867018477047DF
:1058A800000000200348D0F8F4300BB1E830184766
:1058B800704700BF000000200348D0F8D0300BB17B
:1058C800C4301847704700BF000000200348D0F8D4
:1058D800AC300BB1A0301847704700BF0000002063
:1058E80010B531F06DFA044620B140F21623C3809A
:1058F800002303722046012133F0F4FE20460021E4
:10590800BDE8104031F020BB10B5064C0648D4F86D
:105918000C17FCF741F8D4F824170448BDE81040E8
:10592800FCF73AB82049002000040140002000405C
:1059380010B5064C0648D4F80C17FCF72DF8D4F827
:1059480020170448BDE81040FCF726B8204900207D
:1059580000040140001C004010B5064C0648D4F86D
:105968000C17FCF719F8D4F81C170448BDE81040C8
:10597800FCF712B82049002000040140001800403C
:10598800024B0348D3F80C17FCF706B8204900204F
:1059980000040140024B0348D3F80017FBF7FCBF93
:1059A80020490020000C0040024B0348D3F8FC16A5
:1059B800FBF7F2BF2049002000080040024B0348D3
:1059C800D3F8F816FBF7E8BF204900200004004090
:1059D800034B4FF08040D3F8F416FBF7DDBF00BF50
:1059E8002049002010B5064C0648D4F8F016FBF7FD
:1059F800D3FFD4F818170448BDE81040FBF7CCBF14
:105A080020490020000001400048014010B5064C24
:105A18000648D4F8F016FBF7BFFFD4F8141704486B
:105A2800BDE81040FBF7B8BF204900200000014046
:105A38000044014010B5064C0648D4F8F016FBF7B0
:105A4800ABFFD4F810170448BDE81040FBF7A4BF1B
:105A5800204900200000014000400140024B03485B
:105A6800D3F8F016FBF798BF20490020000001404A
:105A78000B4B984212D003F5806398420ED003F581
:105A8800705398420AD003F58063984206D003F514
:105A9800806398420CBF01200220704701207047A4
:105AA800000001400268137D012B04BF0223137517
:105AB80092F82C100CBF4FF400730023012904BF87
:105AC800022182F82C1092F8441008BF43F4806336
