:020000040800F2
:100000000000011025B703086389030829EC0108E3
:10001000E1B70308E1B70308E1B7030800000000F7
:1000200000000000000000000000000061890308DB
:100030005F890308000000005D8903089F15000820
:10004000E1B70308E1B70308E1B70308E1B7030824
:10005000E1B70308E1B70308211B0008311B0008C2
:10006000E1B703082D1B0008291B0008AD0B02088F
:100070009D0B02088D0B02087D0B0208690B02081C
:10008000550B0208410B0208E1B70308E1B703086A
:10009000E1B70308E1B70308E1B70308251B00082F
:1000A000150D0208ED0C0208C50C02083D0D0208F2
:1000B000B10C02089D0C0208890C0208E1B7030884
:1000C000E1B70308E1B70308E1B70308E1B70308A4
:1000D000E1B7030891150208E1B703088515020886
:1000E0001D1B0008E1B703081DA70308390C02080F
:1000F000110C0208E70B0208610C02082D0B020824
:10010000E1B70308E1B70308750C0208E1B703087B
:10011000E1B70308E1B70308E1B70308E1B7030853
:10012000190B0208050B0208F10A0208DD0A020891
:10013000C90A0208E1B70308E1B70308E1B70308F9
:10014000E1B70308E1B70308E1B70308CF83030869
:10015000B50A0208A10A02088D0A02087B150208E6
:10016000E1B70308E1B70308E1B70308E1B7030803
:10017000E1B70308E1B70308E1B70308E1B70308F3
:08018000E1B70308E1B7030831
:100188000E4B03F1140130B50A46044653F8045BDC
:1001980044F8045B8B42F9D1084B00F1140153F881
:1001A800044B41F8044B9342F9D1044B283053F8DF
:1001B800041B40F8041B9342F9D130BD08EA030838
:1001C80020B10078B0FA80F04009704701207047EC
:1001D8000079400970470079C0F3401070470079F2
:1001E8007047436A8269D154436A02690133934272
:1001F80028BF0023426B4362D36843F08003D36077
:1002080070470346026A4169885CD96801328A42AC
:1002180028BF0022C0B21A627047D0E90902131A37
:10022800584258417047D0E9092300699A4238BFBB
:100238001218D31A0138C01A7047D0E907239A4216
:100248002FBFD01AC0688018C01A7047434B30B50A
:100258005C68186D9A688C4208440BD993F858402A
:10026800002C78D000F5803082422AD3C2F5803243
:1002780002440AE08242F9D293F85840002C14BF95
:100288004FF480340024821A121BDA60C3E901108B
:100298000022D96883F8582040F68C2291423ED932
:1002A8001A7893F955108A4250B21ED1111F0C29A1
:1002B8001BD893F85610182906D8013183F8561020
:1002C80004E04FF48034DEE783F8540093F95410C7
:1002D8008A4202D193F85710D1B9012283F85720E6
:1002E80083F8550000221A7030BD0021E6E703EBC1
:1002F80081052D6924F8115001318A42F7DC18492B
:1003080000240F2A07DD17490A7801320A70E4E74A
:100318000021134CF1E721F812400132F1E793F87C
:100328005720002AE0D0A1F2EF2040F2DA529042A2
:1003380007D81A780F2A04D8101D013243F8201064
:10034800D1E7002283F85720104699180432402A32
:100358000861FAD1C8E7824295D387E78472002002
:10036800A26B0020A06B0020064A136D01330B44DA
:1003780013654FF6FF73994204BF012382F8583082
:10038800704700BF84720020024B1B685B0500D5D4
:1003980021E0704770020010034B53F820300BB176
:1003A8009B681960704700BF3C280020044B03EB92
:1003B800C00040F2FF739942A8BF19468180704778
:1003C800CC79002070470120704701207047012038
:1003D80070470120704770B50F4C05460E46002245
:1003E8000023D4E900013AF0EFFD20B108A3D3E9D6
:1003F8000023C4E9002330463AF014FBD4E9002373
:100408003AF0A4FC3AF028FE04EB4504208170BDC4
:10041800ABAAAAAAAA461040A81700200E4B9842D9
:1004280013D0A3F57843984211D003F5806398421E
:100438000FD10223094A142101FB03231A8A01322E
:1004480092B21A82188A80B270470023F2E7012319
:10045800F0E74FF0FF30704700300140B012002045
:10046800F8B584894FF6FF764FF47A740BB90120FA
:100478001CE082B1157801320789BF070DD5ADB2EE
:1004880085814FF47A740589ED0710D4013CA4B234
:10049800B442F8D105E0FF25EEE7013CA4B2B4422E
:1004A800EAD1FFF7BBFF003018BF0120F8BD8589EE
:1004B800ADB209B10D700131013BD7E708B540F283
:1004C800E933028992070BD589B2818140F2E93379
:1004D8000289D2070CD4013B9BB2002BF8D103E070
:1004E800013B9BB2002BECD1FFF798FFC0B208BDCF
:1004F8008089FBE730B5084B08498B4200D330BDF3
:100508005A88140406D55D68DC68C2F30B0200FB48
:10051800025222601433F0E758DF040854E3040859
:10052800024610F8013B202BFAD0092BF8D0013AEB
:1005380000200A2112F8013F303BDBB2092B02D818
:1005480001FB0030F6E7704730B50278202A0346F1
:1005580000F10100F9D0092AF7D02D2A4BD1034622
:10056800BFEE000A9FED3C7A1A46F2EE046A134683
:1005780012F8010BA0F13001CCB2092C41D92E2878
:100588000BD1F2EE046A1146B0EE666A0B4611F81A
:10059800012B303AD0B209283CD91A7802F0DF0290
:1005A800452A53D15A782D2A3FD102330120013BE5
:1005B80000220A2513F8011F3039CCB2092C3AD988
:1005C800B2F59A7F1346DFED256A28BF4FF49A7378
:1005D8001A46F7EE007A072A30D8DA086FF00701D2
:1005E80001FB0233F2EE046A63BB88B3C7EE276AE5
:1005F80020EE260A30BD2B2A08BF0346B7EE000AB4
:10060800B0E707EE901AF8EEE77AE7EE267AB0EE52
:10061800677AACE707EE902AF8EEE77AC7EEA65AB3
:1006280066EE866A37EE257AB0E72B2A14BF0133C7
:1006380002330020BBE705FB0212BBE767EEA67A90
:10064800083AC8E767EEA67A013BCDE7F7EE007AED
:1006580067EE276ACCE700BF0000000020BCBE4C54
:1006680003685A1C02601970704703685A1C0260BC
:100678001970704703690133012B036106D1002308
:1006880080ED010A80ED000A8360704790ED006AF2
:1006980007EE903A70EE466AF8EEE77A86EEA77AA9
:1006A80077EE067A90ED027AC0ED017A30EE670AAD
:1006B800C0ED007AA6EE807A80ED037A80ED027AAA
:1006C8007047D0ED006AD0ED057AE6EE807AB0EE9C
:1006D800407AB0EE670AD0ED037AD0ED016A67EE92
:1006E800C07AE6EE877AD0ED066A77EEA67AD0ED84
:1006F800026AC0ED057AD0ED047A67EEC07AE6EEBC
:10070800877AC0ED067A7047D0ED026A90ED017ADB
:10071800D0ED007A36EE877A30EE670A86EE876A81
:10072800E6EE007AB0EE670AC0ED007A70477047CF
:1007380043230B80004870470000002010B5064C8A
:10074800606CFF2806D005498A6A2C3135F0D9FF3C
:10075800FF236364002010BD00000020A8170020BC
:1007680008B5D0F8E4355B6A9847002008BD08B59D
:10077800D0F8E4351B6A9847002008BDD0F8E43566
:1007880010B504461B689847D4F8E8359B68984725
:10079800002010BD08B5D0F8E435DB6903B19847EF
:1007A800002008BD08B590F8123180F813310423F1
:1007B80080F81231D0F8E835DB689847002008BD8A
:1007C80010B5D0F8E83504461B699847032384F828
:1007D8001231002010BDF0B54B784C69012B27D1A0
:1007E80082691568136914B964F3060305E08E6815
:1007F800A642F9D24E6166F3060343F4002313615F
:10080800C478012C05D10B780E6900EB83039B6932
:100818005E6145F00445156044B94B6933B102691E
:100828000978506B01238B40034353630020F0BDCC
:100838000B788F6800EB830307F07F065A6D156805
:1008480013696CB966F3060343F400231361C37894
:10085800012B04BF0B69536145F004451560E5E7BA
:100868004F61EFE72DE9F04191F801E00D784B6910
:10087800CE78BEF1010F4FD100EB850CDCF8187073
:100888003A683C6963F3120493B96EF3DC443C6143
:10089800C478012C1BD10D697D61012E25D1006919
:1008A8008068C00554BF42F0005242F080521CE0FC
:1008B800D1F8088008EB030E0EF1FF3E012EBEFBB7
:1008C800F8FE6EF3DC4408BF66F35E74DFE7012EC2
:1008D800E5D053B1D0F810E00120DEF8348000FAFA
:1008E80005F545EA0805CEF8345042F00442012ED9
:1008F8003A6009D144B99BB20333C968DCF8D00027
:100908009B102246934202D10020BDE8F08151F8A5
:10091800224004600132F5E700EB8505D1F808C0F4
:100928006F6DCCF312053A683C69A3B965F31204FC
:10093800012363F3DC443C61C378012B04BF0B69DA
:100948007B61012E03D14B79A3B142F0005242F0F2
:1009580004423A60D8E76344013BB3FBFCF3C3F3BA
:10096800090363F3DC446B43C3F3120363F3120418
:100978004B61E0E742F08052E9E730B50B784978FF
:1009880001229A4000EB830301294FF000052C4611
:100998000CBF9B695B6D92B20CBF62F30F0462F3EC
:1009A8001F446FF3CF3502691D60D36923EA04033E
:1009B800D361002030BD40F2011310B500F5A271DB
:1009C8000446A0F84431FFF7D8FF0123A4F89C336C
:1009D80004F567712046FFF7D0FF4FF48173A4F840
:1009E8006C3104F5B6712046FFF7C7FF35F0CAFE33
:1009F800002010BD0B7830B501224D789A4000EBED
:100A08008303012D0CBF9D695D6D2B6892B24FF079
:100A180000040CBF62F30F0462F31F441A040DD4E0
:100A28008A6862F30A03CA7862F39343CA8862F356
:100A3800995343F0805343F400432B600369DA6908
:100A48001443DC61002030BD70B500254026044603
:100A5800A0F87453C0F87C6380F8775300F55D7193
:100A6800FFF7C8FF4FF48073A4F81C3104F58E71AA
:100A7800C4F8246184F81F51A4F822512046FFF7D6
:100A8800B9FF012384F81231D4F8E835A0785B68FF
:100A98009847284670BD70B501F07F05282404FBEF
:100AA800050104FB05040126C4F82821C4F82C21FB
:100AB800002201F58E7184F81D6184F81C51C4F878
:100AC8003421C4F830311DB9FFF785FE002070BD10
:100AD800FFF7C8FEFAE7214B5A6B0F2A70B502F1EF
:100AE80001011D4602D05963002070BD1C49002336
:100AF8006B630B78002BF7D11A4C2268B2F5006FA4
:100B080008BF2360184B22681B689A4202D1002351
:100B18000B70E9E78CBFC2F500639B1AAB63AB6B44
:100B2800402B0ED9403B02F14006AB6301230B700A
:100B3800266040230D4911FA82F28121FFF7ABFFAD
:100B4800D2E702EB030626604FF00004AC630EBF49
:100B5800022401249BB20C70ECE700BFA817002008
:100B68003094002014940020189400203194002020
:100B780070B518490B78012B0C4603D1164DAB6B99
:100B88005BB90B702378022B17D100231A468121F9
:100B9800FFF781FF002323700FE0104C402B2268E1
:100BA8000DD9403B02F14001AB63216040230C4961
:100BB80011FA82F28121FFF76EFF002070BD03EB6E
:100BC800020626604FF00004AC630ABF02249BB201
:100BD8000C70ECE730940020A81700201494002033
:100BE8003194002010B504461346C4F83C21C4F8DB
:100BF8003821022280F811210A460021FFF74BFF15
:100C0800002010BD70B50C46282606FB040506FB1F
:100C18000101C5F88833002385F87443C5F880239B
:100C2800C5F88C3385F87533C37806FB0404012BAB
:100C380008BFC5F8842394F8743301F55D711BB9B6
:100C4800FFF7C9FD002070BDFFF70CFEFAE738B5C5
:100C5800282303FB0101074DB1F88C1304462846ED
:100C680035F016FD40232A4601212046FFF7CAFF2A
:100C7800002038BDE41700202DE9F04140F20113AF
:100C88000446022600254FF040080127A0F8443109
:100C9800C0F84C8180F84761A0F84A7180F8485143
:100CA80000F5A271FFF7A6FE04F56771A4F89C731E
:100CB800C4F8A48384F89F6384F8A0532046FFF700
:100CC80099FE4FF48173A4F86C310823C4F8743189
:100CD800032304F5B67184F86F31A4F872612046D5
:100CE800FFF788FE064B1E715D7135F053FD4346D4
:100CF800044A39462046FFF785FF2846BDE8F081BB
:100D08009C120020E41700200E4BDA68D20310D49E
:100D1800DA68D1060FD4DA68D2050ED4DA6812F090
:100D2800E00F0CD1DB6813F0020F14BF0820092074
:100D3800704701207047062070470220704707203F
:100D4800704700BF003C024007B509238DF8073003
:100D5800FFF7DAFF8DF807009DF80730012BF7D071
:100D68009DF8070003B05DF804FB38B50A4C54F849
:100D78003030054607EE901A6BB193ED047A93ED87
:100D8800030AF8EEE77AA7EE870A3CF089F954F8E7
:100D980035309B68186038BDCC79002008B5202113
:100DA8003BF0E9FF0346184623B10278202A03F1F5
:100DB8000103F8D008BD2DE9F0410C4DDFF8308073
:100DC8002C686A69012714400CB9BDE8F081B4FAAF
:100DD80084F3C3F11F0307FA03F658F823000368E6
:100DE800984724EA06046E61EEE700BF003C014024
:100DF8007451002038B50C468D18AC4200D138BD6E
:100E080014F8011B2AF0DEF8F7E710B5032800F202
:100E1800B880DFE800F00B020DAD01390F2900F2B0
:100E2800B080594B03EBC101B1F90210084610BD5F
:100E3800102900F2A680DFE801F0091015202C30F7
:100E480033373A3D415A6072778A97000AF0C6FCF8
:100E5800FCEEC07A17EE901A01E04C4B196881F34A
:100E68000F01E3E711F0AEFE47F6FF736421B0FB14
:100E7800F1F19942A8BF1946D8E7454B1B88642170
:100E8800594340F2FF3391FBF3F16329A8BF632173
:100E9800CCE726F0ADFA0146C8E726F0F1FAFAE702
:100EA8003C4BB3F90010C1E73B4B1968BEE73B4B1D
:100EB800197ABBE7394BB3F92410B7E7374BB3F9C5
:100EC800244011F0A9FED0ED057AFDEEE77A17EE81
:100ED800903A5B4304FB043300EE103AB8EEC00AC4
:100EE8003CF036FCFDEEC07A17EE901A9EE72C4BCC
:100EF800D3ED057AFDEEE77AACE711F08DFED0ED83
:100F0800027AFDEEE77A47F6FF7317EE901A9942D8
:100F1800A8BF1946234B9942B8BF194686E711F076
:100F28007BFED0ED057AE5E71F4BB3F90610B1F566
:100F3800FA6FA8BF4FF4FA61B1F57A7FB8BF4FF4E2
:100F48007A71A1F57A710A2391FBF3F16EE7174BD9
:100F5800B3F900100A2391FBF3F111F1B40F0DDB83
:100F6800B429A8BFB42161E7104BB3F90210F1E727
:100F78000F2906D80E4B53F8311057E76FF0B3011D
:100F880054E7002152E700BF343B002000640020F2
:100F9800183C0020BC630020C0630020C863002008
:100FA800086400205A80FFFF8002001078020010B9
:100FB800CC2C00202DE9F041314D324F00262B7802
:100FC8004FEAC608002B58D0A9682879FFF71DFFFB
:100FD80029690446287BFFF718FF6B780C2B47D844
:100FE800DFE803F0380713181D242C30363A3E4446
:100FF8004800231A5C425C4147F808400136102E2D
:1010080005F11805DBD1BDE8F0818442D4BF002486
:101018000124F1E78442ACBF00240124ECE740F24C
:1010280034539C42CCBF00240124E5E7A4F2355494
:10103800B4F5A77F2CBF00240124DDE740F28263CA
:101048009C42E3E7002CD7D0041C18BF0124D3E747
:10105800002CF9D00124CFE7241A18BF0124CBE7CC
:10106800002CF7D0B0FA80F46409C5E7002CF9D059
:101078000024C1E7B4FA84F4F6E747F83630BDE750
:101088004C7A0020CC2C002070B50A7812F060044D
:1010980006460D462AD0202C2FD1CC884B78FCB19F
:1010A80012060CD522461E49184635F02AFBEA8856
:1010B8001B493046FFF796FD0024204670BD194AAB
:1010C800C0F894435364184AC0F8904303239462C9
:1010D80080F811312C3223460021FFF793FDEBE70E
:1010E80002221144184635F00CFBE6E74B780A2B30
:1010F80008D00B2B0BD0062BDFD1304635F042FE43
:101108000224DAE701220949FFF76CFDD5E78B785D
:1011180013B9054AD367CFE735F034FECDE700BFF2
:10112800D417002000000020A81700202418002051
:10113800094A537C0A2B0DD1137C632B0AD8074B21
:1011480050681B68A3F51C53103B984234BF00201D
:1011580001207047002070475C2F00202C9400204D
:101168000F4B10B51C68610702D510F09BF8A8B1A9
:10117800A20602D510F08EF880B10A4B93F8D4007D
:1011880001280AD0084B1878012801D1A30704D4F4
:10119800064B1878023818BF012010BD0120FCE763
:1011A800740200105830002060080010C4020010BB
:1011B800084A03465078C01A18BF0120022B88BF7E
:1011C80000235370044AC3EBC30302EB8303034AAF
:1011D800136070475A3C00205C740020883300205C
:1011E80070B50B4E35782D1A18BF01250328044613
:1011F80034BF044600242046FFF77CF9054B3470C1
:1012080004EB840403EB8404034B28461C6070BD84
:101218005A3C002028180020D43A002030B5013963
:10122800421E50FA81F1002012F8014F082380EA8B
:10123800040515F0010F4FEA500018BF80F08C002C
:1012480003F1FF3318BFC0B213F0FF034FEA540491
:10125800EDD19142E8D130BD70B530B34C6844B996
:10126800426815685679AB890222B24023EA020324
:10127800AB818A683AB943681D68AB8923F00103DA
:101288001B041B0CAB81816044B1446821686479FC
:101298008D890223A3402B439BB28B812AB14368DB
:1012A8001A68938943F00103938170BD2DE978484A
:1012B800214B5A68214BC2F308028AB9EFF3118215
:1012C80072B91F481F491D6886681A689542FAD185
:1012D800D1F8C0209642F6D81B4BD3E900231AE078
:1012E800EFF31182102181F3128801F1E0218E6859
:1012F800086810F4803F13481EBF0124C0F8BC40A2
:101308008E681968D0F8BC50D3B283F311880E4B9D
:10131800D3E900230D444FF47A74A2FB04BC04FB08
:1013280003CCBBEB06006CF100013AF063F8E4FB78
:101338000501BDE8788800BF00ED00E02C9400208E
:1013480010E000E0A8170020A85F002070B5784CD6
:10135800256815F0040604D00120BDE8704035F07A
:10136800D9BDFFF7FDFE734B002800F0AA8045F4B5
:101378000075256083F8C4606F4A236892F82A20B4
:10138800012A14BF43F4802323F4802323606B4B8A
:101398001B7843B925682BF099FE002800F09F8040
:1013A80045F40025256011F0BDF940B125682BF002
:1013B800B3FE002800F0968045F400052560604DD6
:1013C80023682A6812075F4A54BF43F4807323F4E2
:1013D8008073236012882368632A8CBF43F4806378
:1013E80023F480630020236012F0E9FD23680028BD
:1013F8007BD043F400632360534B1A6823681607B5
:1014080076D52968C80573D443F4805323609107BF
:10141800236870D52A6892056DD443F4005323607D
:1014280025F070FE2368002868D143F40043236048
:10143800464B187868B925682BF06EFD25F0704387
:1014480023F07F03002B5CD000285CD045F4804556
:10145800256012202BF060FD2368002856D043F445
:101468008033172023602BF057FD2368002850D0C5
:1014780043F400331B2023602BF04EFD2368002823
:101488004AD043F08073236000202BF045FD256887
:101498002F4B304A1D4244D0002844D045F48045A3
:1014A8002560216819423AD002231370FFF7FEFE27
:1014B800294B1B68C01A002838DBBDE8704028F0AB
:1014C80007BA93F8C42025F400752560002A7FF434
:1014D80053AF012083F8C40029F094FF4CE725F4AA
:1014E80000255FE725F4000568E723F4006382E739
:1014F80023F480538AE723F4005390E723F400434E
:1015080095E70028A5D125F48045A1E723F4803389
:10151800A7E723F40033ADE723F08073B3E7002394
:10152800C3E70028FBD125F48045B9E770BD00BFAB
:101538006C020010A8170020DC500020FC79002065
:101548007002001090020010740200102C0100209C
:1015580080FFFF0F7C73002080730020F8B50446DD
:101568000D46FFF7A3FE06460F46FFF79FFE821BB8
:1015780061EB0703AB4208BFA242F6D3F8BD10B532
:10158800044614F1FF3400D210BD4FF47A700021E4
:10159800FFF7E4FFF5E7EFF31183102282F31288D7
:1015A80008490A6801320A60074A08499068C1F880
:1015B800C0000020C1F8BC001268DBB283F31188B8
:1015C800704700BF2C94002010E000E0A81700200E
:1015D80008B503681B6A03B19847012008BD036872
:1015E8009B6A03B11847704703685B6A03B11847E1
:1015F800704703689B69184703685B6918470FB40D
:1016080037B50B490B48096800680B4D06AB53F812
:10161800042B019338F064FF04462868FFF7ECFFB9
:101628000028FAD0204603B0BDE8304004B0704727
:1016380000280020042800206C27002003681B696C
:1016480018470368DB68184703689B6818470368EE
:101658005B68184703681B68184708B5184B194C8E
:101668001D68A06829F0DEFC284629F0DBFCA0688C
:1016780041798B0703D441F00201FFF7BAFF00203C
:1016880035F048FCA068FFF7E2FF60B1012035F0B3
:1016980041FCA068FFF7D5FF01462846FFF7DAFFAF
:1016A800002035F037FC2846FFF7D1FF0028E9D0A5
:1016B8002846FFF7C6FF0146A068FFF7CBFFE1E722
:1016C80024270020488000200368DB6970B506469F
:1016D8000C4615467BB90D442B1B002B00DC70BD56
:1016E8003046FFF7B1FF0028FAD014F8011B304646
:1016F800FFF7B0FFF0E7BDE870401847E4E7014B9B
:101708001868A7E76C27002038B505460C4614F87A
:10171800011B01B938BD2846FFF79CFFF7E7034BCB
:101728001B6813B1072800D81847704738280020CD
:10173800064B1B7803EB4302054B13445A781AB93E
:10174800987800F0010070470120FAE72628002069
:101758006830040810B50409013C032C00F00F029E
:1017680016D80C4B33F8141041FA02F313F00100A9
:101778000DD0012090400138084039F053FE064B47
:101788001C440C22237D1844044B02FB003010BD7E
:101798000020FCE7F02F040808EA0308389C002022
:1017A80010B1036882885A83704710B10368828831
:1017B8001A83704770B5164690F90C2014235343CA
:1017C8000C4AD55883689A07044602D40069FFF783
:1017D800E7FF2846FEF772FE01230022314628461D
:1017E800FEF73EFEA3689B0702D42069FFF7DDFFE2
:1017F800012070BDB0120020F8B5164690F90C20F3
:101808001F46142353430D4AD55883689A07044644
:1018180002D40069FFF7C4FF2846FEF74FFE3B4697
:10182800002231462846FEF71BFEA3689B0702D418
:101838002069FFF7BAFF0120F8BD00BFB0120020F1
:10184800F8B5164690F90C201F46142353430D4A49
:10185800D55883689A07044602D40069FFF7A0FFA9
:101868002846FEF72BFE3B46324600212846FEF767
:10187800F7FDA3689B0702D42069FFF796FF0120B4
:10188800F8BD00BFB0120020F8B5164690F90C203C
:1018980014235343104AD55883689A0704460F46C1
:1018A80006D40069FFF77CFF01200021FFF756FEF0
:1018B80039462846FEF702FE31462846FEF7FEFD69
:1018C800A3689B0706D401200021FFF747FE206983
:1018D800FFF76BFF0120F8BDB012002028B10368A4
:1018E800828809B11A8370475A837047044B0146AE
:1018F8001868044B1B780BB981F00101EEE700BFB3
:101908005C2800206028002080B580460B25013D1A
:1019180001D11FF01BFE002035F0FCFA08F101068A
:101928003227052435F0C0FB0120FFF7DFFF3846DA
:10193800FFF725FE35F0B8FB0020FFF7D7FF384644
:10194800FFF71DFE74B1013CECD14FF4FA70FFF7BC
:1019580016FEFA2726B94FF47A70FFF710FED6E77D
:101968000024DFE7013EF5E7F8B50468C4F30D0489
:1019780005460E4604B32F68FFF7E6F9092840F03C
:101988008780454C236923F440732361236943F41A
:1019980000732361236943F0010323613E60FFF76D
:1019A800D3F92369092823F00103236170D12B6837
:1019B80004332B60002034E0384B394A93422AD94B
:1019C80002F58042934225D902F58042934229D9F3
:1019D80002F58042934227D902F58032934225D9F5
:1019E80002F50032934223D902F50032934221D9FD
:1019F80002F5003293421FD902F5003293421DD9F5
:101A080002F5802293421BD9B3F1016F1AD3052046
:101A1800FFF77AFF0824FFF797F9092814D04FF049
:101A2800FF30F8BD1024F6E71824F4E72024F2E785
:101A38002824F0E73024EEE73824ECE74024EAE7EE
:101A48004824E8E75824E6E7134F3B6923F440733A
:101A58003B613B6943F400733B613B6923F0F80346
:101A68003B613B6943F002031C433C613B6943F41F
:101A780080333B61FFF768F93B6923F002033B6160
:101A88003B69092823F0F8033B613FF474AFC6E7CC
:101A98006FF00100C5E700BF003C024000000E08DF
:101AA800FF3F0008F8B504460D468E180027B542DA
:101AB800206900D1F8BDE368591CE160234415F89A
:101AC800012B1A720429F2D118B9A1682046FFF730
:101AD8004BFFC4E90370EAE730B1036882881B69E9
:101AE8001A4214BF01200020704728B18088B0FA3C
:101AF80080F0C0F11F0070474FF0FF30704730B1E1
:101B0800006800F13F4000F57E00800A70474FF002
:101B1800FF307047FFF74FB9FFF74DB9FFF74BB9E3
:101B2800FFF749B9FFF747B9FFF745B937B5044695
:101B38008B6821600D469847012200236273FF22BB
:101B4800E281237423732B6B13B1204698472074CA
:101B58000B4B93F8C5301BB1237C23F0010323748E
:101B680023685B6B4BB1214601A8984728B1BDF8A3
:101B78000630013B638203B030BDFF23FAE700BFA4
:101B8800A817002003689B6A184703685B6A184710
:101B9800F7B5478A9F4204460D4609D30135857239
:101BA800E272046800250095A469A04703B0F0BD5F
:101BB8004FF0FF30FAE72DE9F04105468AB01846A4
:101BC8000F4690461C4638F0D3FD3B189DF8406000
:101BD800AB722B7C85F80B8036EA030319D0F20729
:101BE80017D5114BC8221B68B3FBF2F3DB0706F0CD
:101BF800FE060ED51F2828BF1F20044602462021B6
:101C080002A83BF0A1F80AAB1C44002304F8203CCE
:101C180002AC2B6800965E69424623463946284640
:101C2800B0470AB0BDE8F0812C9400202DE9F341BB
:101C38000446184616460D461F4638F099FD236897
:101C4800E67228440022A0720092D3F8148032462B
:101C58003B4629462046C04702B0BDE8F0810368EC
:101C680010B504465B689847236820469B689847E8
:101C7800E37B013BE37310BD036810B504461B68A2
:101C88009847236820469B689847E37B0133E373B2
:101C980010BD10B5036804469B6898470123637319
:101CA800FF23A37310BD03899B0746BF0089C0F3B8
:101CB800C01001207047F8B50579012D0346174675
:101CC80009D0022D23D18368DB0758BF41F080017A
:101CD800BDE8F8406EE50F4A90F90C00182404FBA3
:101CE800002462788AB19A685B7BE1725B00637258
:101CF8000023A37223750223A37002F00103C4E931
:101D0800035723721FF0D2FE227D1046F8BD002231
:101D1800FBE700BF5C5F002010B5021D0446FF21F1
:101D28000068FFF7C8FF18B12079C04300F0010030
:101D380010BDF8B504460E461546071D3A46FF2164
:101D48002068FFF7B8FF30B116B12379DB07F5D467
:101D58000DB123792B70F8BD00220121E9E72DE9A7
:101D6800F0410479012C054616461F4609D0022C7D
:101D780024D18468E40758BF41F08001BDE8F041F0
:101D88003AE50F4B90F90C00182404FB00346378F3
:101D98008BB16A7BAB68E17252006272002203F079
:101DA8000103A272227502222372C4E90376A2708B
:101DB8001FF07CFE237D1846BDE8F0810023FAE77A
:101DC8005C5F002007B5012301AAFF210068FFF727
:101DD800C6FF03B05DF804FB13B502230C4601AA45
:101DE80000210068FFF7BBFF60B15CB19DF80530CA
:101DF800DB099A0013449DF9042002EB820203EBED
:101E08004203238002B010BD73B50579012D0E463B
:101E180014460AD0022D29D18368DB0758BF01F088
:101E28007F01FFF731FD02B070BD90F90C10826898
:101E3800437B0F488DF80740182404FB01046078A1
:101E48000028F0D05B0063720DF1070323610023C3
:101E580023750223A37002F001030846E672A572F7
:101E6800E56023721FF022FE207DDCE70020DAE720
:101E78005C5F0020CA0102F0800278210068C3E795
:101E8800C90138B501F0800104461546FFF7F2FF95
:101E980008B9002038BD002201212046FFF749FF7C
:101EA8000028F6D023795B092B70F3E70A4600680F
:101EB8008721A9E738B505461446FFF7F7FF2846F6
:101EC800FFF74AFF034620B11CB12846FEF783F905
:101ED8002070184638BD9622FF21006894E70A460C
:101EE8000068A52190E75521F9E710B50446FFF7EA
:101EF800F6FF18B12046BDE810402DE710BDCC21F3
:101F0800F3E770B54C1E0646A518AC4201D1012076
:101F180006E014F8011F3046FFF7E7FF0028F4D168
:101F280070BDB422FF2100686EE710B50446FFF7C4
:101F3800F8FF18B12046BDE810400DE710BD2DE9A7
:101F4800F04F87B0CDE9021200268146049301962E
:101F5800039BF400484603EB040AFFF7E6FF02463A
:101F680000286FD0002201214846FFF7E2FE024612
:101F7800002867D099F80430990763D5F0214846BE
:101F8800FFF7B3FF024600285CD0039BA4F10802C8
:101F98004FF0000B012513442C465F460593029B26
:101FA800002B55D0082C53D804F1FF3843FA08F811
:101FB80008F0010841464846FFF75CFF0246002842
:101FC80040D0002201214846FFF7B3FE0246002810
:101FD80038D099F8040000F0600160294FEAD01366
:101FE80019D0029919B1082C01D898452AD11AF8A4
:101FF8000710002B40D029436D0015F0FF050AF8A3
:10200800071004BF0137FFB204F1010408BF01251E
:10201800072FE4B2C3D9402C10D9072150460592A6
:10202800FFF7FCF89AF80710059A814206D10136A5
:10203800F6B2BBF1000F05D0CDF804B0049B1B78B5
:10204800B34285D8049B10461E7007B0BDE8F08FD8
:102058005EB1019BA34208D9059BDA5D154214BF06
:102068004FF001084FF00008A4E7019B1B1BD3F1B8
:10207800000848EB03089DE74FEA901C4CEA501013
:1020880010F0010F08BFA34621EA0501B4E737B5F0
:102098000546CDE90023FFF748FF98B12846FFF72A
:1020A80022FF78B12846FFF757FE58B100241DF8E3
:1020B80004102846FFF719FF20B10134082CF6D187
:1020C80003B030BD0020FBE710B50446FFF72DFF35
:1020D80038B12046FFF713FF18B12046BDE810407D
:1020E8003AE6002010BDCA4341EA0212D2B2D22118
:1020F800006889E638B50446154600680A46E121B5
:10210800FFF782FE28B12A462068FF21BDE8384043
:10211800D1E538BD38B5021D0D46F0210446FFF75C
:10212800E9FF08B123792B7038BD0A46C321E1E7DE
:102138000A46E121DEE738B504460D46FFF7CBFE37
:1021480040B12046FFF708FE20B129462046BDE8E9
:102158003840EDE7002038BDF8B506460F4615466D
:102168000024AC4201D1012006E039193046FFF7BE
:10217800E2FF01340028F4D1F8BDF022FF21006805
:1021880042E60A4B70B5841CD3F8C850A400E4B2E8
:102198000E46CAB228462146FFF736FE611C320AAF
:1021A8002846C9B2BDE870402EE600BFA817002037
:1021B8002DE9F0410E4E8046002406F1C407E0B236
:1021C80000F0030343450ED136F8145037F81430A5
:1021D800EB1A002BB8BF5B42052B04DD2946FFF73D
:1021E800D0FF27F814500134102CE8D1BDE8F08155
:1021F800B017002038B50F4BD3F8C8501022002173
:1022080041F2D774B4FBF0F42846FFF7FDFD012036
:10221800FFF7B5F9621ED2B2FE212846FFF7F4FD9A
:102228000120FFF7ACF9284680220021BDE838409C
:10223800EAE500BFA81700202DE9F0410679012E34
:10224800054694469E460AD0022E25D18468E407A6
:1022580058BF41F08001BDE8F041FFF7F1BA0F4BDC
:1022680090F90C00182404FB003463788BB16A7B66
:10227800AB68E17252006272002203F0010322751A
:1022880002222372A672C4E903ECA2701FF00EFCAE
:10229800237D1846BDE8F0810023FAE75C5F002043
:1022A800F8B51F4690F90C300446142058430C4BDF
:1022B8001D58A36816469A0703D42069FFF770FAD9
:1022C80000BF3B4632462846FEF7CAF8A3689B077C
:1022D80003D400BF2069FFF768FA0120F8BD00BFEA
:1022E800B012002073B50479022C39D1032390F978
:1022F8000C008DF8033004238DF804301423434375
:102308001A4E1B48F3588DF80240002501228342DB
:102318008DF800508DF8012024D0A0F57840834234
:1023280022D0144A93421BD1204602AA11441A888B
:1023380011F8084C22F040021204120C14211A80E1
:1023480001FB00601A88C16822F0380231F81410C5
:102358001204120C0A431A801A8842F040021A80AA
:1023680002B070BD2846E0E71046DEE7B012002054
:1023780000300140003C004010B5427A044632B1BA
:10238800036800F10A01406898470023637210BD92
:102398000FB413B5084C0949206804AB53F8042B53
:1023A800019338F09DF82068FFF7E6FF02B0BDE81A
:1023B800104004B0704700BF20270020E923000820
:1023C800064B1B68597A4A1C1944D2B25A72887251
:1023D800197A914201D81846CEE770472027002085
:1023E80010B4447A631C0444DBB24372A172027ACB
:1023F8009A4202D85DF8044BBEE75DF8044B70477B
:1024080038B5094D441E14F8011F01B938BD2868B4
:10241800427A531C0244DBB243729172027A9A42A6
:10242800F1D8FFF7A9FFEEE72027002008B50446FA
:102438000648FFF7E5FF064B1868FFF79DFF054BB9
:10244800186828F0EFFD204609F0A8F965950408FA
:102458002027002024270020034808B5FFF7D0FFD5
:102468000120FFF7E3FF00BF7195040808B5044891
:10247800FFF7C6FF034B1868BDE808407CE700BFBC
:102488008A950408202700200048B9E787A0040897
:10249800F8B50C4C0C4E0D4F04F51C752068FFF771
:1024A800AFFF616811B13046FFF772FFA16811B143
:1024B8003846FFF76DFF1034FFF7E6FFAC42EDD169
:1024C800F8BD00BF802D04088F9504089595040871
:1024D80010B5064C0B4602460549206838F000F84E
:1024E8002068FFF749FFBDE81040CDE7202700200E
:1024F800E92300080FB407B504A951F8040B0191AA
:10250800FFF7E6FF03B05DF804EB04B070472DE970
:10251800F3471948194C1A4D1A4FDFF86C80FFF72A
:10252800E9FF04F54076A379E27994F808A005EB71
:10253800820205EB83032046D2F8A8909B69FFF737
:10254800DEFA00F141012046FFF7CFFA0246BAF160
:10255800000F0AD0CDE900A94046FFF7CBFF0C34A5
:10256800A642E0D102B0BDE8F087CDF80090384629
:10257800FFF7C0FFF3E700BF9B950408389C0020D5
:1025880008EA0308C7950408B7950408F8B5104881
:10259800104D114E114FFFF7ADFF002474B9104BC9
:1025A800D3F8EC306FF003025A4312F500620BD0F7
:1025B80055F824103046FFF79DFF03E057F8242014
:1025C800002AF5D1232C01D00134E7E7F8BD00BF7C
:1025D800D595040820EA0308EB950408981800200C
:1025E800A81700201FB5094B0293094B0193094B0B
:1025F8000093094A094B0A490A48FFF77BFF0A4931
:102608000A4805B05DF804EB74E700BF40A9040868
:102618002896040831960408FF950408F9950408DB
:102628000B960408109604083D9604087E96040844
:102638002DE9F04F2DED028B4B489FED4C8A97B05A
:10264800FFF758FF00252E462F460AA9E8B225F0C5
:1026580035FF9DF82C30002B62D0149C4CB107EE4E
:10266800904AF8EEE77A88EE277AFDEEC77A17EEF9
:10267800904ADDF838A00F9B4FEAE4790AFB09F28B
:1026880004FB0323AAFB040141F2883B1BEB000B6C
:1026980019444FF0000C4CEB010C4FF47A720023F4
:1026A8005846614638F0A6FE129B0993139B099A77
:1026B8006343834602FB0933A4FB020141F28838D5
:1026C80018EB000819444FF0000949EB01094FF4D1
:1026D8007A7200234046494638F08CFE032D4FF4A9
:1026E8007A72109BB3FBF2F306934FF00A0318BFFC
:1026F800361890FBF3F203FB1200CDE904209BFB94
:10270800F3F203FB12B3CDE90223099B0A9A184896
:10271800CDE900A32946234618BF5F44FFF7EAFE28
:102728000135172D91D11349D1E9020240090C68EE
:10273800096940EAC2624FF47A730F48B4FBF3F3B5
:10274800FFF7D8FE0A2296FBF2F302FB136697FB0B
:10275800F2F1009602FB11720848FFF7CBFE17B0A2
:10276800BDEC028BBDE8F08F8796040800247449FD
:10277800CE96040800000010039704082597040863
:1027880013460A4601460148B4E600BF53970408B9
:10279800F8B5847914F0C003064602D0402B15D052
:1027A800F8BD2AF025F904F00F04062C054604D1DB
:1027B8000146BDE8F84013489CE630462AF044F943
:1027C8002A460146BDE8F8400F4893E62AF0F4F897
:1027D80005460E480E4E0F4FFFF712FE00242B79C8
:1027E8009C4202D3BDE8F8404EE614B13046FFF7EC
:1027F80007FE2B68384653F82410FFF7C9FD01344B
:10280800EDE700BF709704088097040897970408BD
:10281800A79704089F9904080CB407B510F0400066
:1028280009D069B92320FFF7CBFD05A904980191C8
:10283800FFF74EFE012003B05DF804EB02B07047CD
:102848000020F8E70CB4830607B500D551B905A9EF
:1028580004980191FFF73CFE012003B05DF804EBFA
:1028680002B070470020F8E72DE9F04F9BB093467F
:102878000D900D4616460027AC46BCE80F000EAC7E
:102888000FC49CE803002B780B936B780C9384E8B7
:10289800030095F80490099295F80C800A9095F831
:1028A80014A0BBF1000F51D0B446BCE80F0014AC23
:1028B8000FC4BDF838E033699CE80300BDF850C088
:1028C800E64584E8030011463079327B347D3BD1FC
:1028D800814539D10998884236D1904534D10A9A30
:1028E8009A4231D1AAEB04035C425C410A9BCDF8C1
:1028F80018A0CDE90483099B154A0D98CDE90293E8
:102908000C9B01930B9B009321463B46FFF784FFEA
:102918000A9BCDF818A0CDE90483099B0C4A0D98B1
:10292800CDE902930C9B01930B9B009321463B46F8
:102938000137FFF787FF102F05F1180506F1180674
:102948009AD11BB0BDE8F08F0024CFE75C46DFE7E3
:10295800A99704082DE9F04FDFF8BCB08FB0824684
:1029680091460C4616460027A388ADF82C302378EC
:10297800079363780893B4F9028023792068099350
:1029880094F905300A900693B8F1000F3DD0B9F1DB
:10299800000F3FD03068BDF828500C9080B2B38843
:1029A800ADF83430854232787178B6F9023096F84D
:1029B80004C02DD143452BD1BDF82C50BDF83400AF
:1029C800281A4542454106980092CDE90113CDE900
:1029D80003C03B465A4629465046FFF71DFF069B53
:1029E8000493099BCDE90283089B0193079B0093FD
:1029F8005A463B46294650460137FFF723FF102F1A
:102A080004F1060406F10606AED10FB0BDE8F08F5A
:102A18000025D8E74D46E2E7C79704082DE9FF47A8
:102A2800DFF894A0814690460D4616460027B8F177
:102A3800000F3FD0B6F90030B5F90010B6F9022002
:102A4800B6F9040096F906C0994231D1B5F90210D9
:102A580091422DD1B5F90410814229D195F906107A
:102A6800A1EB0C0461426141CDE90032CDE9020CD1
:102A78003B46524648460C46FFF7CEFE95F90630CF
:102A88000393B5F904300293B5F90230019335F98F
:102A9800083B009352463B46214648460137FFF71C
:102AA800D1FE082F06F10806C1D104B0BDE8F087B1
:102AB8000021D9E74446E1E7DE9704082DE9F04F05
:102AC800804685B00E461546894692460027002462
:102AD80009EB040393F8C0300393002D48D00AEBA8
:102AE8000403039A93F8C030D11AD1F1000B4BEBD1
:102AF800010BCDE90043204A3B4659464046FFF7C3
:102B08008BFE039B1C4ACDE9004359463B46404691
:102B18000134FFF797FE062CDAD10137062F09F1A9
:102B280006090AF1060AD2D106F1E40A124E002477
:102B38001AF8019BF5B12B19404693F8E430A9EB3C
:102B4800030257425741CDE900433246062339462E
:102B5800FFF762FECDE90049062332463946404672
:102B68000134FFF76FFE0B2CE2D105B0BDE8F08F02
:102B7800AB46C6E72F46EDE7F39704082DE9FF4774
:102B8800DFF86CA0814690460E4615460027B8F13E
:102B9800000F2AD02B8832889A4224D174886A88F8
:102BA800A21A54425441EA780292AA782146CDE901
:102BB800003248463B465246FFF72EFEF378029312
:102BC800B378019336F8043B009352463B462146BE
:102BD80048460137FFF736FE102F05F10405D6D118
:102BE80004B0BDE8F0870024DDE74446E6E700BF0F
:102BF800079804082DE9F04FDFF868808FB0074682
:102C08008A46164600240DF124095AF82430029306
:102C1800494602A834F060FD16B356F82430029DE8
:102C28000393EB1A5D420DF1100B5D41594603A861
:102C380034F052FDCDF800B02346424629463846C6
:102C4800FFF7EAFD2346CDF800904246294638466C
:102C58000134FFF7F7FD202CD7D10FB0BDE8F08F76
:102C68003546EFE7199804082DE9F347DFF868A01F
:102C780081460F46904602260024B8F1000F28D05E
:102C880038F8243037F8241038F8062099421ED135
:102C9800BD5BA91A4D424D41CDE900322946234674
:102CA80052464846FFF7B8FDBB5B019337F824301E
:102CB800009352462346294648460134FFF7C2FD91
:102CC800042C06F10406D8D102B0BDE8F08700252F
:102CD800E2E74546E8E700BF239804082DE9F04FEE
:102CE800834687B092460C46164600274FF01909CE
:102CF8004FF46178BAF1000F4DD0B078A5783378E9
:102D0800727896F803C096F804E07179854240D14C
:102D180025789D423DD1657895423AD1E57865455B
:102D280037D12579754534D165798D4214BF002591
:102D3800012519FB028219FB0383CDE901030392E4
:102D48000091CDE904CE3B46144A29465846FFF780
:102D580063FD23790593E378049363780F4A19FB9D
:102D680003830393237819FB03830293A3780193C6
:102D78006379009329463B4658460137FFF762FDC1
:102D88000C2F04F1060406F10606B3D107B0BDE81E
:102D9800F08F0025CDE75546DBE700BF34980408DF
:102DA8002DE9F04F89B002F13C03374FDFF8E0A07E
:102DB8000793814690460C46164694F90400002372
:102DC8000C2202FB03F1314D4957814256D00133A1
:102DD800052BF6D1079B0C36B34204F10C04ECD159
:102DE80009B0BDE8F08F96F904303268717996F829
:102DF80006C096F808E096F807B098423CD12068DB
:102E0800904239D16079884236D1A079604533D172
:102E1800207A704530D1E579A5EB0B004542454154
:102E280057F82B0057F82110049057F82E000390FC
:102E380057F82C000290CDE9002148465246294611
:102E4800FFF7EAFCE27994F9043057F8222004925B
:102E5800227A57F822200392A27957F82220029268
:102E6800627957F822200192226800922946524638
:102E78004846FFF7E7FCADE70025D1E7B8F1000FBA
:102E8800B1D14546DEE700BFDC5604083CA000206F
:102E9800529804082DE9F04F834685B092460D46B6
:102EA800164600274FF019094FF46178BAF1000F60
:102EB8003ED032782C787178B378F078944235D156
:102EC8006C788C4232D1AC789C422FD1EC78A4EB50
:102ED800000CDCF1000444EB0C0419FB008019FB26
:102EE8000383CDE90113039000923B46114A214622
:102EF8005846FFF791FCEB780E4A19FB03830393BE
:102F0800AB7819FB038302936B78019315F8043BA4
:102F1800009321463B4658460137FFF793FC142F90
:102F280006F10406C2D105B0BDE8F08F0024D4E74D
:102F38005446E0E76F98040808B5FFF761FABDE862
:102F48000840FFF7A1BA08B50948FFF7F5FF094B94
:102F58001868FFF711FA084B00241C70074B1C6017
:102F6800074B1C7028F014FE2046FFF75FFA00BFDD
:102F780082980408202700202C27002028270020DA
:102F880070B6002030B5264885B0FFF739FA36F01C
:102F980003FF20B9234805B0BDE83040CCE736F040
:102FA800F1FE08B92048F6E736F0E2FE0268037D34
:102FB80081790446407C0290207C0190608A0090D0
:102FC80052081A48FFF7E4F9E51D0C3415F8010B0F
:102FD800FFF7F6F9AC42F9D1154C1648FFF710FA8D
:102FE8006278032A13D8DFE802F0080806021248BC
:102FF800FFF706FA0BE01148FAE71148FFF700FA65
:1030080041F2B413E35C022B06D0032B06D005B0C3
:10301800BDE83040FFF738BA0A48E9E70A48E7E769
:10302800AC980408B6980408C4980408D39804080F
:1030380068C1002001990408119904081799040827
:10304800249904082A99040843990408004873E756
:10305800559904082DE9F341044637F089FB042803
:103068003DD1631E2546E11C13F8012FA2F1610032
:10307800192898BF203A8B421A70F5D1DFF8708072
:10308800271D15F8016B4046314639F074FE20B112
:103098003146284639F06FFE20B1FFF7D7FF02B05E
:1030A800BDE8F081BD42ECD1204625F0EFFB0E488B
:1030B8000E4CFFF7A5F90E4800231A1902A95278F9
:1030C8000A44195C02F8081C0133042BF5D10023CB
:1030D800694608488DF80430FFF70CFADFE7002846
:1030E800E5D0FFF7B3FFE2E761990408646D0020BB
:1030F800EA5804089895040810B504460348FFF7F1
:103108007FF92046BDE8104016E700BF8A950408FD
:10311800124B53F8200070B5E0B1114A062303FBA7
:10312800002393F90140621C15D0187990B10D4A1B
:103138000D4E155DDA7864211423002061438C1844
:10314800013B36F814402A442044F8D11423B0FB3C
:10315800F3F080B270BD0020FCE700BF687000206B
:1031680065280020602B00208428002038B5032023
:103178000D461446FFF7CCFF07EE100A8DB1DFEDC0
:103188000B7AB8EE477AF0EE006A27EE277AF8EE67
:10319800047AE7EE267A9FED067A67EE877AC5ED20
:1031A800007A0CB1034B236038BD00BF6740533A27
:1031B80000007A443313904370B544880B460546A3
:1031C800C4F30B0422460021184639F0BDFD2969D5
:1031D800084A9142034607D3074A914204D222463D
:1031E800BDE8704039F0D2BB19B11846BDE870404F
:1031F800084770BD54E3040850E604084388426851
:1032080013F4004F1EBFC9B2C3F30B0301FB032223
:103218001146D1E7064B07498B4202D300231846D3
:1032280070471A88C2F30B029042F8D01433F3E7C0
:1032380058DF040854E3040810B504460846FFF7AD
:10324800E9FF18B12146FFF7B7FF012010BD034A77
:10325800136823EA00001060704700BF1481002043
:10326800024A136818431060704700BF1481002099
:1032780038B5154C154DAC4212D30020FDF73AF97C
:10328800134825F003FB4FF48000FFF7E9FF00BF68
:10329800104B1878FDF7A4FFBDE8384030F02CB982
:1032A800B4F90230002B4FF00001204607DAFFF78F
:1032B800A5FF01212046FFF7A1FF02212046FFF7C5
:1032C8009DFF1434D7E700BF58DF040854E304080F
:1032D800679904085A3C002070B501221049114C26
:1032E800114E0020FDF786FD22884AB1A518B54287
:1032F80014D2052A12D92146FDF77CFD2C46F3E7A6
:1033080002222146FDF776FD6388084AC31AA41AEB
:10331800074A5842A2F88041584170BD0020FCE796
:1033280000000E0801000E0800001008FCFF0D0840
:10333800A81700202DE9F04F8DB025F0E3FADFF84B
:10334800B481674BA3EB08034FF0030901931022E4
:10335800002108A839F0F8FC019B0793614BCDF8D0
:1033680018801A69002ABFBF5F4A5A6002F1883282
:103378005A600CAC0125F3228DF82C50DA607E23BC
:1033880004F8243D2A46214606A8FEF78BFB214671
:103398002A460020FDF72EFD544CADF80E004FF0E4
:1033A800000B534B9C4241D3022204A9002406A8D7
:1033B800ADF81040FEF776FBBDF80E00022204A916
:1033C800FDF718FD0CA9022221F8220D06A8FEF728
:1033D80069FB099878B108ABC0F10402214618448A
:1033E80039F0B2FC0A9818B9089906A8FEF7BCFA91
:1033F80000230A9009939DF82C300A9A23B1394981
:103408000B6943F000430B61B9F1010963D0002A4D
:103418009DD198F800307E2B5FD1FFF75DFF002823
:103428005BD025F053FA0DB0BDE8F08F62888DF8B7
:1034380015B0C2F30B06B31DADF810302388C3F3E3
:103448000B011B0B8DF814301304ADF812101BD4AC
:10345800062204A906A8FEF725FBBDF80E000622E1
:1034680004A9FDF7C7FC3246ADF80E00616806A84E
:10347800FEF718FBBDF80E0061683246FDF7BAFC8E
:10348800ADF80E0014348CE700273D460135EDB247
:10349800062204A906A88DF81550FEF703FBBDF80F
:1034A8000E00062204A9FDF7A5FC6368ADF80E001E
:1034B80003EB070A3246514606A8FEF7F3FABDF8B1
:1034C8000E0032465146FDF795FC032DADF80E006F
:1034D8003744DBD1D6E7002A9BD00520FEF714FA43
:1034E80000001008003C02402301674558DF04082B
:1034F80054E3040800000E08044808B5FEF780FFEE
:10350800FFF718FF0020FEF791FF00BF709904082D
:1035180030B50244904201D1002311E010F8013B7C
:10352800A3F14104192C11F8014BA4F1410598BFEE
:103538002033192D98BF20341B1B01D1002CE9D151
:10354800184630BD70B5054608460E4637F010F9E6
:103558003146044602462846FFF7DAFF60B92B5D7C
:10356800A3F13002092A06D923F02003413B192B85
:1035780001D9601C284470BD0020FCE710B5044642
:103588000748FEF73DFFFFF773FEFFF7D3FE054937
:103598002046FFF7D7FF08B9FEF748FF10BD00BF68
:1035A800779904086CA104082DE9F74F804637F095
:1035B800DFF8474DDFF844912F680446F0B94548D5
:1035C800454EFEF7E5FE012519F80430013B05FAE2
:1035D80003F33B4209EB040203D091683046FEF73F
:1035E800D7FE0C34B4F5847FEED117B93B48FEF70B
:1035F80007FF03B0BDE8F04FFEF746BF0246384963
:103608004046FFF785FF064670B93648324DFEF74B
:10361800F7FE09EB0603284699680C36FEF7B8FE54
:10362800B6F5907FF5D1E4E798F800302D2B03BF6D
:1036380008F1010804F1FF344FF0010A4FF0000AC5
:1036480000260C2303FB069B0193DBF8083000934C
:10365800194622464046FFF75BFF019B00282FD101
:10366800BAF1000F19D0162E0BD11F4B2B601F4833
:10367800FEF7C6FE00991E4803B0BDE8F04FFEF7FE
:1036880039BF172E01D16B68F0E79BF800305A1E3E
:10369800012393401F432F60E9E7162E03D1C5F895
:1036A80000A01448E4E7172E17BF9BF800306F609E
:1036B80003F1FF3201231EBF93409F432F60F0E7C1
:1036C8000136182EBED10C4803B0BDE8F04F33E4E4
:1036D800F47700208D9904089E99040897990408A6
:1036E8007AB00408A3990408FFFF3F00BB990408B7
:1036F8009F990408C4990408AE99040890600408C6
:103708002DE9F843054637F033F80446D0B9314B74
:1037180031481D68314EDFF8D480FEF771FE01276D
:1037280056F8241051B10B7833B107FA04F32B4241
:1037380002D04046FEF72CFE0134F1E7BDE8F8431D
:10374800FEF7A2BE024626492846FFF7E1FE78B9F1
:103758002448254C254DFEF753FE54F8041F002934
:10376800ECD00B78002BF8D02846FEF711FEF4E7D2
:103778002B78DFF868902D2B03BF013504F1FF3457
:103788004FF001084FF00008002659F8267027B9B5
:103798001748BDE8F843FFF7CFBB2246394628460D
:1037A800FFF7B6FE98B90120B040B8F1000F0AD073
:1037B800FFF74DFD0F48FEF723FE39460E48BDE8DA
:1037C800F843FEF797BEFFF74BFD0C48F3E70136C9
:1037D800DBE700BF14810020CC99040800EB030844
:1037E8007AB00408DA990408FCEA0308D6990408B0
:1037F800AE990408BB9904089F990408C499040861
:10380800B5EEC00ADFED2D7AF1EE10FACCBF30EE3E
:10381800270A30EE670ADFED2A7A20EE270A30B54C
:10382800FDEEC07A87B017EE904A054684EAE47048
:10383800002303A9A0EBE470CDE90033029333F031
:103848000FFC002CACBF20232D2303A88DF80030DB
:1038580036F08EFF012822D130238DF801308DF803
:1038680002308DF8033003A9684639F075FA6846C6
:1038780036F07EFF0338C4B222466946284639F03E
:10388800A1FA00232B550F49284639F065FA0DEBAC
:103898000401284639F060FA284607B030BD0228EE
:1038A80005D130238DF801308DF80230DBE703288D
:1038B80004BF30238DF80130D5E700BF6F12033AFB
:1038C80000007A44F19B04082DE9F04F2DED088B98
:1038D800DFF80C9197B0804692460D4614460026B4
:1038E80095ED008AB5EE408AF1EE10FA70D0D5ED6C
:1038F800019A95ED029AD5ED038ABAF1000F3ED0F0
:1039080094ED000A94ED01BAD4ED02AA94ED03AA4D
:10391800B4EE408AF1EE10FA5FD1F4EE4B9AF1EE74
:1039280010FA5AD1B4EE6A9AF1EE10FA55D1F4EEC3
:103938004A8AF1EE10FA0CBF0127002712A8FFF7F8
:103948005FFFB0EE4B0A83460EA8FFF759FFB0EEB3
:103958006A0A05900AA8FFF753FFB0EE4A0A0490D6
:1039680006A8FFF74DFF059B049A03900292CDE944
:1039780000B34A46334639464046FEF74DFFB0EE9F
:10398800480A12A8FFF73CFFB0EE690A07460EA8DE
:10399800FFF736FFB0EE490A83460AA8FFF730FF63
:1039A800B0EE680A049006A8FFF72AFF049B03906C
:1039B800CDE901B3009733464A4600214046013617
:1039C800FEF740FF062E05F1100504F1100487D11B
:1039D80017B0BDEC088BBDE8F08F0027AEE700BF3D
:1039E800E699040870B58379164603F00F028AB089
:1039F8000546062A4CD8DFE802F0041316181B1DEA
:103A080049000C7813F0C00344D0402B3CD1214628
:103A1800284628F0E1FF002856D0FEF7B9FC33E02D
:103A280091F90040EEE70C88ECE7B1F90040E9E7CE
:103A38000C68E7E791ED000A6846FFF7E1FE0146EA
:103A48002648FEF7A5FCFEB1AB7913F0C00F1BD1D9
:103A5800284628F0F9FF07EE900A6846B8EEE70A0C
:103A6800FFF7CEFE01461E48FEF792FC284628F0D6
:103A7800BFFF07EE900A6846B8EE670AFFF7C0FE78
:103A880001461748FEF784FC0AB070BD1348F9E7F1
:103A98000024B7E7042A0CBF124813482146FEF752
:103AA80077FC002EF0D0AB7913F0C00FECD128468C
:103AB80028F0CAFF0446284628F09AFF2146024605
:103AC8000A48FEF765FCDFE76946284629F0A4F8AE
:103AD8006A4621460648FEF70DFDD5E79895040885
:103AE8009F9904089497040818C604084DD604083A
:103AF800FA99040838B50D46044628F0FFFF2A460F
:103B080001462046BDE838406CE72DE9F0478AB009
:103B1800064601303378202BFAD00024DFF85C9079
:103B2800DFF85CA025464FF00B0808FB04976946B0
:103B3800384629F071F83146684639F06AF978B1A3
:103B480069465046FEF724FC00213846FFF7D2FFAD
:103B5800FEF79AFC3846FEF71BFEFEF795FC01358A
:103B6800013440F299139C42DFD115B90248FFF79E
:103B7800E3F90AB0BDE8F087AE990408E142040809
:103B88001C9A04082DE9F04F81468DB0884600261E
:103B9800464BF418464B1868FEF7EEFB94F806B04F
:103BA8000BF030034B4549D1204628F085FFFFF73D
:103BB80031FB0546204628F057FFAA6801921718DE
:103BC8008246204628F09AFF0BF00F010546019A1D
:103BD800062968D8DFE801F0043A3F43484C5A0008
:103BE80012F80A200378D31AD3F1000A4AEB030A21
:103BF80018F0200F02D0BAF1000F1FD102A92046F9
:103C080029F00AF818F0400F0DD0BAF1000F0AD1C8
:103C180002A92848FEF7BCFB524629462046FFF772
:103C2800E1FEFEF731FC02A92348FEF7B1FB0022B2
:103C380039462046FFF7D6FEFEF726FC0B3641F242
:103C480093139E42A4D10DB0BDE8F08F12F90A205B
:103C580090F90030C7E732F80A200388C3E732F941
:103C68000A20B0F90030BEE752F80A200368BAE724
:103C780097ED007AD0ED007AB4EE677AF1EE10FA9B
:103C88000CBF4FF0010A4FF0000AB1E7204628F0B8
:103C9800AFFE2946421C384639F082F8B0FA80FA5D
:103CA8004FEA5A1AA4E74FF0000AA1E7E1420408D4
:103CB80020270020179A0408189A0408022810B52B
:103CC8000C460FD8FDF774FA0748FFF715FA074BAB
:103CD800074859780131FEF70DFC21463020BDE830
:103CE80010404FE710BD00BF229A04085A3C00203C
:103CF800329A0408022810B50C4613D8FDF770FA5A
:103D08000948FFF7F9F9094B094819780131FEF715
:103D1800F1FB21461020FFF735FF21462020BDE8A2
:103D280010402FE710BD00BF11AE04085A3C002018
:103D38003A9A040870B5064615460846B6FBF2F4EA
:103D480014B12046FFF7F6FF05FB1464024B1B5D18
:103D580000F8013B70BD00BF479A0408A0F130038A
:103D6800DAB2092A01D818467047A0F16103052B79
:103D780001D857387047A0F14103052B94BF373855
:103D88004FF0FF30704770B5034610F8012B202A1A
:103D9800FAD0092AF8D02D2A0ABF034601254FF088
:103DA800FF35591E00240A2611F8010FFFF7D6FF28
:103DB8000A2802D905FB04F070BD06FB0404F3E7EA
:103DC8002DE9F04F2DED028B07468DB03B4613F8D9
:103DD800014B202C2BD0384636F0CAFC054618B1CA
:103DE800012826D12A2C24D17E48DFF800827E4F74
:103DF800FFF7A2F800244FF00B0909FB048602A97B
:103E0800304628F009FF02A93846FEF7C1FA2946CC
:103E18003046FFF76FFE0134FEF736FB40F2991388
:103E28009C42EAD10DB0BDEC028BBDE8F08F1F4675
:103E3800CCE73D21384638F09EFF002800F0CE80C0
:103E4800034613F8012C202A03F1FF3131D0A3EBEC
:103E580007090130044601302378202BFAD0634B40
:103E68004FF000084FF00B0B0BFB083602A9304649
:103E7800019328F0D1FE02A836F07AFC02A9024686
:103E880082463846FFF744FB019B054698B95FFA1E
:103E980089F292450FD1B37903F00F07062F14D199
:103EA800204636F065FC21460246304628F033FEAF
:103EB800B8E70B46C5E708F1010840F299129045AA
:103EC800D2D14B48FFF738F8ACE713F0C0030AD05B
:103ED800402B48D04748FEF793FA3046FEF758FC87
:103EE800FEF7D2FA9EE72378002BF3D0424920460A
:103EF80038F07DFF0546204636F03AFC8542E9D188
:103F08002046FCF721FB3046B0EE408A28F09CFDA5
:103F180007EE900AF8EEE77AF4EEC87AF1EE10FAB6
:103F2800D8D8304628F064FD07EE900AF8EE677A94
:103F3800F4EEC87AF1EE10FACCDB052F06D0042F88
:103F480020460DD1FCF7ECFA08EE100A304628F0AE
:103F5800D5FD052F2FD8DFE807F02B2B37373B3E51
:103F6800FFF711FFF0E7304628F026FD9FED238A82
:103F780090F804A081462B46A846AA4500D91BB153
:103F8800B8F1000FA6D0E1E7D9F800306FF0004291
:103F980053F825002146FFF7BBFA002808BF08EEB2
:103FA800105A0ABF012300234FF001080135E4E746
:103FB80018EE103A037002A91148FEF7E9F900213A
:103FC8003046FFF797FD2DE718EE103A0380F2E729
:103FD80080ED008AEFE780ED008AECE73846FFF7CE
:103FE80094FD1FE76C9A04081C9A0408E14204082F
:103FF800AE990408979A04087E9A04080000000005
:104008008C9A040838B50346FCF7DAF880B3224BDB
:104018009B6C0133172B21D820490C2202FB031279
:104028001C4695684DB91D4A0C210134172C17DD23
:10403800002401FB042085689DB1174B9C6427F080
:10404800C9F92A4621461648FEF754FA0C235C4360
:10405800124B185DBDE8384027F0D4B91C46E2E79A
:10406800E7D99C42E1D10F48BDE83840FEF764BF6C
:104078001846FFF788FE1728044606D8074A0C2377
:1040880003FB00239D68002DD7D121460648BDE8D3
:104098003840FEF72FBA00BF0000002090600408E7
:1040A800D19A0408A79A0408BB9A0408F7B50346EE
:1040B800FCF786F8044618B1FEF7C8FF03B0F0BD58
:1040C80001AA1D491C4F184638F000FE2646254611
:1040D80038B9052D17D9014618480522FEF750FBB7
:1040E800ECE744B1012C0AD001AA3946002001347A
:1040F80038F0ECFDECE7FFF746FE0546F4E7FFF77E
:1041080042FE0646F0E7022C0DD1A6F57A73B3F508
:104118007A7F05D94FF4FA624FF47A710848DDE7DF
:10412800084B23F81560074B074833F91520294633
:10413800FEF7E0F9C2E700BFF7B10408019B0408E5
:10414800D1BD0408C00B0010E69A04082DE9F34716
:104158002F49DFF8BCA001AA38F0B8FD00254FF0C0
:10416800FF382F46A9462C46464630B9052D10D8AB
:10417800DFE805F03232320F3941042D09D8DFE883
:1041880005F0030D12171C00FFF7FDFD0646032876
:1041980019D9FEF75BFF02B0BDE8F087FFF7F3FD22
:1041A80080466928F4E7FFF7EEFD04461F28EFE78D
:1041B800FFF7E9FD81461F28EAE70378482B09D075
:1041C800562BE6D1012701AA51460020013538F0C7
:1041D8007DFDCAE70027F6E7434632460D49012030
:1041E80033F01CF9D7E76A2303FB0683094A32F840
:1041F8001370C7F3C0276A2344EA491403FB0686F1
:1042080024B2044B44EAC72423F81640C3E700BF8E
:10421800F7B1040888A000202DE9F0418AB00446CF
:1042280036F0A6FAC2B232B932490120FEF71CFBB9
:104238000AB0BDE8F08105222F492046FFF768F94A
:1042480020B915212B48FEF7F7FFF1E7204601AA10
:104258002A492A4E38F03AFD002402AD78B1082CDC
:1042680002D1FEF7F3FEE3E7FFF78DFD01AA45F85B
:1042780024003146002038F029FD0134EEE7082CEF
:10428800EFD1DDF80880B8F10F0FEAD8DDF80CE0BF
:10429800BEF1010FE5D8049F0C2FE2D8059E032E2E
:1042A800DFD8069D164A05F5742303F5107393426B
:1042B800D7D8079C032CD4D8089800F5742303F5A5
:1042C80010739342CDD80999FF29CAD8DFF824C0C2
:1042D800182202FB08F20CEB02030CF802E018614A
:1042E8005F701E719D601C7319750648FFF794FF77
:1042F8009EE700BF4C7A0020F39A0408F7B104083F
:1043080080841E0040A90408F0B589B0044636F040
:104318002FFAC2B22AB929490120FEF71BFB09B0BE
:10432800F0BD052226492046FFF7F2F820B91521ED
:104338002248FEF781FFF2E7204601AA2149214ED3
:1043480038F0C4FC4FF0FF330793002402AD78B176
:10435800062C02D1FEF77AFEE1E7FFF714FD01AA69
:1043680045F824003146002038F0B0FC0134EEE76F
:10437800042CEFDD029B0F2BECD8039F072FE9D805
:10438800049D1D2DE6D8059C04F57A72B2F5FA6FE6
:10439800E0D80698FF28DDD807994A1C102AD9D8F2
:1043A800064E06225A43B318B75418715D705C80E4
:1043B80059710548FFF7A8FFB1E700BF4E7F0020FD
:1043C800F39A0408F7B1040840A9040830B585B089
:1043D8000546FBF7F5FE002859D02E49002201209A
:1043E80005B0BDE83040FEF719BB2D2B03D0A3F173
:1043F8003002092A46D8042C04DD05B0BDE8304057
:10440800FEF724BE2846FFF7BEFC04AB621C03EB94
:10441800440424F80C0C15F8013F303B092BFAD959
:1044280014462B78002BE0D1052CE6D1BDF9040009
:1044380083B2072BE1D8BDF90640A4F2EE239BB264
:1044480040F2DC529342D8D8BDF90810A1F2EE230D
:104458009BB29342D1D8BDF90A209442CDDC914257
:10446800CBDBBDF90C5005F17D039BB2FA2BC4D808
:10447800084B23F8304003EBC00359809A809D71A4
:1044880005B030BD202BB8D101352246C8E7044617
:10449800C7E700BFB47F00207FB50346FBF790FE57
:1044A800044630B100221F490120FEF707FB04B083
:1044B80070BD6A461C491C4E184638F007FC01AD11
:1044C800C0B1032C02D1FEF7C1FDF0E7FFF75BFC9A
:1044D8006A4645F824003146002038F0F7FB0134DD
:1044E800EEE70628EFD10A2AEDD80E48104480F8E6
:1044F800E43012E0032CE6D1039B0F2BE3D8DDE96F
:104508000112C8B20528ECD8052ADCD8054C0625C6
:1045180005FB0040104480F8C0300448FDF7EAFF6E
:10452800C5E700BF48320020F7B10408F397040834
:104538002DE9F0410646FBF743FE044630B1002260
:1045480024490120BDE8F041FEF718BB3046FFF7CB
:104558001AFC0F2805462EDC3046FCF71FFCDFF856
:1045680080801D4F064620353046FFF70CFC38F892
:104578001430984226DC012C11D0022C13D027F8D5
:10458800250030462C2138F0F6FB064678B1013676
:1045980001230134B3B1032CE6D1BDE8F08107EB68
:1045A80085039870EDE707EB8503D870E9E7A21E4D
:1045B80053425341EDE721460F220848BDE8F04138
:1045C800FEF7DEB8002347F82530BDE8F041FEF7D6
:1045D8003DBD00BFC832002048320020019B0408BE
:1045E80080EB03082DE9F04F87B00546FBF7E8FD9F
:1045F800044638B1002262490120FEF7FBFA07B0F1
:10460800BDE8F08F2846FFF7BEFB1F28074600F3DA
:10461800B1802846FCF7C2FB594B009443F8274069
:10462800834625462646A046A146A2460193554BF9
:10463800E1B2E05C0DF10C0E0023DC461BF8012B07
:104648001AB1904211D00A2B0BD10DF1180E7344F8
:1046580090424FF0000E03F80CEC08D0FEF7F6FC81
:10466800CDE703F80E200133E7E70246EDE701390D
:104678000CF1010B03293FD8DFE801F05A26027339
:104688000DF10B014FF0010E11F8013FC3B30022E9
:104698003D4810F802C09C4503D00132072AF7D1E3
:1046A8004A46542B53D04F2B53D0422B53D04E2B2A
:1046B80053D0492B53D0572B04D105230EFA03F3BB
:1046C80048EA03089146DFE70DF10B02012112F8D1
:1046D800013FABB14E2B30D0452B30D0532B30D0CF
:1046E800572B30D0552B30D0442BF0D1052301FA6D
:1046F80003F34AEA030AEAE703A8FFF744FB06467E
:104708000134052C93D1009B05F00F0545EA83453C
:1047180045EA8A5A4AEA0929360149EA0838019BD2
:10472800F6B248EA060643F827602EF0E5FE66E78B
:1047380003A8FFF728FB0546E2E70023D7E7012394
:10474800D5E70223D3E70323D1E70423CFE70023E8
:10475800B4E70123B2E70223B0E70323AEE704235B
:10476800ACE703A8FFF70FFB03460F28C8BF0023D9
:104778000093C5E71F2221460448FEF701F83EE7EB
:104788004832002086EB0308A6940408019B04081D
:104798002DE9F74F0546FBF713FD804630B10021A0
:1047A800012003B0BDE8F04F32F092BE6FF0004236
:1047B80058492846FEF7ACFE20B903B0BDE8F04FD3
:1047C8000EF0F0B96FF0004253492846FEF7A0FEFC
:1047D80020B903B0BDE8F04F0FF0B0BB6FF0004256
:1047E8004E492846FEF794FE30BB4D4B83F8FC0833
:1047F8001A4693F85C13012901D004290AD193F8C9
:104808007213A52900F101000CD1012382F8FD08DB
:1048180082F8FC3892F8FC384BB103B0BDE8F04F91
:104828000EF0B2BB3C2803F11803E2D1F2E703B063
:10483800BDE8F04FFEF70ABC2846FFF7A4FA83B29A
:104848003B2B04465ED82846FCF7A8FA8046002889
:1048580056D0FFF798FA0125C7B24046FCF79EFAF2
:10486800804620B1FFF78FFA01358346EDB2404606
:10487800FCF794FA804620B1FFF785FA01358246A5
:10488800EDB24046FCF78AFA804620B1FFF77BFA82
:1048980001350190EDB24046FCF780FA804628B118
:1048A800FFF771FA01350FFA80F9EDB24046FCF7CF
:1048B80075FA20B1FFF767FA0135C6B2EDB2032DDC
:1048C800B5D9012F01D9042FB1D1B9F1000FAEDB51
:1048D8000EB1A52EABD1124B182224B202FB043420
:1048E800019B84F85C73C4F860B3C4F864A3C4F88B
:1048F8006833A4F86C9384F8726303B0BDE8F08F52
:104908000546AAE707483B22414603B0BDE8F04FF9
:10491800FDF736BFF39A0408F99A040855A204086B
:1049280018A40020FE9A0408F8B50546FBF748FCD1
:10493800064630B1002227490120BDE8F840FEF7BD
:1049480093B96FF0004224492846FEF7E1FD68B9A3
:10495800204B4FF47A714FF4FA6219805A8099808B
:10496800DA8019815A819981DA81F8BD2846FFF7E2
:104978000AFA0328044626D82846FCF70FFA064602
:1049880070B1FFF700FA012507463046FCF706FA32
:1049980010B1FFF7F8F92DB9BDE8F840FEF756BB9E
:1049A8000546F2E7A7F2EE2240F2DC539A42F3D82A
:1049B800A0F2EE229A42EFD8064B23F8247003EBBC
:1049C80084035880D1E7314603220448BDE8F84003
:1049D800FDF7D6BEA6730020F39A0408079B0408C7
:1049E80070B50446FBF7ECFB064630B100222E49B1
:1049F8000120BDE87040FEF767BF05222B4920461D
:104A0800FEF786FD40B9284B00221A601A611A6227
:104A18001A631A641A6570BD2046FFF7B4F90528B1
:104A280005463AD82046FCF7B9F9064648B3FBF7DD
:104A38008BFD1D4B03EB051383ED000A0124304663
:104A4800FCF7ACF9064638B1FBF77EFD164B03EBD5
:104A5800051383ED010A01343046FCF79FF9064639
:104A680038B1FBF771FD104B03EB051383ED020A18
:104A780001343046FCF792F928B9BDE87040FEF7DA
:104A8800E5BA0446DBE7FBF75FFD074B032C03EBB6
:104A9800051585ED030AA9D0EFE73146052204483C
:104AA800BDE87040FDF76CBEE47E0020F39A040870
:104AB800019B04082DE9F04F91B0964900AF0446D8
:104AC80035F04CFE20B19449204635F047FE60B9D8
:104AD800924B93F8742332B901228E4883F87423D9
:104AE800FDF756FC1BE00022F7E78D49204638F019
:104AF80090F90546F8B10022D3B2E818EB5C313BD7
:104B0800082B02F10102F7D8FFF73DF9C1B24B1F9C
:104B18000B2B844C07D884486170FDF739FC443767
:104B2800BD46BDE8F08F8148FDF732FCFDF7ACFCCF
:104B380061787F48F1E77F49204638F06AF90246F4
:104B480098B1EBB2D018D35C313B082B05F10105C5
:104B5800F7D8FBF7E5FC0446FDF796FC6423714A99
:104B68007548634353602146D7E77449204635F0BA
:104B7800F5FD48B9724B734A73491B681268096896
:104B88007248FDF705FCCAE77149204635F0E6FD95
:104B980020B17049204635F0E1FD00BB6E486F4DED
:104BA8006F4EFDF7F5FBFDF76FFC00240023EA5C70
:104BB800DA550133402BFAD133681BB13946204608
:104BC80035F0C1FB0134A4B2B4F5807F05F140058E
:104BD800ECD16448FDF7DCFB0020FDF727FC6249B7
:104BE800204635F0BBFD20B16049204635F0B6FDC2
:104BF80080B95F4B1B784BB95E48FDF7C9FBFDF7E1
:104C080043FC5D4B1B781BB95C4869E75C4867E768
:104C18005C4865E75C49204635F0A0FD50B9414B3A
:104C28001A781AB901221A70584859E700221A70DE
:104C3800574855E75749204635F090FD70B1564919
:104C4800204635F08BFD48B15449204635F086FDA5
:104C580020B15349204635F081FDC0B9514D524E1F
:104C6800DFF85C810446631993F90430052B08D1F9
:104C78004023635103233370404602237371FDF7C9
:104C880087FB0C343C2CEED1FDF7FEFB47E7474988
:104C9800204635F063FD20B14549204635F05EFDDC
:104CA800B0B9404D404EDFF81C810446631993F9B2
:104CB8000430052B08D14023635103233370404649
:104CC80007237371FDF764FB0C343C2CEED1DBE752
:104CD8003849204635F042FD28B13749204635F09D
:104CE8003DFD002870D1304B02221A702D4A002356
:104CF8000C2000FB03F18C188958402905D10023AA
:104D080023602E48FDF744FBBEE70133052BF0D1A5
:104D1800F7E700BF0F9B04081C9B040888A000202D
:104D2800299B04081C4F0020349B0408509B04084E
:104D3800719B0408899B0408959B0408B49B04088C
:104D4800187AFF1F147AFF1F107AFF1FBB9B0408F5
:104D5800D59B0408DA9B0408DF9B04087CED030854
:104D68008CB90020F39B0408F9B00408009C0408DF
:104D78009C330020099C0408B83E00202F9C04089E
:104D8800159C04083B9C0408489C0408519C040892
:104D9800629C0408749C0408949C0408799C040888
:104DA8007E9C0408FC9F0020646D0020999C0408E8
:104DB800AF9C0408B49C0408CA9C0408B89C040866
:104DC800839C04089E9C04088549204635F0C6FC4F
:104DD80020B18449204635F0C1FC40BB824C834D4C
:104DE800834EDFF8B89204F13C0894F9042072B9B4
:104DF8002B6813F080010ED023F080032B607D48D0
:104E080022600623A371FDF7C3FAFDF73DFB0C34BE
:104E1800A045EAD183E643F080032B600423A37105
:104E2800022323600123337071704846EBE772490F
:104E3800204635F093FC20B17049204635F08EFCB1
:104E480068B96A4A1368180549BF23F4006343F434
:104E5800006313606A485CBF13606A4852E76A4996
:104E6800204635F07BFC20B16849204635F076FCB9
:104E780068B95E4A1368590649BF23F0400343F0F6
:104E88004003136062485CBF136062483AE76249B6
:104E9800204635F063FC20B16049204635F05EFCC1
:104EA80018B95F4B0022DA7039E65E49204635F0C2
:104EB80055FC20B15C49204635F050FC10B9584BE0
:104EC8000222F0E75949204635F048FC20B15849FC
:104ED800204635F043FC10B9514B0322E3E755490E
:104EE800204635F03BFC20B15349204635F036FCCE
:104EF80010B94B4B0722D6E75049204635F02EFC17
:104F080020B14F49204635F029FCE8B94D4B4E48B1
:104F180001221A710822DA80FFF762FD4B48FFF779
:104F28005FFD4B48FFF75CFD4748FFF7EDF949483F
:104F3800FFF7EAF94848FFF7E7F94848FFF7E4F9C7
:104F48004748FFF7E1F9EAE54649204635F006FC0F
:104F580020B14549204635F001FC08BB394B3A4899
:104F680001221A710E22DA80FFF73AFD3748FFF75F
:104F780037FD3748FFF734FD3348FFF7C5F93B489D
:104F8800FFF7C2F93A48FFF7BFF93A48FFF7BCF90B
:104F98003948FFF7B9F93948FFF7B6F93848D0E783
:104FA8003849204635F0DAFB28B13749204635F034
:104FB800D5FB002874D1234B234800221A71032201
:104FC800DA80FFF70DFD3148FFF70AFD3048FFF79B
:104FD80007FD3048FFF704FD2F48FFF701FD9EE568
:104FE800CE9C0408D29C0408FC9F00201481002059
:104FF8009B810020D69C0408099D04080D9D040887
:10500800119D0408289D04083E9D0408499D040834
:10501800549D0408689D04087B9D0408839D04082A
:10502800787000208B9D0408939D04089B9D0408BC
:10503800A39D0408AB9D0408B39D0408BB9D040808
:10504800C89D04082A3D0020F39A0408D59D040849
:10505800F39D0408119E04081F9E04082D9E040851
:105068003C9E04084A9E0408589E0408669E04084C
:10507800759E0408849E0408949E0408A59E04084E
:10508800B49E0408C39E0408CD9E0408D79E040855
:10509800F59E0408139F0408319F0408E19C040846
:1050A8006349204637F0B5FE28B96249204637F0F3
:1050B800B0FE00286ED00930FBF770FE5E4B044648
:1050C8003A4603F1100C3E4618685968154603C560
:1050D800083363452A46F7D118689B882860AB8057
:1050E8001C22002107F1160037F02EFE534A544DBA
:1050F800136843F0805313602146322330466B8097
:1051080037F02AFEFEF75CFE4E49204635F026FBB6
:1051180020B14D49204635F021FB20B94B4B4FF4C7
:10512800C872DA8023E04A49204637F072FE20B977
:105138004849204637F06DFEE8B1322346496B8076
:10514800204637F066FE18B1404B4FF4FA62E8E7A4
:105158004249204637F05DFE18B13C4B4FF47A7255
:10516800DFE73F49204637F054FE0028ECD1FDF731
:105178008BF93C48B4E43C49204635F0EFFA28B1B5
:105188003A49204635F0EAFA0028F0D12F4B4FF47F
:105198007A52C6E73649204637F03BFE30B93549E2
:1051A800204637F036FE00283FF4B9AC6E46324848
:1051B800DFF8D4A0DFF8D4B08AB0FDF721F92F4B7F
:1051C8001C6824F070446D4624F07F0498464FF024
:1051D8000109DCB9FDF758F9D8F800305B0113D59F
:1051E800384627F0B2FC78B93B68B3F5CC7F9DBF51
:1051F800234C0B2000FB03402046294627F00CFDDA
:1052080029462048FDF776F9B54688E494FAA4F3D0
:10521800B3FA83F309FA03F2062B24EA0204D8DD71
:105228000AEB83035846D3F89C11FDF7B1F8D0E791
:105238004F9F0408599F04088BEB03081481002032
:10524800CC7B0020639F04086C9F04086033002017
:10525800769F04087E9F0408BABF0408AFBF0408FD
:10526800869F04089C9F04088C9F0408949F040848
:10527800AF9F0408B69F0408BD9F04086C02001085
:10528800E1420408D49F040808EA03089F99040827
:105298002DE9F04F87B00346FAF792FF064620B192
:1052A800FDF7D4FE07B0BDE8F08F05AA5B49DFF82B
:1052B8009891DFF898A1DFF898B1184637F006FD05
:1052C80034460546B0464FF0FF37A5B9544B78B27F
:1052D8000C2606FB05F2D118D256824200F08180D6
:1052E8000135052DF5D1B8F1000F34D14D483946B7
:1052F800FCF785F9D6E7012E0ED0022E11D01EB983
:105308002846FEF740FD074605AA4449002037F025
:10531800DDFC01360546D8E72846FEF734FD804611
:10532800F2E74946284637F074FD20B93E49284639
:1053380037F06FFD08B144F001045146284637F0B4
:1053480068FD28B95946284637F063FD0028DBD0A8
:1053580044F00204D8E7002C08BF03240023E4B279
:105368000293CDE900841A46194625F07BFE0546CE
:1053780010B939462D48BBE7424639462C48FCF758
:105388003EF939462B48FCF73AF92B4B1C68204666
:1053980025F048FE284625F045FE002031F0BAFDEC
:1053A8002046FCF754F960B1012031F0B3FD2046E6
:1053B800FCF747F901462846FCF74CF9002031F084
:1053C800A9FD2846FCF743F90028E9D0012031F06F
:1053D800A1FD2846FCF735F901462046FCF73AF9C5
:1053E800DBE74D68002D3FF47EAF39461348FCF7E4
:1053F80006F954B16979A14207D022461048FCF752
:10540800FEF8E1B22846FCF7F4F8EB6A002BB8D0B6
:105418000C48FCF7F4F80023EB62B2E7F7B1040894
:105428003CA00020EE9F040801A7040816A0040869
:1054380035A00408A0A004082427002052A00408CE
:105448006AA004088AA00408E89F0408EB9F0408DF
:10545800F9A604082DE9FF410446FAF7B1FE38B170
:1054680046490022012004B0BDE8F041FDF798BC90
:105478002046FEF788FC054640B225F039FF06466F
:1054880030B93F48294604B0BDE8F041FDF732B8CD
:105498000068716801AB03C3B0681860601CFBF753
:1054A8007DFC044600284DD003782B2B05D02D2BEE
:1054B8003DD0FEF768FC019009E001342046FEF774
:1054C80062FC012303FA00F0019B034301930225C8
:1054D800DFF8B08000272046FBF760FC0446F8B1EF
:1054E800FEF751FC002258F822108842D3B203D0AC
:1054F8000132112AF7D1002358F8232090420FD106
:10550800022F27D0032F2AD0012F1DD05A1E0F2A71
:1055180003D88DF809300135EDB20137042FDAD1FF
:10552800012D22D804B0BDE8F041FDF78FBD01344C
:105538002046FEF728FC012303FA00F0019B23EA2A
:105548000003C3E70125C3E71A1F042AE5D88DF82D
:105558000A30E0E7082BE0D88DF80C30DBE75A1F5B
:10556800052ADAD88DF80B30D5E701AB03CB3060CC
:1055780018687160B06004B0BDE8F081FC9F00203D
:10558800CEA00408DC56040870B50D461446FBF797
:1055980005FC0646A0B1FEF7F6FB40F63403984238
:1055A800A8BF1846B0F5617FB8BF4FF461701923E2
:1055B800A0F5617090FBF3F0287023780133237015
:1055C8003046FBF7EBFB0646A0B1FEF7DCFB40F6E6
:1055D80034039842A8BF1846B0F5617FB8BF4FF4AE
:1055E80061701923A0F5617090FBF3F0687023785F
:1055F80001332370304670BD2DE9F7438146FAF731
:10560800DFFD064638B1002237490120FDF766FB69
:1056180003B0BDE8F0834846FEF7B5FB0B28044607
:105628005BDC0625454309F101008DF80760FBF7AF
:10563800B5FBDFF8B480814605EB0807464638B16C
:10564800FEF7A1FB03289EBF012378718DF8073070
:105658004846FBF7A3FB814660B1FEF794FB0D2893
:1056680008D8062303FB046398709DF807300133BC
:105678008DF807300DF1070239464846FFF784FFD9
:10568800FBF78CFB814660B1FEF77DFB312808D81B
:105698009DF80730062202FB04620133D0708DF8B2
:1056A80007304846FBF77AFB60B1FEF76CFB0D2824
:1056B80008D89DF80730062202FB046401332071E4
:1056C8008DF807309DF80730062BA1D0002345F848
:1056D8000830BB80FDF7BAFC9AE70B223146034835
:1056E800FDF74EF894E700BF027A0020019B0408FA
:1056F800F7B50746FAF764FD044630B100222149A0
:105708000120FDF7C7FB03B0F0BD3846FEF73BFBB1
:105718001328054630DC8600781C8DF80740FBF717
:105728003DFB184C074640B1FEF72DFB29289EBFCC
:10573800012304F825008DF807303846FBF72EFBC7
:10574800074650B1FEF71FFB0D2806D8A31958705D
:105758009DF8073001338DF80730B11C0DF10702B1
:1057680021443846FFF710FF9DF80730042BCAD0B4
:10577800002344F82530C6E7132221460248FCF7E7
:10578800FFFFC0E731720020019B0408F0B5012437
:10579800B0FBF4F58D4203D200271CB91C70F0BD94
:1057A8004C43F5E7B0FBF4F604FB1600B4FBF1F448
:1057B8002FB9002E03DC002CEFD1302505E0092E8F
:1057C800FBDD002A14BF3725572535441D700137E6
:1057D8000133E2E70A4B2DE90048D3E900BC5BEA54
:1057E8000C030AD0074909681BEB01024CF10003BE
:1057F800C0E900230120BDE800880020FBE700BFC6
:10580800A88100202C940020F0B5264E04460F46AF
:105818000FCE8DB06D460FC50FCE0FC596E80F00A1
:1058280085E80F0014F0030335D1642194FBF1F2ED
:1058380001FB124242B94FF4C87294FBF2F302FB27
:105848001343003318BF0123C3F11D0340F26D1247
:1058580001930420631E93FBF0F002FB04046FF035
:10586800630093FBF0F020444FF4C87493FBF4F307
:105878001844063000220721013F5DF82230974284
:10588800184490FBF1F4C4EBC404A0EB040004D169
:10589800181A0DB0F0BD0123D6E701320C2AECD15D
:1058A8000020F6E714EC0308F8B514461D46064632
:1058B8004FF47A7200232046294635F04BFD2C4BD5
:1058C8003C22034493FBF2F002FB1031B17190FBD0
:1058D800F2F102FB1102182072714FF4616293FB1E
:1058E800F2F292FBF0F100FB112232712149224AB7
:1058F80093FBF2F293FBF1F3980040F2B55392FB5D
:10590800F3F103FB1123B3F5896F2DDA40F2DA22A4
:1059180093422BDCB3F5B77FB4BF002201221749AD
:10592800182707FB02170B2137F811C09C4501DD2A
:105938000139F9D100F5FA6010443080481CB07084
:105948000C2000FB02120E4901EB4202013392F8CF
:105958003C229B1AF3704FF47A72002320462946A2
:1059680035F0F8FC3281F8BD0322D8E70222D6E7E9
:1059780080BC92C7801F86078051010044EC030851
:1059880008EA030837B505466846FFF723FF0446CB
:1059980038B1DDE900232846FFF786FF204603B02B
:1059A80030BD40F2011328806B80A880A87128813F
:1059B800F4E737B50546FFF7E5FF044640B1064B67
:1059C80002AA1B8822F8023D2946284631F006FA29
:1059D800204603B030BD00BF329C002010B50288BD
:1059E800C178A2F5FA629308013940F2B55404FB74
:1059F800031381780C24013902F0030204FB02121C
:105A08000C49847901EB42021821B2F83C22134474
:105A1800027901FB0323427900893C2101FB03231E
:105A2800054A224401FB03234FF47A720021C2FB8A
:105A3800030110BD08EA030880436D38D1E900323C
:105A48009A4206D05A1C0A6008B11B7803700120DC
:105A580070470020704710B502681146531C036058
:105A680011F8024B0160D31C5178036093781B0432
:105A780043EA0123111D0160D078234343EA006003
:105A880010BD03685A1C02601A4612F8021B026015
:105A9800587841EA00207047D1E900239B1A012B6E
:105AA80010B5044605DD0846FFF7EBFF208001200E
:105AB80010BD0020FCE703685A1C02601878704784
:105AC80038B50446D0E900031B1A9A42154606DC8D
