:100000000C94402D0C94712D0C94712D0C94712D29
:100010000C94712D0C94712D0C94712D0C94E3E7BC
:100020000C94712D0C94712D0C94712D0C94712DD8
:100030000C94712D0C94712D0C94712D0C946FFAFD
:100040000C94712D0C94712D0C94712D0C94712DB8
:100050000C94712D0C94712D0C94712D0C94712DA8
:100060000C94712D0C9488E80C94B7E80C94712DC5
:100070000C94712D0C94712D0C94712D0C94712D88
:100080000C94712D0C94712D0C94712D0C94712D78
:100090000C94F2E80C9421E90C94712D0C949CECD6
:1000A0000C94712D0C949CFA0C94712D0C94712D60
:1000B0000C94712D0C94712D0C94C9FA0C94712D23
:1000C0000C94712D0C94712D0C94B2F20C945CE98B
:1000D0000C948BE90C94712D0C94712D0C94712D52
:1000E0000C94712D17331C33213326332B333033CB
:1000F00035333A333F33443349334E335933533333
:100100003872E5712072EE710272207238722072BC
:1001100038722572E9720573F17322746C74BD74C0
:10012000CA7406758F75C876BD78F078F878DB7874
:10013000E278007948792879207918793079387906
:10014000407908791079B6785F7950796E79767947
:10015000B6787E79B6788679707D5F7D5E7E707DBB
:10016000707D5E7E5E7E7B7D80823F7FB182D282AB
:100170001C879A82E084C886E0904791D491569279
:10018000F29242918F9055934D935D936293839336
:1001900075938F936E937C938A9396939D932E94ED
:1001A000AA93FD941A952F95A99670958C956595AF
:1001B0007995A996A996A996A996A996A996A99678
:1001C000A996A996A996A996A996A996A996A99637
:1001D000A9969F95529852985B98689861985B98F9
:1001E0006198619861988F98619861986198529828
:1001F000D1A7B9AA35A8EAA703A846A879A8B9AA99
:1002000067A932A9B9AACEA8B9AA68A8B9AAB9AAF1
:1002100081A99AA9B3A9B9AA1CA8E7A819A9B9AA3A
:1002200045A957A8B9AA00A9B9AACCA9DDA9EEA9E0
:10023000B9AA9BA8ACA8BDA88AA807AA37AA56A99C
:1002400050AA61AAE4AAF4AAFDAA0CAB3FAC5BAB2E
:100250003FAC3FACF0ABF9AB04ACFAAA0CAC3FAC92
:100260001DAC26AC34ACA2B1B1B1B5B1BCB1C0B11A
:1002700004BEC4B104BE04BE04BEC8B1CCB1D0B18A
:100280005FEF5FEF64EF64EF64EF69EF69EF69EFD1
:100290007CEF6EEF6EEF89EF8DEF93EF97EF9BEFB3
:1002A000A1EFA5EFA9EFB8EFAFEFB3EFC3EFC7EF43
:1002B000CDEFD1EFD5EFDBEFDFEFE3EFF2EFE9EFDB
:1002C000EDEF0CF011F016F01BF020F025F02AF005
:1002D0002FF03DF034F039F06CF071F076F07BF0F7
:1002E00080F085F08AF08FF09EF094F099F09805F8
:1002F0009805340604060A066E06EE05C0032403BC
:1003000000032C0588031C03AA03CC05A00380046A
:100310002C04660402049E05DC0342035E0600060C
:100320007A03060460046E04F4024E061806BC0448
:10033000C6057604360310030206B603D6040C067F
:10034000E204BA03F404CE04A0041E06A205860348
:10035000A803780342059604AA055805EA04FC039D
:10036000F80200049203B803920392030A0384057F
:10037000920392038A031E0354049203920392038E
:1003800092039203920392039203920392039203C5
:100390008C039203920392039203920392039203BB
:1003A000B4051A0392032E0436059203BA052006FB
:1003B0009203920392039203C20412053A06F804D0
:1003C0005806E8044806CA03DA03D005EC0514060B
:1003D000F20314034A052604AA042E065A06080648
:1003E0001A051C046C067C056006DE034603EE0459
:1003F000C603B2055E04D0046605EE03E0030804FC
:10040000EC0448054006400616034006F803F803CE
:10041000F803F803F8034006F803F803F803F803B9
:1004200016031603160316031603160328062806DA
:1004300068062806280668066806B404D403B404CF
:10044000D403B404D403B404500650065006500636
:10045000500650065006500650068404C205BC05DE
:10046000C205BC05C205BC05C205BC05C205BC056C
:10047000C004C004C0045C045C04C004C004C00424
:100480005C045C04480448044804620362034804B2
:100490004804480462036203C8046805C804680588
:1004A000C8046805C8046805C80414053C06240689
:1004B0005A033C0624065A033C0624065A03CC047D
:1004C00078057805CC04CC0478057805CC04CC04F8
:1004D000CC04CC04036EDB363D9A9999993DABAAC6
:1004E000AA2A3E000000803F084AD73B3BCE016E5F
:1004F00084BCBFFDC12F3D6C74319ABD56833DDA7B
:100500003D00C77F11BED9E4BB4C3E916BAAAABE89
:10051000000000803F072C7AA5BA6CC590DA3B93A7
:1005200065FC8BBC53F810FD3C5692834DBD879DF6
:100530003AB63DCBC9BF5BBE73DA0FC93F05A84CC5
:10054000CDB2D44EB93836A9020C50B9918688087C
:100550003CA6AAAA2ABE000000803F08000000BEF8
:10056000922449123EABAAAA2ABECDCCCC4C3E0066
:10057000000080BEABAAAAAA3E00000000BF000097
:1005800000803F0000000000084178D3BB4387D1C2
:10059000133D190E3CC3BD4282AD2B3E68EC827602
:1005A000BED98FE1A93E4C80EFFFBE01C4FF7F3F63
:1005B00000000000000664EC1B3C04BC163E3BE55A
:1005C000B93CC93C37C29E5A3D660498083EEA6968
:1005D000AAAA3E000000803F0D94D66C0D944E6E8A
:1005E0000D94A32E0D9460890D94560F0D94FF2E3B
:1005F0000D9450240D94266B0D9416080D946C30B8
:100600000D94FB000D94C8820D94E36C0D945C3046
:100610000D943E690D9478240D94BDA30D94052F7F
:100620000D94EE0F0D94F4440D9439490D949C8073
:100630000D945D640D94C8240D94B8060D94AF25F7
:100640000D94791D0D94D6190D94BE000D94078C50
:100650000D94F0210D945F200D94D1810D94C587E8
:100660000D94FF370D9417360D947AB40D94E80F5E
:100670000D9460A20D9427640D9417180D94C36710
:100680000D94EE930D9404080D943E6F0D948A4AD8
:100690000D94839C0D9464300D9472300D9404C5B8
:1006A0000D9430150D9429530D94195F0D941C6D04
:1006B0000D94532E0D94C3B30D94F8680D944A0D08
:1006C0000D94A74D0D94DAB20D946D770D94A22D73
:1006D0000D947E210D94BC800D9424260D943C062F
:1006E0000D946F8D0D945D870D9471AD0D949343B2
:1006F0000D94DF140D94050F0D94C9670D94ED5002
:100700000D94CE970D940AC50D940DC50D94D71474
:100710000D94AF060D944E250D9491250D94781FE0
:100720000D94275F0D94CE250D9408650D944C2FE4
:100730000D947A840D94E76F0D9401B90D94738430
:100740000D9400070D942A5E0D942C6B0D941CA93A
:100750000D94D3140D94C5060D94C56A0D94C94625
:100760000D9436060D94B26A0D9419140D9414105C
:100770000D9421250D9488130D94E1300D941113DF
:100780000D94A3000D940D8C0D94FF2D0D94B24A81
:100790000D94CE820D94C8480D9472190D947A224E
:1007A0000D948C560D9469450D945FB10D9484425F
:1007B0000D94C21F0D94EB480D94ED070D94854ADE
:1007C0000D94394B0D9427310D942A260D947F1AE0
:1007D0000D9444350D94B1340D94C6880D941F4B7F
:1007E0000D94E0160D942F490D949B300D94922694
:1007F0000D949F800D9492010D942A150D941FC5A0
:100800000D94E3240D94CF070D94C44B0D94170F52
:100810000D94474B0D94245E0D9475500D94635BBD
:100820000D94C4800D94D72E0D94551C0D940B5F20
:100830000D94B1980D94F1500D940C4A0D94EF5015
:100840000D94F01A0D9465200D943D3B0D94724962
:100850000D94DE6A0D94A1660D94C2070D940825CF
:100860000D9479170D94540B0D9404060D94EF69B3
:100870000D94DAC00D9403B60D94D66B0D944027F9
:100880000D94462A0D9477570D94A83E0D949C1410
:100890000D94D8B20D9463870D9449C50D94E4501E
:1008A0000D94DA860D944A080D9476250D942D5FEB
:1008B0000D94B0320D94D9180D94BDB20D94CE4A5A
:1008C0000D941F0F0D947C410D947B840D94BC07F7
:1008D0000D94E42A0D94A1C00D94B6840D94310FAB
:1008E0000D94F5A40D942C210D9432210D94E20F5A
:1008F0000D9415860D946B850D9436150D9433006B
:100900000D9414070D94ED8F0D9470B10D94E25079
:100910000D94CF030D94B6CA0D94E41E0D94B262EB
:100920000D94086B0D9441100D94E37F0D94F21417
:100930000D94A2C30D94A8AC0D9437850D94BA966E
:100940000D94CD130D94764F0D9467730D943981EA
:100950000D94FC220D949F490D94695B0D9450A158
:100960000D94352F0D944D2E0D946EB10D94D36CC6
:100970000D9450450D94B02E0D94D30F0D94AC6A88
:100980000D94BBB20D945B250D9433AA0D94549035
:100990000D94F7B20D94FC800D94F4B30D94AD1347
:1009A0000D94E44A0D94E8500D9491620D947413E3
:1009B0000D9479840D944A570D940FC40D94F750FB
:1009C0000D94B38A0D947D130D94E8510D94CB8151
:1009D0000D94A0480D9426150D94604B0D949D4ADE
:1009E0000D94636C0D944FC50D9498130D945B1C7E
:1009F0000D9469480D940E650D947D570D94122841
:100A00000D94517C0D94AB6D0D945E440D94E47C7B
:100A10000D940C770D941A170D94577D0D946971F0
:100A20000D941F410D9451480D94FBB20D94AA6290
:100A30000D9407C50D94FB490D9423100D94D50317
:100A40000D94DC6B0D94646A0D9446270D94C11CC3
:100A50000D94657E0D949E230D94AA060D9418BDE9
:100A60000D94C1620D9403500D9410C50D94B224E1
:100A70000D94FF010D9498260D94FD4F0D94B40D27
:100A80000D942F220D94E8140D94E1500D94789458
:100A90000D947A4B0D945C490D94742E0D943AA3E9
:100AA0000D94756D0D9474B40D949DA70D946BBA4F
:100AB0000D940E150D947B500D94BE340D94908EB4
:100AC0000D94EA500D94DC860D9459920D94024BCE
:100AD0000D94F9B20D94166B0D94A3150D94EA1EA6
:100AE0000D942A0E0D94A2620D946A2F0D94EE516E
:100AF0000D94D5B30D9444080D94504A0D942F2FA6
:100B00000D94CF640D94DF1B0D94A1240D94CCADF6
:100B10000D94DC190D94B4700D94AA810D9460802D
:100B20000D94639F0D94DE370D94BC1F0D9413B488
:100B30000D9450000D94E6500D94A8290D94D907FA
:100B40000D945D2F0D94FD130D94D96C0D946C19BB
:100B50000D94E61A0D9400150D94E0500D94167442
:100B60000D946B1B0D94BF4A0D9444240D94D93FF2
:100B70000D94DD2E0D946B240D94A8B20D94F67D8A
:100B80000D9441190D94A3B20D94B16D0D94CD0F38
:100B90000D94EAC40D9404020D94DD060D94F9370A
:100BA0000D94F0480D940B130D94954F0D94AE2BAE
:100BB0000D94A13B0D94969F0D94B98A0D94B60E99
:100BC0000D941D360D9492560D94381E0D943119C6
:100BD0000D94D39B0D94922E0D940F490D9490007B
:100BE0000D9439C50D9424400D94BC8B0D94696C03
:100BF0000D94F6220D947A2E0D9404630D94F569EC
:100C00000D940E0F0D9406100D9480000D94556DEB
:100C10000D94DC490D9477000D946D130D94803C78
:100C20000D94C3510D9424C50D941C490D94C034EA
:100C30000D94A10F0D945DA40D94E9260D94F2136B
:100C40000D9490240D947F1D0D94AFB30D94B1823B
:100C50000D947AB00D9496280D94042C0D94AC4903
:100C60000D94C8340D940DB40D9460000D94F61AD3
:100C70000D942C0A0D9464480D949EB30D945A89DA
:100C80000D9496800D94BC0E0D94B7900D94A147D1
:100C90000D94BF480D94C2340D94D1330D948D0F33
:100CA0000D94B0B10D94564C0D948C220D94D92B0B
:100CB0000D9492480D94CB490D94EBAA0D940E0817
:100CC0000D94804A0D9497620D94B60A0D94A53A3E
:100CD0000D9483B00D9423530D943A4A0D948800DB
:100CE0000D948F4F0D942F280D94C8420D9434C548
:100CF0000D94704D0D94FE6841504D2032000A4114
:100D0000726475436F707465722056332E312E35C0
:100D10000A467265652052414D3A2025750A0062E7
:100D20006164206C6F67206E756D6265720A006485
:100D3000756D70696E6720616C6C0A00656E61622A
:100D40006C650043414D45524100434F4D50415366
:100D500053004F5054464C4F570052434F55540088
:100D600043555252454E5400434D4400494D5500A1
:100D70005243494E004E54554E004354554E005078
:100D80004D004750530041545449545544455F4D1C
:100D900045440041545449545544455F46415354D9
:100DA00000616C6C006D697373696E67206C6F67AE
:100DB00020747970650A002043414D45524100205E
:100DC000434F4D5041535300204F5054464C4F57C2
:100DD000002052434F5554002043555252454E5423
:100DE0000020434D440020494D5500205243494EB8
:100DF00000204E54554E00204354554E0020504D77
:100E00000020475053002041545449545544455FF5
:100E10004D4544002041545449545544455F464192
:100E20005354006E6F6E65006C6F677320656E6162
:100E3000626C65643A2000496E697469616C69731B
:100E4000696E67206779726F73000A4F703A5B6F43
:100E50006E2C6F66665D0A006F6666006F6E0074CA
:100E600068723A2564206375723A25342E32662002
:100E70006D6F7420783A25342E316620793A253406
:100E80002E3166207A3A25342E31662020636F6D2C
:100E90007020783A25342E326620793A25342E3265
:100EA00066207A3A25342E32660A004661696C65FE
:100EB000642120436F6D70656E736174696F6E207D
:100EC00064697361626C65642E20204469642079D2
:100ED0006F7520666F7267657420746F2072616928
:100EE000736520746865207468726F74746C652013
:100EF0006869676820656E6F7567683F000A496EAC
:100F0000746572666572656E6365206174206675CE
:100F10006C6C207468726F74746C65206973202522
:100F2000642525206F66206D6167206669656C64A5
:100F30000A0A00636865636B20636F6D7061737389
:100F40000A007468726F74746C65206E6F74207A16
:100F500065726F0A005448524F54544C450A00437E
:100F6000555252454E540A005468697320726563A5
:100F70006F7264732074686520696D70616374209A
:100F80006F6E2074686520636F6D70617373206F7E
:100F9000662072756E6E696E6720746865206D6F6D
:100FA000746F72732E20204D6F746F727320776987
:100FB0006C6C207370696E210A486F6C64207468D1
:100FC000726F74746C65206C6F772C207468656E1A
:100FD00020726169736520746F206D696420666F8B
:100FE000722035207365632C207468656E207175DE
:100FF00069636B6C79206261636B20746F206C6F26
:10100000772E0A507265737320616E79206B657953
:1010100020746F20657869742E0A0A6D6561737596
:1010200072696E6720636F6D7061737320767320D1
:1010300000636F6D706173732064697361626C65C6
:10104000640A00726164696F206E6F742063616C62
:10105000696272617465640A00646F6E650A000AF1
:1010600045726173696E6720454550524F4D0A00C5
:101070000A4D6F64652073776974636820746F200C
:10108000656469742C2061696C65726F6E3A2073B7
:10109000656C656374206D6F6465732C2072756474
:1010A0006465723A2053696D706C65206F6E2F6FA6
:1010B00066660A000A4F703A5B6F6E2C206F666698
:1010C0005D0A006F6666006F6E000A5361766564A4
:1010D0000A000A4D6F766520616C6C20636F6E7438
:1010E000726F6C7320746F2065787472656D6573B0
:1010F0002E20456E74657220746F20736176653A98
:1011000020000A0A526164696F2053657475703A51
:10111000002025642C204C6F773A25312E34662C24
:1011200020486967683A25312E34660A000A54550A
:101130004E453A0A000A434820362052616E6765E0
:1011400073206172652064697669646564206279E0
:1011500020313030303A205B6C6F772C2068696723
:10116000685D0A000A5265626F6F7420626F617277
:1011700064000A275927203D20666163746F7279E5
:101180002072657365742C20616E79206F746865B8
:1011900072206B657920746F2061626F72743A0AF5
:1011A0000043616E6E6F74207365742070617261AC
:1011B0006D65746572206F66207479706520256492
:1011C0002E0A0056616C7565206F7574206F66205D
:1011D00072616E676520666F722074797065204950
:1011E0004E5431360A0056616C7565206F75742057
:1011F0006F662072616E676520666F722074797009
:101200006520494E54380A00506172616D206E6F3E
:101210007420666F756E643A2025730A00496E76F5
:10122000616C696420636F6D6D616E642E2055730F
:101230006167653A20736574203C6E616D653E2080
:101240003C76616C75653E0A004D6F6465282575B6
:10125000290053504F5254004452494654004F46BF
:101260005F4C4F49544552004C414E4400504F533F
:101270004954494F4E00434952434C450052544C47
:10128000004C4F495445520047554944454400419C
:1012900055544F00414C545F484F4C440041435219
:1012A0004F0053544142494C495A45004F46460A63
:1012B000004F4E0A002C090953696D706C653A2085
:1012C00000506F732025643A0900466C69676874A2
:1012D000206D6F6465730A00766F6C747320616EA5
:1012E000642063757200766F6C7473000A426174D7
:1012F00074204D6F6E3A0A00545249206672616D37
:10130000650A004672616D650A004348383A202537
:1013100064207C2025640A004348373A2025642055
:101320007C2025640A004348363A202564207C202E
:1013300025640A004348353A202564207C20256432
:101340000A004348343A202564207C2025640A00A2
:101350004348333A202564207C2025640A00434812
:10136000323A202564207C2025640A004348313A23
:10137000202564207C2025640A00526164696F0A7C
:1013800000506172616D65746572206E6F742066C5
:101390006F756E643A20272573270A0054797065AB
:1013A0003A2025642028303D584C2C20313D4C56A5
:1013B0002C20323D584C4C2C20333D48524C562961
:1013C00000536F6E61720A000A4F703A5B6F6E2CA9
:1013D000206F66662C20302D335D0A006F66660034
:1013E0006F6E000A20547970652027726164696FFE
:1013F00027206E6F772E0A0A000A215761726E69E4
:101400006E672C20726164696F206E6F7420636F49
:101410006E66696775726564210053657475702026
:101420004D6F64650A0A0A00436F6D6D616E6473E7
:101430003A0A20206C6F67730A20207365747570F8
:101440000A2020746573740A20207265626F6F74BD
:101450000A0A00416C743A2025302E32666D2C2029
:101460005261773A2025662054656D70657261740B
:101470007572653A20252E31660A006E6F742068F9
:1014800065616C746879000A436F6D7020566563FE
:101490003A2025342E32662C2025342E32662C201C
:1014A00025342E32660A0043757272656E740054DC
:1014B00068726F74746C65004F66660A004D6F74D5
:1014C0006F7220436F6D703A20004D6167206F6628
:1014D000663A2025342E34662C2025342E34662C92
:1014E0002025342E34660A004D6167204465633A36
:1014F0002025342E34660A00436F6D706173730AC1
:1015000000736176696E67206F6666736574730039
:10151000636F6D70617373206E6F74206865616CAA
:101520007468790048656164696E673A20256C6467
:101530002C2058595A3A20252E30662C20252E3042
:10154000662C20252E30662C0958595A6F66663A4B
:101550002025362E32662C2025362E32662C20256C
:10156000362E32660A00436F6D7061737320696EA8
:10157000697469616C69736174696F6E2066616911
:101580006C65642100436F6D706173733A20002EA7
:10159000002C20416C743A20256C646D2C20237340
:1015A0006174733A2025640A002C204C6F6E200071
:1015B0004C61743A2000612025372E34662025378F
:1015C0002E34662025372E346620672025372E34AA
:1015D000662025372E34662025372E346620742069
:1015E00025372E3466200A002E2E2E646F6E650A73
:1015F00000494E530A0054657374696E6720646134
:101600007461666C617368206C6F6767696E6700F0
:10161000436F6E6E656374206261747465727920C5
:10162000666F72207468697320746573742E0A4D36
:101630006F746F72732077696C6C207370696E20A1
:101640006279206672616D6520706F736974696F6D
:101650006E206F726465722E0A46726F6E74202857
:1016600026207269676874206F662063656E7465F2
:10167000726C696E6529206D6F746F722066697275
:1016800073742C207468656E20696E20636C6F63C0
:101690006B77697365206F726465722061726F7514
:1016A0006E64206672616D652E0A52656D656D62AD
:1016B000657220746F20646973636F6E6E65637406
:1016C0002062617474657279206166746572207439
:1016D00068697320746573742E0A416E79206B6596
:1016E0007920746F20657869742E0A000A54657336
:1016F0007420636F6D706C6574650A000A4D6F74B9
:101700006F72732073746F70706564000A53706930
:101710006E206D6F746F72732061743A2564000AD5
:101720005468723A2564007468726F74746C652032
:101730006E6F74207A65726F0A0054686973207343
:10174000656E64732073756464656E206F75747064
:1017500075747320746F20746865206D6F746F7278
:1017600073206261736564206F6E207468652070F9
:10177000696C6F742773207468726F74746C652061
:10178000746F207465737420666F72204553432014
:101790006C6F7373206F662073796E632E204D6FAC
:1017A000746F72732077696C6C207370696E20732C
:1017B0006F206D6F756E742070726F70732075700E
:1017C0002D736964652D646F776E210A202020488F
:1017D0006F6C64207468726F74746C65206C6F77C2
:1017E0002C207468656E207261697365207468725C
:1017F0006F74746C6520737469636B20746F2064FC
:10180000657369726564206C6576656C20616E64D1
:1018100020707265737320412E20204D6F746F729B
:10182000732077696C6C207370696E20666F72200C
:10183000322073656320616E64207468656E207267
:10184000657475726E20746F206C6F772E0A5072FB
:1018500065737320616E79206B657920746F2065E4
:101860007869742E0A00726164696F206E6F74204B
:1018700063616C696272617465640A004F707446DA
:101880006C6F773A200064783A2564092064793ACD
:1018900025640920737175616C3A25640A006D61D5
:1018A0006E2069643A2025640900494E3A20313A95
:1018B00020256409323A20256409333A2025640939
:1018C000343A20256409353A20256409363A202522
:1018D0006409373A20256409383A2025640A00490A
:1018E0004E2020313A20256409323A2025640933FC
:1018F0003A20256409343A20256409353A202564C4
:1019000009363A20256409373A2025640A005265D1
:101910006C6179206F66660A0052656C6179206F90
:101920006E0A0048697420456E74657220746F20D9
:10193000657869742E0A0A00536F6E61723A202529
:101940006420636D0A00536F6E6172206469736175
:10195000626C65640A0061626C65640A00646973A4
:1019600000656E004F7074466C6F770A00437261B9
:1019700073683A2044697361726D696E67004175DE
:10198000746F54756E653A204661696C65640041F8
:1019900075746F54756E653A205375636365737320
:1019A000004175746F54756E653A2053746172749A
:1019B000656400666C6967687420706C616E207283
:1019C0006563656976656400666C69676874207034
:1019D0006C616E207570646174652072656A656300
:1019E00074656400556E6B6E6F776E207061726106
:1019F0006D6574657220252E31367300556E6B6EE1
:101A00006F776E20706172616D6574657220696EAA
:101A10006465782025640041726475436F70746555
:101A2000722056332E312E3500636F6D6D616E64FA
:101A30002072656365697665643A20004368617267
:101A400020446F6E650A00526561647920666F728A
:101A500020466F6E740A004661696C656420746F7D
:101A600020496E6974204F7074466C6F770A00438A
:101A70004F4D5041535320494E4954204552524FE7
:101A800052004553432043616C6962726174696F0F
:101A90006E206163746976653A2070617373696E54
:101AA00067207468726F74746C65207468726F75E7
:101AB000676820746F20455343732E0A00456E7487
:101AC0006572696E67204553432043616C69627299
:101AD0006174696F6E3A20706C6561736520726520
:101AE00073746172742041504D2E0A004C6F672050
:101AF000657261736520636F6D706C6574650A0053
:101B000045726173696E67206C6F67730A006C6F52
:101B100061645F616C6C20746F6F6B20256C7575F0
:101B2000730A00646F6E652E004669726D7761728C
:101B300065206368616E67653A2065726173696EDE
:101B40006720454550524F4D2E2E2E0A00465720F5
:101B50005665723A2025640A00496E697469616CA1
:101B60006973696E672041504D2E2E2E000A526512
:101B700061647920746F20464C5920000A507265C8
:101B8000737320454E54455220332074696D65733C
:101B900020746F20737461727420696E7465726151
:101BA00063746976652073657475700A00455241E7
:101BB00053494E47204C4F4753004E6F2064617489
:101BC00061666C61736820696E7365727465640028
:101BD0000A0A496E69742041726475436F707465B6
:101BE000722056332E312E350A0A46726565205210
:101BF000414D3A2025750A004C6F737420475053AD
:101C000021004C6F77204261747465727921005411
:101C100072696D207361766564006261726F6D65D3
:101C20007465722063616C6962726174696F6E20A1
:101C3000636F6D706C6574650043616C696272619D
:101C400074696E67206261726F6D657465720041C0
:101C50005F6F66663A2025342E32662C2025342E9E
:101C600032662C2025342E32660A415F7363616C24
:101C7000653A2025342E32662C2025342E32662CEF
:101C80002025342E32660A00475F6F66663A2025AB
:101C9000342E32662C2025342E32662C2025342E0C
:101CA00032660A002D00494E530A0047524F554EE6
:101CB000442053544152540041726475436F707410
:101CC00065722056332E312E350041726D3A205305
:101CD0006166657479205377697463680041726D39
:101CE0003A204C65616E696E670041726D3A20540E
:101CF00068722062656C6F772046530041726D3ABE
:101D000020416C7420646973706172697479005247
:101D100065616368656420436F6D6D616E64202347
:101D200025690050726541726D3A204869676820E4
:101D30004750532048444F500050726541726D3AED
:101D4000204261642047505320506F7300507265E9
:101D500041726D3A204143524F5F42414C5F524FB6
:101D60004C4C2F50495443480050726541726D3AB3
:101D700020436865636B20414E474C455F4D415899
:101D80000050726541726D3A20436865636B20466E
:101D9000535F5448525F56414C554500507265415F
:101DA000726D3A2043683726436838204F7074209C
:101DB00063616E6E6F742062652073616D650050A3
:101DC000726541726D3A20436865636B20426F61B2
:101DD000726420566F6C7461676500507265417261
:101DE0006D3A20494E53206E6F74206865616C74A3
:101DF00068790050726541726D3A20494E53206EE9
:101E00006F742063616C6962726174656400507202
:101E10006541726D3A20436865636B206D61672090
:101E20006669656C640050726541726D3A20436F5B
:101E30006D70617373206F66667365747320746F61
:101E40006F20686967680050726541726D3A20437F
:101E50006F6D70617373206E6F742063616C696263
:101E600072617465640050726541726D3A20436F0F
:101E70006D70617373206E6F74206865616C746837
:101E8000790050726541726D3A20416C742064692A
:101E9000737061726974790050726541726D3A2095
:101EA0004261726F206E6F74206865616C7468792E
:101EB0000050726541726D3A205243206E6F74205B
:101EC00063616C6962726174656400504552463AA0
:101ED0002025752F257520256C750A00746573748F
:101EE000006261726F00000000000000000000D678
:101EF0007A636F6D706173730000000000000074FE
:101F00005D67707300000000000000000000002FFB
:101F100040696E73000000000000000000000084B3
:101F2000CB6C6F6767696E67000000000000006D92
:101F3000336D6F746F72730000000000000000F3D7
:101F40009D6D6F746F7273796E6300000000006B9B
:101F50009C6F7074666C6F7700000000000000FFDB
:101F6000CA70776D0000000000000000000000FD56
:101F70009B726164696F0000000000000000009522
:101F80009B72656C61790000000000000000004257
:101F900037736F6E61720000000000000000006A7D
:101FA0004441726475436F707465722056332E31EC
:101FB0002E35006C6F677300000000000000000009
:101FC00000D13F73657475700000000000000000D0
:101FD00000D73F746573740000000000000000002B
:101FE00000CB3F7265626F6F74000000000000005C
:101FF00000CD3268656C7000000000000000000039
:1020000000B632736574757000616363656C0000BF
:10201000000000000000004D55636F6D7061737328
:1020200000000000000000165D636F6D7061737347
:102030006D6F74000000002FA2657261736500006F
:10204000000000000000004C326D6F6465730000FA
:1020500000000000000000789F6F7074666C6F775E
:102060000000000000000029C8726164696F000070
:10207000000000000000004D9E72616E6765000068
:1020800000000000000000414D726573657400009F
:10209000000000000000008C417365740000000027
:1020A00000000000000000CF5573686F770000004B
:1020B000000000000000004277736F6E6172000044
:1020C00000000000000000BC4C8D000100424154A3
:1020D000545F4D4F4E49544F520000000000A8007D
:1020E0000100424154545F564F4C545F50494E00DA
:1020F000000000A9000100424154545F4355525270
:102100005F50494E000000008E00040042415454CC
:102110005F564F4C545F4D554C540000008F0004E7
:1021200000424154545F414D505F504552564F4C10
:10213000540091000300424154545F4341504143D5
:10214000495459000000008059464D540000424255
:102150006E4E5A000000000000000000000054799C
:1021600070652C4C656E6774682C4E616D652C46ED
:102170006F726D617400000000000000000000003C
:10218000000000000000000000000000000000004F
:1021900000000000000000000000000000008117A7
:1021A0005041524D004E660000000000000000004B
:1021B00000000000004E616D652C56616C75650075
:1021C000000000000000000000000000000000000F
:1021D00000000000000000000000000000000000FF
:1021E00000000000000000000000000000000000EF
:1021F0000000000000822D47505300004249484231
:10220000634C4C6565456566490000005374617414
:1022100075732C54696D654D532C5765656B2C4E49
:10222000536174732C48446F702C4C61742C4C6E49
:10223000672C52656C416C742C416C742C53706427
:102240002C474372732C565A2C540000831F494D5F
:10225000550000496666666666660000000000007C
:1022600000000054696D654D532C477972582C4716
:102270007972592C4779725A2C416363582C416307
:1022800063592C4163635A00000000000000000005
:10229000000000000000000000000000000000003E
:1022A000000000871F494D55320049666666666624
:1022B0006600000000000000000054696D654D5389
:1022C0002C477972582C477972592C4779725A2CBD
:1022D000416363582C416363592C4163635A000086
:1022E00000000000000000000000000000000000EE
:1022F0000000000000000000000084434D53470030
:10230000005A000000000000000000000000000073
:10231000004D6573736167650000000000000000F8
:1023200000000000000000000000000000000000AD
:10233000000000000000000000000000000000009D
:10234000000000000000000000000000000000008D
:102350000085175243494E00496868686868686894
:10236000680000000000000054696D654D532C4367
:1023700068616E312C4368616E322C4368616E3344
:102380002C4368616E342C4368616E352C43686160
:102390006E362C4368616E372C4368616E380000DE
:1023A0000000000000000000861752434F5500490E
:1023B0006868686868686868000000000000005489
:1023C000696D654D532C4368616E312C4368616EB5
:1023D000322C4368616E332C4368616E342C436841
:1023E000616E352C4368616E362C4368616E372C04
:1023F0004368616E380000000000000000000088A3
:10240000114241524F00496666630000000000001F
:1024100000000000000054696D654D532C416C7440
:102420002C50726573732C54656D700000000000B1
:10243000000000000000000000000000000000009C
:10244000000000000000000000000000000000008C
:1024500000000000000019194154554E0042426628
:1024600066666666000000000000000000417869B2
:10247000732C54756E65537465702C526174654D80
:10248000696E2C526174654D61782C5250476169B8
:102490006E2C52444761696E2C53504761696E003F
:1024A000000000000000000000000000001A0941C8
:1024B0005444450063660000000000000000000076
:1024C00000000000416E676C652C5261746500006D
:1024D00000000000000000000000000000000000FC
:1024E00000000000000000000000000000000000EC
:1024F00000000000000000000000000000000000DC
:1025000000000000091743555252004968496868A5
:10251000686600000000000000000054696D654D11
:10252000532C5468724F75742C546872496E742C15
:10253000566F6C742C437572722C5663632C437502
:102540007272546F74000000000000000000000070
:1025500000000000000000000000000C144F4600C6
:1025600000006868426363656500000000000000C9
:10257000000044782C44792C535175616C2C582CF4
:10258000592C526F6C6C2C50697463680000000009
:10259000000000000000000000000000000000003B
:1025A000000000000000000000000000000000002B
:1025B0000000052F4E54554E0049666666666666F5
:1025C00066666666000000000054696D654D532C18
:1025D00044506F73582C44506F73592C506F73587C
:1025E0002C506F73592C4456656C582C4456656CAE
:1025F000592C56656C582C56656C592C44416363B4
:10260000582C4441636359000004214354554E0043
:102610004968686866666563636868000000000072
:1026200054696D654D532C546872496E2C416E6728
:102630004273742C5468724F75742C44416C742C22
:10264000416C742C426172416C742C4453416C7423
:102650002C53416C742C444352742C43527400002C
:102660000F194D41470000496868686868686868E4
:102670006800000000000054696D654D532C4D61E9
:1026800067582C4D6167592C4D61675A2C4F667302
:10269000582C4F6673592C4F66735A2C4D4F6673E6
:1026A000582C4D4F6673592C4D4F66735A000000DD
:1026B000000000000000001B194D4147320049682E
:1026C000686868686868686800000000000054690D
:1026D0006D654D532C4D6167582C4D6167592C4DDC
:1026E00061675A2C4F6673582C4F6673592C4F668E
:1026F000735A2C4D4F6673582C4D4F6673592C4DA1
:102700004F66735A0000000000000000000006132E
:10271000504D00000042424848496842484200008B
:10272000000000000052656E436E742C52656E42CC
:102730006C772C4E4C6F6E2C4E4C6F6F702C4D6125
:1027400078542C504D542C4932434572722C494ECA
:10275000534572722C494E4156457272000000007A
:1027600000000000000814434D4400004242424271
:1027700042654C4C000000000000000043546F74A0
:102780002C434E756D2C4349642C434F70742C5070
:10279000726D312C416C742C4C61742C4C6E670042
:1027A0000000000000000000000000000000000029
:1027B0000000000000000000000000000113415470
:1027C000540000496363636343430000000000005A
:1027D00000000054696D654D532C446573526F6C55
:1027E0006C2C526F6C6C2C44657350697463682C4C
:1027F00050697463682C4465735961772C5961770B
:1028000000000000000000000000000000000000C8
:1028100000000003064D4F4445004D6800000000D5
:10282000000000000000000000004D6F64652C54A3
:102830006872437273000000000000000000000096
:102840000000000000000000000000000000000088
:102850000000000000000000000000000000000078
:10286000000000000000000000000A03535452540E
:102870000000000000000000000000000000000058
:102880000000000000000000000000000000000048
:102890000000000000000000000000000000000038
:1028A0000000000000000000000000000000000028
:1028B0000000000000000000000000000000000018
:1028C000000D04455600000042000000000000001A
:1028D000000000000000000049640000000000004B
:1028E00000000000000000000000000000000000E8
:1028F00000000000000000000000000000000000D8
:1029000000000000000000000000000000000000C7
:1029100000000000000000001406443136000042B0
:1029200068000000000000000000000000000049F6
:10293000642C56616C75650000000000000000000A
:102940000000000000000000000000000000000087
:102950000000000000000000000000000000000077
:102960000000000000000000000000000000001552
:1029700006445531360042480000000000000000C7
:1029800000000000000049642C56616C7565000071
:102990000000000000000000000000000000000037
:1029A0000000000000000000000000000000000027
:1029B0000000000000000000000000000000000017
:1029C0000000000000001608443332000042690095
:1029D0000000000000000000000000000049642C1E
:1029E00056616C75650000000000000000000000EA
:1029F00000000000000000000000000000000000D7
:102A000000000000000000000000000000000000C6
:102A10000000000000000000000000000017084453
:102A20005533320042490000000000000000000061
:102A30000000000049642C56616C756500000000C0
:102A40000000000000000000000000000000000086
:102A50000000000000000000000000000000000076
:102A60000000000000000000000000000000000066
:102A700000000000180844464C5400426600000064
:102A8000000000000000000000000049642C5661B6
:102A90006C756500000000000000000000000000F0
:102AA0000000000000000000000000000000000026
:102AB0000000000000000000000000000000000016
:102AC0000000000000000000000000121B43414D08
:102AD000000049484C4C656363430000000000005F
:102AE000000047505354696D652C47505357656536
:102AF0006B2C4C61742C4C6E672C416C742C526F97
:102B00006C6C2C50697463682C596177000000006C
:102B100000000000000000000000000000000000B5
:102B20000000130545525200004242000000000020
:102B30000000000000000000005375627379732CE0
:102B400045436F64650000000000000000000000C5
:102B50000000000000000000000000000000000075
:102B60000000000000000000000000000000000065
:102B70000000000000000000004C6F670064756DED
:102B80007000000000000000000000092F65726165
:102B900073650000000000000000006C7B656E6142
:102BA000626C650000000000000000D74D6469738E
:102BB00061626C6500000000000000D74D096B02E7
:102BC00000C201C1A5020084038045010090015D9F
:102BD000A10A00D00243AC0A00320085B00A000A04
:102BE000009F340A008C00E3560A00E80344940A6C
:102BF00000200351A721005A0096340200A401745A
:102C00002D0200FA009134020064004DAF6400A46C
:102C100001BF7B0A001400ACBF02002602BFAC64F7
:102C2000009600BBAC0200D0029FAD0200B6037F4D
:102C30002D0200C2017A340A002C014A450200DC50
:102C4000005470E803C800CD440A003200D4410AA1
:102C50000032000253595349445F53575F4D524568
:102C6000560000000000901300000000015359536B
:102C700049445F53575F545950450000000001928A
:102C800013000020410253595349445F54484953AB
:102C90004D4156000000007093130000803F025326
:102CA000595349445F4D5947435300000000000009
:102CB00071951300007F430153455249414C315FE8
:102CC0004241554400000000007297130000644226
:102CD0000154454C454D5F44454C415900000000AE
:102CE0000000739813000000000252544C5F414CE6
:102CF0005400000000000000000000A099130080B4
:102D0000BB4401534F4E41525F454E41424C45003A
:102D100000000000949B130000000001534F4E413F
:102D2000525F54595045000000000000009A9C1367
:102D30000000000004534F4E41525F4741494E008E
:102D40000000000000001E9D13CDCC4C3F014653F7
:102D50005F424154545F454E41424C45000000C122
:102D6000A113000000000446535F424154545F56D3
:102D70004F4C54414745000097A2130000284104DE
:102D800046535F424154545F4D41480000000000EB
:102D90000025A613000000000146535F4750535F13
:102DA000454E41424C4500000000C3AA130000807C
:102DB0003F0146535F4743535F454E41424C4500F8
:102DC000000000C6AB1300000000024750535F48EC
:102DD000444F505F474F4F440000000023AC1300A6
:102DE000004843014D41475F454E41424C4500007C
:102DF000000000000092AE130000803F01464C4FDF
:102E0000575F454E41424C4500000000000096AF20
:102E100013000000000153555045525F53494D5077
:102E20004C4500000000009BB0130000000002525F
:102E3000544C5F414C545F46494E414C00000000E9
:102E4000A3B1130000000001525353495F50494E93
:102E500000000000000000000018B313000080BF55
:102E600004525353495F52414E4745000000000051
:102E7000000027B4130000A0400157505F5941578C
:102E80005F4245484156494F5200001AB8130000AE
:102E900000400157505F544F54414C000000000067
:102EA00000000000D3C013000000000157505F492C
:102EB0004E444558000000000000000000D4C1133B
:102EC0000000000002434952434C455F52414449CF
:102ED000555300000000D7C21300002041044349AD
:102EE00052434C455F524154450000000000001D14
:102EF000C4130000A0410352544C5F4C4F49545F2F
:102F000054494D4500000000A2C81300409C4502F2
:102F10004C414E445F5350454544000000000000C2
:102F200000D9CC13000048420250494C4F545F5620
:102F3000454C5A5F4D41580000001CCE1300007AEA
:102F400043025448525F4D494E000000000000000B
:102F5000000000B4D01300000243025448525F4DF9
:102F6000415800000000000000000000B5D213002E
:102F7000007A440146535F5448525F454E41424CEB
:102F80004500000000B6D413000000000246535F65
:102F90005448525F56414C55450000000000B8D5DA
:102FA0001300C07344025452494D5F5448524F5469
:102FB000544C4500000000B9D7130000E14302540F
:102FC00048525F4D4944000000000000000000002E
:102FD000C2D9130000FA4301464C544D4F444531C9
:102FE000000000000000000000C8DB13000000002B
:102FF00001464C544D4F4445320000000000000093
:103000000000C9DC130000000001464C544D4F4441
:103010004533000000000000000000CADD1300007E
:10302000000001464C544D4F444534000000000060
:1030300000000000CBDE130000000001464C544DA0
:103040004F444535000000000000000000CCDF13B5
:103050000000000001464C544D4F4445360000002E
:10306000000000000000CDE0130000000001534903
:103070004D504C450000000000000000000000CE54
:10308000E11300000000024C4F475F4249544D419C
:10309000534B00000000000014E21300805F440165
:1030A0004553430000000000000000000000000045
:1030B00000BAE413000000000154554E4500000022
:1030C00000000000000000000000BBE5130000004D
:1030D000000254554E455F4C4F5700000000000061
:1030E000000000BDE813000000000254554E455F8B
:1030F000484947480000000000000000BCE61300FB
:10310000007A44014652414D450000000000000095
:10311000000000000095EA130000803F014348379B
:103120005F4F50540000000000000000000098EBCA
:103130001300000000014348385F4F505400000066
:10314000000000000000001FEC130000000001411F
:10315000524D494E475F434845434B000000000035
:1031600020ED130000803F02414E474C455F4D412A
:1031700058000000000000000022B91300A08C4598
:1031800003414E474C455F524154455F4D41580005
:10319000000026BB1300A08C460152435F46454504
:1031A0004C5F52500000000000000028BF130000D8
:1031B000C842085243315F000000000000000000D8
:1031C00000000000AAEE137E490000085243325F5F
:1031D00000000000000000000000000000AB0B1425
:1031E0007E490000085243335F00000000000000E9
:1031F000000000000000AC28147E49000008524383
:10320000345F00000000000000000000000000AD7E
:1032100045147E490000085243355F00000000005D
:103220000000000000000000AE6214144A00000814
:103230005243365F00000000000000000000000064
:1032400000AF8014144A0000085243375F000000AA
:1032500000000000000000000000B09E14144A00AE
:1032600000085243385F000000000000000000002A
:10327000000000B1BC14144A000008524331305F12
:10328000000000000000000000000000B2DA14148A
:103290004A000008524331315F0000000000000086
:1032A0000000000000B3F814144A00000252435F0B
:1032B0005350454544000000000000000000C016C7
:1032C000150000F543044143524F5F52505F5000D8
:1032D00000000000000000DD1815000090400441CF
:1032E00043524F5F5941575F5000000000000000FB
:1032F000F41C1500009040044143524F5F42414C82
:103300005F524F4C4C00000000F220150000803F3F
:10331000044143524F5F42414C5F5049544348007F
:103320000000F324150000803F014143524F5F54D9
:103330005241494E455200000000001B2815000074
:10334000004008524154455F524C4C5F0000000061
:1033500000000000DF2915014900000852415445D2
:103360005F5049545F0000000000000000E043157A
:103370000149000008524154455F5941575F000020
:10338000000000000000E15D1501490000084C4FFD
:10339000495445525F4C41545F000000000000E773
:1033A000771501490000084C4F495445525F4C4F76
:1033B0004E5F000000000000E89115014900000880
:1033C0005448525F524154455F0000000000000025
:1033D00000ECAB1501490000085448525F414343DB
:1033E000454C5F00000000000000F1C515014900D8
:1033F00000084F465F524C4C5F0000000000000088
:10340000000000EDDF1501490000084F465F5049FC
:10341000545F00000000000000000000EEF91501FC
:10342000490000085354425F524C4C5F00000000BA
:103430000000000000E22F169D480000085354428F
:103440005F5049545F000000000000000000E33DB1
:10345000169D480000085354425F5941575F0000D1
:1034600000000000000000E44B169D4800000854D6
:1034700048525F414C545F00000000000000000013
:10348000EB59169D48000008484C445F4C41545F7E
:10349000000000000000000000E513169D48000039
:1034A00008484C445F4C4F4E5F0000000000000095
:1034B0000000E621169D4800000852454C41595F26
:1034C00000000000000000000000000D4309074B51
:1034D000000008434F4D504153535F00000000006F
:1034E00000000000938A101243000008494E535F09
:1034F0000000000000000000000000000003F711C1
:10350000CB45000008494E41565F00000000000016
:1035100000000000000064350A844B00000857508A
:103520004E41565F000000000000000000000065F2
:103530005409CF4B0000085352305F0000000000D8
:1035400000000000000000006E180D7B360000082F
:103550005352315F00000000000000000000000036
:10356000006FB60D7B36000008414852535F0000E3
:10357000000000000000000000009F9D0E8A470030
:103580000008424154545F000000000000000000A9
:1035900000000024B20BF4550000084252445F00C2
:1035A0000000000000000000000000000FFE0CBC46
:1035B00056000008474E445F000000000000000075
:1035C00000000000000B7211A540000008534348A2
:1035D00045445F00000000000000000000000C7B7C
:1035E00013455500000846454E43455F0000000066
:1035F000000000000000004502094E54000008478A
:103600005053474C495443485F00000000000000FD
:10361000462113F83B0000084D4F545F00000000A6
:103620000000000000000000005A960C8A4A0000CA
:103630000852434D41505F000000000000000000B0
:103640000000C7FF0C77550000084F53445F00008F
:103650000000000000000000000000F57312425856
:10366000000000000000000000000000000000005A
:10367000000000000000000000000002005241575E
:103680005F53454E5300000000000000000067003B
:103690000000000002014558545F5354415400009B
:1036A000000000000000006900000000000202525B
:1036B000435F4348414E000000000000000000004E
:1036C0006B000000000002035241575F4354524C0C
:1036D0000000000000000000006D0000000000027B
:1036E00004504F534954494F4E0000000000000061
:1036F00000006F000000000002054558545241319F
:103700000000000000000000000000710000000048
:1037100000020645585452413200000000000000EB
:1037200000000000730000000000020745585452DA
:1037300041330000000000000000000000750000A0
:103740000000000208504152414D530000000000AB
:1037500000000000000077000000000000FF0000F3
:103760000000000000000000000000000000000059
:103770000000000000202025530A00436F6D6D619A
:103780006E64733A00496E76616C696420636F6D94
:103790006D616E642C2074797065202768656C708B
:1037A0002700657869740068656C700025535D209A
:1037B0000042616420636F6E76657273696F6E207C
:1037C0007479706520272553270A00556E6B6E6F3C
:1037D000776E20636F6E76657273696F6E20272532
:1037E00053270A0025733A2025660A0025733A20DC
:1037F000256C640A0025733A2025640A0025733A73
:103800002025640A00454550524F4D2066756C6C6A
:10381000002C76D888674F0823C1DFAE59B1B79620
:10382000E5E453C63A51997696E6C28426898C9B84
:1038300062407C6FFCBC9C9F40BAA56FA590055A66
:103840002A5C936B6C676DC11BE0E40D47F520E6C5
:10385000B5D0ED902E009435770080841E000020B6
:103860004E000000C833333333986E128341EF8D1E
:1038700021893BE655CFFEE6DBD1844B38F77C1D32
:1038800090A4BBE4243284725E8100C9F1ECA1E50E
:103890003DDCDFE1E3E6E8EBEDEFF2F4F7F9FCFE07
:1038A000000305080A0C0F111416181B1D202224F2
:1038B000276E616E00696E66004572726F723A2003
:1038C00041505F48414C5F4156523A3A415652414D
:1038D0006E616C6F67496E206F7574206F66206330
:1038E00068616E6E656C730D0A00474F494E472044
:1038F000444F574E20464F522041205245424F4F91
:10390000540D0A0050414E49433A20736368656480
:10391000756C65723A3A73797374656D5F696E6937
:103920007469616C697A65642063616C6C65646D4F
:103930006F7265207468616E206F6E636500504120
:103940004E49433A2041565253656D6170686F721B
:10395000653A3A74616B6520757365642066726FB1
:103960006D20696E736964652074696D657220707D
:10397000726F636573730050414E49433A20535050
:10398000493020777269746520636F6C6C69736964
:103990006F6E0050414E49433A20535049302074D5
:1039A00072616E7366657220636F6C6C6973696FA8
:1039B0006E000102102020080810204010204080D6
:1039C00002010201080402010102040810204080E3
:1039D0008040201008040201800402018040201071
:1039E00008040201080402010102040810204080BA
:1039F0000102040810204080400505050507050860
:103A0000080808020202020A0A0808040404040161
:103A10000101010101010103030303030303030483
:103A20000707070C0C0C0C0C0C0C0C020202020613
:103A3000060606060606060B0B0B0B0B0B0B0B05FF
:103A4000000020002300260029002C002F00320057
:103A50000001000003010601090100002200250009
:103A600028002B002E003100340002010000050167
:103A700008010B0100002100240027002A002D006E
:103A80003000330001010000040107010A01327C0B
:103A90008900EDD96877000000590000000000009F
:103AA0000000D69FDCA81817AA90437327F6B968C0
:103AB000EDF4DED409FEE61C1C84DDE80B99292711
:103AC000D6DF8D210F036418EFEE1EF0B78282005F
:103AD000941500F37C0000001400988F00007F6AAA
:103AE00000000000000000E7B73F360000000000C3
:103AF0000000AF669ED0385DD36C20B9EB5D7C7C56
:103B000077044C80387486EDCB0000000000000084
:103B100000000000000000000000000000000000A5
:103B200000B1F10F86DBD0BC5416131586004E444D
:103B3000BD7F9A15159001EA49B51653A78AEA0088
:103B40000000000000000000000000000000000075
:103B50000000000000000000000000000000000065
:103B60000000000000000000000000000000000055
:103B70000000000000000000000000000000000045
:103B800000000000000000CC31AA2C532E00204E73
:103B90004D4541200020534952462000204D544BB2
:103BA0002000204D544B313920002075626C6F7815
:103BB00020004F4B000096000000E100008025002F
:103BC00000C012000024505352463130302C302CAB
:103BD00033383430302C382C312C302A3343002405
:103BE0005047434D442C31362C302C302C302C3067
:103BF0002C302A36410D0A000100454E41424C4509
:103C00000000000000000000000000030000008031
:103C10003F04015241444955530000000000000098
:103C200000000000040000004843040241434345F3
:103C30004C00000000000000000000000008000030
:103C4000007A4400FF0000000000000000000000B7
:103C50000000000000000000000000004750565423
:103C600047004750474741004750524D43002450BA
:103C70005542582C34302C6767612C302C312C3055
:103C80002C302C302C302A37420D0A245055425803
:103C90002C34302C7674672C302C312C302C302C7A
:103CA000302C302A37460D0A24505542582C3430D7
:103CB0002C726D632C302C302C302C302C302C306E
:103CC0002A36370D0A0024504D544B3331342C30F2
:103CD0002C302C312C312C302C302C302C302C3002
:103CE0002C302C302C302C302C302C302C302C30F4
:103CF0002A32380D0A24504D544B3333302C302A9D
:103D000032450D0A24504D544B3331332C312A3275
:103D1000450D0A24504D544B3330312C322A324554
:103D20000D0A0024505352463130332C302C302CA5
:103D3000312C312A32350D0A24505352463130335A
:103D40002C312C302C302C312A32350D0A24505392
:103D500052463130332C322C302C302C312A323632
:103D60000D0A24505352463130332C332C302C3032
:103D70002C312A32370D0A24505352463130332C1D
:103D8000342C302C312C312A32300D0A245053522D
:103D9000463130332C352C302C312C312A32300D39
:103DA0000A24505352463130332C362C302C302CD0
:103DB000312A32320D0A24505352463130332C38D6
:103DC0002C302C302C312A32430D0A2450535246C9
:103DD0003135312C312A33460D0A245053524631A5
:103DE00030362C32312A30460D0A00A0A20008A637
:103DF0000200000000000000A8B0B3A0A20008A6C6
:103E00000029010000000000D0B0B3B56206010334
:103E100000010601124F24505542582C34312C31E8
:103E20002C303030332C303030312C33383430308B
:103E30002C302A32360D0A0050414E49433A204474
:103E4000617461466C6173682053504944657669BA
:103E500063654472697665722073656D6170686F21
:103E60007265206973206E756C6C0050414E494339
:103E70003A2044617461466C617368205350494430
:103E80006576696365447269766572206E6F742029
:103E9000666F756E64004C6F672025752C2020209E
:103EA0002073746172742025752C202020656E6447
:103EB0002025750A000A2575206C6F67730A000AB1
:103EC0004E6F206C6F67730A0A004E756D50616704
:103ED00065733A20257520205061676553697A65BE
:103EE0003A2025750A004D616E75666163747572BE
:103EF00065723A203078253032782020204465766B
:103F00006963653A203078253034780A004E6F2096
:103F100064617461666C61736820696E7365727444
:103F200065640025750A0025752C0900444620703B
:103F30006167652C206C6F672066696C6520232C97
:103F4000206C6F6720706167653A2025752C090029
:103F5000464D542C2025752C2025752C2025532CBE
:103F60002025532C2025530A002C200025730025E2
:103F70007300257300252E326600252E326600253B
:103F80002E326600252E326600256600256C7500EF
:103F9000256C6400257500256400257500256400E6
:103FA00025532C2000554E4B4E2C2025750A0050D1
:103FB000414E49433A2041505F4261726F3A3A7232
:103FC00065616420756E7375636365737366756C84
:103FD00020666F72206D6F7265207468616E203587
:103FE00030306D7320696E2041505F4261726F3ACC
:103FF0003A63616C696272617465205B335D0D0ABE
:104000000050414E49433A2041505F4261726F3A3D
:104010003A7265616420756E737563636573736668
:10402000756C20666F72206D6F7265207468616EAA
:10403000203530306D7320696E2041505F426172CF
:104040006F3A3A63616C696272617465205B325DDC
:104050000D0A0050414E49433A2041505F4261727F
:104060006F3A3A7265616420756E73756363657348
:104070007366756C20666F72206D6F726520746850
:10408000616E203530306D7320696E2041505F4283
:1040900061726F3A3A63616C696272617465205B48
:1040A000315D0D0A0004024142535F5052455353A3
:1040B00000000000000000000C00000000000403ED
:1040C00054454D50000000000000000000000000BA
:1040D000000800000000000104414C545F4F4646B8
:1040E00053455400000000000000100000000000D4
:1040F00000FF0000000000000000000000000000C1
:1041000000000000000000000050414E49433A20EA
:1041100041505F4261726F5F4D53353631312074CB
:104120006F6F6B206D6F7265207468616E20313027
:1041300030306D7320746F20696E697469616C69C9
:104140007A650050414E49433A2041505F426172C6
:104150006F5F4D53353631313A206661696C656465
:1041600020746F2074616B652073657269616C20C7
:1041700073656D6170686F726520666F7220696E1D
:1041800069740050414E49433A2041505F42617288
:104190006F5F4D53353631313A204E554C4C2073BC
:1041A000657269616C206472697665720050414E77
:1041B00049433A206661696C656420746F207461BC
:1041C0006B65205F6932635F73656D20313030202D
:1041D00074696D657320696E206120726F772C2081
:1041E000696E2041505F4261726F5F4D53353631C9
:1041F000313A3A5F7570646174650050414E4943CD
:104200003A2041505F4261726F5F4D533536313114
:1042100020646964206E6F74206765742076616C19
:104220006964204932432073656D617068726F65FF
:10423000210050414E49433A206661696C65642013
:10424000746F2074616B65205F7370695F73656D57
:10425000203130302074696D657320696E206120D3
:10426000726F772C20696E2041505F4261726F5FE0
:104270004D53353631313A3A5F757064617465007B
:1042800050414E49433A2041505F4261726F5F4D49
:10429000533536313120646964206E6F7420676550
:1042A000742076616C6964205350492073656D6198
:1042B0007068726F65210050414E49433A20415069
:1042C0005F4261726F5F4D533536313120646964EE
:1042D000206E6F74206765742076616C696420536A
:1042E00050492064657669636520647269766572F9
:1042F00021004661696C656420746F2067657420D5
:10430000484D43353834332073656D6170686F7282
:10431000650005014F46530000000000000000004A
:1043200000000000001700000000000402444543A4
:10433000000000000000000000000000000023005A
:104340000000000001034C4541524E0000000000F7
:104350000000000000000008000000803F0104553C
:1043600053450000000000000000000000000000B5
:1043700027000000803F01054155544F444543004C
:1043800000000000000000000028000000803F0145
:10439000064D4F5443540000000000000000000090
:1043A0000000A4000000000005074D4F540000006D
:1043B0000000000000000000000000A50000000058
:1043C0000001084F5249454E540000000000000013
:1043D0000000000016000000000001094558544587
:1043E000524E414C00000000000000000029000077
:1043F00000000000FF0000000000000000000000BE
:10440000000000000000000000000000256C642E89
:104410002530376C64002D0009736C6F70653A00AD
:1044200009793A00783A0043757276653A00097363
:104430006C6F70653A0009793A00783A00437572FA
:1044400076653A0009736C6F70653A0009793A0035
:10445000783A0043757276653A0009736C6F70653F
:104460003A0009793A00783A0043757276653A0065
:1044700009736C6F70653A0009793A00783A004325
:10448000757276653A0009736C6F70653A00097948
:104490003A00783A0043757276653A0043616C6978
:1044A00062726174696F6E204641494C45440A004E
:1044B00043616C6962726174696F6E2073756363C6
:1044C00065737366756C0A005363616C696E675B34
:1044D00025755D3A20252E326620252E3266202550
:1044E0002E32660A004F6666736574735B25755DD0
:1044F0003A20252E326620252E326620252E326661
:104500000A004661696C656420746F2067657420D9
:10451000494E532073616D706C650A00506C616385
:10452000652076656869636C6520255320616E643B
:1045300020707265737320616E79206B65792E0A25
:10454000006F6E20697473204241434B006E6F739D
:1045500065205550006E6F736520444F574E006FB5
:104560006E2069747320524947485420736964650A
:10457000006F6E20697473204C4546542073696443
:1045800065006C6576656C0020002A00496E6974D0
:1045900020416363656C006779726F5B25755D20F0
:1045A000646964206E6F7420636F6E7665726765F0
:1045B0003A20646966663D2566206470730A002AA5
:1045C00000496E6974204779726F00020050524FA3
:1045D000445543545F494400000000000000260099
:1045E0000000000005014143435343414C000000DB
:1045F000000000000000002800000000000502414B
:1046000043434F46465300000000000000000000F6
:1046100034000000000005034759524F464653003E
:104620000000000000000000004000000000000149
:10463000044D5055364B5F46494C544552000000DE
:1046400000004C000000000000FF0000000000001F
:10465000000000000000000000000000000000005A
:10466000004661696C656420746F20626F6F74200E
:104670004D50553630303020352074696D657300EB
:104680004D5055363030303A20556E61626C6520A1
:10469000746F206765742073656D6170686F7265F3
:1046A0000050414E49433A2041505F496E65727453
:1046B00069616C53656E736F725F4D505536303063
:1046C000303A3A5F706F6C6C5F6461746120666150
:1046D000696C656420746F2074616B652053504968
:1046E0002073656D6170686F72652073796E6368A1
:1046F000726F6E6F75736C790050414E49433A206A
:104700006661696C656420746F20626F6F74204D00
:1047100050553630303020352074696D6573004D4A
:104720005055363030302073746172747570206665
:1047300061696C65643A206E6F20646174612072F7
:1047400065616479004D5055363030303A20556EF1
:1047500061626C6520746F206765742073656D619C
:1047600070686F72650054696D6564206F757420A0
:1047700077616974696E6720666F72207573657200
:1047800020726573706F6E73650004024750535F4B
:104790004741494E000000000000000000240000D6
:1047A00000803F01034750535F5553450000000010
:1047B0000000000000002C000000803F040459416C
:1047C000575F500000000000000000000000001CC7
:1047D00000CDCC4C3E040552505F5000000000005C
:1047E00000000000000000002000CDCC4C3E01067F
:1047F00057494E445F4D4158000000000000000042
:10480000002D000000000005085452494D00000032
:10481000000000000000000000003E00000000005A
:1048200001094F5249454E544154494F4E00000032
:104830000000002E0000000000040A434F4D505FAE
:104840004245544100000000000000002800CDCC8B
:10485000CC3D010B4750535F4D494E5341545300DB
:1048600000000000002F000000C040010C47505322
:104870005F44454C4159000000000000000030003A
:104880000000803F00FF000000000000000000006A
:1048900000000000000000000000000000040050C4
:1048A0000000000000000000000000000000000008
:1048B00000000000000004014900000000000000AA
:1048C00000000000000000000004000000000002E2
:1048D00002494D41580000000000000000000000A7
:1048E000000008000000000000FF000000000000C1
:1048F00000000000000000000000000000000000B8
:104900000004005000000000000000000000000053
:104910000000000000000000000004014900000049
:104920000000000000000000000000000004000083
:10493000000000040244000000000000000000002D
:104940000000000000000800000000000203494DC4
:104950004158000000000000000000000000000CB2
:10496000000000000000FF00000000000000000048
:104970000000000000000000000000000000020035
:104980004D494E0000000000000000000000000043
:10499000000A000080894402015452494D00000081
:1049A000000000000000000000000C000080BB447C
:1049B00002024D415800000000000000000000000D
:1049C0000000000E000080ED440103524556000037
:1049D00000000000000000000000000010000000C7
:1049E000803F0205445A0000000000000000000063
:1049F000000000000011000000000000FF000000A7
:104A000000000000000000000000000000000000A6
:104A1000000000000800000000000000000000008E
:104A20000000000000000000007E49000001014677
:104A3000554E4354494F4E00000000000000000056
:104A40001D000000000000FF00000000000000004A
:104A50000000000000000000000000000000004115
:104A6000505F4D6F746F72733A206661696C656454
:104A700020746F20637265617465207468726F744E
:104A8000746C65206375727665000101544352565B
:104A90005F454E41424C45000000000000300000E0
:104AA00000803F0102544352565F4D4944504354E5
:104AB0000000000000003100000050420103544398
:104AC00052565F4D415850435400000000000032E0
:104AD000000000BA4202055350494E5F41524D4515
:104AE0004400000000000000330000008C4200FF82
:104AF00000000000000000000000000000000000B6
:104B000000000000000000010050494E00000000BD
:104B10000000000000000000000000000000504104
:104B2000010150494E32000000000000000000006A
:104B30000000000100000080BF010250494E330018
:104B40000000000000000000000000000200000063
:104B500080BF010350494E340000000000000000F7
:104B600000000000000300000080BF00FF00000004
:104B70000000000000000000000000000000000035
:104B800000000000040154435F5859000000000079
:104B90000000000000000014000000204004025447
:104BA000435F5A0000000000000000000000000009
:104BB00065000000A04000FF0000000000000000B1
:104BC00000000000000000000000000000000004E1
:104BD0000053504545440000000000000000000064
:104BE000000011000000FA430401524144495553AA
:104BF00000000000000000000000001D0000004850
:104C000043040253504545445F55500000000000E6
:104C100000000000150000007A430403535045458E
:104C2000445F444E00000000000000000019000036
:104C300000164304044C4F49545F5350454544000B
:104C40000000000000000D000000FA43040541438D
:104C500043454C000000000000000000000000215F
:104C6000000000C84200FF0000000000000000003B
:104C700000000000000000000000000000008011A3
:104C800040114071327334333213121132111293C6
:104C90003413145352310021030406080B2D0A0962
:104CA0000705040241C011C051125354731211126E
:104CB00051527314733231002102040506070809AA
:104CC000080607062403020102000120012011C08A
:104CD0000111003132137413143312F112D3125133
:104CE0000001022325060746442342210001E0A0DB
:104CF000313213B43311121100112011005233124A
:104D000013321120012224850423040203424100AE
:104D100001E0A05112141315131534133251400140
:104D2000201152133231000122230405040504230B
:104D3000010382612001E0118011321354151433F4
:104D400032314021020100317231410223442302F9
:104D5000012201220102614001A0118051121413AD
:104D600034151433123140010201030201205211A3
:104D70001220212243042241022102A10001E0204D
:104D800011405153741332114021020302030201F6
:104D9000001112113200114122232221004102A1EF
:104DA000800160116011001132337413121140013F
:104DB00062030203213112111211400102010203A8
:104DC0000201000100E121E0A0112012117334332F
:104DD0003120016203624012111211001101000121
:104DE0000201220001200100E1C001001180110038
:104DF00012111312141334522001E2022120311235
:104E000011001100010021020100014021000241B6
:104E10000001E06011401112111312141314133227
:104E20001100212203420102210001001100121190
:104E3000001120010041600100C10001401120016A
:104E40006011405112131213143312310001420346
:104E50002201022100014011003100110001000176
:104E60000001A0E10001A001801120315293121134
:104E70000021C22100214031001120110001000158
:104E8000E0E16001E0110011727312310021420370
:104E90000102010220214011001120116001401186
:104EA00060010001022102000120014001A05132F5
:104EB000131253321120010201822100210001004E
:104EC000110031E000110011602100010201020116
:104ED000010021200100016011001152131214136E
:104EE0005211004182010200010021401100110015
:104EF00011A01100310011208122010100020100E6
:104F000021000160110052131213141332310100F9
:104F100002012201420100210001000111201100C3
:104F20001120114071001140010221020102010013
:104F3000210221000100010011001211123312346C
:104F400013321120010201420122010041000160DF
:104F500011201100110011005112312061020122B3
:104F60000200020102812011001211733413321168
:104F700000410201820100610001801100110091D5
:104F80003231402142010202006261401152141389
:104F900054333100418201220001020041000160CE
:104FA000911211525120012201030102020082617B
:104FB00000513354151433310021020122034241C0
:104FC00002A1803192133231004122030201030019
:104FD00022032201020140111233953331010022D4
:104FE000010342032221220102610001110011523A
:104FF0001312531231004122032203002302030241
:105000000102212032131416151716153311200131
:105010006203020302032201A2414011125314133E
:105020001413321101000201020302030202000202
:1050300023020322212032141637181715131211D8
:1050400000212203024302430103020382212011B3
:1050500012131415341514321100016223020300D7
:1050600043020342012012131518193A17151311A0
:1050700000210203026304E302030203020102406F
:10508000121314151715163412202122430203009F
:10509000A3220100111215181C1E1D191613110050
:1050A000020103020304230403240304430423042E
:1050B000030203422011121415171836151331215B
:1050C000020302230203241E191512100E0C0B0AF0
:1050D000090909080808070606050404040304046E
:1050E0000400000000000000000000272621232506
:1050F0002325242722292A2A1C27282B3332272537
:10510000222C333130370000000000000000000086
:1051100000000001FFFFE000000000000001FFFFB1
:10512000F000000000000001FFFFF8000000000098
:105130000001FFFFFE00000000000003FFFFFF0072
:10514000000000000003FFFFFFF000000000000F60
:10515000FFFFFFFE00000003FFFFFC000007FC0054
:10516000007FFFFFFC000000000000001FFFFE00AA
:105170000000000096918C87827D78736E69645F71
:105180005A55504B46413C37322D28231E19140FD7
:105190000A050004090E13181D22272C31363B4046
:1051A000454A4F54595E63686D72777C81868B9057
:1051B000959A9FA4A9AEB3AFAAA5A09B968F898309
:1051C0007E78736E69645F5A55504B47423E39355D
:1051D000302C27231F1B16120E09050103070B1085
:1051E00014191D22262B2F34393D42474C51565B52
:1051F00060656B70757B80868C92979DA3A9AFB21A
:10520000ACA6A09A948F827C76706B65605C5752D6
:105210004E4A46413D3936322E2A26221F1B17138D
:10522000100C08040102060A0E12161A1E22262B62
:105230002F33383D41464B4F54595E64696F747A41
:1052400080878D949BA2AAB1AEA69F979089826F0A
:1052500068635E5955514D4946423F3C3835322EC0
:105260002B2824211E1A1714100D0A06030003060A
:10527000090D1014181C2024282C3034393D4146C7
:105280004A4F54585D62676D737980878F98A2ACDE
:10529000B0A59A90867D766F55514D4A4744413F5F
:1052A0003C3A383533312E2B292623201D1A17136B
:1052B000100D0A070401010306090D1013171A1E29
:1052C00022262A2E32363A3E42464A4E53575B5FDA
:1052D00064696E757C85909FB2A08D7D7067605A01
:1052E000553E3C3A393736343332302F2E2C2A296A
:1052F0002724221F1C191613100D0A07040200038D
:1053000005080A0D1013161A1D2125292D313538CF
:105310003C4043464A4D505356595B5E6165696F48
:10532000826D544D4A474442403E2E2E2D2C2C2B4C
:105330002A2A2929282726252423211F1C1A171445
:10534000100D0A07040101030507090C0E101316BE
:105350001A1D2124282C3033373A3D404244474817
:105360004A4A4B4A48443D3019021621282B2D2E1B
:105370002F2E2E06090C0F121517191B1C1B1811A6
:10538000040E2231383C3C3C3A3835322F2B28244D
:10539000201C1915110D09050102060A0E11151818
:1053A0001C1F222527292A2B2B2926211911080009
:1053B00004080A0A0A0807040200030616181A1C41
:1053C0001E20211F1712516063625F5D5956524EB5
:1053D0004A46423E3935312C2824201B17130E0A29
:1053E000060102060A0F13171B1F23262A2D31342C
:1053F00037393C3D3F3F3E3D39352F28211C17159D
:105400001313131416A8ADB2B0ABA6A19C97928D3E
:1054100088837E79746F6A65605B56514C47423D64
:1054200038332E29241F1A15100B060103080D12FC
:10543000171C21262B30353A3F44494E53585D62A4
:10544000676C71767B80858A8F94999EA3A80100F2
:10545000454E41424C4500000000000000000000A5
:1054600000020000000000010154595045000000F6
:1054700000000000000000000000030000004040A9
:105480000102414354494F4E00000000000000005B
:1054900000000004000000803F0403414C545F4DB5
:1054A000415800000000000000000000050000005E
:1054B000C842040452414449555300000000000012
:1054C000000000000009000000164304054D415291
:1054D00047494E00000000000000000000000D00E1
:1054E0000000004000FF000000000000000000007D
:1054F000000000000000000000000000005363688E
:105500006564756C6572206F76657272756E207455
:1055100061736B5B25755D202825752F2575290A1C
:10552000005363686564756C657220736C697020E4
:105530007461736B5B25755D202825752F25752F8C
:105540002575290A00010044454255470000000026
:10555000000000000000000000000000000000FF4C
:10556000000000000000000000000000000000003B
:10557000000000000000000100524F4C4C000000F1
:105580000000000000000000000000000000803F5C
:105590000101504954434800000000000000000091
:1055A00000000001000000004001025448524F5426
:1055B000544C450000000000000000000300000003
:1055C0004040010359415700000000000000000066
:1055D000000000000002000000804000FF0000000A
:1055E00000000000000000000000000000000000BB
:1055F0000000000001004D4F4E49544F5200000082
:105600000000000000000000000000000001015642
:105610004F4C545F50494E00000000000000000055
:105620000100000050410102435552525F50494E63
:1056300000000000000000000002000000404104E3
:1056400003564F4C545F4D554C5400000000000071
:10565000000003009A9921410404414D505F5045D8
:1056600052564F4C54000000000000070000008814
:10567000410405414D505F4F4646534554000000DC
:10568000000000000B0000000000030643415041F1
:10569000434954590000000000000000000F0000C2
:1056A000404E4500FF000000000000000000000028
:1056B00000000000000000000000000000FF0000EB
:1056C00000000000000000000000000000000000DA
:1056D000000000000041505F4F53445F4D41583778
:1056E0003435363A3A77726974655F4E564D2829DB
:1056F0002063616E206E6F74206765742073656D22
:105700000A0041505F4F53445F4D4158373435369E
:105710003A3A73686F77417431485A282920636197
:105720006E206E6F74206765742073656D0A00418A
:10573000505F4F53445F4D4158373435363A3A73D2
:10574000686F77417433485A28292063616E206E50
:105750006F74206765742073656D0A0041505F4F58
:1057600053445F4D4158373435363A3A73686F7752
:1057700041743130485A28292063616E206E6F745D
:10578000206765742073656D0A00DA2020202020D0
:1057900020202020202020DB00DA202020202020B4
:1057A000202020202020DB7C00D82020202020204A
:1057B000202020202020D97C00DA2020202020203A
:1057C000202020202020DB7C00DA20202020202028
:1057D000202020202020DB7C0041505F4F53445F7D
:1057E0004D4158373435363A3A636C656172282931
:1057F0002063616E206E6F74206765742073656D21
:105800000A0050414E49433A2041505F4F53445F94
:105810004D4158373435363A206661696C656420ED
:10582000746F2074616B652073657269616C20739D
:10583000656D6170686F726520666F7220696E6950
:105840007400010053504545440000000000000072
:10585000000000000046000000803F0101414C5460
:105860004954554445000000000000000000470076
:105870000000803F01025448524F54544C450000F0
:105880000000000000000048000000803F010350BD
:1058900049544348000000000000000000000000E0
:1058A00049000000803F0104524F4C4C00000000B2
:1058B0000000000000000000004A000000803F01DE
:1058C00005484F4D450000000000000000000000AA
:1058D00000004B000000803F01064D4F4445000092
:1058E00000000000000000000000004C00000080EC
:1058F0003F010754494D4500000000000000000032
:10590000000000004D000000803F0108484F524950
:105910005A4F4E000000000000000000004E000042
:1059200000803F01094750535F534154530000002A
:105930000000000000004F000000803F010A4750B7
:10594000535F434F4F5244000000000000000050DE
:10595000000000803F010B424154545F564F4C0001
:10596000000000000000000051000000803F010C1A
:10597000424154545F4355520000000000000000B3
:105980000052000000803F010D424154545F5045D9
:105990005200000000000000000053000000803FA3
:1059A000010E575000000000000000000000000041
:1059B00000000054000000803F010F4845414400B2
:1059C0000000000000000000000000005500000082
:1059D000803F0110484541445F524F53450000004D
:1059E000000000000056000000803F0111424154B9
:1059F000545F434F4E0000000000000000005900BB
:105A00000000803F0112564944454F5F4D4F4445C9
:105A10000000000000000057000000803F00FF0071
:105A20000000000000000000000000000000000076
:105A30000000000000004E414E494E495459494E65
:105A400046CDCCCC3D0AD7233C17B7D13877CC2BE9
:105A5000329595E6241FB14F0A000020410000C88E
:105A60004200401C4620BCBE4CCA1B0E5AAEC59D0F
:105A7000740042C000EA6CF27FF683F659F7EA033D
:105A800011241FBECFEFD1E2DEBFCDBF00E00CBFBF
:105A900017E0A0E0B2E0E4ECF0EA03E00BBF02C0E4
:105AA00007900D92A23AB107D9F719E1A2EAB7E03F
:105AB00001C01D92A435B107E1F71AE5C0E8DAE5A7
:105AC00000E006C022970109FE010BBF0F9461CCD4
:105AD000C237D10780E00807A9F70E94E3CA0D94F6
