:100000000C944A2D0C947B2D0C947B2D0C947B2D01
:100010000C947B2D0C947B2D0C947B2D0C941DE863
:100020000C947B2D0C947B2D0C947B2D0C947B2DB0
:100030000C947B2D0C947B2D0C947B2D0C94A9FAA5
:100040000C947B2D0C947B2D0C947B2D0C947B2D90
:100050000C947B2D0C947B2D0C947B2D0C947B2D80
:100060000C947B2D0C94C2E80C94F1E80C947B2D3D
:100070000C947B2D0C947B2D0C947B2D0C947B2D60
:100080000C947B2D0C947B2D0C947B2D0C947B2D50
:100090000C942CE90C945BE90C947B2D0C94D6EC1D
:1000A0000C947B2D0C94D6FA0C947B2D0C947B2D08
:1000B0000C947B2D0C947B2D0C9403FB0C947B2DCA
:1000C0000C947B2D0C947B2D0C94ECF20C9496E903
:1000D0000C94C5E90C947B2D0C947B2D0C947B2DFA
:1000E0000C947B2D213326332B33303335333A3385
:1000F0003F33443349334E335333583363335D33E3
:100100004272EF712A72F8710C722A7242722A726C
:1001100042722F72F3720F73FB732C747674C77470
:10012000D47410759975D276D37806790E79F178F2
:10013000F87816795E793E7936792E7946794E7956
:1001400056791E792679CC787579667984798C7997
:10015000CC789479CC789C79867D757D747E867D0B
:10016000867D747E747E917D9682557FC782E882FB
:100170003287B082F684DE86F6905D91EA916C92C9
:1001800008935891A5906B93639373937893999385
:100190008B93A59384939293A093AC93B39344943D
:1001A000C093139530954595BF968695A2957B95FE
:1001B0008F95BF96BF96BF96BF96BF96BF96BF96C8
:1001C000BF96BF96BF96BF96BF96BF96BF96BF9687
:1001D000BF96B5956898689871987E987798719849
:1001E000779877987798A598779877987798689878
:1001F0001DA805AB81A836A84FA892A8C5A805AB35
:10020000B3A97EA905AB1AA905ABB4A805AB05AB8C
:10021000CDA9E6A9FFA905AB68A833A965A905ABD7
:1002200091A9A3A805AB4CA905AB18AA29AA3AAA7B
:1002300005ABE7A8F8A809A9D6A853AA83AAA2A93A
:100240009CAAADAA30AB40AB49AB58AB8BACA7ABCB
:100250008BAC8BAC3CAC45AC50AC46AB58AC8BAC2F
:1002600069AC72AC80ACEEB1FDB101B208B20CB2B7
:1002700050BE10B250BE50BE50BE14B218B21CB226
:1002800099EF99EF9EEF9EEF9EEFA3EFA3EFA3EF01
:10029000B6EFA8EFA8EFC3EFC7EFCDEFD1EFD5EFE3
:1002A000DBEFDFEFE3EFF2EFE9EFEDEFFDEF01F072
:1002B00007F00BF00FF015F019F01DF02CF023F003
:1002C00027F046F04BF050F055F05AF05FF064F034
:1002D00069F077F06EF073F0A6F0ABF0B0F0B5F027
:1002E000BAF0BFF0C4F0C9F0D8F0CEF0D3F09C055E
:1002F0009C053E060E0614067806F805C003240386
:1003000000032C0586031C03AA03D405A003840460
:100310002A0468040204A405DA03400368060A06F6
:100320007803060462047004F40258062406BE042E
:10033000CE057A0434030E030C06B603D604160663
:10034000E204BA03F204CE04A4042A06A805840336
:10035000A803760342059A04B0055A05E804FA0397
:10036000F80200049003B8039003900308038A0581
:100370009003900388031E03560490039003900398
:1003800090039003900390039003900390039003D5
:100390008A039003900390039003900390039003CB
:1003A000BA05180390032C0436059003C0052C06EB
:1003B0009003900390039003C40412054406F604CE
:1003C0006206E6045206C803D803D805F6052006DF
:1003D000F00312034C052404AC043806640612062C
:1003E0001A051A04760682056A06DC034403EC0447
:1003F000C603B8056004D0046805EC03DE030804F6
:10040000EA044A054A064A0614034A06F603F603B6
:10041000F603F603F6034A06F603F603F603F603BD
:1004200014031403140314031403140332063206D2
:1004300072063206320672067206B604D203B6049B
:10044000D203B604D203B6045A065A065A065A060E
:100450005A065A065A065A065A068804CA05C40598
:10046000CA05C405CA05C405CA05C405CA05C4052C
:10047000C204C204C2045E045E04C204C204C20414
:100480005E045E04480448044804600360034804B2
:100490004804480460036003CA046A05CA046A0584
:1004A000CA046A05CA046A05CA0414054606300669
:1004B0005803460630065803460630065803CC0457
:1004C0007E057E05CC04CC047E057E05CC04CC04E0
:1004D000CC04CC04036EDB363D9A9999993DABAAC6
:1004E000AA2A3E000000803F084AD73B3BCE016E5F
:1004F00084BCBFFDC12F3D6C74319ABD56833DDA7B
:100500003D00C77F11BED9E4BB4C3E916BAAAABE89
:10051000000000803F072C7AA5BA6CC590DA3B93A7
:1005200065FC8BBC53F810FD3C5692834DBD879DF6
:100530003AB63DCBC9BF5BBE73DA0FC93F05A84CC5
:10054000CDB2D44EB93836A9020C50B9918688087C
:100550003CA6AAAA2ABE000000803F08000000BEF8
:10056000922449123EABAAAA2ABECDCCCC4C3E0066
:10057000000080BEABAAAAAA3E00000000BF000097
:1005800000803F0000000000084178D3BB4387D1C2
:10059000133D190E3CC3BD4282AD2B3E68EC827602
:1005A000BED98FE1A93E4C80EFFFBE01C4FF7F3F63
:1005B00000000000000664EC1B3C04BC163E3BE55A
:1005C000B93CC93C37C29E5A3D660498083EEA6968
:1005D000AAAA3E000000803F0D94106D0D94886E15
:1005E0000D94DD2E0D94D78B0D94900F0D94392F13
:1005F0000D948A240D94606B0D9450080D94A630D0
:100600000D9435010D941D6D0D9496300D947869FF
:100610000D94B2240D9434A60D943F2F0D94281000
:100620000D942E450D9473490D94CE800D949764CE
:100630000D9402250D940B820D94F2060D94E9257C
:100640000D94B31D0D94101A0D94F8000D947E8E28
:100650000D942A220D9499200D943C8A0D943938DA
:100660000D9451360D94F1B60D9422100D94D7A42B
:100670000D9461640D9451180D94FD670D94659669
:100680000D943E080D94786F0D94C44A0D94FA9E13
:100690000D949E300D94AC300D947BC70D946A156B
:1006A0000D9463530D94535F0D94566D0D948D2EE0
:1006B0000D943AB60D9432690D94840D0D94E14D6C
:1006C0000D9451B50D94A7770D94DC2D0D94B821A0
:1006D0000D94EE800D945E260D9476060D94E68FB3
:1006E0000D94D4890D94E8AF0D94CD430D94191554
:1006F0000D943F0F0D9403680D9427510D94459A66
:100700000D9481C70D9484C70D9411150D94E906BD
:100710000D9488250D94CB250D94B21F0D94615F27
:100720000D9408260D9442650D94862F0D94F18644
:100730000D9421700D94C9830D9478BB0D94EA86B5
:100740000D943A070D94645E0D94666B0D9493AB13
:100750000D940D150D94FF060D94FF6A0D9403473B
:100760000D9470060D94EC6A0D9453140D944E1074
:100770000D945B250D94C2130D941B310D944B13F6
:100780000D94DD000D94848E0D94392E0D94EC4A59
:100790000D9402490D94AC190D94B4220D94C656D3
:1007A0000D94A3450D94D6B30D94BE420D94FC1F39
:1007B0000D9425490D9427080D94BF4A0D94734B51
:1007C0000D9461310D9464260D94B91A0D947E3503
:1007D0000D94EB340D943D8B0D94594B0D941A17D9
:1007E0000D9469490D94D5300D94CC260D94D1808B
:1007F0000D94CC010D9464150D9496C70D94E3836C
:100800000D941D250D9409080D94FE4B0D94510F68
:100810000D94814B0D945E5E0D94AF500D949D5BD5
:100820000D94112F0D948F1C0D94455F0D94289BF2
:100830000D942B510D94464A0D9429510D942A1B69
:100840000D949F200D94773B0D94AC490D94186B3B
:100850000D94DB660D94FC070D9442250D94B3179F
:100860000D948E0B0D943E060D94296A0D9451C380
:100870000D947AB80D94106C0D947A270D94802AFB
:100880000D94B1570D94E23E0D94D6140D949C81B5
:100890000D944FB50D94DA890D94F6800D94C0C770
:1008A0000D941E510D9451890D9484080D94B0251A
:1008B0000D94675F0D94EA320D9413190D9434B5BD
:1008C0000D94084B0D94590F0D94B6410D94F2867A
:1008D0000D94F6070D941E2B0D9418C30D942D87BF
:1008E0000D946B0F0D94E9830D946CA70D94662104
:1008F0000D946C210D941C100D948C880D94E2873E
:100900000D9470150D946D000D944E070D94649226
:100910000D94E7B30D941C510D9409040D942DCD45
:100920000D941E1F0D94EC620D94426B0D947B1080
:100930000D9415800D942C150D9419C60D941FAFB0
:100940000D94AE870D9431990D9407140D94B04F0A
:100950000D94A1730D9436230D94D9490D94A35B86
:100960000D94C7A30D946F2F0D94872E0D94E5B3AE
:100970000D940D6D0D948A450D94EA2E0D940D1075
:100980000D94E66A0D9432B50D9495250D94AAAC9C
:100990000D94CB920D946EB50D946BB60D94E71338
:1009A0000D941E4B0D9422510D94CB620D94AE13F9
:1009B0000D94F0860D9484570D9486C60D94315194
:1009C0000D942A8D0D94B7130D9422520D94DA488C
:1009D0000D9460150D949A4B0D94D74A0D949D6C0F
:1009E0000D94C6C70D94D2130D94951C0D94A34875
:1009F0000D9448650D94B7570D944C280D948B7C3D
:100A00000D944A820D94E56D0D9498440D941E7DCD
:100A10000D9446770D9454170D94917D0D94A37108
:100A20000D9459410D948B480D9472B50D94E46268
:100A30000D947EC70D94354A0D945D100D940F04EE
:100A40000D94166C0D949E6A0D9480270D94FB1CDA
:100A50000D949F7E0D94D8230D94E4060D948FBFC2
:100A60000D94FB620D943D500D9487C70D94EC24BA
:100A70000D9439020D94D2260D9437500D94EE0D3D
:100A80000D9469220D9422150D941B510D94EF962F
:100A90000D9442820D94B44B0D9496490D94AE2E54
:100AA0000D94B1A50D94AF6D0D94EBB60D9414AAF1
:100AB0000D94E2BC0D9448150D94B5500D94F83486
:100AC0000D9407910D9424510D9453890D94D09455
:100AD0000D943C4B0D9470B50D94F2820D94506BB7
:100AE0000D94DD150D94241F0D94640E0D945983FF
:100AF0000D94DC620D94A42F0D9428520D944CB6E5
:100B00000D947E080D948A4A0D94692F0D94096501
:100B10000D94191C0D94DB240D9443B00D94161AFA
:100B20000D94EE700D9492800D94DAA10D94183806
:100B30000D94F61F0D948AB60D948A000D942051E1
:100B40000D94E2290D941C830D9413080D94972F96
:100B50000D9437140D94136D0D94A6190D94201B4C
:100B60000D943A150D941A510D9450740D94A51BC3
:100B70000D94F94A0D947E240D9413400D94172F73
:100B80000D94A5240D9405820D941FB50D94307E0F
:100B90000D947B190D941AB50D94EB6D0D940710FF
:100BA0000D9461C70D943E020D9417070D943338D0
:100BB0000D942A490D9445130D94CF4F0D94DA816D
:100BC0000D94E82B0D94DB3B0D940DA20D94308D0C
:100BD0000D94F00E0D9457360D94CC560D94721E54
:100BE0000D946B190D944A9E0D94CC2E0D94494989
:100BF0000D94CA000D94B0C70D945E400D94338ED1
:100C00000D94A36C0D9430230D94B42E0D943E637B
:100C10000D942F6A0D94480F0D9440100D94BA0056
:100C20000D948F6D0D94164A0D94B1000D94A71379
:100C30000D94BA3C0D94FD510D949BC70D945082B8
:100C40000D9456490D94FA340D94DB0F0D94D4A6EF
:100C50000D9423270D942C140D94CA240D94B91DC2
:100C60000D9426B60D94F1B20D94D0280D943E2C1F
:100C70000D94E6490D9402350D9484B60D949A00B6
:100C80000D94301B0D94660A0D949E480D9415B674
:100C90000D94D18B0D94C8800D94F60E0D942E9367
:100CA0000D94DB470D94F9480D94FC340D940B34EE
:100CB0000D94C70F0D9427B40D94904C0D94C6223B
:100CC0000D94132C0D94CC480D94054A0D9462ADEF
:100CD0000D9448080D94BA4A0D94D1620D94F00A0F
:100CE0000D94DF3A0D94FAB20D945D530D94744A4D
:100CF0000D94C2000D94C94F0D9469280D940243C0
:100D00000D94ABC70D94AA4D0D94386941504D20F8
:100D100032000A41726475436F70746572205633F5
:100D20002E312E350A467265652052414D3A2025F6
:100D3000750A00626164206C6F67206E756D626574
:100D4000720A0064756D70696E6720616C6C0A00D0
:100D5000656E61626C650043414D45524100434FF1
:100D60004D50415353004F5054464C4F570052433F
:100D70004F55540043555252454E5400434D440084
:100D8000494D55005243494E004E54554E00435470
:100D9000554E00504D00475053004154544954554E
:100DA00044455F4D45440041545449545544455FC2
:100DB0004641535400616C6C006D697373696E67D2
:100DC000206C6F6720747970650A002043414D459F
:100DD00052410020434F4D5041535300204F505437
:100DE000464C4F57002052434F5554002043555214
:100DF00052454E540020434D440020494D5500209B
:100E00005243494E00204E54554E00204354554EF7
:100E10000020504D00204750530020415454495465
:100E20005544455F4D454400204154544954554470
:100E3000455F46415354006E6F6E65006C6F67737B
:100E400020656E61626C65643A2000496E69746960
:100E5000616C6973696E67206779726F73000A4FFE
:100E6000703A5B6F6E2C6F66665D0A006F66660097
:100E70006F6E007468723A2564206375723A253487
:100E80002E3266206D6F7420783A25342E3166201C
:100E9000793A25342E3166207A3A25342E3166206F
:100EA00020636F6D7020783A25342E326620793AAF
:100EB00025342E3266207A3A25342E32660A0046D0
:100EC00061696C65642120436F6D70656E73617438
:100ED000696F6E2064697361626C65642E202044C2
:100EE000696420796F7520666F7267657420746F0E
:100EF00020726169736520746865207468726F740C
:100F0000746C65206869676820656E6F7567683FF7
:100F1000000A496E746572666572656E636520616C
:100F2000742066756C6C207468726F74746C6520C4
:100F300069732025642525206F66206D6167206612
:100F400069656C640A0A00636865636B20636F6D92
:100F5000706173730A007468726F74746C65206ECC
:100F60006F74207A65726F0A005448524F54544C83
:100F7000450A0043555252454E540A00546869735D
:100F8000207265636F7264732074686520696D7088
:100F9000616374206F6E2074686520636F6D70618B
:100FA0007373206F662072756E6E696E6720746849
:100FB00065206D6F746F72732E20204D6F746F7289
:100FC000732077696C6C207370696E210A486F6CAE
:100FD00064207468726F74746C65206C6F772C2059
:100FE0007468656E20726169736520746F206D6925
:100FF0006420666F722035207365632C20746865E9
:101000006E20717569636B6C79206261636B20740B
:101010006F206C6F772E0A507265737320616E7942
:10102000206B657920746F20657869742E0A0A6DCB
:101030006561737572696E6720636F6D706173733C
:101040002076732000636F6D706173732064697321
:1010500061626C65640A00726164696F206E6F740E
:101060002063616C696272617465640A00646F6E0A
:10107000650A000A45726173696E672045455052E2
:101080004F4D0A000A4D6F64652073776974636879
:1010900020746F20656469742C2061696C65726FBF
:1010A0006E3A2073656C656374206D6F6465732C94
:1010B000207275646465723A2053696D706C6520A6
:1010C0006F6E2F6F66660A000A4F703A5B6F6E2C68
:1010D000206F66665D0A006F6666006F6E000A53D9
:1010E000617665640A000A4D6F766520616C6C203C
:1010F000636F6E74726F6C7320746F206578747296
:10110000656D65732E20456E74657220746F207353
:101110006176653A20000A0A526164696F2053655E
:101120007475703A002025642C204C6F773A253175
:101130002E34662C20486967683A25312E34660AB9
:10114000000A54554E453A0A000A434820362052B8
:10115000616E676573206172652064697669646594
:101160006420627920313030303A205B6C6F772C0C
:1011700020686967685D0A000A5265626F6F7420B3
:10118000626F617264000A275927203D20666163FF
:10119000746F72792072657365742C20616E79208A
:1011A0006F74686572206B657920746F2061626F5F
:1011B00072743A0A0043616E6E6F74207365742016
:1011C000706172616D65746572206F6620747970EC
:1011D000652025642E0A0056616C7565206F757454
:1011E000206F662072616E676520666F7220747969
:1011F000706520494E5431360A0056616C75652081
:101200006F7574206F662072616E676520666F72FD
:10121000207479706520494E54380A00506172611B
:101220006D206E6F7420666F756E643A2025730AA8
:1012300000496E76616C696420636F6D6D616E64E8
:101240002E2055736167653A20736574203C6E618A
:101250006D653E203C76616C75653E0A004D6F649D
:1012600065282575290053504F5254004452494671
:1012700054004F465F4C4F49544552004C414E4438
:1012800000504F534954494F4E00434952434C4537
:101290000052544C004C4F49544552004755494464
:1012A0004544004155544F00414C545F484F4C4415
:1012B000004143524F0053544142494C495A450062
:1012C0004F46460A004F4E0A002C090953696D70BB
:1012D0006C653A2000506F732025643A0900466C13
:1012E00069676874206D6F6465730A00766F6C744B
:1012F0007320616E642063757200766F6C74730086
:101300000A42617474204D6F6E3A0A004865786134
:10131000206672616D650A004672616D650A004360
:1013200048383A202564207C2025640A0043483749
:101330003A202564207C2025640A004348363A2060
:101340002564207C2025640A004348353A20256422
:10135000207C2025640A004348343A202564207C00
:101360002025640A004348333A202564207C202548
:10137000640A004348323A202564207C2025640A10
:10138000004348313A202564207C2025640A00521D
:101390006164696F0A00506172616D6574657220E5
:1013A0006E6F7420666F756E643A20272573270A66
:1013B00000547970653A2025642028303D584C2C23
:1013C00020313D4C562C20323D584C4C2C20333D86
:1013D00048524C562900536F6E61720A000A4F70D2
:1013E0003A5B6F6E2C206F66662C20302D335D0AC1
:1013F000006F6666006F6E000A20547970652027C2
:10140000726164696F27206E6F772E0A0A000A21C5
:101410005761726E696E672C20726164696F206E0D
:101420006F7420636F6E666967757265642100531F
:1014300065747570204D6F64650A0A0A00436F6D0C
:101440006D616E64733A0A20206C6F67730A202006
:1014500073657475700A2020746573740A20207295
:1014600065626F6F740A0A00416C743A2025302E51
:1014700032666D2C205261773A2025662054656DC6
:1014800070657261747572653A20252E31660A00A6
:101490006E6F74206865616C746879000A436F6DC3
:1014A00070205665633A2025342E32662C20253470
:1014B0002E32662C2025342E32660A004375727255
:1014C000656E74005468726F74746C65004F666664
:1014D0000A004D6F746F7220436F6D703A20004D9B
:1014E0006167206F66663A2025342E34662C2025ED
:1014F000342E34662C2025342E34660A004D616764
:10150000204465633A2025342E34660A00436F6D0B
:10151000706173730A00736176696E67206F666627
:101520007365747300636F6D70617373206E6F7495
:10153000206865616C7468790048656164696E67EC
:101540003A20256C642C2058595A3A20252E3066B2
:101550002C20252E30662C20252E30662C0958593B
:101560005A6F66663A2025362E32662C2025362E96
:1015700032662C2025362E32660A00436F6D70616C
:10158000737320696E697469616C69736174696FE2
:101590006E206661696C65642100436F6D706173D4
:1015A000733A20002E002C20416C743A20256C6484
:1015B0006D2C2023736174733A2025640A002C205B
:1015C0004C6F6E20004C61743A2000612025372E4C
:1015D00034662025372E34662025372E3466206762
:1015E0002025372E34662025372E34662025372EC9
:1015F000346620742025372E3466200A002E2E2EC5
:10160000646F6E650A00494E530A0054657374692D
:101610006E672064617461666C617368206C6F67CB
:1016200067696E6700436F6E6E65637420626174F4
:101630007465727920666F722074686973207465AE
:1016400073742E0A4D6F746F72732077696C6C20FF
:101650007370696E206279206672616D6520706FAB
:10166000736974696F6E206F726465722E0A4672B8
:101670006F6E74202826207269676874206F662058
:1016800063656E7465726C696E6529206D6F746F29
:10169000722066697273742C207468656E20696E9E
:1016A00020636C6F636B77697365206F726465721A
:1016B0002061726F756E64206672616D652E0A52CC
:1016C000656D656D62657220746F20646973636F08
:1016D0006E6E6563742062617474657279206166F0
:1016E000746572207468697320746573742E0A417E
:1016F0006E79206B657920746F20657869742E0A85
:10170000000A5465737420636F6D706C6574650AAC
:10171000000A4D6F746F72732073746F707065641C
:10172000000A5370696E206D6F746F72732061745C
:101730003A2564000A5468723A2564007468726F2E
:1017400074746C65206E6F74207A65726F0A005431
:101750006869732073656E64732073756464656E65
:10176000206F75747075747320746F2074686520B1
:101770006D6F746F7273206261736564206F6E2089
:101780007468652070696C6F742773207468726F59
:1017900074746C6520746F207465737420666F7246
:1017A00020455343206C6F7373206F662073796EEE
:1017B000632E204D6F746F72732077696C6C207389
:1017C00070696E20736F206D6F756E742070726F0C
:1017D00070732075702D736964652D646F776E2149
:1017E0000A202020486F6C64207468726F74746CD7
:1017F00065206C6F772C207468656E207261697348
:1018000065207468726F74746C6520737469636B9F
:1018100020746F2064657369726564206C657665F9
:101820006C20616E6420707265737320412E2020DD
:101830004D6F746F72732077696C6C207370696E72
:1018400020666F7220322073656320616E6420749D
:1018500068656E2072657475726E20746F206C6F8F
:10186000772E0A507265737320616E79206B6579EB
:1018700020746F20657869742E0A00726164696F44
:10188000206E6F742063616C696272617465640AB2
:10189000004F7074466C6F773A200064783A256484
:1018A000092064793A25640920737175616C3A25C1
:1018B000640A006D616E2069643A2025640900495C
:1018C0004E3A20313A20256409323A202564093302
:1018D0003A20256409343A20256409353A202564E4
:1018E00009363A20256409373A20256409383A2018
:1018F00025640A00494E2020313A20256409323AF5
:1019000020256409333A20256409343A20256409E6
:10191000353A20256409363A20256409373A2025CE
:10192000640A0052656C6179206F66660A00526530
:101930006C6179206F6E0A0048697420456E746589
:101940007220746F20657869742E0A0A00536F6ED6
:1019500061723A20256420636D0A00536F6E6172D4
:101960002064697361626C65640A0061626C65641D
:101970000A0064697300656E004F7074466C6F777F
:101980000A0043726173683A2044697361726D6939
:101990006E67004175746F54756E653A20466169D3
:1019A0006C6564004175746F54756E653A205375AB
:1019B0006363657373004175746F54756E653A2087
:1019C0005374617274656400666C69676874207032
:1019D0006C616E20726563656976656400666C692A
:1019E00067687420706C616E207570646174652026
:1019F00072656A656374656400556E6B6E6F776EB1
:101A000020706172616D6574657220252E313673A8
:101A100000556E6B6E6F776E20706172616D6574CC
:101A2000657220696E646578202564004172647572
:101A3000436F707465722056332E312E3500636FFC
:101A40006D6D616E642072656365697665643A20C8
:101A5000004368617220446F6E650A0052656164DC
:101A60007920666F7220466F6E740A004661696C59
:101A7000656420746F20496E6974204F7074466CE1
:101A80006F770A00434F4D5041535320494E4954FC
:101A9000204552524F52004553432043616C6962C6
:101AA000726174696F6E206163746976653A207043
:101AB000617373696E67207468726F74746C6520EB
:101AC0007468726F75676820746F20455343732E76
:101AD0000A00456E746572696E6720455343204362
:101AE000616C6962726174696F6E3A20706C6561D5
:101AF000736520726573746172742041504D2E0AB3
:101B0000004C6F6720657261736520636F6D706C48
:101B10006574650A0045726173696E67206C6F6752
:101B2000730A006C6F61645F616C6C20746F6F6B23
:101B300020256C7575730A00646F6E652E0046690A
:101B4000726D77617265206368616E67653A2065C2
:101B5000726173696E6720454550524F4D2E2E2E8F
:101B60000A004657205665723A2025640A00496EDD
:101B7000697469616C6973696E672041504D2E2EDE
:101B80002E000A526561647920746F20464C5920FA
:101B9000000A507265737320454E5445522033201D
:101BA00074696D657320746F207374617274206939
:101BB0006E7465726163746976652073657475709F
:101BC0000A0045524153494E47204C4F4753004E5F
:101BD0006F2064617461666C61736820696E7365FF
:101BE00072746564000A0A496E69742041726475F2
:101BF000436F707465722056332E312E350A0A46B3
:101C00007265652052414D3A2025750A004C6F736C
:101C1000742047505321004C6F77204261747465E3
:101C2000727921005472696D207361766564006277
:101C300061726F6D657465722063616C6962726157
:101C400074696F6E20636F6D706C657465004361BD
:101C50006C6962726174696E67206261726F6D6532
:101C600074657200415F6F66663A2025342E3266D5
:101C70002C2025342E32662C2025342E32660A4143
:101C80005F7363616C653A2025342E32662C202503
:101C9000342E32662C2025342E32660A00475F6FC0
:101CA00066663A2025342E32662C2025342E326684
:101CB0002C2025342E32660A002D00494E530A008E
:101CC00047524F554E442053544152540041726480
:101CD00075436F707465722056332E312E35004176
:101CE000726D3A2053616665747920537769746325
:101CF000680041726D3A204C65616E696E67004103
:101D0000726D3A205468722062656C6F772046537A
:101D10000041726D3A20416C742064697370617285
:101D2000697479005265616368656420436F6D6D05
:101D3000616E64202325690050726541726D3A20FE
:101D400048696768204750532048444F50005072FC
:101D50006541726D3A204261642047505320506FB4
:101D6000730050726541726D3A204143524F5F4299
:101D7000414C5F524F4C4C2F5049544348005072D5
:101D80006541726D3A20436865636B20414E474C54
:101D9000455F4D41580050726541726D3A2043686D
:101DA00065636B2046535F5448525F56414C55451E
:101DB0000050726541726D3A204368372643683897
:101DC000204F70742063616E6E6F742062652073A3
:101DD000616D650050726541726D3A2043686563BC
:101DE0006B20426F61726420566F6C74616765008E
:101DF00050726541726D3A20494E53206E6F7420C7
:101E00006865616C7468790050726541726D3A2042
:101E1000494E53206E6F742063616C696272617405
:101E200065640050726541726D3A20436865636B6A
:101E3000206D6167206669656C640050726541724F
:101E40006D3A20436F6D70617373206F66667365C2
:101E5000747320746F6F2068696768005072654101
:101E6000726D3A20436F6D70617373206E6F7420D2
:101E700063616C696272617465640050726541727D
:101E80006D3A20436F6D70617373206E6F742068BC
:101E900065616C7468790050726541726D3A2041D9
:101EA0006C74206469737061726974790050726532
:101EB00041726D3A204261726F206E6F74206865C6
:101EC000616C7468790050726541726D3A205243BA
:101ED000206E6F742063616C696272617465640066
:101EE000504552463A2025752F257520256C750AD8
:101EF0000074657374006261726F0000000000007E
:101F000000000000EC7A636F6D7061737300000075
:101F1000000000007E5D677073000000000000009C
:101F2000000000003940696E7300000000000000EE
:101F300000000000BECB6C6F6767696E6700000031
:101F40000000000077336D6F746F72730000000043
:101F5000000000002D9E6D6F746F7273796E6300C8
:101F6000000000009F9C6F7074666C6F770000002B
:101F70000000000039CB70776D0000000000000009
:101F800000000000319C726164696F000000000075
:101F900000000000C99B72656C61790000000000C0
:101FA000000000004C37736F6E617200000000008B
:101FB00000000000744441726475436F7074657270
:101FC0002056332E312E35006C6F677300000000F1
:101FD000000000000000DB3F7365747570000000B6
:101FE000000000000000E13F746573740000000011
:101FF000000000000000D53F7265626F6F74000042
:10200000000000000000D73268656C70000000001E
:10201000000000000000C0327365747570006163D9
:1020200063656C0000000000000000005755636FFE
:102030006D7061737300000000000000205D636F2D
:102040006D706173736D6F740000000075A265722E
:1020500061736500000000000000000056326D6FE3
:10206000646573000000000000000000BE9F6F70F8
:1020700074666C6F770000000000000071C8726128
:1020800064696F000000000000000000939E726110
:102090006E67650000000000000000004B4D726597
:1020A0007365740000000000000000009641736535
:1020B000740000000000000000000000D9557368A3
:1020C0006F77000000000000000000005877736F79
:1020D0006E6172000000000000000000C64C8D0020
:1020E0000100424154545F4D4F4E49544F5200003D
:1020F000000000A8000100424154545F564F4C5468
:102100005F50494E00000000A900010042415454B4
:102110005F435552525F50494E000000008E00044C
:1021200000424154545F564F4C545F4D554C54003F
:1021300000008F000400424154545F414D505F50F5
:102140004552564F4C540091000300424154545F95
:102150004341504143495459000000008059464DC5
:1021600054000042426E4E5A000000000000000081
:10217000000000547970652C4C656E6774682C4EB5
:10218000616D652C466F726D617400000000000087
:10219000000000000000000000000000000000003F
:1021A000000000000000000000000000000000002F
:1021B00000000081175041524D004E6600000000A3
:1021C000000000000000000000004E616D652C560C
:1021D000616C756500000000000000000000000058
:1021E00000000000000000000000000000000000EF
:1021F00000000000000000000000000000000000DF
:1022000000000000000000000000822D4750530035
:102210000042494842634C4C65654565664900008B
:10222000005374617475732C54696D654D532C574C
:1022300065656B2C4E536174732C48446F702C4C45
:1022400061742C4C6E672C52656C416C742C416C23
:10225000742C5370642C474372732C565A2C5400C0
:1022600000831F494D550000496666666666660034
:10227000000000000000000054696D654D532C47BC
:102280007972582C477972592C4779725A2C4163CC
:1022900063582C416363592C4163635A000000006A
:1022A000000000000000000000000000000000002E
:1022B0000000000000000000871F494D5532004912
:1022C0006666666666660000000000000000005456
:1022D000696D654D532C477972582C477972592C8A
:1022E0004779725A2C416363582C416363592C41DE
:1022F00063635A00000000000000000000000000BE
:102300000000000000000000000000000000008449
:10231000434D534700005A00000000000000000039
:102320000000000000004D657373616765000000E8
:10233000000000000000000000000000000000009D
:10234000000000000000000000000000000000008D
:10235000000000000000000000000000000000007D
:1023600000000000000085175243494E004968688C
:102370006868686868680000000000000054696DC3
:10238000654D532C4368616E312C4368616E322C6D
:102390004368616E332C4368616E342C4368616E10
:1023A000352C4368616E362C4368616E372C436868
:1023B000616E380000000000000000000086175227
:1023C000434F55004968686868686868680000009D
:1023D0000000000054696D654D532C4368616E31F7
:1023E0002C4368616E322C4368616E332C43686104
:1023F0006E342C4368616E352C4368616E362C4315
:1024000068616E372C4368616E3800000000000080
:102410000000000088114241524F00496666630087
:10242000000000000000000000000054696D654DD0
:10243000532C416C742C50726573732C54656D7001
:10244000000000000000000000000000000000008C
:10245000000000000000000000000000000000007C
:102460000000000000000000000000191941545550
:102470004E0042426666666666000000000000008C
:102480000000417869732C54756E65537465702C27
:10249000526174654D696E2C526174654D61782C82
:1024A00052504761696E2C52444761696E2C5350FB
:1024B0004761696E0000000000000000000000009D
:1024C00000001A0941544445006366000000000002
:1024D000000000000000000000416E676C652C5297
:1024E00061746500000000000000000000000000B2
:1024F00000000000000000000000000000000000DC
:1025000000000000000000000000000000000000CB
:10251000000000000000000000091743555252005F
:102520004968496868686600000000000000000013
:1025300054696D654D532C5468724F75742C5468F2
:1025400072496E742C566F6C742C437572722C56D3
:1025500063632C43757272546F74000000000000B6
:10256000000000000000000000000000000000006B
:102570000C144F4600000068684263636565000004
:102580000000000000000044782C44792C53517561
:10259000616C2C582C592C526F6C6C2C50697463E4
:1025A00068000000000000000000000000000000C3
:1025B000000000000000000000000000000000001B
:1025C00000000000000000052F4E54554E004966E3
:1025D00066666666666666666600000000005469A8
:1025E0006D654D532C44506F73582C44506F735984
:1025F0002C506F73582C506F73592C4456656C587F
:102600002C4456656C592C56656C582C56656C5983
:102610002C44416363582C444163635900000421F6
:102620004354554E00496868686666656363686828
:10263000000000000054696D654D532C54687249C8
:102640006E2C416E674273742C5468724F75742CF3
:1026500044416C742C416C742C426172416C742C3A
:102660004453416C742C53416C742C444352742C6D
:1026700043527400000F194D4147000049686868D3
:1026800068686868686800000000000054696D654B
:102690004D532C4D6167582C4D6167592C4D616726
:1026A0005A2C4F6673582C4F6673592C4F66735AC9
:1026B0002C4D4F6673582C4D4F6673592C4D4F66F9
:1026C000735A000000000000000000001B194D417B
:1026D0004732004968686868686868686800000090
:1026E00000000054696D654D532C4D6167582C4DA9
:1026F0006167592C4D61675A2C4F6673582C4F6691
:1027000073592C4F66735A2C4D4F6673582C4D4F8E
:102710006673592C4D4F66735A000000000000008C
:102720000000000613504D0000004242484849682E
:102730004248420000000000000052656E436E7483
:102740002C52656E426C772C4E4C6F6E2C4E4C6F3B
:102750006F702C4D6178542C504D542C49324345A8
:1027600072722C494E534572722C494E4156457235
:10277000720000000000000000000814434D4400F7
:10278000004242424242654C4C0000000000000002
:102790000043546F742C434E756D2C4349642C4395
:1027A0004F70742C50726D312C416C742C4C6174D0
:1027B0002C4C6E67000000000000000000000000CC
:1027C0000000000000000000000000000000000009
:1027D00000011341545400004963636363434300A1
:1027E000000000000000000054696D654D532C444A
:1027F0006573526F6C6C2C526F6C6C2C446573500B
:10280000697463682C50697463682C4465735961FA
:10281000772C5961770000000000000000000000E4
:10282000000000000000000003064D4F4445004D2D
:102830006800000000000000000000000000004DE3
:102840006F64652C546872437273000000000000CE
:102850000000000000000000000000000000000078
:102860000000000000000000000000000000000068
:102870000000000000000000000000000000000A4E
:1028800003535452540000000000000000000000F8
:102890000000000000000000000000000000000038
:1028A0000000000000000000000000000000000028
:1028B0000000000000000000000000000000000018
:1028C0000000000000000000000000000000000008
:1028D0000000000000000D0445560000004200000A
:1028E000000000000000000000000000004964003B
:1028F00000000000000000000000000000000000D8
:1029000000000000000000000000000000000000C7
:1029100000000000000000000000000000000000B7
:102920000000000000000000000000000014064449
:102930003136000042680000000000000000000086
:102940000000000049642C56616C756500000000B1
:102950000000000000000000000000000000000077
:102960000000000000000000000000000000000067
:102970000000000000000000000000000000000057
:1029800000000000150644553136004248000000A2
:10299000000000000000000000000049642C5661A7
:1029A0006C756500000000000000000000000000E1
:1029B0000000000000000000000000000000000017
:1029C0000000000000000000000000000000000007
:1029D0000000000000000000000000160844333230
:1029E000000042690000000000000000000000003C
:1029F000000049642C56616C756500000000000001
:102A000000000000000000000000000000000000C6
:102A100000000000000000000000000000000000B6
:102A200000000000000000000000000000000000A6
:102A300000001708445533320042490000000000EE
:102A400000000000000000000049642C56616C7515
:102A50006500000000000000000000000000000011
:102A60000000000000000000000000000000000066
:102A70000000000000000000000000000000000056
:102A8000000000000000000000180844464C5400FC
:102A9000426600000000000000000000000000008E
:102AA00049642C56616C7565000000000000000050
:102AB0000000000000000000000000000000000016
:102AC0000000000000000000000000000000000006
:102AD00000000000000000000000000000000000F6
:102AE000121B43414D000049484C4C656363430051
:102AF0000000000000000047505354696D652C47EA
:102B000050535765656B2C4C61742C4C6E672C418F
:102B10006C742C526F6C6C2C50697463682C596106
:102B2000770000000000000000000000000000002E
:102B30000000000000000013054552520000424210
:102B400000000000000000000000000000005375BD
:102B5000627379732C45436F6465000000000000C8
:102B60000000000000000000000000000000000065
:102B70000000000000000000000000000000000055
:102B800000000000000000000000000000004C6F8A
:102B9000670064756D700000000000000000000018
:102BA000132F6572617365000000000000000000D3
:102BB000827B656E61626C650000000000000000B1
:102BC000E14D64697361626C650000000000000003
:102BD000E14D136B0200C2010DA6020084038A4579
:102BE00001009001A3A10A00D0028FAC0A003200BC
:102BF000D1B00A000A00A9340A008C00ED560A0080
:102C0000E8035A940A0020039DA721005A00A0342B
:102C10000200A4017E2D0200FA009B340200640031
:102C200099AF6400A401D57B0A001400F8BF02002C
:102C300026020BAD6400960007AD0200D002EBAD9A
:102C40000200B603892D0200C20184340A002C015F
:102C500054450200DC005E70E803C800D7440A0057
:102C60003200DE410A0032000253595349445F5397
:102C7000575F4D5245560000000000F91300000058
:102C8000000153595349445F53575F54595045000D
:102C900000000001FB130000204102535953494436
:102CA0005F544849534D41560000000070FC13002A
:102CB00000803F0253595349445F4D5947435300E5
:102CC000000000000071FE1300007F4301534552D5
:102CD00049414C315F424155440000000000720000
:102CE00014000064420154454C454D5F44454C413D
:102CF000590000000000007301140000000002529F
:102D0000544C5F414C5400000000000000000000E3
:102D1000A002140080BB4401534F4E41525F454E08
:102D200041424C45000000000094041400000000E3
:102D300001534F4E41525F5459504500000000006E
:102D400000009A05140000000004534F4E41525FEA
:102D50004741494E000000000000001E0614CDCC83
:102D60004C3F0146535F424154545F454E41424CF3
:102D700045000000C10A14000000000446535F42F1
:102D80004154545F564F4C544147450000970B1433
:102D9000000028410446535F424154545F4D41486E
:102DA000000000000000250F140000000001465341
:102DB0005F4750535F454E41424C4500000000C301
:102DC00013140000803F0146535F4743535F454E55
:102DD00041424C4500000000C614140000000002EF
:102DE0004750535F48444F505F474F4F44000000E7
:102DF0000023151400004843014D41475F454E41F3
:102E0000424C4500000000000000921714000080B2
:102E10003F01464C4F575F454E41424C4500000034
:102E20000000009618140000000001535550455250
:102E30005F53494D504C4500000000009B191400A1
:102E40000000000252544C5F414C545F46494E41D1
:102E50004C00000000A31A1400000000015253535C
:102E6000495F50494E000000000000000000181C9F
:102E700014000080BF04525353495F52414E4745EE
:102E800000000000000000271D140000A0400157B2
:102E9000505F5941575F4245484156494F520000E3
:102EA0001A2114000000400157505F544F54414C08
:102EB000000000000000000000D329140000000002
:102EC0000157505F494E4445580000000000000083
:102ED0000000D42A140000000002434952434C452C
:102EE0005F52414449555300000000D72B140000A5
:102EF000204104434952434C455F52415445000030
:102F0000000000001D2D140000A0410352544C5F2E
:102F10004C4F49545F54494D4500000000A2311404
:102F200000409C45024C414E445F5350454544008F
:102F3000000000000000D93514000048420250494A
:102F40004C4F545F56454C5A5F4D41580000001C91
:102F5000371400007A43025448525F4D494E000036
:102F60000000000000000000B43914000002430219
:102F70005448525F4D41580000000000000000001E
:102F800000B53B1400007A440146535F5448525F39
:102F9000454E41424C4500000000B63D1400000083
:102FA000000246535F5448525F56414C554500005D
:102FB000000000B83E1400C07344025452494D5FF3
:102FC0005448524F54544C4500000000B94014007E
:102FD00000E143025448525F4D49440000000000A4
:102FE0000000000000C242140000FA4301464C54A5
:102FF0004D4F444531000000000000000000C8446F
:10300000140000000001464C544D4F44453200006E
:1030100000000000000000C9451400000000014647
:103020004C544D4F444533000000000000000000A8
:10303000CA46140000000001464C544D4F4445342C
:10304000000000000000000000CB4714000000005A
:1030500001464C544D4F444535000000000000002F
:103060000000CC48140000000001464C544D4F4471
:103070004536000000000000000000CD49140000AB
:1030800000000153494D504C450000000000000075
:1030900000000000CE4A1400000000024C4F475FC1
:1030A0004249544D41534B000000000000144B14A2
:1030B00000805F4401455343000000000000000011
:1030C000000000000000BA4D14000000000154553B
:1030D0004E4500000000000000000000000000BBA2
:1030E0004E14000000000254554E455F4C4F5700EF
:1030F0000000000000000000BD51140000000002AC
:1031000054554E455F484947480000000000000004
:1031100000BC4F1400007A44014652414D45000066
:103120000000000000000000000095531400008023
:103130003F014348375F4F5054000000000000003B
:1031400000000098541400000000014348385F4F0D
:103150005054000000000000000000001F55140043
:103160000000000141524D494E475F434845434BE3
:1031700000000000002056140000803F02414E472E
:103180004C455F4D41580000000000000000222225
:103190001400A08C4503414E474C455F52415445B5
:1031A0005F4D415800000026241400A08C460152B7
:1031B000435F4645454C5F52500000000000000050
:1031C0002828140000C842085243315F0000000064
:1031D000000000000000000000AA571493490000FE
:1031E000085243325F0000000000000000000000B1
:1031F0000000AB741493490000085243335F000091
:103200000000000000000000000000AC9114934991
:103210000000085243345F0000000000000000007E
:1032200000000000ADAE1493490000085243355F22
:1032300000000000000000000000000000AECB1401
:10324000294A0000085243365F00000000000000D9
:10325000000000000000AFE914294A0000085243B2
:10326000375F00000000000000000000000000B018
:103270000715294A0000085243385F00000000008B
:103280000000000000000000B12515294A000008D8
:10329000524331305F0000000000000000000000D9
:1032A00000B24315294A000008524331315F000043
:1032B00000000000000000000000B36115294A0072
:1032C000000252435F535045454400000000000097
:1032D000000000C07F150000F543044143524F5FDA
:1032E00052505F500000000000000000DD8115001A
:1032F000009040044143524F5F5941575F500000D6
:103300000000000000F48515000090400441435285
:103310004F5F42414C5F524F4C4C00000000F2891D
:10332000150000803F044143524F5F42414C5F50C3
:1033300049544348000000F38D150000803F0141CF
:1033400043524F5F545241494E4552000000000025
:103350001B91150000004008524154455F524C4CEF
:103360005F0000000000000000DF92151649000019
:1033700008524154455F5049545F0000000000006E
:103380000000E0AC151649000008524154455F5951
:1033900041575F0000000000000000E1C61516491B
:1033A0000000084C4F495445525F4C41545F0000A7
:1033B00000000000E7E01516490000084C4F495492
:1033C00045525F4C4F4E5F000000000000E8FA15C8
:1033D00016490000085448525F524154455F0000AE
:1033E000000000000000EC141616490000085448C4
:1033F000525F414343454C5F00000000000000F174
:103400002E1616490000084F465F524C4C5F0000D4
:103410000000000000000000ED48161649000008FA
:103420004F465F5049545F0000000000000000005C
:1034300000EE621616490000085354425F524C4C8D
:103440005F000000000000000000E29816B2480093
:1034500000085354425F5049545F000000000000D0
:10346000000000E3A616B2480000085354425F591A
:1034700041575F000000000000000000E4B416B2F5
:10348000480000085448525F414C545F000000005F
:103490000000000000EBC216B248000008484C448F
:1034A0005F4C41545F000000000000000000E57C1C
:1034B00016B248000008484C445F4C4F4E5F000075
:1034C00000000000000000E68A16B2480000085222
:1034D000454C41595F000000000000000000000062
:1034E0000D45091C4B000008434F4D504153535F9D
:1034F00000000000000000000093F31027430000CC
:1035000008494E535F00000000000000000000006A
:103510000000036012E045000008494E41565F007C
:10352000000000000000000000000064370A994B12
:1035300000000857504E41565F0000000000000098
:1035400000000000655609E44B0000085352305F4C
:10355000000000000000000000000000006E810D6F
:1035600090360000085352315F0000000000000058
:103570000000000000006F1F0E9036000008414858
:1035800052535F0000000000000000000000009F98
:10359000060F9F47000008424154545F000000009E
:1035A000000000000000000024B40B0956000008D1
:1035B0004252445F000000000000000000000000D4
:1035C000000F670DD156000008474E445F00000011
:1035D000000000000000000000000BDB11BA4000FA
:1035E000000853434845445F00000000000000000D
:1035F0000000000CE4135A5500000846454E4345B0
:103600005F000000000000000000000045040963A6
:1036100054000008475053474C495443485F00004A
:103620000000000000468A130D3C0000084D4F5476
:103630005F000000000000000000000000005A9839
:103640000C9F4A00000852434D41505F00000000AB
:1036500000000000000000C7680D8C550000084FF6
:1036600053445F0000000000000000000000000064
:10367000F5DC1257580000000000000000000000B8
:10368000000000000000000000000000000000003A
:1036900002005241575F53454E53000000000000A6
:1036A00000000067000000000002014558545F530D
:1036B00054415400000000000000000069000000B8
:1036C0000000020252435F4348414E0000000000E8
:1036D00000000000006B0000000000020352415790
:1036E0005F4354524C0000000000000000006D00D9
:1036F000000000000204504F534954494F4E00004F
:10370000000000000000006F0000000000020545FE
:103710005854524131000000000000000000000039
:10372000710000000000020645585452413200006A
:103730000000000000000000007300000000000214
:1037400007455854524133000000000000000000BB
:1037500000007500000000000208504152414D5326
:1037600000000000000000000000007700000000E2
:103770000000FF000000000000000000000000004A
:1037800000000000000000000000202025530A0077
:10379000436F6D6D616E64733A00496E76616C695A
:1037A0006420636F6D6D616E642C20747970652088
:1037B0002768656C702700657869740068656C70AF
:1037C0000025535D200042616420636F6E76657250
:1037D00073696F6E207479706520272553270A005E
:1037E000556E6B6E6F776E20636F6E766572736960
:1037F0006F6E20272553270A0025733A2025660A75
:103800000025733A20256C640A0025733A2025644C
:103810000A0025733A2025640A00454550524F4D51
:103820002066756C6C002C76D888674F0823C1DF42
:10383000AE59B1B796E5E453C63A51997696E6C2C9
:103840008426898C9B62407C6FFCBC9C9F40BAA5FF
:103850006FA590055A2A5C936B6C676DC11BE0E401
:103860000D47F520E6B5D0ED902E00943577008019
:10387000841E0000204E000000C833333333986E9E
:10388000128341EF8D21893BE655CFFEE6DBD184E3
:103890004B38F77C1D90A4BBE4243284725E810017
:1038A000C9F1ECA1E53DDCDFE1E3E6E8EBEDEFF2A9
:1038B000F4F7F9FCFE000305080A0C0F11141618A2
:1038C0001B1D202224276E616E00696E6600457202
:1038D000726F723A2041505F48414C5F4156523AF4
:1038E0003A415652416E616C6F67496E206F757434
:1038F000206F66206368616E6E656C730D0A004709
:103900004F494E4720444F574E20464F52204120AA
:103910005245424F4F540D0A0050414E49433A2000
:103920007363686564756C65723A3A73797374652C
:103930006D5F696E697469616C697A656420636141
:103940006C6C65646D6F7265207468616E206F6E5B
:1039500063650050414E49433A2041565253656DCC
:103960006170686F72653A3A74616B652075736552
:10397000642066726F6D20696E7369646520746976
:103980006D65722070726F636573730050414E49AC
:10399000433A205350493020777269746520636F31
:1039A0006C6C6973696F6E0050414E49433A205305
:1039B000504930207472616E7366657220636F6C5B
:1039C0006C6973696F6E00010210202008081020D6
:1039D000401020408002010201080402010102049B
:1039E000081020408080402010080402018004025A
:1039F00001804020100804020108040201010204B1
:103A00000810204080010204081020408040050575
:103A10000505070508080808020202020A0A080844
:103A20000404040401010101010101010303030372
:103A300003030303040707070C0C0C0C0C0C0C0C01
:103A40000202020206060606060606060B0B0B0B12
:103A50000B0B0B0B05000020002300260029002C77
:103A6000002F0032000001000003010601090100DF
:103A7000002200250028002B002E00310034000217
:103A8000010000050108010B0100002100240027AE
:103A9000002A002D0030003300010100000401075E
:103AA000010A01327C8900EDD968770000005900D5
:103AB00000000000000000D69FDCA81817AA904361
:103AC0007327F6B968EDF4DED409FEE61C1C84DD2C
:103AD000E80B992927D6DF8D210F036418EFEE1E1E
:103AE000F0B7828200941500F37C00000014009867
:103AF0008F00007F6A00000000000000E7B73F363B
:103B000000000000000000AF669ED0385DD36C203E
:103B1000B9EB5D7C7C77044C80387486EDCB00007B
:103B20000000000000000000000000000000000095
:103B3000000000000000B1F10F86DBD0BC5416136A
:103B40001586004E44BD7F9A15159001EA49B516B9
:103B500053A78AEA000000000000000000000000F7
:103B60000000000000000000000000000000000055
:103B70000000000000000000000000000000000045
:103B80000000000000000000000000000000000035
:103B9000000000000000000000000000CC31AA2C52
:103BA000532E00204E4D45412000205349524620BF
:103BB00000204D544B2000204D544B313920002023
:103BC00075626C6F7820004F4B000096000000E19A
:103BD000000080250000C0120000245053524631DE
:103BE00030302C302C33383430302C382C312C30D1
:103BF0002A334300245047434D442C31362C302C7B
:103C0000302C302C302C302A36410D0A0001004572
:103C10004E41424C45000000000000000000000042
:103C200003000000803F0401524144495553000005
:103C300000000000000000000004000000484304F1
:103C400002414343454C000000000000000000001A
:103C50000000080000007A4400FF0000000000009F
:103C60000000000000000000000000000000000054
:103C7000004750565447004750474741004750526D
:103C80004D430024505542582C34302C6767612C2A
:103C9000302C312C302C302C302C302A37420D0A6D
:103CA00024505542582C34302C7674672C302C31EB
:103CB0002C302C302C302C302A37460D0A2450550D
:103CC00042582C34302C726D632C302C302C302C1C
:103CD000302C302C302A36370D0A0024504D544BEE
:103CE0003331342C302C302C312C312C302C302CE6
:103CF000302C302C302C302C302C302C302C302CE4
:103D0000302C302C302A32380D0A24504D544B338D
:103D100033302C302A32450D0A24504D544B333168
:103D2000332C312A32450D0A24504D544B33303157
:103D30002C322A32450D0A0024505352463130337A
:103D40002C302C302C312C312A32350D0A24505392
:103D500052463130332C312C302C302C312A323534
:103D60000D0A24505352463130332C322C302C3033
:103D70002C312A32360D0A24505352463130332C1E
:103D8000332C302C302C312A32370D0A2450535228
:103D9000463130332C342C302C312C312A32300D3A
:103DA0000A24505352463130332C352C302C312CD0
:103DB000312A32300D0A24505352463130332C36DA
:103DC0002C302C302C312A32320D0A2450535246DA
:103DD0003130332C382C302C302C312A32430D0A20
:103DE00024505352463135312C312A33460D0A24A2
:103DF000505352463130362C32312A30460D0A00AB
:103E0000A0A20008A60200000000000000A8B0B3B5
:103E1000A0A20008A60029010000000000D0B0B355
:103E2000B56206010300010601124F2450554258A5
:103E30002C34312C312C303030332C303030312C8C
:103E400033383430302C302A32360D0A0050414E8F
:103E500049433A2044617461466C61736820535051
:103E60004944657669636544726976657220736555
:103E70006D6170686F7265206973206E756C6C007F
:103E800050414E49433A2044617461466C61736805
:103E9000205350494465766963654472697665725A
:103EA000206E6F7420666F756E64004C6F672025FE
:103EB000752C2020202073746172742025752C20AD
:103EC0002020656E642025750A000A2575206C6F18
:103ED00067730A000A4E6F206C6F67730A0A004E00
:103EE000756D50616765733A2025752020506167B4
:103EF0006553697A653A2025750A004D616E7566CD
:103F0000616374757265723A20307825303278209A
:103F100020204465766963653A203078253034780E
:103F20000A004E6F2064617461666C617368206979
:103F30006E7365727465640025750A0025752C0919
:103F400000444620706167652C206C6F67206669AD
:103F50006C6520232C206C6F6720706167653A20A8
:103F600025752C0900464D542C2025752C202575CF
:103F70002C2025532C2025532C2025530A002C209F
:103F800000257300257300257300252E3266002559
:103F90002E326600252E326600252E3266002566FA
:103FA00000256C7500256C640025750025640025CE
:103FB000750025640025532C2000554E4B4E2C20B7
:103FC00025750A0050414E49433A2041505F4261F5
:103FD000726F3A3A7265616420756E7375636365DA
:103FE000737366756C20666F72206D6F72652074D6
:103FF00068616E203530306D7320696E2041505FEE
:104000004261726F3A3A63616C69627261746520F1
:104010005B335D0D0A0050414E49433A2041505FE9
:104020004261726F3A3A7265616420756E737563AE
:104030006365737366756C20666F72206D6F726551
:10404000207468616E203530306D7320696E2041B8
:10405000505F4261726F3A3A63616C696272617477
:1040600065205B325D0D0A0050414E49433A2041C4
:10407000505F4261726F3A3A7265616420756E7387
:1040800075636365737366756C20666F72206D6F00
:104090007265207468616E203530306D7320696EF2
:1040A0002041505F4261726F3A3A63616C6962729B
:1040B000617465205B315D0D0A0004024142535F6B
:1040C000505245535300000000000000000C000057
:1040D000000000040354454D5000000000000000A3
:1040E0000000000000000800000000000104414C36
:1040F000545F4F4646534554000000000000001036
:10410000000000000000FF000000000000000000B0
:10411000000000000000000000000000000050410E
:104120004E49433A2041505F4261726F5F4D5335B3
:1041300036313120746F6F6B206D6F72652074683B
:10414000616E20313030306D7320746F20696E697C
:104150007469616C697A650050414E49433A204167
:10416000505F4261726F5F4D53353631313A206690
:1041700061696C656420746F2074616B6520736580
:104180007269616C2073656D6170686F726520661D
:104190006F7220696E69740050414E49433A204164
:1041A000505F4261726F5F4D53353631313A204E68
:1041B000554C4C2073657269616C20647269766538
:1041C000720050414E49433A206661696C65642033
:1041D000746F2074616B65205F6932635F73656D16
:1041E000203130302074696D657320696E20612044
:1041F000726F772C20696E2041505F4261726F5F51
:104200004D53353631313A3A5F75706461746500EB
:1042100050414E49433A2041505F4261726F5F4DB9
:10422000533536313120646964206E6F74206765C0
:10423000742076616C6964204932432073656D6136
:104240007068726F65210050414E49433A206661A3
:10425000696C656420746F2074616B65205F737096
:10426000695F73656D203130302074696D6573202E
:10427000696E206120726F772C20696E2041505F3B
:104280004261726F5F4D53353631313A3A5F757026
:10429000646174650050414E49433A2041505F4289
:1042A00061726F5F4D533536313120646964206E21
:1042B0006F74206765742076616C6964205350497F
:1042C0002073656D617068726F65210050414E49C1
:1042D000433A2041505F4261726F5F4D5335363132
:1042E0003120646964206E6F742067657420766184
:1042F0006C69642053504920646576696365206465
:10430000726976657221004661696C656420746F1C
:104310002067657420484D43353834332073656D0C
:104320006170686F72650005014F46530000000020
:104330000000000000000000000017000000000066
:10434000040244454300000000000000000000009B
:1043500000000023000000000001034C4541524EC4
:104360000000000000000000000000000800000045
:10437000803F01045553450000000000000000008C
:10438000000000000027000000803F010541555457
:104390004F444543000000000000000000002800DA
:1043A0000000803F01064D4F5443540000000000C0
:1043B00000000000000000A4000000000005074D00
:1043C0004F5400000000000000000000000000004A
:1043D000A5000000000001084F5249454E5400005E
:1043E00000000000000000000016000000000001B6
:1043F0000945585445524E414C0000000000000051
:10440000000029000000000000FF00000000000084
:10441000000000000000000000000000000000009C
:1044200000256C642E2530376C64002D0009736CF8
:104430006F70653A0009793A00783A0043757276F0
:10444000653A0009736C6F70653A0009793A007833
:104450003A0043757276653A0009736C6F70653A7D
:104460000009793A00783A0043757276653A000996
:10447000736C6F70653A0009793A00783A004375B9
:104480007276653A0009736C6F70653A0009793A83
:1044900000783A0043757276653A0009736C6F7064
:1044A000653A0009793A00783A0043757276653AC0
:1044B0000043616C6962726174696F6E20464149A4
:1044C0004C45440A0043616C6962726174696F6EA5
:1044D000207375636365737366756C0A005363615B
:1044E0006C696E675B25755D3A20252E3266202546
:1044F0002E326620252E32660A004F66667365747A
:10450000735B25755D3A20252E326620252E326696
:1045100020252E32660A004661696C656420746F3E
:104520002067657420494E532073616D706C650A75
:1045300000506C6163652076656869636C65202551
:104540005320616E6420707265737320616E7920F0
:104550006B65792E0A006F6E2069747320424143A7
:104560004B006E6F7365205550006E6F736520446D
:104570004F574E006F6E206974732052494748545C
:104580002073696465006F6E20697473204C454622
:10459000542073696465006C6576656C0020002AA0
:1045A00000496E697420416363656C006779726FBE
:1045B0005B25755D20646964206E6F7420636F6E87
:1045C00076657267653A20646966663D2566206493
:1045D00070730A002A00496E6974204779726F006F
:1045E000020050524F445543545F494400000000BC
:1045F0000000002600000000000501414343534332
:10460000414C0000000000000000000028000000F5
:10461000000005024143434F46465300000000009E
:10462000000000000034000000000005034759525C
:104630004F4646530000000000000000000040000C
:104640000000000001044D5055364B5F46494C5464
:10465000455200000000004C000000000000FF0078
:10466000000000000000000000000000000000004A
:104670000000000000004661696C656420746F20D2
:10468000626F6F74204D50553630303020352074B5
:10469000696D6573004D5055363030303A20556E97
:1046A00061626C6520746F206765742073656D614D
:1046B00070686F72650050414E49433A2041505F27
:1046C000496E65727469616C53656E736F725F4D8C
:1046D0005055363030303A3A5F706F6C6C5F6461C1
:1046E0007461206661696C656420746F2074616B0D
:1046F00065205350492073656D6170686F72652045
:1047000073796E6368726F6E6F75736C7900504168
:104710004E49433A206661696C656420746F20627B
:104720006F6F74204D50553630303020352074690D
:104730006D6573004D5055363030302073746172A2
:10474000747570206661696C65643A206E6F2064D0
:10475000617461207265616479004D505536303066
:10476000303A20556E61626C6520746F2067657405
:104770002073656D6170686F72650054696D656462
:10478000206F75742077616974696E6720666F7237
:10479000207573657220726573706F6E73650004A7
:1047A000024750535F4741494E000000000000009F
:1047B000000024000000803F01034750535F555321
:1047C00045000000000000000000002C00000080F8
:1047D0003F04045941575F500000000000000000F2
:1047E000000000001C00CDCC4C3E040552505F5030
:1047F000000000000000000000000000002000CDCC
:10480000CC4C3E010657494E445F4D4158000000D4
:104810000000000000002D000000000005085452B8
:10482000494D000000000000000000000000003EB4
:10483000000000000001094F5249454E54415449BF
:104840004F4E0000000000002E0000000000040A8F
:10485000434F4D505F4245544100000000000000AE
:10486000002800CDCCCC3D010B4750535F4D494E45
:10487000534154530000000000002F000000C040CE
:10488000010C4750535F44454C4159000000000063
:1048900000000030000000803F00FF00000000002A
:1048A0000000000000000000000000000000000008
:1048B00000000400500000000000000000000000A4
:1048C000000000000000000000000004014900009A
:1048D00000000000000000000000000000000400D4
:1048E000000000000202494D415800000000000095
:1048F0000000000000000008000000000000FF00B1
:1049000000000000000000000000000000000000A7
:104910000000000000000400500000000000000043
:104920000000000000000000000000000000000483
:10493000014900000000000000000000000000002D
:104940000000040000000000040244000000000019
:10495000000000000000000000000008000000004F
:10496000000203494D415800000000000000000013
:10497000000000000C000000000000FF000000002C
:104980000000000000000000000000000000000027
:1049900000000002004D494E000000000000000031
:1049A0000000000000000A00008089440201545207
:1049B000494D000000000000000000000000000C55
:1049C000000080BB4402024D41580000000000007E
:1049D00000000000000000000E000080ED44010314
:1049E00052455600000000000000000000000000DA
:1049F0000010000000803F0205445A000000000043
:104A00000000000000000000000011000000000095
:104A100000FF000000000000000000000000000097
:104A2000000000000000000000080000000000007E
:104A3000000000000000000000000000000093499A
:104A40000000010146554E4354494F4E00000000FE
:104A500000000000001D000000000000FF0000003A
:104A60000000000000000000000000000000000046
:104A70000000000041505F4D6F746F72733A206602
:104A800061696C656420746F206372656174652070
:104A90007468726F74746C6520637572766500015A
:104AA00001544352565F454E41424C4500000000C0
:104AB000000030000000803F0102544352565F4D19
:104AC00049445043540000000000003100000050F1
:104AD000420103544352565F4D4158504354000025
:104AE0000000000032000000BA4202055350494E57
:104AF0005F41524D454400000000000000330000BB
:104B0000008C4200FF0000000000000000000000D8
:104B100000000000000000000000000001005049FB
:104B20004E00000000000000000000000000000037
:104B30000000005041010150494E320000000000C9
:104B400000000000000000000100000080BF010222
:104B500050494E330000000000000000000000003B
:104B6000000200000080BF010350494E34000000E5
:104B7000000000000000000000000300000080BFF3
:104B800000FF000000000000000000000000000026
:104B9000000000000000000000040154435F585969
:104BA00000000000000000000000000014000000F1
:104BB0002040040254435F5A00000000000000003F
:104BC000000000000065000000A04000FF000000A1
:104BD00000000000000000000000000000000000D5
:104BE0000000000004005350454544000000000050
:104BF0000000000000000011000000FA4304015210
:104C0000414449555300000000000000000000002E
:104C10001D0000004843040253504545445F555071
:104C2000000000000000000000150000007A4304AE
:104C30000353504545445F444E000000000000000F
:104C4000000019000000164304044C4F49545F5300
:104C500050454544000000000000000D000000FA2F
:104C6000430405414343454C0000000000000000A0
:104C70000000000021000000C84200FF000000000A
:104C80000000000000000000000000000000000024
:104C9000000000801140114071327334333213121E
:104CA00011321112933413145352310021030406AC
:104CB000080B2D0A090705040241C011C051125307
:104CC00054731211125152731473323100210204C1
:104CD0000506070809080607062403020102000169
:104CE00020012011C001110031321374131433124A
:104CF000F112D31251000102232506074644234234
:104D0000210001E0A0313213B4331112110011203F
:104D1000110052331213321120012224850423047E
:104D2000020342410001E0A051121413151315347F
:104D30001332514001201152133231000122230459
:104D40000504050423010382612001E01180113272
:104D500013541514333231402102010031723141B4
:104D60000223442302012201220102614001A01119
:104D7000805112141334151433123140010201030F
:104D80000201205211122021224304224102210259
:104D9000A10001E02011405153741332114021024F
:104DA00003020302010011121132001141222322D9
:104DB00021004102A18001601160110011323374A1
:104DC000131211400162030203213112111211402A
:104DD00001020102030201000100E121E0A0112013
:104DE0001211733433312001620362401211121127
:104DF00000110100010201220001200100E1C001B7
:104E0000001180110012111312141334522001E208
:104E100002212031121100110001002102010001C4
:104E200040210002410001E06011401112111312F3
:104E30001413141332110021220342010221000134
:104E40000011001211001120010041600100C10099
:104E5000014011200160114051121312131433123A
:104E60003100014203220102210001401100310002
:104E700011000100010001A0E10001A0018011204A
:104E800031529312110021C2210021403100112022
:104E90001100010001E0E16001E0110011727312E4
:104EA00031002142030102010220214011001120A2
:104EB0001160014011600100010221020001200186
:104EC0004001A051321312533211200102018221FC
:104ED0000021000100110031E000110011602100EB
:104EE00001020102010100212001000160110011F5
:104EF00052131214135211004182010200010021C9
:104F0000401100110011A011003100112081220177
:104F1000010002010021000160110052131213145C
:104F2000133231010002012201420100210001007F
:104F300001112011001120114071001140010221C6
:104F400002010201002102210001000100110012F2
:104F500011123312341332112001020142012201D5
:104F600000410001601120110011001100511231A7
:104F700020610201220200020102812011001211AF
:104F8000733413321100410201820100610001807B
:104F90001100110091323140214201020200626190
:104FA0004011521413543331004182012200010296
:104FB00000410001609112115251200122010301B0
:104FC0000202008261005133541514333100210272
:104FD000012203424102A180319213323100412269
:104FE0000302010300220322010201401112339542
:104FF0003331010022010342032221220102610018
:1050000001110011521312531231004122032203E5
:105010000023020302010221203213141615171671
:1050200015331120016203020302032201A2414051
:10503000111253141314133211010002010203025E
:105040000302020002230203222120321416371821
:105050001715131211002122030243024301030218
:10506000038221201112131415341514321100017A
:105070006223020300430203420120121315181990
:105080003A1715131100210203026304E30203021D
:1050900003020102401213141517151634122021B1
:1050A0002243020300A3220100111215181C1E1D29
:1050B000191613110002010302030423040324033D
:1050C0000443042304030203422011121415171889
:1050D0003615133121020302230203241E1915126F
:1050E000100E0C0B0A090909080808070606050432
:1050F0000404030404040000000000000000000099
:1051000027262123252325242722292A2A1C27284C
:105110002B33322725222C3331303700000000009A
:10512000000000000000000001FFFFE000000000A0
:10513000000001FFFFF000000000000001FFFFF889
:1051400000000000000001FFFFFE00000000000062
:1051500003FFFFFF00000000000003FFFFFFF0005F
:10516000000000000FFFFFFFFE00000003FFFFFC38
:10517000000007FC00007FFFFFFC000000000000B3
:10518000001FFFFE000000000096918C87827D7852
:10519000736E69645F5A55504B46413C37322D2837
:1051A000231E19140F0A050004090E13181D2227C7
:1051B0002C31363B40454A4F54595E63686D7277D7
:1051C0007C81868B90959A9FA4A9AEB3AFAAA5A027
:1051D0009B968F89837E78736E69645F5A55504BB6
:1051E00047423E3935302C27231F1B16120E090566
:1051F0000103070B1014191D22262B2F34393D42B1
:10520000474C51565B60656B70757B80868C9297BE
:105210009DA3A9AFB2ACA6A09A948F827C76706B46
:1052200065605C57524E4A46413D3936322E2A2639
:10523000221F1B1713100C08040102060A0E121677
:105240001A1E22262B2F33383D41464B4F54595EB0
:1052500064696F747A80878D949BA2AAB1AEA69F71
:10526000979089826F68635E5955514D4946423F18
:105270003C3835322E2B2824211E1A1714100D0A03
:105280000603000306090D1014181C2024282C30D6
:1052900034393D41464A4F54585D62676D73798099
:1052A000878F98A2ACB0A59A90867D766F55514DA8
:1052B0004A4744413F3C3A383533312E2B29262387
:1052C000201D1A1713100D0A070401010306090D0A
:1052D0001013171A1E22262A2E32363A3E42464A0A
:1052E0004E53575B5F64696E757C85909FB2A08D4D
:1052F0007D7067605A553E3C3A3937363433323028
:105300002F2E2C2A292724221F1C191613100D0AB0
:10531000070402000305080A0D1013161A1D2125A3
:10532000292D3135383C4043464A4D505356595B40
:105330005E6165696F826D544D4A474442403E2E1E
:105340002E2D2C2C2B2A2A292928272625242321D7
:105350001F1C1A1714100D0A070401010305070981
:105360000C0E1013161A1D2124282C3033373A3D09
:1053700040424447484A4A4B4A48443D3019021685
:1053800021282B2D2E2F2E2E06090C0F1215171942
:105390001B1C1B1811040E2231383C3C3C3A38359A
:1053A000322F2B2824201C1915110D090501020686
:1053B0000A0E1115181C1F222527292A2B2B2926F6
:1053C000211911080004080A0A0A08070402000348
:1053D0000616181A1C1E20211F1712516063625FE7
:1053E0005D5956524E4A46423E3935312C282420CA
:1053F0001B17130E0A060102060A0F13171B1F23A1
:10540000262A2D313437393C3D3F3F3E3D39352F3B
:1054100028211C17151313131416A8ADB2B0ABA690
:10542000A19C97928D88837E79746F6A65605B56C4
:10543000514C47423D38332E29241F1A15100B06B4
:105440000103080D12171C21262B30353A3F444921
:105450004E53585D62676C71767B80858A8F949914
:105460009EA3A80100454E41424C450000000000AB
:10547000000000000000020000000000010154597B
:105480005045000000000000000000000000000384
:1054900000000040400102414354494F4E000000CB
:1054A000000000000000000004000000803F040332
:1054B000414C545F4D4158000000000000000000C6
:1054C0000005000000C842040452414449555300FD
:1054D000000000000000000000000900000016436A
:1054E00004054D415247494E0000000000000000F5
:1054F0000000000D000000004000FF000000000060
:10550000000000000000000000000000000000009B
:1055100000005363686564756C6572206F76657210
:1055200072756E207461736B5B25755D202825751F
:105530002F2575290A005363686564756C657220B0
:10554000736C6970207461736B5B25755D20282511
:10555000752F25752F2575290A00010044454255F0
:1055600047000000000000000000000000000000F4
:1055700000000000FF00000000000000000000002C
:105580000000000000000000000000000100524F79
:105590004C4C000000000000000000000000000073
:1055A000000000803F0101504954434800000000C2
:1055B00000000000000000000100000000400102A7
:1055C0005448524F54544C45000000000000000065
:1055D0000003000000404001035941570000000053
:1055E00000000000000000000000020000008040F9
:1055F00000FF0000000000000000000000000000AC
:1056000000000000000000000001004D4F4E495412
:105610004F520000000000000000000000000000E9
:1056200000000101564F4C545F50494E00000000ED
:1056300000000000000100000050410102435552EB
:10564000525F50494E0000000000000000000200C0
:10565000000040410403564F4C545F4D554C5400DC
:105660000000000000000003009A99214104044159
:105670004D505F504552564F4C5400000000000002
:105680000700000088410405414D505F4F464653D6
:105690004554000000000000000B00000000000363
:1056A00006434150414349545900000000000000A6
:1056B00000000F0000404E4500FF00000000000009
:1056C00000000000000000000000000000000000DA
:1056D0000000FF00000000000000000000000000CB
:1056E0000000000000000000000041505F4F5344E4
:1056F0005F4D4158373435363A3A77726974655F91
:105700004E564D28292063616E206E6F74206765A8
:10571000742073656D0A0041505F4F53445F4D41E3
:1057200058373435363A3A73686F77417431485A8E
:1057300028292063616E206E6F7420676574207362
:10574000656D0A0041505F4F53445F4D41583734F7
:1057500035363A3A73686F77417433485A282920AE
:1057600063616E206E6F74206765742073656D0AC7
:105770000041505F4F53445F4D4158373435363AFE
:105780003A73686F7741743130485A282920636131
:105790006E206E6F74206765742073656D0A00DA81
:1057A000202020202020202020202020DB00DA20A4
:1057B0002020202020202020202020DB7C00D8203A
:1057C0002020202020202020202020D97C00DA202A
:1057D0002020202020202020202020DB7C00DA2018
:1057E0002020202020202020202020DB7C00415071
:1057F0005F4F53445F4D4158373435363A3A636C06
:1058000065617228292063616E206E6F7420676560
:10581000742073656D0A0050414E49433A2041504F
:105820005F4F53445F4D4158373435363A206661F7
:10583000696C656420746F2074616B652073657298
:1058400069616C2073656D6170686F726520666F49
:105850007220696E69740001005350454544000090
:105860000000000000000000000046000000803F33
:105870000101414C544954554445000000000000CA
:1058800000000047000000803F01025448524F547E
:10589000544C4500000000000000000048000000DB
:1058A000803F0103504954434800000000000000BD
:1058B000000000000049000000803F0104524F4CEE
:1058C0004C000000000000000000000000004A0042
:1058D0000000803F0105484F4D45000000000000DA
:1058E000000000000000004B000000803F01064D5A
:1058F0004F444500000000000000000000000000D0
:105900004C000000803F010754494D450000000055
:105910000000000000000000004D000000803F017A
:1059200008484F52495A4F4E000000000000000046
:1059300000004E000000803F01094750535F534173
:1059400054530000000000000000004F00000080E1
:105950003F010A4750535F434F4F5244000000003D
:105960000000000050000000803F010B42415454F1
:105970005F564F4C00000000000000000051000086
:1059800000803F010C424154545F435552000000D7
:1059900000000000000052000000803F010D424165
:1059A00054545F50455200000000000000000053B6
:1059B000000000803F010E57500000000000000072
:1059C000000000000000000054000000803F010FB4
:1059D00048454144000000000000000000000000B5
:1059E0000055000000803F0110484541445F524F80
:1059F0005345000000000000000056000000803FFA
:105A00000111424154545F434F4E0000000000001A
:105A100000000059000000803F0112564944454FE4
:105A20005F4D4F444500000000000000570000009B
:105A3000803F00FF000000000000000000000000A8
:105A400000000000000000000000004E414E494EE2
:105A5000495459494E46CDCCCC3D0AD7233C17B7C3
:105A6000D13877CC2B329595E6241FB14F0A000030
:105A700020410000C84200401C4620BCBE4CCA1B4E
:105A80000E5AAEC59D748EC03AEAA6F2B9F6BDF6BE
:105A900093F7E80311241FBECFEFD1E2DEBFCDBFE5
:105AA00000E00CBF17E0A0E0B2E0E2EBF5EA03E0B3
:105AB0000BBF02C007900D92A43AB107D9F719E1C4
:105AC000A4EAB7E001C01D92AD3BB107E1F71AE5CA
:105AD000C4E9DAE500E006C022970109FE010BBF28
