:100000000C94142E0C94452E0C94452E0C94452ED5
:100010000C94452E0C94452E0C94452E0C9424DF04
:100020000C94452E0C94452E0C94452E0C94452E84
:100030000C94452E0C94452E0C94452E0C94B0F146
:100040000C94452E0C94452E0C94452E0C94452E64
:100050000C94452E0C94452E0C94452E0C94452E54
:100060000C94452E0C94C9DF0C94F8DF0C94452EAB
:100070000C94452E0C94452E0C94452E0C94452E34
:100080000C94452E0C94452E0C94452E0C94452E24
:100090000C9433E00C9462E00C94452E0C94DDE358
:1000A0000C94452E0C94DDF10C94452E0C94452EA9
:1000B0000C94452E0C94452E0C940AF20C94452E6B
:1000C0000C94452E0C94452E0C94F3E90C949DE071
:1000D0000C94CCE00C94452E0C94452E0C94452E9B
:1000E0000C94452E06320B32103215321A321F3262
:1000F000243229322E32333238323D3248324232C3
:100100008A61796197618A618A6197619761077AEB
:10011000B479EF79BD79D179EF79077AEF79077AF8
:10012000F479D97C3D7DC87D487EE27E397D897C2D
:10013000447F3D7F4B7F4F7F707F627F7B7F5B7F04
:10014000697F777F827F897F1380957F4E804E8085
:10015000578064805D8057805D805D805D808B808E
:100160005D805D805D804E80B585A6881986CE85D0
:10017000E7852A865D86A6884B871687A688B2867D
:1001800065874C86A688A6886E878787A087A688FD
:100190000086CB86FD86A68829873B86A688E486CE
:1001A000A688B987CA87DB87A6887F869086A186BE
:1001B0006E86F48724883A873D884E8858897489EA
:1001C000638A958AE08A328B3F8B7B8B048C3D8DD2
:1001D000C891FB910392E691ED910B925392339269
:1001E0002B9223923B9243924B9213921B92C1917A
:1001F0006A925B9279928192C1918992C191919216
:10020000F1930F9424949E95659481945A946E94DE
:100210009E959E959E959E959E959E959E959E9546
:100220009E959E959E959E959E959E959E959E9536
:100230009494DC98EC98F5980499289A5299289A05
:10024000289AE599EE99F999F298019A289A149AC0
:10025000289A1D9A78A887A88BA892A896A8DAB49D
:100260009AA8DAB4DAB4DAB49EA8A2A8A6A8A0E63E
:10027000A0E6A5E6A5E6A5E6AAE6AAE6AAE6BDE604
:10028000AFE6AFE6CAE6CEE6D4E6D8E6DCE6E2E6DE
:10029000E6E6EAE6F9E6F0E6F4E604E708E70EE764
:1002A00012E716E71CE720E724E733E72AE72EE703
:1002B0004DE752E757E75CE761E766E76BE770E712
:1002C0007EE775E77AE7ADE7B2E7B7E7BCE7C1E7F6
:1002D000C6E7CBE7D0E7DFE7D5E7DAE791F791F7B5
:1002E000A1F7C1F7B8F7C9F7D1F7E4F7FFF73CF882
:1002F000EBFDF0FDF9FD06FE1EFE41FE55FE03FF7F
:10030000FDFE10FF1AFF2EFF45FF4FFFA3052B0335
:10031000A5046B034703C5037903AF03B305BB0310
:100320002D0305062906EB02BB04F1053706AF05D0
:1003300097036D036D051704CB040D050304F1034A
:1003400087036304F3039D056D04E9040B0631057F
:10035000DB04BF043B03BF04BF0477046505BF048F
:10036000BF042F06C3058503BF04BF04BF04BF0439
:10037000BF04BF04BF04BF04BF04BF04BF048304A1
:10038000BF04BF04BF04BF04BF04BF04BF045704BD
:100390005905BF041B05A903BF0411030705BF04CA
:1003A000BF04BF04BF04B703C7036104DD03130523
:1003B0002F032505C1045103070609030303250381
:1003C000E3020904B9054705510513045B0345041D
:1003D000FB048D0317051303B904AB056503E3059F
:1003E000E1039303A704870459043D04AD03AD045E
:1003F000E704C103C1031F06C1039D049D049D04BE
:100400009D049D04C1039D049D049D049D041F063D
:100410001F061F061F061F061F06730573052B0503
:10042000730573052B052B05F5034905F5034905F0
:10043000F5034905F5037705770577057705770512
:100440007705770577057705BD0591054105910588
:1004500041059105410591054105910541050D06AF
:100460000D060D06210621060D060D060D062106B8
:100470002106D703D703D70353035303D703D70367
:10048000D70353035303BD049B05BD049B05BD0463
:100490009B05BD049B05BD046B04AB034F054904DC
:1004A000AB034F054904AB034F054904D305890548
:1004B0008905D305D30589058905D305D305D3055A
:1004C000D305036EDB363D9A9999993DABAAAA2ACA
:1004D0003E000000803F084AD73B3BCE016E84BC03
:1004E000BFFDC12F3D6C74319ABD56833DDA3D008E
:1004F000C77F11BED9E4BB4C3E916BAAAABE0000D7
:1005000000803F072C7AA5BA6CC590DA3B9365FC56
:100510008BBC53F810FD3C5692834DBD879D3AB677
:100520003DCBC9BF5BBE73DA0FC93F05A84CCDB246
:10053000D44EB93836A9020C50B9918688083CA629
:10054000AAAA2ABE000000803F08000000BE922434
:1005500049123EABAAAA2ABECDCCCC4C3E0000002C
:1005600080BEABAAAAAA3E00000000BF0000008027
:100570003F0000000000084178D3BB4387D1133D02
:10058000190E3CC3BD4282AD2B3E68EC8276BED9CB
:100590008FE1A93E4C80EFFFBE01C4FF7F3F00000A
:1005A0000000000664EC1B3C04BC163E3BE5B93C75
:1005B000C93C37C29E5A3D660498083EEA69AAAA19
:1005C0003E000000803F0D947A400D947FA20D9470
:1005D000ED610D945B0E0D9447070D946D010D9424
:1005E000B1730D9409C50D942B160D94F28B0D94D7
:1005F00049620D94495C0D9496640D9488780D942D
:10060000651D0D9402140D945D400D94C1C30D94AD
:10061000766B0D9450400D944C0A0D94AD100D94D2
:10062000E77A0D94AC1B0D94C1410D949E660D9418
:10063000F3610D9465550D9458C50D94AE650D94F8
:1006400046260D94C0C00D94F7010D9470400D9492
:10065000A29C0D944C560D9446060D9423070D94C0
:10066000E13F0D94913C0D942F490D948B040D9412
:1006700053C50D94BB190D94621C0D94D8590D945B
:100680007CA40D9422280D941D110D949F3B0D9474
:1006900072060D94093A0D94B17C0D9425220D94A7
:1006A00040250D942C400D94F9B20D94C0140D9476
:1006B00032480D941D630D941D410D946B550D949E
:1006C00096130D94F5040D94D34D0D94DE410D94C5
:1006D00065370D9420130D9460060D94D90A0D947E
:1006E000871E0D94353C0D943D1A0D9495020D9482
:1006F00029C50D94CE060D945E2D0D9430480D94B1
:100700005A560D94C76A0D946B1D0D94B71C0D9429
:10071000200C0D9478920D94D6900D947B410D94FD
:1007200031190D946D620D940F420D945D640D941A
:10073000C90A0D94A5270D942FC50D949E5B0D94A9
:100740002C780D942CC50D9499B40D9414A50D948A
:1007500006620D94F31B0D94BDB30D9488420D9465
:10076000E2060D94B3100D94D88F0D9473900D94F0
:100770009C1C0D94A78B0D940E070D94E2750D949F
:10078000F3590D9462780D94E6310D9497060D940B
:10079000923F0D94BF180D94BA140D9472100D94DD
:1007A000F88B0D94B6470D94A6170D9429480D9417
:1007B000F7B20D9443750D94D6460D94AA3F0D944F
:1007C0003EC50D9400420D9413840D94C5390D94CB
:1007D00097430D94EBAD0D9464070D94B3270D94DE
:1007E000ED970D94140C0D94330C0D948DB10D9464
:1007F000E3590D94025A0D9482070D94C1330D9460
:100800001A640D9425480D94180C0D944F5C0D94AA
:100810008ABA0D949D400D94770C0D94E40C0D94C0
:1008200029490D947E320D940C410D9468C50D94A8
:100830000E0B0D9421480D941F2F0D94E3240D945D
:100840002CB40D94D2590D941E260D948E250D9422
:10085000B9160D946D180D9423480D9426C50D946A
:1008600023C50D9424790D94811E0D9447670D9432
:1008700024640D94A0170D94F1250D947A420D94E3
:100880006E560D9418260D94A4740D943C410D944D
:100890002E480D94E2B30D940A3E0D94122B0D9444
:1008A0000A5F0D942EC40D94D5CA0D94AA520D94CE
:1008B000851B0D9460420D9414680D9487210D944E
:1008C00066840D94A53F0D94290C0D94F7050D94A5
:1008D000D1780D942A1E0D941AB30D944F0C0D94DB
:1008E000AC120D94FF2B0D9468280D940B650D949C
:1008F000B91B0D94B7460D9490AD0D949E260D94A2
:10090000C0790D94D71F0D94D21C0D94D0980D94DE
:1009100043420D9427480D94EB590D94520A0D94BF
:1009200065840D94B1880D9467620D9459A30D945C
:1009300060380D94AB260D94B59F0D946B780D9493
:100940007B8E0D941A100D94AA630D9458060D9485
:1009500025420D9411650D94644A0D94A1420D94A5
:10096000517C0D941F620D9403170D94CD4D0D9481
:1009700040260D94C6410D9455070D9416B30D9461
:100980000F1D0D9409400D9470260D94DD0B0D94F0
:1009900036610D94E8440D94330B0D944E870D94FD
:1009A00076260D94B0870D94402F0D9494250D94C8
:1009B0008D260D946B050D94241C0D9456850D9475
:1009C00073180D94AF770D9432B40D94E25D0D94CD
:1009D000BB420D94670C0D94EF220D9422480D94A8
:1009E00038480D9439600D9439760D94D43A0D94AD
:1009F000105C0D94FD050D944D410D946A4A0D94C3
:100A0000AD270D94C5860D9457620D94B5250D94B0
:100A1000D11B0D94E23E0D94D0460D943E0B0D94E7
:100A2000C7860D945E840D94D33F0D94AA3C0D941B
:100A300091410D94C57D0D94491C0D9405430D9471
:100A4000829F0D948B4E0D94012C0D9400400D94BB
:100A5000BA0E0D9422B60D94A2B00D9452AA0D9424
:100A60006EC50D94911B0D9400860D94092C0D9468
:100A7000F29B0D949D270D94D91D0D94701F0D941C
:100A8000E4250D94C7B20D94710C0D94531F0D9471
:100A9000E0400D947EB10D9430610D94BC470D94EF
:100AA000CEB30D94ED400D9490780D94D31D0D941C
:100AB00025160D94091C0D9493B40D94CD190D9425
:100AC00097940D94DC270D949E8A0D94E21B0D944F
:100AD000E9200D94045F0D9437BD0D94EE0A0D943A
:100AE0003A2F0D94537B0D9499B00D9422850D945B
:100AF000CFB10D9417640D942B480D947F600D9425
:100B000079150D94032C0D94DF1A0D94B1440D94B6
:100B10005A8D0D94F4B30D94E9350D94DCA30D9426
:100B2000582D0D94C2B20D9470190D9420B90D94E6
:100B3000852C0D946C6E0D9418B30D94410C0D948E
:100B4000210E0D94A4520D944F060D94C9680D9476
:100B5000580F0D9431740D94CB410D94A5610D94F3
:100B6000BE0A0D94D3250D9414070D94A48A0D94F8
:100B7000CB7D0D94B3400D941A230D948FB10D9439
:100B80000D940D9467830D94F01C0D946FA10D943A
:100B9000D9960D94BB250D949C130D9443C50D94CB
:100BA000FD160D940AAB0D9413B40D94C0110D9461
:100BB0009C640D9427120D9444470D94371A0D949C
:100BC00014640D94BD380D94F3410D9445230D9498
:100BD00082100D943BA90D94C7AC0D94B5640D948F
:100BE000D5640D94B50A0D9417110D944B890D948D
:100BF000455A0D9431120D94BCA70D9464840D9444
:100C000004490D94A1840D94A4630D9429070D94B7
:100C100031400D9437120D946B0C0D94DAB20D9493
:100C2000BE4E0D94B84E0D9445890D9417630D94E6
:100C300048870D943F600D9468560D94FD7F0D9488
:100C400068780D94DCB20D941A370D94F22B0D9444
:100C50005A0B0D942F070D94685B0D943E470D942D
:100C60008F1C0D94E2320D94CD6E0D94F1290D94EC
:100C7000AE0A0D94F9C041504D2032000A41726411
:100C800075436F707465722056332E312E350A46C7
:100C90007265652052414D3A2025750A00626164F3
:100CA000206C6F67206E756D6265720A0064756DE9
:100CB00070696E6720616C6C0A00656E61626C65BC
:100CC0000043414D45524100434F4D504153530065
:100CD0004F5054464C4F570052434F5554004355C4
:100CE0005252454E5400434D4400494D5500524325
:100CF000494E004E54554E004354554E00504D0041
:100D00004750530041545449545544455F4D454460
:100D10000041545449545544455F46415354006181
:100D20006C6C006D697373696E67206C6F672074FB
:100D30007970650A002043414D4552410020434FE0
:100D40004D5041535300204F5054464C4F570020B4
:100D500052434F5554002043555252454E540020A3
:100D6000434D440020494D5500205243494E002038
:100D70004E54554E00204354554E0020504D0020F7
:100D8000475053002041545449545544455F4D4504
:100D900044002041545449545544455F46415354FE
:100DA000006E6F6E65006C6F677320656E61626CBC
:100DB00065643A2000496E697469616C6973696E93
:100DC00067206779726F73000A4F703A5B6F6E2C01
:100DD0006F66665D0A006F6666006F6E007468720B
:100DE0003A2564206375723A25342E3266206D6F81
:100DF0007420783A25342E316620793A25342E3104
:100E000066207A3A25342E31662020636F6D70207B
:100E1000783A25342E326620793A25342E326620EF
:100E20007A3A25342E32660A004661696C6564217F
:100E300020436F6D70656E736174696F6E206469B5
:100E40007361626C65642E202044696420796F753B
:100E500020666F7267657420746F207261697365B4
:100E600020746865207468726F74746C652068699A
:100E7000676820656E6F7567683F000A496E746524
:100E800072666572656E63652061742066756C6C50
:100E9000207468726F74746C6520697320256425F2
:100EA00025206F66206D6167206669656C640A0A9B
:100EB00000636865636B20636F6D706173730A0014
:100EC0007468726F74746C65206E6F74207A6572CA
:100ED0006F0A005448524F54544C450A004355522F
:100EE00052454E540A0054686973207265636F72EC
:100EF00064732074686520696D70616374206F6E1F
:100F00002074686520636F6D70617373206F662055
:100F100072756E6E696E6720746865206D6F746F90
:100F200072732E20204D6F746F72732077696C6C12
:100F3000207370696E210A486F6C64207468726F48
:100F400074746C65206C6F772C207468656E2072E9
:100F50006169736520746F206D696420666F72200B
:100F600035207365632C207468656E207175696324
:100F70006B6C79206261636B20746F206C6F772ECD
:100F80000A507265737320616E79206B65792074E5
:100F90006F20657869742E0A0A6D656173757269D0
:100FA0006E6720636F6D70617373207673200063CA
:100FB0006F6D706173732064697361626C65640A3C
:100FC00000726164696F206E6F742063616C696286
:100FD00072617465640A00646F6E650A000A457286
:100FE0006173696E6720454550524F4D0A000A4DA6
:100FF0006F64652073776974636820746F2065641B
:1010000069742C2061696C65726F6E3A2073656C2F
:10101000656374206D6F6465732C207275646465FC
:10102000723A2053696D706C65206F6E2F6F666623
:101030000A000A4F703A5B6F6E2C206F66665D0A7D
:10104000006F6666006F6E000A53617665640A0081
:101050000A4D6F766520616C6C20636F6E74726FE1
:101060006C7320746F2065787472656D65732E20C3
:10107000456E74657220746F20736176653A200046
:101080000A0A526164696F2053657475703A0020D2
:1010900025642C204C6F773A25312E34662C20485D
:1010A0006967683A25312E34660A000A54554E4560
:1010B0003A0A000A434820362052616E6765732061
:1010C00061726520646976696465642062792031A3
:1010D0003030303A205B6C6F772C20686967685D30
:1010E0000A000A5265626F6F7420626F6172640059
:1010F0000A275927203D20666163746F7279207238
:10110000657365742C20616E79206F746865722038
:101110006B657920746F2061626F72743A0A0043C4
:10112000616E6E6F742073657420706172616D659D
:10113000746572206F6620747970652025642E0AAC
:101140000056616C7565206F7574206F6620726142
:101150006E676520666F72207479706520494E5401
:1011600031360A0056616C7565206F7574206F66A4
:101170002072616E676520666F72207479706520D9
:10118000494E54380A00506172616D206E6F7420B0
:10119000666F756E643A2025730A00496E76616C3D
:1011A000696420636F6D6D616E642E205573616795
:1011B000653A20736574203C6E616D653E203C7617
:1011C000616C75653E0A004D6F64652825752900C0
:1011D00053504F5254004452494654004F465F4CBE
:1011E0004F49544552004C414E4400504F534954CE
:1011F000494F4E00434952434C450052544C004C19
:101200004F495445520047554944454400415554BF
:101210004F00414C545F484F4C44004143524F00F3
:1012200053544142494C495A45004F46460A004FE3
:101230004E0A002C090953696D706C653A20005004
:101240006F732025643A0900466C69676874206DE5
:101250006F6465730A00766F6C747320616E64202E
:1012600063757200766F6C7473000A426174742047
:101270004D6F6E3A0A0048656C69206672616D6553
:101280000A004672616D650A004348383A202564B9
:10129000207C2025640A004348373A202564207CBE
:1012A0002025640A004348363A202564207C202506
:1012B000640A004348353A202564207C2025640ACE
:1012C000004348343A202564207C2025640A0043EA
:1012D00048333A202564207C2025640A00434832A4
:1012E0003A202564207C2025640A004348313A20B6
:1012F0002564207C2025640A00526164696F0A001D
:10130000506172616D65746572206E6F7420666FD6
:10131000756E643A20272573270A00547970653A60
:101320002025642028303D584C2C20313D4C562C33
:1013300020323D584C4C2C20333D48524C5629000D
:10134000536F6E61720A000A4F703A5B6F6E2C2009
:101350006F66662C20302D335D0A006F6666006F65
:101360006E000A20547970652027726164696F27C6
:10137000206E6F772E0A0A000A215761726E696E1D
:10138000672C20726164696F206E6F7420636F6ECA
:101390006669677572656421005365747570204DC8
:1013A0006F64650A0A0A00436F6D6D616E64733A7B
:1013B0000A20206C6F67730A202073657475700AA9
:1013C0002020746573740A20207265626F6F740A3E
:1013D0000A00416C743A2025302E32666D2C205262
:1013E00061773A2025662054656D70657261747569
:1013F00072653A20252E31660A006E6F742068658A
:10140000616C746879000A436F6D70205665633AA9
:101410002025342E32662C2025342E32662C2025B1
:10142000342E32660A0043757272656E7400546819
:10143000726F74746C65004F66660A004D6F746F4E
:101440007220436F6D703A20004D6167206F6666B1
:101450003A2025342E34662C2025342E34662C2058
:1014600025342E34660A004D6167204465633A20B6
:1014700025342E34660A00436F6D706173730A0061
:10148000736176696E67206F666673657473006357
:101490006F6D70617373206E6F74206865616C741A
:1014A00068790048656164696E673A20256C642C30
:1014B0002058595A3A20252E30662C20252E306689
:1014C0002C20252E30662C0958595A6F66663A2012
:1014D00025362E32662C2025362E32662C202536D7
:1014E0002E32660A00436F6D7061737320696E69F6
:1014F0007469616C69736174696F6E206661696C8F
:1015000065642100436F6D706173733A20002E0093
:101510002C20416C743A20256C646D2C202373615F
:1015200074733A2025640A002C204C6F6E20004C06
:1015300061743A2000612025372E34662025372E2D
:1015400034662025372E346620672025372E3466F2
:101550002025372E34662025372E3466207420252A
:10156000372E3466200A002E2E2E646F6E650A0018
:10157000494E530A0054657374696E672064617440
:1015800061666C617368206C6F6767696E670043A2
:101590006F6E6E6563742062617474657279206623
:1015A0006F72207468697320746573742E0A4D6FAE
:1015B000746F72732077696C6C207370696E20622F
:1015C00079206672616D6520706F736974696F6EE2
:1015D000206F726465722E0A46726F6E7420282620
:1015E000207269676874206F662063656E74657227
:1015F0006C696E6529206D6F746F722066697273F5
:10160000742C207468656E20696E20636C6F636B48
:1016100077697365206F726465722061726F756E91
:1016200064206672616D652E0A52656D656D626536
:101630007220746F20646973636F6E6E65637420CB
:101640006261747465727920616674657220746871
:10165000697320746573742E0A416E79206B657905
:1016600020746F20657869742E0A000A54657374BB
:1016700020636F6D706C6574650A000A4D6F746F3E
:1016800072732073746F70706564000A5370696EB2
:10169000206D6F746F72732061743A2564000A5470
:1016A00068723A2564007468726F74746C65206E99
:1016B0006F74207A65726F0A0054686973207365CD
:1016C0006E64732073756464656E206F75747075D5
:1016D000747320746F20746865206D6F746F7273FB
:1016E000206261736564206F6E2074686520706984
:1016F0006C6F742773207468726F74746C652074D7
:101700006F207465737420666F7220455343206C9C
:101710006F7373206F662073796E632E204D6F7424
:101720006F72732077696C6C207370696E20736FB1
:10173000206D6F756E742070726F70732075702DD0
:10174000736964652D646F776E210A202020486FCD
:101750006C64207468726F74746C65206C6F772C85
:10176000207468656E207261697365207468726F99
:1017700074746C6520737469636B20746F20646586
:101780007369726564206C6576656C20616E642097
:10179000707265737320412E20204D6F746F7273C9
:1017A0002077696C6C207370696E20666F722032CE
:1017B0002073656320616E64207468656E207265B5
:1017C0007475726E20746F206C6F772E0A5072657C
:1017D000737320616E79206B657920746F20657852
:1017E00069742E0A00726164696F206E6F742063E1
:1017F000616C696272617465640A004F7074466C52
:101800006F773A200064783A2564092064793A2594
:10181000640920737175616C3A25640A006D616E0C
:101820002069643A2025640900494E3A20313A2063
:10183000256409323A20256409333A2025640934A5
:101840003A20256409353A20256409363A20256472
:1018500009373A20256409383A2025640A00494EA0
:101860002020313A20256409323A20256409333A90
:1018700020256409343A20256409353A2025640975
:10188000363A20256409373A2025640A0052656CEF
:101890006179206F66660A0052656C6179206F6E0F
:1018A0000A0048697420456E74657220746F206563
:1018B0007869742E0A0A00536F6E61723A202564AB
:1018C00020636D0A00536F6E6172206469736162F8
:1018D0006C65640A0061626C65640A006469730087
:1018E000656E004F7074466C6F770A0043726173C7
:1018F000683A2044697361726D696E6700666C694D
:1019000067687420706C616E2072656365697665C6
:101910006400666C6967687420706C616E20757015
:10192000646174652072656A656374656400556EF0
:101930006B6E6F776E20706172616D657465722079
:10194000252E31367300556E6B6E6F776E20706189
:1019500072616D6574657220696E646578202564B6
:101960000041726475436F707465722056332E3176
:101970002E3500636F6D6D616E64207265636569FD
:101980007665643A20004368617220446F6E650A90
:1019900000526561647920666F7220466F6E740A2A
:1019A000004661696C656420746F20496E6974201B
:1019B0004F7074466C6F770A00434F4D504153533C
:1019C00020494E4954204552524F5200455343201E
:1019D00043616C6962726174696F6E2061637469DE
:1019E00076653A2070617373696E67207468726FF0
:1019F00074746C65207468726F75676820746F20EA
:101A0000455343732E0A00456E746572696E6720F4
:101A10004553432043616C6962726174696F6E3A29
:101A200020706C65617365207265737461727420D7
:101A300041504D2E0A004C6F67206572617365201E
:101A4000636F6D706C6574650A0045726173696ED1
:101A500067206C6F67730A006C6F61645F616C6C08
:101A600020746F6F6B20256C7575730A00646F6E40
:101A7000652E004669726D77617265206368616EDC
:101A800067653A2065726173696E672045455052FB
:101A90004F4D2E2E2E0A004657205665723A2025AD
:101AA000640A00496E697469616C6973696E6720C4
:101AB00041504D2E2E2E000A526561647920746FBC
:101AC00020464C5920000A507265737320454E54CD
:101AD000455220332074696D657320746F207374D0
:101AE00061727420696E74657261637469766520D1
:101AF00073657475700A0045524153494E47204C36
:101B00004F4753004E6F2064617461666C61736867
:101B100020696E736572746564000A0A496E69749F
:101B20002041726475436F707465722056332E3194
:101B30002E350A0A467265652052414D3A202575B8
:101B40000A004C6F73742047505321004C6F77206C
:101B50004261747465727921005472696D207361F9
:101B6000766564006261726F6D6574657220636191
:101B70006C6962726174696F6E20636F6D706C6501
:101B800074650043616C6962726174696E6720629A
:101B900061726F6D6574657200415F6F66663A20B1
:101BA00025342E32662C2025342E32662C20253406
:101BB0002E32660A415F7363616C653A2025342ECC
:101BC00032662C2025342E32662C2025342E3266A7
:101BD0000A00475F6F66663A2025342E32662C2055
:101BE00025342E32662C2025342E32660A002D0034
:101BF000494E530A0047524F554E442053544152C8
:101C0000540041726475436F707465722056332EB0
:101C1000312E350041726D3A20536166657479202A
:101C20005377697463680041726D3A204C65616E48
:101C3000696E670041726D3A205468722062656C6B
:101C40006F772046530041726D3A20416C742064D6
:101C50006973706172697479005265616368656463
:101C600020436F6D6D616E6420232569005072659D
:101C700041726D3A204869676820475053204844B4
:101C80004F500050726541726D3A204261642047A6
:101C9000505320506F730050726541726D3A20416D
:101CA00043524F5F42414C5F524F4C4C2F5049546E
:101CB00043480050726541726D3A20436865636B1A
:101CC00020414E474C455F4D41580050726541726E
:101CD0006D3A20436865636B2046535F5448525FFA
:101CE00056414C55450050726541726D3A2043682B
:101CF0003726436838204F70742063616E6E6F74AE
:101D00002062652073616D650050726541726D3AA5
:101D100020436865636B20426F61726420566F6C6C
:101D2000746167650050726541726D3A20494E5387
:101D3000206E6F74206865616C74687900507265FC
:101D400041726D3A20494E53206E6F742063616C6E
:101D5000696272617465640050726541726D3A2007
:101D6000436865636B206D6167206669656C64001C
:101D700050726541726D3A20436F6D7061737320CC
:101D80006F66667365747320746F6F206869676827
:101D90000050726541726D3A20436F6D70617373CC
:101DA000206E6F742063616C696272617465640097
:101DB00050726541726D3A20436F6D70617373208C
:101DC0006E6F74206865616C74687900507265414B
:101DD000726D3A20416C7420646973706172697429
:101DE000790050726541726D3A204261726F206EC7
:101DF0006F74206865616C74687900507265417217
:101E00006D3A205243206E6F742063616C69627278
:101E10006174656400504552463A2025752F25753A
:101E200020256C750A0074657374006261726F001E
:101E3000000000000000000000CD97636F6D70612E
:101E4000737300000000000000B55C677073000051
:101E5000000000000000000000F13E696E73000009
:101E6000000000000000000000C5C26C6F676769D9
:101E70006E67000000000000005C326D6F746F72CE
:101E8000730000000000000000238E6D6F746F72FD
:101E900073796E6300000000007E8E6F7074666C54
:101EA0006F770000000000000040C270776D0000F6
:101EB000000000000000000000F681726164696F9C
:101EC0000000000000000000008E8172656C6179E6
:101ED0000000000000000000001236736F6E617297
:101EE0000000000000000000008943417264754357
:101EF0006F707465722056332E312E35006C6F670B
:101F00007300000000000000000000933E73657441
:101F10007570000000000000000000993E746573B9
:101F200074000000000000000000008D3E72656239
:101F30006F6F740000000000000000BC3168656C29
:101F40007000000000000000000000A531736574FF
:101F5000757000616363656C0000000000000000A4
:101F6000008454636F6D70617373000000000000A3
:101F700000575C636F6D706173736D6F7400000068
:101F8000008C9C6572617365000000000000000019
:101F9000003B316D6F6465730000000000000000BD
:101FA000008F836F7074666C6F7700000000000014
:101FB0000078BF726164696F0000000000000000DB
:101FC00000648272616E676500000000000000001E
:101FD00000604C7265736574000000000000000032
:101FE000004E407365740000000000000000000017
:101FF00000065573686F77000000000000000000C5
:10200000004D90736F6E61720000000000000000D0
:1020100000DB4B8D000100424154545F4D4F4E494F
:10202000544F520000000000A800010042415454E7
:102030005F564F4C545F50494E00000000A900010C
:1020400000424154545F435552525F50494E000084
:1020500000008E000400424154545F564F4C545FC0
:102060004D554C540000008F000400424154545F11
:10207000414D505F504552564F4C54009100030063
:10208000424154545F434150414349545900000078
:10209000008059464D54000042426E4E5A000000E6
:1020A0000000000000000000547970652C4C656E43
:1020B0006774682C4E616D652C466F726D6174009B
:1020C0000000000000000000000000000000000010
:1020D0000000000000000000000000000000000000
:1020E000000000000000000081175041524D004EDA
:1020F0006600000000000000000000000000004E2C
:10210000616D652C56616C75650000000000000073
:1021100000000000000000000000000000000000BF
:1021200000000000000000000000000000000000AF
:10213000000000000000000000000000000000821D
:102140002D475053000042494842634C4C65654559
:102150006566490000005374617475732C54696D91
:10216000654D532C5765656B2C4E536174732C4829
:10217000446F702C4C61742C4C6E672C52656C4112
:102180006C742C416C742C5370642C474372732C08
:10219000565A2C540000831F494D5500004966666D
:1021A0006666666600000000000000000054696D6D
:1021B000654D532C477972582C477972592C4779C1
:1021C000725A2C416363582C416363592C416363F9
:1021D0005A000000000000000000000000000000A5
:1021E00000000000000000000000000000871F4900
:1021F0004D5532004966666666666600000000005E
:102200000000000054696D654D532C477972582CBD
:10221000477972592C4779725A2C416363582C4183
:102220006363592C4163635A000000000000000002
:10223000000000000000000000000000000000009E
:102240000000000084434D534700005A0000000086
:1022500000000000000000000000004D6573736185
:1022600067650000000000000000000000000000A2
:10227000000000000000000000000000000000005E
:10228000000000000000000000000000000000004E
:1022900000000000000000000000008517524349C4
:1022A0004E00496868686868686868000000000057
:1022B000000054696D654D532C4368616E312C43A9
:1022C00068616E322C4368616E332C4368616E34F2
:1022D0002C4368616E352C4368616E362C4368610F
:1022E0006E372C4368616E3800000000000000006B
:1022F0000000861752434F5500496868686868684F
:1023000068680000000000000054696D654D532CA2
:102310004368616E312C4368616E322C4368616E94
:10232000332C4368616E342C4368616E352C4368EE
:10233000616E362C4368616E372C4368616E3800DD
:1023400000000000000000000088114241524F00D0
:102350004966666300000000000000000000000005
:1023600054696D654D532C416C742C5072657373B8
:102370002C54656D7000000000000000000000009B
:10238000000000000000000000000000000000004D
:10239000000000000000000000000000000000003D
:1023A0000917435552520049684968686866000039
:1023B0000000000000000054696D654D532C546806
:1023C000724F75742C546872496E742C566F6C740D
:1023D0002C437572722C5663632C43757272546F62
:1023E0007400000000000000000000000000000079
:1023F000000000000000000C144F46000000686858
:10240000426363656500000000000000000044783E
:102410002C44792C535175616C2C582C592C526FCB
:102420006C6C2C50697463680000000000000000B0
:10243000000000000000000000000000000000009C
:102440000000000000000000000000000000052F58
:102450004E54554E004966666666666666666666F2
:10246000000000000054696D654D532C44506F739B
:10247000582C44506F73592C506F73582C506F73F5
:10248000592C4456656C582C4456656C592C56652D
:102490006C582C56656C592C44416363582C44414C
:1024A000636359000004214354554E00496868682D
:1024B00066666563636868000000000054696D65C6
:1024C0004D532C546872496E2C416E674273742CC4
:1024D0005468724F75742C44416C742C416C742C8C
:1024E000426172416C742C4453416C742C53416CA6
:1024F000742C444352742C43527400000F194D4104
:102500004700004968686868686868686800000093
:1025100000000054696D654D532C4D6167582C4D7A
:102520006167592C4D61675A2C4F6673582C4F6662
:1025300073592C4F66735A2C4D4F6673582C4D4F60
:102540006673592C4D4F66735A000000000000005E
:102550000000001B194D41473200496868686868EF
:102560006868686800000000000054696D654D539C
:102570002C4D6167582C4D6167592C4D61675A2C61
:102580004F6673582C4F6673592C4F66735A2C4DF7
:102590004F6673582C4D4F6673592C4D4F66735AC6
:1025A000000000000000000000000613504D000075
:1025B000004242484849684248420000000000008A
:1025C0000052656E436E742C52656E426C772C4ED1
:1025D0004C6F6E2C4E4C6F6F702C4D6178542C509C
:1025E0004D542C4932434572722C494E53457272F8
:1025F0002C494E4156457272000000000000000058
:10260000000814434D4400004242424242654C4C93
:10261000000000000000000043546F742C434E750E
:102620006D2C4349642C434F70742C50726D312CC7
:10263000416C742C4C61742C4C6E670000000000DF
:10264000000000000000000000000000000000008A
:102650000000000000000000011341545400004934
:102660006363636343430000000000000000005404
:10267000696D654D532C446573526F6C6C2C526FB1
:102680006C6C2C44657350697463682C5069746376
:10269000682C4465735961772C59617700000000FC
:1026A0000000000000000000000000000000000327
:1026B000064D4F4445004D6800000000000000003A
:1026C0000000000000004D6F64652C546872437276
:1026D0007300000000000000000000000000000087
:1026E00000000000000000000000000000000000EA
:1026F00000000000000000000000000000000000DA
:102700000000000000000A0353545254000000006F
:1027100000000000000000000000000000000000B9
:1027200000000000000000000000000000000000A9
:102730000000000000000000000000000000000099
:102740000000000000000000000000000000000089
:10275000000000000000000000000000000D044523
:1027600056000000420000000000000000000000D1
:1027700000000000496400000000000000000000AC
:102780000000000000000000000000000000000049
:102790000000000000000000000000000000000039
:1027A0000000000000000000000000000000000029
:1027B00000000000140644313600004268000000AA
:1027C000000000000000000000000049642C566179
:1027D0006C756500000000000000000000000000B3
:1027E00000000000000000000000000000000000E9
:1027F00000000000000000000000000000000000D9
:1028000000000000000000000000001506445531E3
:1028100036004248000000000000000000000000F8
:10282000000049642C56616C7565000000000000D2
:102830000000000000000000000000000000000098
:102840000000000000000000000000000000000088
:102850000000000000000000000000000000000078
:1028600000001608443332000042690000000000F6
:1028700000000000000000000049642C56616C75E7
:1028800065000000000000000000000000000000E3
:102890000000000000000000000000000000000038
:1028A0000000000000000000000000000000000028
:1028B00000000000000000000017084455333200FB
:1028C000424900000000000000000000000000007D
:1028D00049642C56616C7565000000000000000022
:1028E00000000000000000000000000000000000E8
:1028F00000000000000000000000000000000000D8
:1029000000000000000000000000000000000000C7
:10291000180844464C5400426600000000000000C5
:102920000000000000000049642C56616C756500D1
:102930000000000000000000000000000000000097
:102940000000000000000000000000000000000087
:102950000000000000000000000000000000000077
:1029600000000000000000121B43414D00004948D8
:102970004C4C6563634300000000000000004750BA
:102980005354696D652C4750535765656B2C4C61EA
:10299000742C4C6E672C416C742C526F6C6C2C50E8
:1029A000697463682C596177000000000000000022
:1029B00000000000000000000000000000001305FF
:1029C000455252000042420000000000000000009A
:1029D00000000000005375627379732C45436F64E7
:1029E0006500000000000000000000000000000082
:1029F00000000000000000000000000000000000D7
:102A000000000000000000000000000000000000C6
:102A100000000000004C6F670064756D70000000DE
:102A2000000000000000009A2F65726173650000CD
:102A3000000000000000006398656E61626C650034
:102A400000000000000000F64C64697361626C6570
:102A500000000000000000F64CA9710200C2011E37
:102A6000A0020084039F4401009001BA9B0A00D099
:102A7000022C9A0A00320057A70A000A006F330A94
:102A8000008C0024560A00E80335930A0020033521
:102A90008521005A0066330200A401482E0200FA84
:102AA000009640020064006133020064001FA664C7
:102AB00000A401869A0A00140082B6020026029140
:102AC000A3640096008DA30200D00271A40200B698
:102AD00003532E0200C2014A330A002C016944024A
:102AE00000DC002378E803C800EC430A003200F35E
:102AF000400A0032000253595349445F53575F4D17
:102B00005245560000000000C513000000000153AC
:102B1000595349445F53575F5459504500000000D2
:102B200001C713000020410253595349445F5448E0
:102B300049534D41560000000070C8130000803F0B
:102B40000253595349445F4D594743530000000015
:102B5000000071CA1300007F430153455249414CA4
:102B6000315F42415544000000000072CC13000068
:102B700064420154454C454D5F44454C4159000069
:102B80000000000073CD13000000000252544C5F9F
:102B9000414C5400000000000000000000A0CE13D3
:102BA0000080BB4401534F4E41525F454E41424C61
:102BB00045000000000094D0130000000001534FB6
:102BC0004E41525F54595045000000000000009AE9
:102BD000D1130000000004534F4E41525F4741495A
:102BE0004E000000000000001ED213CDCC4C3F016F
:102BF00046535F424154545F454E41424C450000AC
:102C000000C1D613000000000446535F42415454F3
:102C10005F564F4C54414745000097D7130000289A
:102C2000410446535F424154545F4D414800000007
:102C300000000025DB13000000000146535F4750F1
:102C4000535F454E41424C4500000000C3DF130076
:102C500000803F0146535F4743535F454E41424C1E
:102C60004500000000C6E01300000000024750537A
:102C70005F48444F505F474F4F440000000023E13E
:102C80001300004843014D41475F454E41424C45CA
:102C90000000000000000092E3130000803F0146A6
:102CA0004C4F575F454E41424C450000000000002C
:102CB00096E413000000000153555045525F5349FC
:102CC0004D504C4500000000009BE5130000000043
:102CD0000252544C5F414C545F46494E414C0000F7
:102CE0000000A3E6130000000001525353495F5057
:102CF000494E00000000000000000018E81300002A
:102D000080BF04525353495F52414E474500000073
:102D10000000000027E9130000A0400157505F5950
:102D200041575F4245484156494F5200001AED1342
:102D3000000040400157505F544F54414C00000088
:102D4000000000000000D3F5130000000001575000
:102D50005F494E444558000000000000000000D4C8
:102D6000F6130000000002434952434C455F5241B4
:102D70004449555300000000D7F7130000204104D8
:102D8000434952434C455F52415445000000000006
:102D9000001DF9130000A0410352544C5F4C4F49F1
:102DA000545F54494D4500000000A2FD1300409CB3
:102DB00045024C414E445F535045454400000000DD
:102DC000000000D90114000048420250494C4F5401
:102DD0005F56454C5A5F4D41580000001C031400DB
:102DE000007A43025448525F4D494E0000000000F3
:102DF0000000000000B40514000000000254485216
:102E00005F4D415800000000000000000000B507C1
:102E10001400007A440146535F5448525F454E41C6
:102E2000424C4500000000B60914000000000246B4
:102E3000535F5448525F56414C5545000000000016
:102E4000B80A1400C07344025452494D5F544852AA
:102E50004F54544C4500000000B90C140000E143ED
:102E6000025448525F4D4944000000000000000039
:102E70000000C20E140000FA4301464C544D4F446A
:102E80004531000000000000000000C810140000E0
:102E9000000001464C544D4F4445320000000000F4
:102EA00000000000C911140000000001464C544D00
:102EB0004F444533000000000000000000CA121417
:102EC0000000000001464C544D4F444534000000C2
:102ED000000000000000CB13140000000001464C6D
:102EE000544D4F444535000000000000000000CC68
:102EF00014140000000001464C544D4F4445360068
:102F00000000000000000000CD15140000000001CA
:102F100053494D504C4500000000000000000000E7
:102F200000CE161400000000024C4F475F42495487
:102F30004D41534B00000000000014171400805F47
:102F40004401455343000000000000000000000061
:102F5000000000BA1914000000000154554E45004D
:102F6000000000000000000000000000BB1A140078
:102F70000000000254554E455F4C4F5700000000C2
:102F80000000000000BD1D14000000000254554E5A
:102F9000455F484947480000000000000000BC1B96
:102FA0001400007A44014652414D450000000000E3
:102FB00000000000000000951F140000803F014346
:102FC00048375F4F50540000000000000000000030
:102FD00098201400000000014348385F4F5054000F
:102FE0000000000000000000001F2114000000008D
:102FF0000141524D494E475F434845434B00000055
:1030000000002022140000803F02414E474C455FE3
:103010004D4158000000000000000022EE1300A007
:103020008C4503414E474C455F524154455F4D41ED
:103030005800000026F01300A08C460152435F4662
:1030400045454C5F52500000000000000028F4137A
:103050000000C842084853315F0000000000000033
:1030600000000000000050231401490000084853EC
:10307000325F00000000000000000000000000516E
:10308000401401490000084853335F00000000006D
:103090000000000000000000525D1401490000081B
:1030A0004853345F000000000000000000000000F2
:1030B00000537A140149000004524154455F5049BD
:1030C000545F4646000000000000549714000000C2
:1030D0000004524154455F524C4C5F46460000008C
:1030E000000000559B140000000004524154455F4D
:1030F0005941575F4646000000000000569F1400EB
:1031000000000002485F535441425F434F4C5F4D03
:10311000494E00000057A3140000000002485F530E
:103120005441425F434F4C5F4D415800000058A549
:103130001400007A44085243315F00000000000090
:1031400000000000000000AAA71401490000085276
:1031500043325F000000000000000000000000009B
:10316000ABC41401490000085243335F0000000063
:10317000000000000000000000ACE1140149000064
:10318000085243345F00000000000000000000000F
:103190000000ADFE1401490000085243355F0000F5
:1031A0000000000000000000000000AE1B15974961
:1031B0000000085243365F000000000000000000DD
:1031C00000000000AF391597490000085243375FEF
:1031D00000000000000000000000000000B05715D3
:1031E00097490000085243385F00000000000000CB
:1031F000000000000000B175159749000008524317
:1032000031305F000000000000000000000000B24C
:1032100093159749000008524331315F00000000C8
:103220000000000000000000B3B115974900000243
:1032300052435F5350454544000000000000000029
:1032400000C0CF150000FA42044143524F5F525074
:103250005F500000000000000000DDD1150000906C
:1032600040044143524F5F5941575F5000000000F6
:10327000000000F4D51500009040044143524F5F18
:1032800042414C5F524F4C4C00000000F2D91500F7
:1032900000803F044143524F5F42414C5F504954CC
:1032A0004348000000F3DD150000803F0141435218
:1032B0004F5F545241494E455200000000001BE14F
:1032C000150000004008524154455F524C4C5F00CD
:1032D00000000000000000DFE215844800000852F2
:1032E0004154455F5049545F000000000000000059
:1032F000E0FC158448000008524154455F5941578D
:103300005F0000000000000000E116168448000085
:10331000084C4F495445525F4C41545F0000000037
:103320000000E7301684480000084C4F49544552CD
:103330005F4C4F4E5F000000000000E84A168448D2
:103340000000085448525F524154455F000000009D
:1033500000000000EC641684480000085448525FE6
:10336000414343454C5F00000000000000F17E1621
:1033700084480000084F465F524C4C5F000000003C
:10338000000000000000ED981684480000084F4639
:103390005F5049545F00000000000000000000EE94
:1033A000B21684480000085354425F524C4C5F00F0
:1033B0000000000000000000E2E8162048000008BD
:1033C0005354425F5049545F000000000000000069
:1033D00000E3F61620480000085354425F59415755
:1033E0005F000000000000000000E4041720480017
:1033F00000085448525F414C545F00000000000038
:10340000000000EB12172048000008484C445F4CB5
:1034100041545F000000000000000000E5CC1620D1
:1034200048000008484C445F4C4F4E5F00000000CD
:103430000000000000E6DA16204800000852454C63
:1034400041595F00000000000000000000000DFD79
:1034500008B04C000008434F4D504153535F0000EB
:103460000000000000000093BF10954200000849D2
:103470004E535F000000000000000000000000004C
:10348000032C124E45000008494E41565F000000D3
:1034900000000000000000000064EF092D4D000056
:1034A0000857504E41565F00000000000000000029
:1034B0000000650E09784D0000085352305F00008F
:1034C00000000000000000000000006E4D0DFE3501
:1034D0000000085352315F000000000000000000AF
:1034E000000000006FEB0DFE35000008414852530C
:1034F0005F0000000000000000000000009FD20EEE
:103500000D47000008424154545F000000000000D5
:10351000000000000000246C0B9D57000008425280
:10352000445F000000000000000000000000000FE9
:10353000330D6558000008474E445F00000000004E
:1035400000000000000000000BA711284000000848
:1035500053434845445F00000000000000000000A5
:10356000000CB013EE5600000846454E43455F0080
:103570000000000000000000000045BC08F75500F6
:103580000008475053474C495443485F000000002F
:103590000000004656137B3B000008485F00000017
:1035A0000000000000000000000000005A500CE283
:1035B0004900000852434D41505F000000000000E8
:1035C0000000000000C7340D20570000084F53448E
:1035D0005F00000000000000000000000000F5A8EF
:1035E00012EB590000000000000000000000000085
:1035F00000000000000000000000000000000200C9
:103600005241575F53454E53000000000000000038
:103610000067000000000002014558545F53544108
:1036200054000000000000000000690000000000DD
:10363000020252435F4348414E0000000000000078
:103640000000006B000000000002035241575F437E
:1036500054524C0000000000000000006D0000000B
:1036600000000204504F534954494F4E00000000DF
:1036700000000000006F00000000000205455854E3
:103680005241310000000000000000000000710005
:10369000000000000206455854524132000000006C
:1036A0000000000000000073000000000002074559
:1036B0005854524133000000000000000000000098
:1036C0007500000000000208504152414D530000B7
:1036D0000000000000000000007700000000000073
:1036E000FF000000000000000000000000000000DB
:1036F0000000000000000000202025530A00436F56
:103700006D6D616E64733A00496E76616C69642018
:10371000636F6D6D616E642C20747970652027680D
:10372000656C702700657869740068656C700025A9
:10373000535D200042616420636F6E766572736929
:103740006F6E207479706520272553270A00556E07
:103750006B6E6F776E20636F6E76657273696F6ED6
:1037600020272553270A0025733A2025660A0025BD
:10377000733A20256C640A0025733A2025640A00F8
:1037800025733A2025640A00454550524F4D206666
:10379000756C6C002C76D888674F0823C1DFAE5952
:1037A000B1B796E5E453C63A51997696E6C28426B7
:1037B000898C9B62407C6FFCBC9C9F40BAA56FA526
:1037C00090055A2A5C936B6C676DC11BE0E40D4752
:1037D000F520E6B5D0ED902E009435770080841E5C
:1037E0000000204E000000C833333333986E12833C
:1037F00041EF8D21893BE655CFFEE6DBD1844B3886
:10380000F77C1D90A4BBE4243284725E8100C9F170
:10381000ECA1E53DDCDFE1E3E6E8EBEDEFF2F4F708
:10382000F9FCFE000305080A0C0F111416181B1DE5
:10383000202224276E616E00696E66004572726FE9
:10384000723A2041505F48414C5F4156523A3A41EA
:103850005652416E616C6F67496E206F7574206FB0
:1038600066206368616E6E656C730D0A00474F4990
:103870004E4720444F574E20464F5220412052453C
:10388000424F4F540D0A0050414E49433A20736352
:10389000686564756C65723A3A73797374656D5FC7
:1038A000696E697469616C697A65642063616C6CC6
:1038B00065646D6F7265207468616E206F6E6365FC
:1038C0000050414E49433A2041565253656D617054
:1038D000686F72653A3A74616B6520757365642030
:1038E00066726F6D20696E736964652074696D65B9
:1038F000722070726F636573730050414E49433A92
:10390000205350493020777269746520636F6C6C66
:103910006973696F6E0050414E49433A20535049D4
:1039200030207472616E7366657220636F6C6C69AF
:1039300073696F6E000102102020080810204010EB
:103940002040800201020108040201010204081063
:103950002040808040201008040201800402018081
:1039600040201008040201080402010102040810AA
:103970002040800102040810204080400505050514
:10398000070508080808020202020A0A08080404D7
:103990000404010101010101010103030303030305
:1039A0000303040707070C0C0C0C0C0C0C0C020294
:1039B000020206060606060606060B0B0B0B0B0B91
:1039C0000B0B05000020002300260029002C002FEF
:1039D000003200000100000301060109010000227D
:1039E00000250028002B002E0031003400020100C9
:1039F00000050108010B0100002100240027002A16
:103A0000002D003000330001010000040107010A0D
:103A100001327C8900EDD968770000005900000070
:103A20000000000000D69FDCA81817AA9043732757
:103A3000F6B968EDF4DED409FEE61C1C84DDE80B63
:103A4000992927D6DF8D210F036418EFEE1EF0B7FA
:103A5000828200941500F37C0000001400988F000F
:103A6000007F6A00000000000000E7B73F3600005A
:103A70000000000000AF669ED0385DD36C20B9EB2B
:103A80005D7C7C77044C80387486EDCB00000000B0
:103A90000000000000000000000000000000000026
:103AA00000000000B1F10F86DBD0BC541613158660
:103AB000004E44BD7F9A15159001EA49B51653A7EB
:103AC0008AEA000000000000000000000000000082
:103AD00000000000000000000000000000000000E6
:103AE00000000000000000000000000000000000D6
:103AF00000000000000000000000000000000000C6
:103B000000000000000000000000CC31AA2C532E61
:103B100000204E4D454120002053495246200020B0
:103B20004D544B2000204D544B31392000207562FC
:103B30006C6F7820004F4B000096000000E1000001
:103B400080250000C012000024505352463130300E
:103B50002C302C33383430302C382C312C302A3364
:103B60004300245047434D442C31362C302C302C0C
:103B7000302C302C302A36410D0A000100454E41D0
:103B8000424C45000000000000000000000003005F
:103B90000000803F04015241444955530000000099
:103BA000000000000000000400000048430402413F
:103BB0004343454C000000000000000000000000EE
:103BC000080000007A4400FF000000000000000030
:103BD000000000000000000000000000000000479E
:103BE00050565447004750474741004750524D43B5
:103BF0000024505542582C34302C6767612C302CEF
:103C0000312C302C302C302C302A37420D0A2450E5
:103C10005542582C34302C7674672C302C312C3093
:103C20002C302C302C302A37460D0A24505542585F
:103C30002C34302C726D632C302C302C302C302CEA
:103C4000302C302A36370D0A0024504D544B333176
:103C5000342C302C302C312C312C302C302C302C7E
:103C6000302C302C302C302C302C302C302C302C74
:103C7000302C302A32380D0A24504D544B33333017
:103C80002C302A32450D0A24504D544B3331332CFD
:103C9000312A32450D0A24504D544B3330312C32E9
:103CA0002A32450D0A0024505352463130332C300D
:103CB0002C302C312C312A32350D0A2450535246E7
:103CC0003130332C312C302C302C312A32350D0A46
:103CD00024505352463130332C322C302C302C317E
:103CE0002A32360D0A24505352463130332C332CAD
:103CF000302C302C312A32370D0A245053524631A1
:103D000030332C342C302C312C312A32300D0A2413
:103D1000505352463130332C352C302C312C312A33
:103D200032300D0A24505352463130332C362C3069
:103D30002C302C312A32320D0A2450535246313065
:103D4000332C382C302C302C312A32430D0A24509D
:103D50005352463135312C312A33460D0A24505303
:103D600052463130362C32312A30460D0A00A0A29C
:103D70000008A60200000000000000A8B0B3A0A246
:103D80000008A60029010000000000D0B0B3B56211
:103D900006010300010601124F24505542582C34ED
:103DA000312C312C303030332C303030312C333812
:103DB0003430302C302A32360D0A0050414E4943FF
:103DC0003A2044617461466C6173682053504944E1
:103DD00065766963654472697665722073656D61A5
:103DE00070686F7265206973206E756C6C0050414D
:103DF0004E49433A2044617461466C6173682053B4
:103E00005049446576696365447269766572206ECF
:103E10006F7420666F756E64004C6F672025752C7B
:103E20002020202073746172742025752C2020209E
:103E3000656E642025750A000A2575206C6F67730E
:103E40000A000A4E6F206C6F67730A0A004E756D88
:103E500050616765733A202575202050616765536E
:103E6000697A653A2025750A004D616E7566616351
:103E700074757265723A20307825303278202020AF
:103E80004465766963653A203078253034780A00D5
:103E90004E6F2064617461666C61736820696E7333
:103EA00065727465640025750A0025752C09004447
:103EB0004620706167652C206C6F672066696C65B1
:103EC00020232C206C6F6720706167653A20257570
:103ED0002C0900464D542C2025752C2025752C20AE
:103EE00025532C2025532C2025530A002C20002557
:103EF0007300257300257300252E326600252E32AF
:103F00006600252E326600252E32660025660025C5
:103F10006C7500256C64002575002564002575000E
:103F200025640025532C2000554E4B4E2C20257522
:103F30000A0050414E49433A2041505F4261726F3E
:103F40003A3A7265616420756E7375636365737365
:103F500066756C20666F72206D6F72652074686183
:103F60006E203530306D7320696E2041505F4261A4
:103F7000726F3A3A63616C696272617465205B3397
:103F80005D0D0A0050414E49433A2041505F426165
:103F9000726F3A3A7265616420756E73756363651A
:103FA000737366756C20666F72206D6F7265207416
:103FB00068616E203530306D7320696E2041505F2E
:103FC0004261726F3A3A63616C6962726174652032
:103FD0005B325D0D0A0050414E49433A2041505F2B
:103FE0004261726F3A3A7265616420756E737563EF
:103FF0006365737366756C20666F72206D6F726592
:10400000207468616E203530306D7320696E2041F8
:10401000505F4261726F3A3A63616C6962726174B7
:1040200065205B315D0D0A0004024142535F50522E
:1040300045535300000000000000000C0000000089
:1040400000040354454D5000000000000000000033
:10405000000000000800000000000104414C545F13
:104060004F46465345540000000000000010000079
:1040700000000000FF000000000000000000000041
:1040800000000000000000000000000050414E4908
:10409000433A2041505F4261726F5F4D5335363174
:1040A0003120746F6F6B206D6F7265207468616E64
:1040B00020313030306D7320746F20696E697469FF
:1040C000616C697A650050414E49433A2041505F26
:1040D0004261726F5F4D53353631313A2066616906
:1040E0006C656420746F2074616B65207365726900
:1040F000616C2073656D6170686F726520666F72A8
:1041000020696E69740050414E49433A2041505F26
:104110004261726F5F4D53353631313A204E554C06
:104120004C2073657269616C2064726976657200F7
:1041300050414E49433A206661696C656420746F52
:104140002074616B65205F6932635F73656D203138
:1041500030302074696D657320696E206120726F44
:10416000772C20696E2041505F4261726F5F4D5322
:10417000353631313A3A5F7570646174650050418B
:104180004E49433A2041505F4261726F5F4D533553
:1041900036313120646964206E6F74206765742045
:1041A00076616C6964204932432073656D61706883
:1041B000726F65210050414E49433A206661696C37
:1041C000656420746F2074616B65205F7370695F34
:1041D00073656D203130302074696D657320696EB0
:1041E000206120726F772C20696E2041505F426100
:1041F000726F5F4D53353631313A3A5F7570646195
:1042000074650050414E49433A2041505F4261720B
:104210006F5F4D533536313120646964206E6F74A1
:10422000206765742076616C69642053504920735F
:10423000656D617068726F65210050414E49433A67
:104240002041505F4261726F5F4D533536313120EE
:10425000646964206E6F74206765742076616C6990
:1042600064205350492064657669636520647269EF
:1042700076657221004661696C656420746F206701
:10428000657420484D43353834332073656D617053
:10429000686F72650005014F465300000000000082
:1042A00000000000000000001700000000000402F1
:1042B0004445430000000000000000000000000032
:1042C0000023000000000001034C4541524E000055
:1042D0000000000000000000000008000000803F17
:1042E00001045553450000000000000000000000DC
:1042F00000000027000000803F01054155544F4455
:1043000045430000000000000000000028000000FD
:10431000803F01064D4F5443540000000000000050
:104320000000000000A4000000000005074D4F54ED
:104330000000000000000000000000000000A500D8
:104340000000000001084F5249454E540000000093
:1043500000000000000000160000000000010945F8
:10436000585445524E414C0000000000000000002F
:1043700029000000000000FF000000000000000015
:104380000000000000000000000000000000002508
:104390006C642E2530376C64002D0009736C6F70CF
:1043A000653A0009793A00783A0043757276653AC1
:1043B0000009736C6F70653A0009793A00783A0029
:1043C00043757276653A0009736C6F70653A00093F
:1043D000793A00783A0043757276653A0009736C51
:1043E0006F70653A0009793A00783A004375727641
:1043F000653A0009736C6F70653A0009793A007884
:104400003A0043757276653A0009736C6F70653ACD
:104410000009793A00783A0043757276653A0043AC
:10442000616C6962726174696F6E204641494C45E6
:10443000440A0043616C6962726174696F6E207333
:1044400075636365737366756C0A005363616C69A9
:104450006E675B25755D3A20252E326620252E324B
:104460006620252E32660A004F6666736574735B9C
:1044700025755D3A20252E326620252E32662025B0
:104480002E32660A004661696C656420746F20678D
:10449000657420494E532073616D706C650A00503D
:1044A0006C6163652076656869636C6520255320BF
:1044B000616E6420707265737320616E79206B6524
:1044C000792E0A006F6E20697473204241434B00BD
:1044D0006E6F7365205550006E6F736520444F57A3
:1044E0004E006F6E20697473205249474854207300
:1044F000696465006F6E20697473204C45465420D2
:1045000073696465006C6576656C0020002A00495B
:104510006E697420416363656C006779726F5B2517
:10452000755D20646964206E6F7420636F6E7665BC
:104530007267653A20646966663D2566206470731B
:104540000A002A00496E6974204779726F000200E0
:1045500050524F445543545F49440000000000004E
:104560000026000000000005014143435343414C35
:104570000000000000000000000028000000000013
:1045800005024143434F464653000000000000002F
:1045900000000034000000000005034759524F4658
:1045A0004653000000000000000000004000000032
:1045B000000001044D5055364B5F46494C5445525E
:1045C00000000000004C000000000000FF000000A0
:1045D00000000000000000000000000000000000DB
:1045E000000000004661696C656420746F20626F92
:1045F0006F74204D50553630303020352074696D41
:104600006573004D5055363030303A20556E61623A
:104610006C6520746F206765742073656D617068C8
:104620006F72650050414E49433A2041505F496ED8
:1046300065727469616C53656E736F725F4D50552E
:10464000363030303A3A5F706F6C6C5F6461746121
:10465000206661696C656420746F2074616B6520ED
:104660005350492073656D6170686F72652073796E
:104670006E6368726F6E6F75736C790050414E494E
:10468000433A206661696C656420746F20626F6FC5
:1046900074204D50553630303020352074696D65AA
:1046A00073004D505536303030207374617274751C
:1046B00070206661696C65643A206E6F2064617475
:1046C00061207265616479004D5055363030303A62
:1046D00020556E61626C6520746F2067657420736D
:1046E000656D6170686F72650054696D6564206FF7
:1046F00075742077616974696E6720666F722075C2
:1047000073657220726573706F6E73650004024783
:1047100050535F4741494E00000000000000000078
:1047200024000000803F01034750535F555345006C
:104730000000000000000000002C000000803F048A
:10474000045941575F5000000000000000000000C5
:1047500000001C00CDCC4C3E040552505F500000C0
:1047600000000000000000000000002000CDCC4C44
:104770003E010657494E445F4D415800000000007D
:10478000000000002D000000000005085452494DB3
:10479000000000000000000000000000003E0000DB
:1047A00000000001094F5249454E544154494F4EB3
:1047B0000000000000002E0000000000040A434F2B
:1047C0004D505F42455441000000000000000028A9
:1047D00000CDCCCC3D010B4750535F4D494E53416A
:1047E00054530000000000002F000000C040010CE6
:1047F0004750535F44454C41590000000000000001
:104800000030000000803F00FF00000000000000BA
:104810000000000000000000000000000000000098
:104820000400500000000000000000000000000034
:10483000000000000000000000040149000000002A
:104840000000000000000000000000000400000064
:1048500000000202494D4158000000000000000025
:10486000000000000008000000000000FF00000041
:104870000000000000000000000000000000000038
:1048800000000000040050000000000000000000D4
:1048900000000000000000000000000000040149CA
:1048A0000000000000000000000000000000000008
:1048B00004000000000004024400000000000000AA
:1048C00000000000000000000008000000000002DE
:1048D00003494D41580000000000000000000000A6
:1048E00000000C000000000000FF000000000000BD
:1048F00000000000000000000000000000000000B8
:104900000002004D494E00000000000000000000C1
:10491000000000000A000080894402015452494D01
:10492000000000000000000000000000000C00007B
:1049300080BB4402024D415800000000000000000E
:104940000000000000000E000080ED44010352450D
:1049500056000000000000000000000000000010F1
:10496000000000803F0205445A00000000000000E3
:10497000000000000000000011000000000000FF27
:104980000000000000000000000000000000000027
:10499000000000000000000800000000000000000F
:1049A00000000000000000000000000001490000BD
:1049B000010146554E4354494F4E0000000000008F
:1049C0000000001D000000000000FF0000000000CB
:1049D00000000000000000000000000000000000D7
:1049E000000002015356315F504F53000000000099
:1049F00000000000006C00000070C202025356323A
:104A00005F504F53000000000000000000006E00E7
:104A10000000704202035356335F504F53000000B2
:104A20000000000000000070000000344302045247
:104A30004F4C5F4D41580000000000000000000096
:104A4000720000401C4502055049545F4D4158001A
:104A5000000000000000000000740000401C45023F
:104A600006434F4C5F4D494E00000000000000001F
:104A70000000760000409C440207434F4C5F4D41CC
:104A80005800000000000000000000780000C0DABC
:104A9000440208434F4C5F4D4944000000000000B1
:104AA000000000007A000080BB4402095441494CD8
:104AB0005F5459504500000000000000007C0000D9
:104AC000000000010A53574153485F5459504500B4
:104AD0000000000000007E0000000000020B4759AB
:104AE000525F4741494E0000000000000000007F77
:104AF000000000AF43010C53565F4D414E000000D3
:104B00000000000000000000810000000000020D15
:104B10005048414E47000000000000000000000027
:104B200000820000000000020E434F4C5941570024
:104B300000000000000000000000840000000000F1
:104B4000020F5253435F534554504F494E54000097
:104B500000000086000000FA4301105253435F4DED
:104B60004F444500000000000000000088000000E5
:104B7000803F0112464C594241525F4D4F4445001F
:104B800000000000008B000000000002154C414EA8
:104B9000445F434F4C5F4D494E00000000008C00C5
:104BA0000000000001165253435F52414D505F54C4
:104BB000494D450000000089000000803F01175268
:104BC00053435F52554E55505F54494D45000000C8
:104BD0008A000000204102185441494C5F5350455F
:104BE0004544000000000000008E000000FA430071
:104BF000FF000000000000000000000000000000B6
:104C0000000000000000000041505F4D6F746F72A3
:104C1000733A206661696C656420746F2063726505
:104C2000617465207468726F74746C65206375724A
:104C30007665000101544352565F454E41424C4552
:104C400000000000000030000000803F01025443DB
:104C500052565F4D4944504354000000000000315B
:104C600000000050420103544352565F4D415850DA
:104C7000435400000000000032000000BA42020568
:104C80005350494E5F41524D454400000000000022
:104C900000330000008C4200FF0000000000000014
:104CA0000000000000000000000000000000000004
:104CB000010050494E00000000000000000000000C
:104CC000000000000000005041010150494E320038
:104CD00000000000000000000000000001000000D3
:104CE00080BF010250494E33000000000000000068
:104CF00000000000000200000080BF010350494E88
:104D0000340000000000000000000000000003006C
:104D1000000080BF00FF0000000000000000000055
:104D2000000000000000000000000000000401542A
:104D3000435F585900000000000000000000000020
:104D4000140000002040040254435F5A0000000099
:104D500000000000000000000065000000A040000E
:104D6000FF00000000000000000000000000000044
:104D700000000000000000000400535045454400BE
:104D8000000000000000000000000011000000FA18
:104D90004304015241444955530000000000000003
:104DA000000000001D000000484304025350454528
:104DB000445F555000000000000000000015000096
:104DC000007A43040353504545445F444E000000BD
:104DD00000000000000019000000164304044C4FBE
:104DE00049545F5350454544000000000000000D49
:104DF000000000FA430405414343454C0000000015
:104E0000000000000000000021000000C84200FF78
:104E10000000000000000000000000000000000092
:104E20000000000000000080114011407132733416
:104E300033321312113211129334131453523100BE
:104E400021030406080B2D0A090705040241C011BD
:104E5000C0511253547312111251527314733231E0
:104E600000210204050607080908060706240302B4
:104E70000102000120012011C00111003132137420
:104E800013143312F112D312510001022325060725
:104E900046442342210001E0A0313213B433111201
:104EA000110011201100523312133211200122245B
:104EB00085042304020342410001E0A051121413AF
:104EC00015131534133251400120115213323100A1
:104ED000012223040504050423010382612001E06B
:104EE0001180113213541514333231402102010064
:104EF0003172314102234423020122012201026165
:104F00004001A01180511214133415143312314092
:104F10000102010302012052111220212243042226
:104F200041022102A10001E02011405153741332CB
:104F3000114021020302030201001112113200117B
:104F40004122232221004102A18001601160110051
:104F50001132337413121140016203020321311222
:104F60001112114001020102030201000100E121BE
:104F7000E0A011201211733433312001620362402A
:104F80001211121100110100010201220001200181
:104F900000E1C0010011801100121113121413342A
:104FA000522001E2022120311211001100010021E2
:104FB0000201000140210002410001E060114011A6
:104FC000121113121413141332110021220342017F
:104FD00002210001001100121100112001004160A6
:104FE0000100C10001401120016011405112131253
:104FF0001314331231000142032201022100014047
:105000001100310011000100010001A0E10001A028
:105010000180112031529312110021C22100214040
:10502000310011201100010001E0E16001E01100F8
:10503000117273123100214203010201022021404A
:1050400011001120116001401160010001022102D4
:10505000000120014001A0513213125332112001EE
:10506000020182210021000100110031E000110045
:105070001160210001020102010100212001000153
:1050800060110011521312141352110041820102D7
:1050900000010021401100110011A0110031001188
:1050A0002081220101000201002100016011005253
:1050B00013121314133231010002012201420100C4
:1050C0002100010001112011001120114071001177
:1050D0004001022102010201002102210001000120
:1050E0000011001211123312341332112001020187
:1050F0004201220100410001601120110011001144
:1051000000511231206102012202000201028120BD
:105110001100121173341332110041020182010097
:1051200061000180110011009132314021420102E1
:105130000200626140115214135433310041820164
:105140002200010200410001609112115251200120
:10515000220103010202008261005133541514330D
:1051600031002102012203424102A1803192133217
:105170003100412203020103002203220102014007
:1051800011123395333101002201034203222122FF
:10519000010261000111001152131253123100413A
:1051A00022032203002302030201022120321314EE
:1051B000161517161533112001620302030203228C
:1051C00001A24140111253141314133211010002B1
:1051D0000102030203020200022302032221203201
:1051E0001416371817151312110021220302430257
:1051F00043010302038221201112131415341514E4
:105200003211000162230203004302034201201213
:10521000131518193A17151311002102030263041C
:10522000E3020302030201024012131415171516BC
:10523000341220212243020300A32201001112157F
:10524000181C1E1D1916131100020103020304236A
:105250000403240304430423040302034220111221
:1052600014151718361513312102030223020324E3
:105270001E191512100E0C0B0A0909090808080757
:1052800006060504040403040404000000000000F2
:105290000000000027262123252325242722292A50
:1052A0002A1C27282B33322725222C333130370074
:1052B00000000000000000000000000001FFFFE00F
:1052C00000000000000001FFFFF0000000000000EF
:1052D00001FFFFF800000000000001FFFFFE0000DA
:1052E0000000000003FFFFFF00000000000003FFBC
:1052F000FFFFF000000000000FFFFFFFFE000000B6
:1053000003FFFFFC000007FC00007FFFFFFC000024
:1053100000000000001FFFFE000000000096918CBE
:1053200087827D78736E69645F5A55504B46413C65
:1053300037322D28231E19140F0A050004090E13F5
:10534000181D22272C31363B40454A4F54595E6385
:10535000686D72777C81868B90959A9FA4A9AEB375
:10536000AFAAA5A09B968F89837E78736E69645FD0
:105370005A55504B47423E3935302C27231F1B16B8
:10538000120E09050103070B1014191D22262B2FDD
:1053900034393D42474C51565B60656B70757B807C
:1053A000868C92979DA3A9AFB2ACA6A09A948F8247
:1053B0007C76706B65605C57524E4A46413D39368B
:1053C000322E2A26221F1B1713100C080401020676
:1053D0000A0E12161A1E22262B2F33383D41464B39
:1053E0004F54595E64696F747A80878D949BA2AA2A
:1053F000B1AEA69F979089826F68635E5955514DF3
:105400004946423F3C3835322E2B2824211E1A179C
:1054100014100D0A0603000306090D1014181C20B1
:1054200024282C3034393D41464A4F54585D626738
:105430006D737980878F98A2ACB0A59A90867D769F
:105440006F55514D4A4744413F3C3A383533312E30
:105450002B292623201D1A1713100D0A07040101FA
:105460000306090D1013171A1E22262A2E32363A69
:105470003E42464A4E53575B5F64696E757C859029
:105480009FB2A08D7D7067605A553E3C3A393736E1
:10549000343332302F2E2C2A292724221F1C191690
:1054A00013100D0A070402000305080A0D10131655
:1054B0001A1D2125292D3135383C4043464A4D508F
:1054C0005356595B5E6165696F826D544D4A47441E
:1054D00042403E2E2E2D2C2C2B2A2A2929282726E5
:1054E000252423211F1C1A1714100D0A070401017B
:1054F000030507090C0E1013161A1D2124282C3041
:1055000033373A3D40424447484A4A4B4A48443D73
:105510003019021621282B2D2E2F2E2E06090C0FA6
:10552000121517191B1C1B1811040E2231383C3C94
:105530003C3A3835322F2B2824201C1915110D091F
:10554000050102060A0E1115181C1F222527292AFB
:105550002B2B2926211911080004080A0A0A08071A
:10556000040200030616181A1C1E20211F171251D0
:105570006063625F5D5956524E4A46423E3935314C
:105580002C2824201B17130E0A060102060A0F13EB
:10559000171B1F23262A2D313437393C3D3F3F3E10
:1055A0003D39352F28211C17151313131416A8ADD8
:1055B000B2B0ABA6A19C97928D88837E79746F6AF6
:1055C00065605B56514C47423D38332E29241F1AE3
:1055D00015100B060103080D12171C21262B303560
:1055E0003A3F44494E53585D62676C71767B8085C3
:1055F0008A8F94999EA3A80100454E41424C4500D4
:105600000000000000000000000002000000000098
:105610000101545950450000000000000000000046
:105620000000000300000040400102414354494F84
:105630004E00000000000000000000000400000018
:10564000803F0403414C545F4D415800000000006E
:10565000000000000005000000C84204045241445C
:105660004955530000000000000000000000090040
:105670000000164304054D415247494E000000000A
:10568000000000000000000D000000004000FF00CE
:10569000000000000000000000000000000000000A
:1056A0000000000000005363686564756C6572203B
:1056B0006F76657272756E207461736B5B25755DB4
:1056C000202825752F2575290A00536368656475A0
:1056D0006C657220736C6970207461736B5B2575E7
:1056E0005D202825752F25752F2575290A000100B5
:1056F0004445425547000000000000000000000043
:105700000000000000000000FF000000000000009A
:105710000000000000000000000000000000000089
:105720000100524F4C4C000000000000000000003F
:1057300000000000000000803F0101504954434830
:105740000000000000000000000000000100000058
:10575000004001025448524F54544C450000000090
:1057600000000000000300000040400103594157C1
:105770000000000000000000000000000000020027
:105780000000804000FF000000000000000000005A
:105790000000000000000000000000000001004DBB
:1057A0004F4E49544F52000000000000000000001E
:1057B0000000000000000101564F4C545F50494E5C
:1057C0000000000000000000000100000050410146
:1057D00002435552525F50494E0000000000000045
:1057E00000000200000040410403564F4C545F4D3E
:1057F000554C54000000000000000003009A99215D
:10580000410404414D505F504552564F4C540000E6
:10581000000000000700000088410405414D505F72
:105820004F4646534554000000000000000B0000A6
:105830000000000306434150414349545900000011
:105840000000000000000F0000404E4500FF000077
:105850000000000000000000000000000000000048
:10586000000000000000FF00000000000000000039
:105870000000000000000000000000000000415097
:105880005F4F53445F4D4158373435363A3A77725B
:105890006974655F4E564D28292063616E206E6FD6
:1058A00074206765742073656D0A0041505F4F5323
:1058B000445F4D4158373435363A3A73686F774113
:1058C0007431485A28292063616E206E6F742067F6
:1058D00065742073656D0A0041505F4F53445F4DFE
:1058E0004158373435363A3A73686F7741743348E4
:1058F0005A28292063616E206E6F742067657420BA
:1059000073656D0A0041505F4F53445F4D415837F6
:105910003435363A3A73686F7741743130485A28D3
:10592000292063616E206E6F742067657420736533
:105930006D0A00DA20202020202020202020202096
:10594000DB00DA202020202020202020202020DB47
:105950007C00D8202020202020202020202020D99A
:105960007C00DA202020202020202020202020DB86
:105970007C00DA202020202020202020202020DB76
:105980007C0041505F4F53445F4D415837343536AA
:105990003A3A636C65617228292063616E206E6FEC
:1059A00074206765742073656D0A0050414E494349
:1059B0003A2041505F4F53445F4D4158373435369C
:1059C0003A206661696C656420746F2074616B6550
:1059D0002073657269616C2073656D6170686F72A8
:1059E0006520666F7220696E69740001005350452E
:1059F00045440000000000000000000000004600D8
:105A00000000803F0101414C544954554445000079
:105A10000000000000000047000000803F01025429
:105A200048524F54544C4500000000000000000054
:105A300048000000803F01035049544348000000E3
:105A400000000000000000000049000000803F014D
:105A500004524F4C4C000000000000000000000009
:105A600000004A000000803F0105484F4D450000FE
:105A700000000000000000000000004B000000805B
:105A80003F01064D4F4445000000000000000000AB
:105A9000000000004C000000803F010754494D45C4
:105AA000000000000000000000000000004D0000A9
:105AB00000803F0108484F52495A4F4E00000000F5
:105AC0000000000000004E000000803F0109475028
:105AD000535F534154530000000000000000004F8A
